:020000040800F2
:100000000000012039490008790600087D06000833
:100010008106000885060008890600080000000027
:10002000000000000000000000000000E11E0008C9
:100030008D06000800000000811F0008E51F000871
:100040008949000889490008894900088949000848
:100050008949000889490008894900088949000838
:100060008949000889490008894900088949000828
:100070008949000889490008894900088949000818
:1000800089490008894900088949000800000000E2
:100090000000000000000000000000008949000886
:1000A0009106000889490008894900088949000823
:1000B00089490008894900088949000889490008D8
:1000C00089490008894900088949000889490008C8
:1000D0008949000889490008894900080000000092
:1000E0008949000889490008894900080000000082
:1000F0000000000000000000000000008949000826
:100100000000000089490008894900088949000861
:1001100000000000000000000000000000000000DF
:100120008949000889490008894900088949000867
:1001300089490008000000000000000000000000E5
:10014000000000000000000000000000A106000800
:100150008949000889490008894900088949000837
:1001600089490008894900080000000000000000DB
:10017000000000000000000000000000000000007F
:100180000000000089490008000000000000000095
:040190008949000891
:1001A00010B5054C237833B9044B13B10448AFF3B1
:1001B00000800123237010BDE80100200000000032
:1001C000A04B0008084B10B51BB108490848AFF315
:1001D00000800848036803B910BD074B002BFBD013
:1001E000BDE81040184700BF00000000EC010020EF
:1001F000A04B0008E80100200000000053B94AB9F4
:10020000002908BF00281CBF4FF0FF314FF0FF301E
:1002100000F07EB9ADF1080C6DE904CE00F006F8EF
:10022000DDF804E0DDE9022304B070472DE9F04772
:100230008C460E460446089D002B50D18A42174634
:100240006CD9B2FA82FEBEF1000F0BD0CEF12004C1
:1002500020FA04F401FA0EF644EA060C02FA0EF74C
:1002600000FA0EF44FEA1749220CBCFBF9F01FFA12
:1002700087F809FB10C642EA064600FB08F3B342C2
:1002800009D9F61900F1FF3280F02281B34240F221
:100290001F8102383E44F61AA2B2B6FBF9F309FBFD
:1002A000136642EA064403FB08F8A04509D9E4199D
:1002B00003F1FF3280F00A81A04540F20781023B42
:1002C0003C44C8EB040443EA00400021002D62D006
:1002D00024FA0EF400232C606B60BDE8F0878B429B
:1002E00007D9002D55D0002185E841000846BDE81A
:1002F000F087B3FA83F1002940F09080B34202D333
:10030000824200F2F880841A66EB03060120B446AC
:10031000002D40D085E81010BDE8F08712B9012704
:10032000B7FBF2F7B7FA87FEBEF1000F35D1F31B2A
:100330004FEA17481FFA87FC0121B3FBF8F0220CA3
:1003400008FB103642EA06460CFB00F3B34207D91D
:10035000F61900F1FF3202D2B34200F2CE8010460D
:10036000F61AA2B2B6FBF8F308FB136642EA06449B
:100370000CFB03FCA44507D9E41903F1FF3202D2B8
:10038000A44500F2B5801346CCEB040443EA0040D8
:100390009CE729462846BDE8F087CEF1200106FA01
:1003A0000EF307FA0EF720FA01F94FEA1748CE408C
:1003B00049EA0309B6FBF8FA4FEA194408FB1A6642
:1003C0001FFA87FC44EA06430AFB0CF29A4200FA41
:1003D0000EF40AD9DB190AF1FF3180F087809A42C6
:1003E00040F28480AAF1020A3B449B1A1FFA89F961
:1003F000B3FBF8F108FB113349EA034301FB0CF6A8
:100400009E4207D9DB1901F1FF326BD29E4269D9B6
:1004100002393B449B1B41EA0A418EE7C1F1200EA1
:1004200022FA0EF48B40234320FA0EF706FA01F469
:100430004FEA134C26FA0EF63C43B6FBFCF9270CA8
:100440000CFB19661FFA83F847EA064609FB08F712
:10045000B74202FA01F200FA01FA08D9F61809F1D6
:10046000FF3041D2B7423FD9A9F102091E44F61B21
:10047000A0B2B6FBFCF40CFB146640EA064704FB92
:1004800008F8B84507D9FF1804F1FF3028D2B8455D
:1004900026D9023C1F4444EA0940C8EB0707A0FBE9
:1004A00002894F4544464E4614D329D065B3BAEB72
:1004B000040367EB060707FA0EFECB40CF404EEA77
:1004C000030385E888000021BDE8F0871346F8E6BD
:1004D0001046E0E6B8EB020469EB03060138E5E7F5
:1004E0000446D8E7114695E78146C0E78A467CE78F
:1004F000023B3C4448E708460AE702383E442FE7FF
:10050000C245E7D33E46D1E72946BDE8F08700BFA4
:10051000704700BF08B50268024B9A4201D100F053
:10052000ABFD08BD0040014072B6FEE700B595B0D6
:100530003022002108A804F05FFA002303930493FB
:100540000593069307930193204A116C41F0805163
:100550001164126C02F080520192019A02931C4ABB
:10056000136823F4404343F400431360136803F417
:1005700040430293029B012308934FF48033099375
:1005800002230E934FF480020F92192210929022B0
:10059000119212930323139308A800F0E7F808B10F
:1005A000FFF7C2FF0F230393022104910023059359
:1005B0004FF480520692079303A800F033FB08B172
:1005C000FFF7B2FF15B05DF804FB00BF0038024032
:1005D0000070004008B500F035FDFFF7A7FF00F000
:1005E00005F800F033F801F0C5FAFEE782B000210B
:1005F00000910B4B1A6B42F080021A631A6B02F0E7
:1006000080020092009A01911A6B42F001021A6373
:100610001B6B03F001030193019B02B0704700BF05
:100620000038024008B501F097FD012001F0DEFA24
:10063000FBE700BF034B0360034B0B608023136099
:10064000704700BF040400200402002030B589B0C8
:1006500001AC074D0FCD0FC495E8070084E80700F3
:10066000002101A801F08CFA024B186009B030BDDE
:10067000B84B0008B0410020FEE700BFFEE700BF16
:10068000FEE700BFFEE700BFFEE700BF704700BF08
:1006900008B5024800F032FD08BD00BFB44100209B
:1006A00008B5024802F044F908BD00BF984E00208A
:1006B00000B583B0002200920D4B596C41F480418B
:1006C0005964596C01F48041009100990192196CB0
:1006D00041F0805119641B6C03F080530193019B1E
:1006E0000F216FF0010000F06DFC03B05DF804FB1A
:1006F0000038024010B588B000220146182000F0F2
:1007000061FC182000F090FC00240194134B5A6CFB
:1007100042F480325A645B6C03F480330193019B92
:1007200002A903A800F048FB00F036FB0C4BA3FB2A
:1007300000239B0C013B0B480B4A026040F2E7325E
:10074000C26043600461846000F0DEFD18B90548B2
:1007500000F0BAFC00E0012008B010BD00380240F3
:1007600083DE1B43B441002000400140002800F01C
:10077000D78170B582B00446036813F0010F5AD0D8
:10078000A04B9B6803F00C03042B0AD09D4B9B6885
:1007900003F00C03082B0DD19A4B5B6813F4800F08
:1007A00008D0984B1B6813F4003F44D06368002BBB
:1007B00041D1B7E16368B3F5803F05D1914A136831
:1007C00043F48033136015E0B3F5A02F09D18D4BAE
:1007D0001A6842F480221A601A6842F480321A6061
:1007E00008E0884B1A6822F480321A601A6822F4F2
:1007F00080221A6063687BB100F04AFC054605E080
:1008000000F046FC401B642800F28E817D4B1B6883
:1008100013F4003FF4D00EE000F03AFC054605E08A
:1008200000F036FC401B642800F28081754B1B6889
:1008300013F4003FF4D1236813F0020F50D0714B32
:100840009B6813F00C0F0AD06E4B9B6803F00C03EF
:10085000082B16D16B4B5B6813F4800F11D1694BD9
:100860001B6813F0020F03D0E368012B40F0608196
:10087000644A136823F0F803216943EAC103136053
:100880002EE0E368D3B101225F4B1A6000F000FC58
:10089000054605E000F0FCFB401B022800F24A81FF
:1008A000584B1B6813F0020FF4D0564A136823F01C
:1008B000F803216943EAC103136011E00022524B9F
:1008C0001A6000F0E5FB054605E000F0E1FB401B87
:1008D000022800F231814B4B1B6813F0020FF4D158
:1008E000236813F0080F26D0636993B10122474BA8
:1008F0001A6000F0CDFB054605E000F0C9FB401B87
:10090000022800F21B813F4B5B6F13F0020FF4D003
:1009100011E000223D4B1A6000F0BAFB054605E0ED
:1009200000F0B6FB401B022800F20A81354B5B6FDA
:1009300013F0020FF4D1236813F0040F7DD0314B74
:100940001B6C13F0805F0DD1002301932D4B1A6CAB
:1009500042F080521A641B6C03F080530193019B98
:10096000012500E000252A4B1B6813F4807F13D17A
:10097000274A136843F48073136000F089FB06462E
:1009800005E000F085FB801B022800F2DB80204B95
:100990001B6813F4807FF4D0A368012B05D1194A9A
:1009A000136F43F00103136714E0052B09D1154BB6
:1009B0001A6F42F004021A671A6F42F001021A67B6
:1009C00008E0104B1A6F22F001021A671A6F22F02A
:1009D00004021A67A3688BB100F05AFB064607E0D1
:1009E00000F056FB801B41F28833984200F2AC8045
:1009F000044B1B6F13F0020FF2D018E000F048FB1D
:100A000006460FE00038024000004742800E474291
:100A10000070004000F03CFB801B41F2883398429C
:100A200000F29480554B1B6F13F0020FF2D125B1E9
:100A3000524A136C23F080531364A369002B00F017
:100A400087804E4A926802F00C02082A48D0022B96
:100A500033D100224A4B1A6000F01AFB054604E02D
:100A600000F016FB401B022874D8444B1B6813F09F
:100A7000007FF5D1E269236A1343626A43EA821375
:100A8000A26A5208013A43EA0243E26A43EA026375
:100A90003A4A536001223A4B1A6000F0F9FA0446D0
:100AA00004E000F0F5FA001B022855D8334B1B6810
:100AB00013F0007FF5D000205DE00022304B1A607B
:100AC00000F0E6FA044604E000F0E2FA001B022817
:100AD00044D82A4B1B6813F0007FF5D100204AE070
:100AE000012B3DD0254B5B6803F48001E269914204
:100AF00038D103F03F02216A8A4235D1616A47F654
:100B0000C0721A408A4231D103F44032A16A8A424B
:100B10002ED103F07063E26A93422BD001202AE0C9
:100B200001207047012026E0032024E0032022E07A
:100B3000012020E003201EE003201CE003201AE037
:100B4000032018E0032016E0032014E0032012E045
:100B5000002010E003200EE003200CE003200AE058
:100B6000012008E0012006E0012004E0012002E06D
:100B7000012000E0002002B070BD00BF003802403C
:100B80006000474238B5244B9B6803F00C03042BEC
:100B90003FD0082B01D0214838BD1F4B5A6802F0C6
:100BA0003F025B6813F4800F0AD01B4B5968C1F3F6
:100BB000881100231A48A1FB0001FFF71FFB1FE06B
:100BC000154B5B68C3F38813DC000025690141EA1B
:100BD000D4616001041B61EB0505A90141EA946140
:100BE000A001001B61EB0501C01841F100018B025F
:100BF00043EA90538402204619460023FFF7FEFA89
:100C0000054B5B68C3F3014301335B00B0FBF3F0BA
:100C100038BD034838BD00BF003802400024F4004E
:100C200040787D01002800F0988070B50446524B52
:100C30001B6803F00F038B4208D2CBB24E4A1370ED
:100C4000136803F00F03994240F08980236813F082
:100C5000020F17D013F0040F04D0484A936843F4EE
:100C6000E0539360236813F0080F04D0434A93685D
:100C700043F4604393604148836823F0F002A36823
:100C8000134383600D46236813F0010F2FD0626871
:100C9000012A05D1394B1B6813F4003F0ED160E0E7
:100CA000931E012B05D8354B1B6813F0007F05D12F
:100CB00059E0324B1B6813F0020F56D02F498B6856
:100CC00023F0030313438B6000F0E2F9064606E0CD
:100CD00000F0DEF9801B41F28833984247D8274B59
:100CE0009B6803F00C036268B3EB820FF0D1224BD8
:100CF0001B6803F00F039D4207D2EAB21E4B1A7025
:100D00001B6803F00F039D4233D1236813F0040FD7
:100D100006D01A498B6823F4E052E36813438B60D2
:100D2000236813F0080F07D0144A936823F4604334
:100D3000216943EAC1039360FFF724FF0F4B9B68CF
:100D4000C3F303130E4AD35CD8400E4B18600E4B0E
:100D50001868FFF7CFFC002070BD0120704701200C
:100D600070BD012070BD012070BD012070BD032049
:100D700070BD012070BD00BF003C02400038024041
:100D8000E04B00080800002000000020014B18681C
:100D9000704700BF0800002008B5FFF7F7FF044BBD
:100DA0009B68C3F34233034AD35CD84008BD00BFFD
:100DB00000380240F04B00080F2303600B4B9A6889
:100DC00002F0030242609A6802F0F00282609A68C0
:100DD00002F4E052C2609B68DB0803F4E053036155
:100DE000034B1B6803F00F030B6070470038024091
:100DF000003C02402DE9F04182B00023C1E0012215
:100E00009A400C6802EA0405AA4240F0B9804C6896
:100E1000661E012E03D9112C01D0122C15D1876822
:100E20004FEA430E032606FA0EF627EA0606CC68BA
:100E300004FA0EF434438460446824EA02024C68E5
:100E4000C4F300149C4022434260C6685F00032440
:100E5000BC40E44306EA04028E68BE401643C66006
:100E60004A68022A01D0122A13D1DE08083650F847
:100E7000268003F007024FEA820E0F2202FA0EF2DA
:100E800028EA020C0A6902FA0EF24CEA020240F861
:100E90002620066826404A6802F0030404FA07F296
:100EA000324302604A6812F0805F69D000220192EA
:100EB000374A546C44F480445464526C02F48042C7
:100EC0000192019A9E08B41C324A52F8244003F061
:100ED000030292000F27974024EA07072E4CA042F6
:100EE00011D004F58064A0420FD004F58064A042C4
:100EF0000DD004F58064A0420BD004F58064A042BC
:100F000009D1042408E0002406E0012404E00224BE
:100F100002E0032400E0072404FA02F23A43023616
:100F20001C4C44F826201D4A1468EA4304EA0206D1
:100F30004F6817F4803F01D045EA0406174C26603D
:100F4000646802EA04064F6817F4003F01D045EADE
:100F50000406124C6660A46802EA04064F6817F49F
:100F6000801F01D045EA04060C4CA660E4682240CC
:100F70004E6816F4001F01D045EA0402074CE260F7
:100F800001330F2B7FF63BAF02B0BDE8F08100BF0D
:100F9000003802400038014000000240003C01409F
:100FA000074AD36823F4E0631B041B0C000200F41F
:100FB000E060184340F0BF6040F40030D0607047FC
:100FC00000ED00E030B4164BDB68C3F30223C3F13D
:100FD0000704042C28BF04241D1D062D01D9DD1E85
:100FE00000E00025012303FA04F4013C2140A9405C
:100FF000AB40013B1A400A43002808DB1201D2B281
:1010000000F1604000F5614080F8002305E000F049
:101010000F001201D2B2034B1A5430BC704700BF0C
:1010200000ED00E014ED00E0002808DB420900F0CC
:101030001F00012303FA00F0014B43F82200704720
:1010400000E100E008B50B4B1A6842F400721A6028
:101050001A6842F480621A601A6842F480721A6058
:101060000320FFF79DFF0020FFF744FBFFF720FB65
:10107000002008BD003C0240034A13680349097878
:101080000B441360704700BFF441002004000020AF
:10109000014B1868704700BFF441002038B5044682
:1010A000FFF7F6FF0546B4F1FF3F02D0044B1B7873
:1010B0001C44FFF7EDFF401B8442FAD838BD00BF47
:1010C00004000020704700BF0268D36843F00103AA
:1010D000D3600268936803F00703062B03D01368FC
:1010E00043F0010313600020704700BF704700BF4A
:1010F000704700BF704700BF704700BF10B504467F
:1011000003681A6912F0020F17D0DA6812F0020FA2
:1011100013D06FF002021A610123037703689B6901
:1011200013F0030F02D0FFF7E3FF04E0FFF7DEFF49
:101130002046FFF7DFFF0023237723681A6912F0A8
:10114000040F19D0DA6812F0040F15D06FF0040202
:101150001A610223237723689B6913F4407F03D02D
:101160002046FFF7C5FF05E02046FFF7BFFF2046FA
:10117000FFF7C0FF0023237723681A6912F0080FD6
:1011800019D0DA6812F0080F15D06FF008021A6152
:10119000042323772368DB6913F0030F03D0204671
:1011A000FFF7A6FF05E02046FFF7A0FF2046FFF768
:1011B000A1FF0023237723681A6912F0100F19D0BA
:1011C000DA6812F0100F15D06FF010021A610823C0
:1011D00023772368DB6913F4407F03D02046FFF7B1
:1011E00087FF05E02046FFF781FF2046FFF782FFDB
:1011F0000023237723681A6912F0010F09D0DA68F7
:1012000012F0010F05D06FF001021A612046FFF7BE
:1012100081F923681A6912F0800F09D0DA6812F098
:10122000800F05D06FF080021A61204600F08AF826
:1012300023681A6912F0400F09D0DA6812F0400FE3
:1012400005D06FF040021A612046FFF755FF236872
:101250001A6912F0200F09D0DA6812F0200F05D0B9
:101260006FF020021A61204600F06AF810BD00BF3E
:101270000368244A90420ED0B0F1804F0BD0A2F503
:101280007C42904207D002F58062904203D002F582
:101290008062904203D123F070034A681343194AD5
:1012A00090421AD0B0F1804F17D0A2F57C42904204
:1012B00013D002F5806290420FD002F58062904216
:1012C0000BD002F59A32904207D002F5806290422C
:1012D00003D002F58062904203D123F44073CA68C0
:1012E000134323F080034A69134303608B68C3628E
:1012F0000B688362034B984201D10B69036301239E
:101300004361704700000140B8B110B5044690F841
:101310003D3013F0FF0F04D1002380F83C30FFF77D
:10132000D1FE022384F83D30211D2068FFF7A0FF85
:10133000012384F83D30002010BD0120704700BF1C
:10134000704700BF704700BF054BD3F8882042F4B8
:101350007002C3F888204FF000629A60704700BFA7
:1013600000ED00E000F1080343604FF0FF328260BF
:10137000C360036100230360704700BF0023036163
:10138000704700BF43684B609A688A609A685160F2
:1013900099600861036801330360704730B40D68D9
:1013A000B5F1FF3F01D1026907E000F1080200E05A
:1013B0001A4653681C68A542FAD253684B6099607C
:1013C0008A605160086103680133036030BC704774
:1013D00003694268816891608268416851605A6817
:1013E000904201D182685A60002202611A68013A73
:1013F0001A601868704700BF084B1B681B6823B948
:101400004FF0FF32064B1A607047044B1B68DB68D5
:10141000DB685A68024B1A60704700BF580400200E
:10142000340500202DE9F04780469946089D099F24
:101430000A9C236B02F18042013A03EB820626F0FC
:10144000070641B90FE0D05CE11881F83400D15CA7
:1014500029B1013301E00A4600230F2BF3D9002301
:1014600084F8433002E0002384F83430062D00D99C
:101470000625E56265644FF0000AC4F848A0201D07
:10148000FFF77CFF04F11800FFF778FF2461C5F136
:101490000705A5616462C4F84CA084F850A04A46D0
:1014A0004146304600F004FD206007B13C60BDE8D5
:1014B000F08700BF38B5002407E004EB84029300F6
:1014C0000E481844FFF74EFF0134062CF5D90C4D99
:1014D0002846FFF747FF0B4C2046FFF743FF0A481B
:1014E000FFF740FF0948FFF73DFF0948FFF73AFFC4
:1014F000084B1D60084B1C6038BD00BF7C040020F9
:101500003C05002050050020180500206004002044
:1015100064050020580400207404002010B504461F
:1015200000F0F0FC204A1368013313601F4B1B6866
:101530003BB91E4B1C601368012B0DD1FFF7BAFF9E
:101540000AE01B4B1B683BB9184B1B68DA6AE36A5D
:101550009A4201D8154B1C60164A13680133136078
:10156000E36A012202FA03F1134802680A430260A7
:1015700003EB83039A00211D10481044FFF702FF7C
:1015800000F0E2FC0A4B1B686BB1084B1B68DA6A7F
:10159000E36A9A4207D24FF08052094B1A60BFF3B8
:1015A0004F8FBFF36F8F10BD100500201405002072
:1015B0005C04002038050020780500207C04002011
:1015C00004ED00E010B5044690F8513033B9006BDB
:1015D00000F0F4FB204600F0F1FB10BD012B02D11E
:1015E00000F0ECFB10BD022B08D04FF0500383F34A
:1015F0001188BFF36F8FBFF34F8FFEE710BD00BFA1
:1016000010B514E000F07EFC0B4BDB68DC68201D9D
:10161000FFF7DEFE094A1368013B1360084A1368AE
:10162000013B136000F090FC2046FFF7CBFF044B1A
:101630001B68002BE6D110BD6004002010050020BF
:101640000C05002008B5FFF7DBFF064B1B68012BDC
:10165000F9D94FF08052044B1A60BFF34F8FBFF39C
:101660006F8FF0E77C04002004ED00E070B50446C5
:101670000E461D4B1D681D4B18680430FFF7A8FE71
:1016800050B91A4B1B68DA6A012303FA02F21849AF
:101690000B6823EA02030B60B4F1FF3F07D136B1B8
:1016A000124B196804311348FFF76CFE70BD2C44CF
:1016B0000E4B1B685C60A54207D90F4B18680B4B9B
:1016C00019680431FFF76AFE70BD0C4B1868074BB0
:1016D00019680431FFF762FE094B1B689C4201D276
:1016E000074B1C6070BD00BF3005002014050020B2
:1016F00078050020640500207404002058040020B0
:101700003405002070B586B00B9D0C9C45B94FF098
:10171000500383F31188BFF36F8FBFF34F8FFEE742
:1017200044B94FF0500383F31188BFF36F8FBFF3B9
:101730004F8FFEE754260496049E542E08D04FF097
:10174000500383F31188BFF36F8FBFF34F8FFEE712
:10175000049E8CB185B12563022584F85150002583
:101760000395029405AD01950A9D0095FFF75AFE79
:101770002046FFF7D3FE01E000230593059806B04D
:1017800070BD00BF2DE9F04385B006460F461546F3
:101790009846900000F090FA60B18146542000F025
:1017A0008BFA044610B1C0F8309004E0484600F0CF
:1017B00005FB00E000249CB1002384F85130039322
:1017C00002940D9B01930C9B009343462A46394695
:1017D0003046FFF727FE2046FFF7A0FE012001E07C
:1017E0004FF0FF3005B0BDE8F08300BF10B588B002
:1017F00000240594069407AA06A905A8FEF71AFF77
:10180000059B0293069B019300942346079A0F4978
:101810000F48FFF777FF08B1012300E000239BB1D9
:101820004FF0500383F31188BFF36F8FBFF34F8FD7
:101830004FF0FF32074B1A600122074B1A6000225B
:10184000064B1A6000F000FC08B010BDF84B000811
:1018500045160008340500205C04002030050020F7
:10186000024A136801331360704700BF0805002067
:10187000F8B53B4B1B68002B65D13A4B1D68013511
:101880001D60C5B9384B1B681B6843B14FF050034E
:1018900083F31188BFF36F8FBFF34F8FFEE7324A98
:1018A0001168324B186810601960314A13680133AF
:1018B0001360FFF7A1FD2F4B1B689D4203D200244C
:1018C00036E0012400E00024274B1B681B6823B985
:1018D0004FF0FF32274B1A602AE0234B1B68DB686E
:1018E000DE6873689D4202D2224A136020E0371DF1
:1018F0003846FFF76DFDB36A1BB106F11800FFF71C
:1019000067FDF36A012202FA03F11B4802680A43E9
:10191000026003EB83039A00394618481044FFF72E
:1019200031FDF26A164B1B68DB6A9A42C9D2CBE7DB
:10193000134B1B68DB6A03EB83039A000F4B9B5826
:10194000012B06D806E00F4A136801331360002408
:1019500000E001240C4B1B6803B101242046F8BDB4
:1019600008050020300500205804002074040020E1
:101970002C05002034050020780500207C04002080
:1019800014050020780400207C05002038B5344B75
:101990001B6843B94FF0500383F31188BFF36F8F77
:1019A000BFF34F8FFEE700F0ADFA2D4B1A68013AF6
:1019B0001A601B68002B4CD12A4B1B6833BB0024D8
:1019C0004AE0294BDB68DC6804F11800FFF700FDF2
:1019D000251D2846FFF7FCFCE36A012202FA03F109
:1019E000224802680A43026003EB83039A002946F7
:1019F0001F481044FFF7C6FCE26A1E4B1B68DB6AF7
:101A00009A4204D301221C4B1A6000E00024164BBA
:101A10001B68002BD5D10CB1FFF7EEFC174B1C68EF
:101A200054B1FFF725FF10B10122134B1A60013C9E
:101A3000F7D10022114B1A600F4B1B685BB14FF0BE
:101A400080520F4B1A60BFF34F8FBFF36F8F01248B
:101A500002E0002400E0002400F076FA204638BDC1
:101A6000080500201005002018050020780500203A
:101A70007C040020140500207C0500207804002050
:101A800004ED00E010B5A8B10446104B1B6843B14B
:101A90004FF0500383F31188BFF36F8FBFF34F8F65
:101AA000FEE7FFF7DDFE00212046FFF7DFFDFFF731
:101AB0006DFF00E0002038B94FF08052044B1A60EF
:101AC000BFF34F8FBFF36F8F10BD00BF080500201D
:101AD00004ED00E01F4B1B681BB101221E4B1A6076
:101AE000704700221C4B1A601C4B1B68B3FA83F32F
:101AF000DBB2C3F11F0303EB83018A0018498A5844
:101B000042B94FF0500383F31188BFF36F8FBFF3D7
:101B10004F8FFEE730B4124D9900CA189000284448
:101B200042685468446019448A0008322A44944246
:101B300005D1606803EB83018A002A44506003EBFF
:101B400083039A00064B1A445368DA68054B1A60FF
:101B500030BC7047080500207C0500207805002077
:101B60007C04002014050020842801D00330704735
:101B70000020704708B5FFF739FE002008BD00BF00
:101B80002DE9F04387B004460F464569A5B1866943
:101B900096B1D0F80480D0F80090B0F90800FFF7B3
:101BA000E3FF22690296019500903B464946404674
:101BB000FFF7A8FD059013E065682668D4F810804B
:101BC000B4F90800FFF7D0FF05AB019300903B4646
:101BD0001FFA88F231462846FFF7D4FD012801D1CB
:101BE000059800E0002007B0BDE8F08308B508B90B
:101BF0000120FFE7FFF746FF002008BD124A12F060
:101C0000070F07D0D11D21F00701C1F57053134410
:101C10000A4601E04FF470530C4802600021416015
:101C20001344083B23F00703094803605960196017
:101C3000991A51601360074B1960074B19604FF0F8
:101C40000042064B1A60704790050020880500206E
:101C50008405002094410020800500209041002050
:101C6000134B00E013461A688242FBD310B45C6841
:101C70001919884203D141682144596018464468C3
:101C800001198A420CD10B4909688A4206D0526870
:101C9000224442601A681268026002E0016000E0BB
:101CA0000260984200D018605DF8044B704700BF96
:101CB000880500208405002070B50446FFF7D0FD9C
:101CC000394B1B680BB9FFF799FF384B1B681C4257
:101CD00053D194B1083414F0070F0ED024F0070448
:101CE000083404F0070343B14FF0500383F3118825
:101CF000BFF36F8FBFF34F8FFEE7002C3FD02C4B0D
:101D00001B689C423DD82B4B1D6801E02B461546B5
:101D10006A68944202D92A68002AF7D1224A1268D6
:101D2000954230D01E6808362A681A606B681B1B03
:101D3000102B10D9281910F0070F08D04FF05003BE
:101D400083F31188BFF36F8FBFF34F8FFEE74360BC
:101D50006C60FFF785FF6A6815490B689B1A0B607A
:101D6000154909688B4201D213490B600F4B1B6860
:101D70001A436A6000232B6006E0002604E0002678
:101D800002E0002600E00026FFF700FE16F0070F35
:101D900008D04FF0500383F31188BFF36F8FBFF368
:101DA0004F8FFEE7304670BD840500209041002033
:101DB000800500208805002094410020A0B338B59C
:101DC0000346A0F1080550F8042C1849096812EAE6
:101DD000010408D14FF0500383F31188BFF36F8FD4
:101DE000BFF34F8FFEE750F8080C40B14FF050039F
:101DF00083F31188BFF36F8FBFF34F8FFEE794B16A
:101E000088B91C4622EA010243F8042CFFF728FD9A
:101E100054F8043C064A11680B4413602846FFF747
:101E20001FFFFFF7B3FD38BD704700BF9041002092
:101E30008005002082B0002301930D4B1B68B3F195
:101E4000FF3F08D04FF0500383F31188BFF36F8F2B
:101E5000BFF34F8FFEE74FF0500383F31188BFF3BA
:101E60006F8FBFF34F8F019B002BFCD002B07047E8
:101E70000C00002008480068006880F308884FF0D4
:101E8000000080F3148862B661B6BFF34F8FBFF3D2
:101E90006F8F00DF00BF000008ED00E0DFF80C00EE
:101EA000016841F4700101607047000088ED00E0B6
:101EB0004FF0807340F8043C21F0010140F8081C09
:101EC000054B40F80C3C40F8202C6FF0020340F822
:101ED000243C4438704700BF351E00080000000055
:101EE000074B19680868B0E8F04F80F30988BFF322
:101EF0006F8F4FF0000080F311887047AFF30080C0
:101F0000140500204FF0500383F31188BFF36F8F47
:101F1000BFF34F8F0A4A136801331360012B0DD1B1
:101F2000084B1B6813F0FF0F08D04FF0500383F3EA
:101F30001188BFF36F8FBFF34F8FFEE7704700BF6D
:101F40000C00002004ED00E0094B1B6843B94FF082
:101F5000500383F31188BFF36F8FBFF34F8FFEE7FA
:101F6000013B034A13600BB983F31188704700BF2C
:101F70000C00002000000000000000000000000035
:101F8000EFF30980BFF36F8F154B1A681EF0100F27
:101F900008BF20ED108A20E9F04F10602DE90900FC
:101FA0004FF0500080F31188BFF34F8FBFF36F8F56
:101FB000FFF790FD4FF0000080F3118809BC19680D
:101FC0000868B0E8F04F1EF0100F08BFB0EC108AA0
:101FD00080F30988BFF36F8F704700BFAFF30080B5
:101FE0001405002008B54FF0500383F31188BFF3A8
:101FF0006F8FBFF34F8FFFF73BFC18B14FF080524C
:10200000024B1A60002383F3118808BD04ED00E041
:10201000084A0023136008490B60084B1B680849F5
:10202000A1FB03139B09013B06490B6007231360C7
:10203000704700BF10E000E018E000E0080000205A
:10204000D34D621014E000E03A4B1A683A4B9A42C2
:1020500008D14FF0500383F31188BFF36F8FBFF3A4
:102060004F8FFEE7334B1A68344B9A4208D14FF03A
:10207000500383F31188BFF36F8FBFF34F8FFEE7D9
:1020800010B582B02E4B1A78D2B20192FF221A708C
:102090001B78DBB28DF803309DF8033003F050035A
:1020A000284A13700722284B1A6009E0264A136851
:1020B000013B13609DF803305B00DBB28DF8033009
:1020C0009DF8033013F0800FF0D11F4B1B68032BDA
:1020D00008D04FF0500383F31188BFF36F8FBFF325
:1020E0004F8FFEE71B0203F4E063174A1360019B66
:1020F000DBB2134A1370154B1A6842F470021A606F
:102100001A6842F070421A60FFF782FF0024104BF9
:102110001C60FFF7C3FE0F4A136843F0404313608F
:10212000FFF7A8FEFFF7D6FCFFF784FE204602B0BB
:1021300010BD00BF00ED00E071C20F4170C20F4141
:1021400000E400E0984100209C41002020ED00E0E8
:102150000C00002034EF00E008B500220D490E48C5
:1021600001F016FD08B1FEF7DFF90C490A4801F04D
:102170002BFD08B1FEF7D8F90949074802F0ACFB7E
:1021800008B1FEF7D1F9044801F032FD08B1FEF7BD
:10219000CBF908BD10000020F8410020B800002055
:1021A0006000002012230B80004870474C00002084
:1021B00004230B80004870472C00002030B400231B
:1021C00010E0040F092C03D8303401F8134002E06A
:1021D000373401F8134000015C00013400250D552F
:1021E0000133DBB29342ECD330BC704738B50A4BB5
:1021F0001B680A4A14680432106818180AD0084D7F
:102200000822A91CFFF7DAFF042205F1120120467B
:10221000FFF7D4FF38BD00BF107AFF1F147AFF1FED
:102220003000002008B51A230B80FFF7DFFF0148BC
:1022300008BD00BF3000002008B50A4620B9054996
:10224000054802F079F903E00249034802F074F905
:10225000004808BDC8440020004C000810B5044CDC
:102260000A462146034802F067F9204610BD00BF28
:10227000C8440020184C000808B50A4620B9054992
:10228000054802F059F903E00249034802F054F905
:10229000004808BDC84400202C4C000808B50A4678
:1022A00020B90549054802F047F903E0024903480F
:1022B00002F042F9004808BDC8440020384C00082C
:1022C00000207047002070470020704710B5054C73
:1022D0000146204602F010FB204602F013FB0020CE
:1022E00010BD00BFF841002010B5064C0022064981
:1022F000204602F0F9FA0549204602F0FDFA0020D6
:1023000010BD00BFF8410020B04A0020C8460020A0
:1023100030B589B000230393049305930693079384
:102320000368B3F1A04F2ED100250195174C236B04
:1023300043F001032363236B03F001030193019B2B
:102340004FF4C053039302230493032306930A23F9
:10235000079303A90E48FEF74DFD636B43F080031E
:1023600063630295636C43F480436364636C03F4BA
:1023700080430293029B2A4605214320FEF722FE5A
:102380004320FEF751FE09B030BD00BF00380240C7
:102390000000024008B500F57171D0F8040401F0A6
:1023A0003DFC08BD08B5C1EBC10293000344D3F85E
:1023B0000822D0F8040401F05FFC08BD08B5C1EBA9
:1023C000C102930003449A6CD0F8040401F090FC1D
:1023D00008BD00BF08B5D0F8040401F029FD08BD10
:1023E00010B50446C368022B01D0FEF79DF8012109
:1023F000D4F8040401F004FDD4F8040401F0D6FC80
:1024000010BD00BF10B50446D0F8040401F0FCFC78
:102410002268D2F8003E43F00103C2F8003E236A6E
:1024200023B1034A136943F00603136110BD00BFD3
:1024300000ED00E008B5D0F8040401F0EFFC08BDA1
:1024400008B5D0F8040401F001FD08BD08B5D0F8C6
:10245000040401F0F9FC08BD08B5D0F8040401F04B
:10246000F7FC08BD08B5D0F8040401F0F3FC08BD82
:1024700003785BBB10B503461548C0F80434C3F8B5
:10248000C4024FF0A0430360042343600222C260F1
:10249000002303618261C36103624362C362036319
:1024A00000F0EEF808B1FEF73FF8094C8021204615
:1024B00000F0F0FD40220021204600F0C7FD802200
:1024C0000121204600F0C2FD002010BD0020704711
:1024D000984E0020D0F8C42211F0800F08D001F0EF
:1024E0007F01C1EBC1018B00134493F83E0070479C
:1024F00001F07F01C1EBC1018B00134493F8FE0191
:10250000704700BF08B5D0F8C40200F0F3FC08BD66
:1025100010B1022802D003E000207047012070476C
:102520000320704708B5D0F8C40200F03DF9FFF76A
:10253000EFFF08BD10B51C4613462246D0F8C40272
:1025400000F032FCFFF7E4FF10BD00BF08B5D0F883
:10255000C40200F069FCFFF7DBFF08BD08B5D0F846
:10256000C40200F0FBFCFFF7D3FF08BD08B5D0F8AC
:10257000C40200F033FDFFF7CBFF08BD08B5D0F86B
:10258000C40200F0FDFBFFF7C3FF08BD08B5D0F89B
:10259000C40200F0B9FCFFF7BBFF08BD08B5D0F8D6
:1025A000C40200F079FCFFF7B3FF08BD2DE9F04746
:1025B00082B0D0F80080CA00521A930003445A6DCA
:1025C0001B6D9A4256D8C1469B1AC1EBC104A200AA
:1025D0000244526C934200D81A460C46074602F158
:1025E000030A4FEA9A0A1EE05B1AC4EBC4018A0090
:1025F0003A44566CB34200D81E4606F1030A4FEA2D
:102600009A0AE3001B1B9D003D44A96C3B7C009390
:10261000B3B2E2B2404601F08FF8AB6C3344AB6426
:102620006B6D1E446E6509EB441303F510639B69E3
:102630009BB29A4509D8E3001B1B9A003A44516D9E
:10264000136D994201D2002BCED1E3001B1B9800E1
:1026500007443A6D7B6D9A420ED804F00F040123B3
:1026600003FA04F4D8F8343823EA0404C8F83448E8
:10267000002002E0012000E0002002B0BDE8F08769
:10268000F0B58BB0002800F08A800446056890F809
:10269000BD3313F0FF0F04D1002380F8BC33FFF7E4
:1026A00037FE032384F8BD33EB6B13F4807F01D135
:1026B00000232361206800F0D1FD254655F8107BEA
:1026C0006E460FCD0FC60FCD0FC695E8030086E806
:1026D0000300231D0ECB384600F000FD20B102237D
:1026E00084F8BD3301255BE00021206800F0BCFDCB
:1026F000002315E0D900C81A82002244012082F884
:102700003D0082F83C30A2F84230002082F83F00C1
:1027100050649064CA1A9100214408650133DBB209
:102720006568AB42E6D3002315E0D800C11A8A00E1
:102730002244002182F8FD1182F8FC3182F8FF1159
:10274000C2F80412C2F80812C21A90002044C0F85D
:1027500010120133DBB29D42E7D8254655F8107BB5
:102760006E460FCD0FC60FCD0FC695E8030086E865
:102770000300231D0ECB384600F0BCFD054620B1FA
:10278000022384F8BD3301250AE0002384F83830A1
:10279000012384F8BD33206801F076F900E00125BB
:1027A00028460BB0F0BD00BF026890F8BC33012B87
:1027B00018D010B5012380F8BC33836A012B06D1F1
:1027C0008369012B03D0936B43F4803393630446F6
:1027D000006800F03DFD206801F048F9002084F811
:1027E000BC0310BD0220704770B504460D4600685A
:1027F000066C00EB411303F5306399682269012AE6
:1028000044D111F0080F09D0344A964263D911F42B
:10281000004F60D04FF400429A605CE011F0200F4E
:1028200002D020229A6056E011F0280F53D12B4A93
:10283000964206D911F4004F03D04FF400429A603B
:1028400049E0E900491B8A002244D2F804121B69BE
:10285000C3F31203C91AC2F81412D2F80812D2F83C
:1028600004320B44C2F808325DB9C5EBC5029300CF
:102870002344D3F8103223B904F57172012101F019
:1028800059F9E9B22046FFF78DFD24E0144A96423B
:1028900010D111F4004F03D04FF400429A601AE0B7
:1028A00011F0200F01D020229A60E9B22046FFF7F4
:1028B00079FD10E05DB9C5EBC50293002344D3F860
:1028C000103223B904F57172002101F033F9E9B235
:1028D0002046FFF767FD002070BD00BF0A30544F4F
:1028E0000A31544F38B5044603681D6C03EB41119F
:1028F000D1F8082B0D4B9D4207D901F5306112F438
:10290000004F02D04FF400438B602046FFF742FD9A
:10291000064B9D4208D92369012B05D104F571723C
:102920000121206801F006F9002038BD0A30544F1B
:102930002DE9F04704460568284601F0E7F800282D
:1029400040F01B822E46206801F0ACF8002800F011
:102950001482206801F0A6F810F0020F04D022685B
:10296000536903F002035361206801F09BF810F0F3
:10297000100F45D02268936923F0100393612F6AEA
:1029800007F00F08C7F34343022B1FD147F6F0733C
:102990001F4230D04FEAC80AC8EB0A034FEA830946
:1029A000A1443F09C7F30A02D9F80812284600F0EB
:1029B000DFFFC7F30A07D9F808323B44C9F80832E9
:1029C000D9F814321F44C9F8147214E0062B12D13E
:1029D000082204F57171284600F0CAFFC7F30A17F0
:1029E0004FEAC803C8EB03018A002244D2F814322C
:1029F0003B44C2F814322268936943F01003936198
:102A0000206801F04FF810F4002F45D0206801F045
:102A10004DF807464FF000083CE017F0010F36D0A4
:102A20005FFA88F1206801F051F8814610F0010F3B
:102A300008D006EB48130122C3F8082B4146204674
:102A4000FFF7D2FE19F0080F08D006EB4813082252
:102A5000C3F8082B41462046FFF744FF19F0100F3A
:102A600004D006EB48131022C3F8082B19F0200FEE
:102A700004D006EB48132022C3F8082B19F4005F9A
:102A800005D006EB48134FF40052C3F8082B08F1A9
:102A900001087F08002FC0D1206801F003F810F46E
:102AA000802F6ED0206801F009F807464FF000082B
:102AB00065E017F0010F5FD05FFA88FA5146206891
:102AC00001F00EF8814610F0010F2ED008F00F0330
:102AD000012101FA03F2D6F8343823EA0203C6F8DA
:102AE000343806EB4813C3F8081923698B4218D110
:102AF0004FEAC802C8EB020293002344996C5A6C57
:102B00000A449A64B8F1000F0BD1C8EBC8029300D5
:102B100023441B6D2BB904F571720121206801F06B
:102B200009F851462046FFF749FC19F0080F04D078
:102B300006EB48130822C3F8082919F0100F04D037
:102B400006EB48131022C3F8082919F0400F04D0EF
:102B500006EB48134022C3F8082919F0020F04D0ED
:102B600006EB48130222C3F8082919F0800F03D09E
:102B700041462046FFF71AFD08F101087F08002FA3
:102B800097D1206800F08EFF002818DAD5F80438B5
:102B900023F00103C5F8043894F8F433012B06D16F
:102BA000002184F8F413204600F078FA02E0204671
:102BB000FFF740FC2268536903F00043536120682B
:102BC00000F070FF10F4006F0CD0D5F8083813F047
:102BD000010F02D02046FFF715FC2268536903F469
:102BE00000635361206800F05DFF10F4805F5BD0EC
:102BF00005F500677B6823F001037B6010212068E6
:102C000000F04AFB002220E006EB42134FF67F3033
:102C1000C3F80809D3F8001921F40011C3F800190A
:102C2000D3F8001941F00061C3F80019C3F8080B8C
:102C3000D3F8001B21F40011C3F8001BD3F8001BCC
:102C400041F00061C3F8001B013263689A42DBD394
:102C5000FB6943F00113FB61236B53B1D7F8843058
:102C600043F00B03C7F884307B6C43F00B037B64A9
:102C700009E07B6943F4005343F02B037B613B691C
:102C800043F00B033B61D5F8003823F4FE63C5F82D
:102C9000003804F57172217C206800F04BFF226837
:102CA000536903F480535361206800F0FBFE10F475
:102CB000005F16D0206800F02DFF206800F0E4FBD4
:102CC000E0602568FEF762F8227B0146284600F0A6
:102CD00049FA2046FFF784FB2268536903F4005346
:102CE0005361206800F0DEFE10F0080F07D0204688
:102CF000FFF770FB2268536903F0080353612068F3
:102D000000F0D0FE10F4801F08D000212046FFF70D
:102D10009DFB2268536903F480135361206800F01F
:102D2000C1FE10F4001F08D000212046FFF788FBE9
:102D30002268536903F400135361206800F0B2FE67
:102D400010F0804F07D02046FFF786FB22685369BA
:102D500003F080435361206800F0A4FE10F0040FDC
:102D60000BD023685D6815F0040F02D02046FFF7F2
:102D700079FB226853682B435360BDE8F08700BF9E
:102D800090F8BC33012B0DD010B50446012380F818
:102D9000BC3380F83810006800F058FE002084F83A
:102DA000BC0310BD02207047F8B511F0800F0ED0A3
:102DB00001F00F06F500AF1BBC0027463834044471
:102DC00004343E460644012586F83D500EE001F0ED
:102DD0000F06F500AF1BBC00274604F5FC74044445
:102DE00004343E460644002586F8FD5101F00F01EB
:102DF0002170A260E370627802B1E180022B01D100
:102E00000023237190F8BC33012B0BD0054601231E
:102E100080F8BC332146006800F048FB002085F8AC
:102E2000BC03F8BD0220F8BD38B511F0800F0ED0FC
:102E300001F00F04E200151BAB001D4638330344BC
:102E400004332C460444012284F83D200EE001F0B6
:102E50000F04E200151BAB001D4603F5FC73034491
:102E600004332C460444002284F8FD2101F00F01B4
:102E7000197090F8BC23012A0BD00446012280F877
:102E8000BC231946006800F05DFB002084F8BC03F9
:102E900038BD022038BD00BF70B501F00F05EE004F
:102EA000711B8C0004F5FC740444211D761BB400D6
:102EB0000444C4F80822C4F810320023C4F81432C1
:102EC00084F8FD3184F8FC510369012B05D1C5EB71
:102ED000C506B4000444C4F80C2225B9DAB200686F
:102EE00000F09CFB03E0DAB2006800F03BFC00203D
:102EF00070BD00BF01F00F01C1EBC1018B00184490
:102F0000D0F81402704700BF70B501F00F05EE0055
:102F1000711B8C0038340444211D761BB40004441A
:102F2000A264236500236365012384F83D3084F89F
:102F30003C500369012B04D1C5EBC506B400044421
:102F4000E26425B9DAB2006800F068FB03E0DAB2A7
:102F5000006800F007FC002070BD00BF38B501F02C
:102F60000F0543689D4235D811F0800F0BD0EA0061
:102F7000511B8B00194638330344043301440122AA
:102F800081F83D200CE0CA00541AA3001C4603F54A
:102F9000FC730344043322460244002182F8FD11ED
:102FA00001229A701D7090F8BC23012A14D00446A7
:102FB000012280F8BC231946006800F0EBFC2DB913
:102FC00004F57172217C206800F0B4FD002084F8C3
:102FD000BC0338BD012038BD022038BD01F00F030D
:102FE000426893422DD810B511F0800F0BD0DA0053
:102FF000D41AA1000C4638310144043104440122A2
:1030000084F83D200BE0DA00D41AA1000C4601F54B
:10301000FC71014404310444002284F8FD210022A3
:103020008A700B7090F8BC33012B0CD0044601233E
:1030300080F8BC33006800F0DBFC002084F8BC039F
:1030400010BD01207047022010BD00BF30B40468DD
:10305000636A19B943EA0240A06218E00D46A06A0B
:1030600003EB1040002308E003F1400104EB810171
:10307000496800EB11400133DBB2691E8B42F3D388
:1030800040EA024005F13F0104EB81014860002065
:1030900030BC70470368596200207047704700BF1A
:1030A000002301330C4A934211D80269002AF8DA4E
:1030B000036943F00103036100230133064A93428D
:1030C00007D8026912F0010FF7D1002070470320E2
:1030D00070470320704700BF400D030084B010B557
:1030E000044603A880E80E00089B012B18D1A36BAF
:1030F00023F48033A363E36823F4840323F04003C1
:10310000E360E36823F44013E3600F9B012B03D1DA
:10311000E36843F48013E3602046FFF7C1FF11E04A
:10312000E36843F04003E3602046FFF7B9FF0C9BE0
:1031300023B9A36B43F48033A36303E0A36B23F4AD
:103140008033A363069B012B07D1A36843F00603DA
:10315000A360A36843F02003A360BDE8104004B05F
:10316000704700BF022A42D12F4B0B442F4A934293
:103170003FD92F4B0B442F4A93423CD9A1F57403FE
:10318000A3F510532C4A934237D9A1F18373A3F5C9
:10319000E74302F5C332A032934230D9274B0B44A8
:1031A000274A93422DD9274B0B4402F5922202F570
:1031B0007872934227D9244B0B4402F5C32202F5BF
:1031C0002072934221D9A1F1B773A3F5585302F5A8
:1031D000B71202F55872934219D91C4B0B4402F5F1
:1031E000122202F5F862934213D8072112E0092156
:1031F00010E00F210EE00E210CE00D210AE00C2161
:1032000008E00B2106E00A2104E0092102E0082180
:1032100000E00621C26822F47052C260C36843EA2B
:103220008123C36000207047405327FFFF340C0008
:10323000401E1BFF3F420F007F4F120060B6E5FEAD
:103240005FE3160000D3CEFEC05BB3FEE05459FE30
:10325000836843F00103836000207047836823F094
:10326000010383600020704708B5C36823F0C043A2
:10327000C360012904D1C36843F00053C36004E074
:1032800041B9C36843F08043C3603220FDF706FFB5
:10329000002008BD012008BD890141F02001016125
:1032A00000230133054A934205D8026912F0200F2A
:1032B000F7D1002070470320704700BF400D030086
:1032C0001023036100230133054A934205D80269A4
:1032D00012F0100FF7D1002070470320704700BF95
:1032E000400D0300D0F800381943C0F80018002042
:1032F000704700BF84B02DE9F041044607A880E87C
:103300000E002546002306E003F1400204EB820292
:103310000021516001330E2BF6D9119B93B9D4F8DB
:10332000043843F00203C4F80438A36B43F40013D9
:10333000A363A36B23F40023A363A36B23F4802371
:10334000A36307E0A36B23F40013A363A36B43F40D
:103350000023A3630023C4F8003E04F50066D4F8FC
:103360000038C4F800380C9B012B0BD1099B23B902
:1033700000212046FFF7B6FF08E001212046FFF7B5
:10338000B1FF03E003212046FFF7ACFF10212046E8
:10339000FFF782FF10B94FF0000801E04FF001087D
:1033A0002046FFF78DFF08B14FF00108002333617D
:1033B0007361F3611BE005EB431202F51061D2F873
:1033C000000900280ADA23B94FF00060C2F80009AA
:1033D00007E04FF09040C2F8000902E00020C2F878
:1033E000000900220A614FF67F328A600133079993
:1033F0008B42E0D300231BE005EB431202F5306063
:10340000D2F8007B002F0ADA23B94FF00067C2F828
:10341000007B07E04FF09047C2F8007B02E00027F6
:10342000C2F8007B002202614FF67F3282600133D6
:103430008B42E1D3336923F4807333610023A361AA
:103440006FF0804363610A9B1BB9A36943F01003CB
:10345000A361A2690B4B1343A3610D9B1BB1A3692D
:1034600043F00803A361119B012B05D1A36943F02D
:10347000804343F00403A3614046BDE8F04104B03B
:10348000704700BF00383C80D0F8083813F00603BE
:1034900005D0022B05D0062B05D102207047002055
:1034A0007047022070470F20704700BF70B40B7840
:1034B0004A78012A23D1D0F81C6803F00F020124B6
:1034C00004FA02F292B23243C0F81C2800EB431017
:1034D000D0F8002912F4004F31D1D0F800498A68A1
:1034E000C2F30A02C97842EA814242EA8353234383
:1034F00043F0805343F40043C0F800391FE0D0F894
:103500001C4803F00F060122B24044EA0242C0F810
:103510001C2800EB4310D0F8003B13F4004F0ED1F1
:10352000D0F8003B8A68C2F30A02C97842EA8142B5
:10353000134343F0805343F40043C0F8003B0020A2
:1035400070BC704730B40B784A78012A30D100EB58
:103550004313D3F80029002A0BDAD3F8002942F0EC
:103560000062C3F80029D3F8002942F08042C3F872
:103570000029D0F83C580A7802F00F02012404FA1E
:1035800002F292B225EA0202C0F83C28D0F81C28C8
:10359000097801F00F018C40A4B222EA0404C0F8BB
:1035A0001C48D3F800191B4A0A40C3F800292DE033
:1035B00000EB4313D3F8002B002A0BDAD3F8002BCF
:1035C00042F00062C3F8002BD3F8002B42F0804297
:1035D000C3F8002BD0F83C580A7802F00F020124FF
:1035E00004FA02F225EA0242C0F83C28D0F81C286E
:1035F000097801F00F018C4022EA0444C0F81C480D
:10360000D3F8001B044A0A40C3F8002B002030BC4A
:10361000704700BF007833EC0078F3EF70B40B789C
:103620004C78012C5DD14C69B4B900EB4314D4F84B
:10363000105925F0FF5525F4C015C4F81059D4F8D9
:10364000105945F40025C4F81059D4F81059ED0C60
:10365000ED04C4F810591CE000EB431404F51064A9
:103660002569ED0CED042561256925F0FF5525F44C
:10367000C01525614E698D68AE4200D94D6125693E
:1036800045F40025256126694D69C5F312053543CA
:103690002561012A0ED10A691AB100EB4311C1F864
:1036A000142900EB4310D0F8002942F00442C0F87E
:1036B00000293DE000EB4313D3F8002942F0044217
:1036C000C3F800294B69002B32D0D0F834380A787F
:1036D00002F00F02012101FA02F21A43C0F8342865
:1036E00026E000EB431000F530631C69E40CE404B1
:1036F0001C611C6924F0FF5424F4C0141C614C6943
:103700000CB18C684C611C6944F400241C611D6977
:103710008C68C4F312042C431C61012A02D1CA68CC
:1037200002B15A61D0F8003B43F00443C0F8003BBB
:10373000002070BC704700BF70B49DF80C406CB99D
:1037400003339B08002507E000EB023404F58054A6
:1037500051F8046B266001359D42F5D3002070BC02
:10376000704700BFF0B583B00C784B78012B40F068
:10377000AB804B69B3B900EB4413D3F8105925F073
:10378000FF5525F4C015C3F81059D3F8105945F466
:103790000025C3F81059D3F81059ED0CED04C3F807
:1037A000105932E000EB4413D3F81059ED0CED043E
:1037B000C3F81059D3F8105925F0FF5525F4C0155A
:1037C000C3F81059D3F810794D698E683544013D1E
:1037D000B5FBF6F5654E06EAC5453D43C3F81059FD
:1037E000D3F810694D69C5F312053543C3F8105974
:1037F00003F51063CD78012D07D11D6925F0C04573
:103800001D611D6945F000551D61012A27D10B6915
:103810001BB100EB4412C2F81439CB78012B15D13F
:10382000D0F8083813F4807F08D100EB4412D2F8A6
:10383000003943F00053C2F8003907E000EB4412AE
:10384000D2F8003943F08053C2F8003900EB441439
:10385000D4F8003943F00443C4F8003983E000EBA6
:103860004414D4F8003943F00443C4F80039CB7849
:10387000012B0ED04B69002B75D0D0F834480B7853
:1038800003F00F03012202FA03F32343C0F8343894
:1038900069E0D0F8083813F4807F06D1D4F80039F5
:1038A00043F00053C4F8003905E0D4F8003943F080
:1038B0008053C4F8003914460B46C9681A789B8AAD
:1038C0000094FFF739FF4EE000EB441404F5306339
:1038D0001D69ED0CED041D611D6925F0FF5525F4F2
:1038E000C0151D614D6955B91E698D68C5F3120576
:1038F00035431D611D6945F400251D6113E08E6887
:103900003544013DB5FBF6F51F69184E06EAC5467C
:103910003E431E611F698E68ADB206FB05F5C5F317
:1039200012053D431D61012A02D1CA6802B15A61E4
:10393000CB78012B11D1D0F8083813F4807F06D151
:10394000D4F8003B43F00053C4F8003B05E0D4F842
:10395000003B43F08053C4F8003BD4F8003B43F0F5
:103960000443C4F8003B002003B0F0BD0000F81F82
:1039700010B403329208002305E000F58054246857
:1039800041F8044B01339342F7D308465DF8044BEA
:10399000704700BF0B784A78012A13D100EB43101F
:1039A000D0F80029002A06DB2BB1D0F8003923F02B
:1039B0008043C0F80039D0F8003943F40013C0F850
:1039C000003912E000EB4310D0F8002B002A06DB90
:1039D0002BB1D0F8003B23F08043C0F8003BD0F877
:1039E000003B43F40013C0F8003B0020704700BFC9
:1039F0000B784A78012A13D100EB4310D0F8003934
:103A000023F40013C0F80039CB78023BDBB2012B62
:103A100019D8D0F8003943F08053C0F8003912E0CB
:103A200000EB4310D0F8003B23F40013C0F8003B38
:103A3000CB78023BDBB2012B05D8D0F8003B43F03A
:103A40008053C0F8003B0020704700BFD0F800381A
:103A500023F4FE63C0F80038D0F80038090101F4FF
:103A6000FE611943C0F8001800207047D0F8003EEE
:103A700023F00303C0F8003ED0F8043823F002031B
:103A8000C0F8043800207047D0F8003E23F003034C
:103A9000C0F8003ED0F8043843F00203C0F8043800
:103AA00000207047426980691040704700F500634C
:103AB000D0F81808DB691840000C704700F5006367
:103AC000D0F81808DB69184080B2704700EB41114C
:103AD000D1F8082B00F5006040691040704700BF26
:103AE00010B4D0F81048D0F8342801F00F0322FAAF
:103AF00003F3DB01DBB2234300EB411000F5106060
:103B0000806818405DF8044B704700BF406900F0C2
:103B100001007047D0F8003923F4FF6323F0070356
:103B2000C0F80039D0F8043843F48073C0F8043882
:103B30000020704710B4046C144B9C4203D9D0F899
:103B4000003B002B1EDB0024C0F8104BD0F8104BBC
:103B500044F40024C0F8104BD0F8104B44F0180483
:103B6000C0F8104BD0F8104B44F0C044C0F8104BD4
:103B7000012907D1C0F8142BD0F8003B43F0802373
:103B8000C0F8003B00205DF8044B70470A30544FEA
:103B9000C0B108B50346D0F8B80210B10020C3F890
:103BA000B802D3F8CC0210B10020C3F8CC0209B19E
:103BB000C3F8B4121846012380F89C320270FEF755
:103BC00057FC08BD0320704710B582B00023ADF844
:103BD000063051B10446C0F8B8128B6A0DF10600E8
:103BE0009847C4F8CC02002000E0032002B010BDCA
:103BF00008B5FEF797FC08BD08B5D0F8B83213B188
:103C00001B68984708BD032008BD00BF08B5D0F861
:103C1000B8320BB15B689847002008BD38B5044640
:103C200000F2AA25284600F035F90123C4F89432A1
:103C3000B4F8B032C4F8983294F8AA1201F01F0315
:103C4000012B08D013B1022B0AD00EE029462046E2
:103C500000F0FEFA38BD2946204600F037FB38BD9B
:103C60002946204600F064FB38BD01F08001204663
:103C7000FEF774FC38BD00BF10B5044619BB1346EF
:103C8000D0F89422032A2BD1D0F85C11D0F860210F
:103C900091420AD9891AC0F85C118A4228BF0A46A3
:103CA000194600F08BFC002010BDD0F8B8321B691B
:103CB00023B190F89C22032A00D19847204600F0B7
:103CC00085FC002010BD0A46D0F8B8329B694BB184
:103CD00090F89C12032907D11146984730B110BDC6
:103CE000002010BD032010BD032010BD002010BD1A
:103CF00010B50446002943D11346D0F89422022A75
:103D000036D1C269016A8A420BD9521AC261194678
:103D100000F03CFC00231A4619462046FEF73EFC04
:103D200026E08A4213D18369994210D8D0F89822AC
:103D300093420CD20022114600F028FC0021C4F866
:103D400098120B460A462046FEF728FC10E0D4F8ED
:103D5000B832DB682BB194F89C22032A01D12046AB
:103D6000984780212046FEF7F9FB204600F03AFCF8
:103D700094F8A032012B10D1002084F8A00210BDCD
:103D80000A46D0F8B8325B694BB190F89C1203290F
:103D900007D11146984730B110BD002010BD032057
:103DA00010BD032010BD002010BD00BF70B504463B
:103DB000012380F89C320023C0F894324360C0F89D
:103DC000A432D0F8BC3223B1D0F8B8325B680021FD
:103DD00098474023002211462046FEF7ABFB012600
:103DE000A4F864614025C4F860512B46002280216C
:103DF0002046FEF79FFBA6842562002070BD00BF11
:103E000001740020704700BF90F89C3280F89D320A
:103E1000042380F89C320020704700BF90F89C3249
:103E2000042B03D190F89D3280F89C32002070471B
:103E300008B590F89C32032B04D1D0F8B832DB6976
:103E400003B19847002008BD00207047002070474C
:103E50000020704708B5012380F89C32D0F8B832B2
:103E600013B15B6801799847002008BD0346002024
:103E700002E00130C0B201331A78002AF9D170474C
:103E800008B54B88012B03D1C0F8A43200F09EFB8B
:103E900008BD00BF0B7803704B7843708B78CA78ED
:103EA00043EA022343800B794A7943EA0223838061
:103EB0008B79CA7943EA0223C380704710B5044660
:103EC0008021FEF74BFB00212046FEF747FB10BD8B
:103ED00030B583B004460D460023ADF806304A885D
:103EE000130A013B062B00F2B580DFE803F0040D56
:103EF00023B3B391A100D0F8B4321B680DF10601D1
:103F0000007C98470023AAE0037C4BB9D0F8B83274
:103F10009B6A0DF1060098470223437000239EE040
:103F2000D0F8B832DB6A0DF10600984702234370DF
:103F3000002394E0D2B2052A64D8DFE802F003132C
:103F400023334353D0F8B4325B682BB10DF1060133
:103F5000007C9847002382E02946FFF7AFFF01234A
:103F600000207CE0D0F8B4329B682BB10DF1060143
:103F7000007C9847002372E02946FFF79FFF01234A
:103F800000206CE0D0F8B432DB682BB10DF10601F3
:103F9000007C9847002362E02946FFF78FFF01234A
:103FA00000205CE0D0F8B4321B692BB10DF10601A2
:103FB000007C9847002352E02946FFF77FFF01234A
:103FC00000204CE0D0F8B4325B692BB10DF1060152
:103FD000007C9847002342E02946FFF76FFF01234A
:103FE00000203CE0D0F8B4329B692BB10DF1060102
:103FF000007C9847002332E02946FFF75FFF01234A
:1040000000202CE02946FFF759FF0123002026E07D
:10401000037C3BB9D0F8B8325B6B0DF106009847D2
:1040200000231CE02946FFF749FF0123002016E08A
:10403000037C4BB9D0F8B8321B6B0DF106009847E2
:104040000723437000230AE02946FFF737FF0123C7
:10405000002004E02946FFF731FF01230020B3B917
:10406000EA888AB1BDF806304BB19A4228BF1A4699
:10407000ADF806200146204600F07AFA07E029460E
:104080002046FFF71BFF02E0204600F09FFA03B036
:1040900030BD00BF38B504468B88F3B9CB88E3B98F
:1040A0004B887F2B19D803F07F0590F89C32032BA7
:1040B00002D1FFF703FF38BD80F89E522946FEF774
:1040C0005DFA204600F082FA1DB1022384F89C328A
:1040D00038BD012384F89C3238BD2046FFF7EEFE40
:1040E00038BD00BF70B504460D468978304B197055
:1040F000012904D92946FFF7E1FE032070BD90F89D
:104100009C32022B02D0032B18D047E091B14160C2
:10411000FFF772FD064628B129462046FFF7CEFE7E
:10412000304670BD204600F051FA032384F89C32DB
:10413000304670BD00F04AFA002070BD51B902232C
:1041400080F89C324160FFF761FD204600F03EFAA6
:10415000002070BD436899421CD0D9B2FFF756FDCC
:10416000134B197861602046FFF746FD064660B1A3
:1041700029462046FFF7A2FE21792046FFF746FD9B
:10418000022384F89C32304670BD204600F01EFAAF
:10419000304670BD00F01AFA002070BD2946FFF7C6
:1041A0008DFE034B19782046FFF730FD032070BDCC
:1041B000A041002008B5CB88012B02D0FFF77EFE7E
:1041C00008BD90F89C328BB1022B02D9032B08D08A
:1041D0000CE00146002341F8083F012200F0C8F935
:1041E00008BD0122011D00F0C3F908BDFFF766FEFE
:1041F00008BD00BF08B590F89C32013B022B12D8D5
:10420000CB88022B02D0FFF759FE08BD0123C36003
:10421000D0F8A4320BB10323C360022200F10C01D9
:1042200000F0A6F908BDFFF749FE08BD08B590F8F3
:104230009C32013B022B08D84B88012B07D100236D
:10424000C0F8A43200F0C2F908BDFFF737FE08BD80
:1042500008B50B7803F06003202B04D0402B02D06C
:10426000002B2ED104E0D0F8B8329B68984708BDE7
:104270004B78092B21D8DFE803F0141C2018200903
:104280000520100DFFF724FE002008BDFFF702FFF8
:10429000002008BDFFF726FF08BDFFF78BFF0020B9
:1042A00008BDFFF7A7FF002008BDFFF7E9FD0020CC
:1042B00008BDFFF7BBFF002008BDFFF7FFFD002092
:1042C00008BDFFF7FBFD002008BD00BF70B5054627
:1042D0000C460B7803F06003202B02D0402B00D05B
:1042E0000BBB95F89C32013B022B16D82379012B8E
:1042F0000DD8D5F8B8329B6821462846984706461F
:10430000E3889BB990B9284600F060F90EE0214699
:104310002846FFF7D3FD002608E021462846FFF790
:10432000CDFD002602E0FFF7C9FD0026304670BD36
:1043300038B505460C468A880B7803F06003202BBD
:1043400006D0D1B2402B03D0002B40F0EE8006E027
:10435000D5F8B8329B6821462846984738BD63781F
:10436000012B2FD0002B5ED0032B40F0D98090F88A
:104370009C32022B02D0032B11D01EE049B18029C0
:1043800007D0FEF7EBF880212846FEF7E7F800207B
:1043900038BD21462846FFF791FD002038BD6388CF
:1043A00033B929B1802903D0E3880BB9FEF7D6F8D9
:1043B000284600F00BF9002038BD2146FFF77EFDAE
:1043C000002038BD90F89C32022B02D0032B11D074
:1043D00024E049B1802907D0FEF7C0F880212846A3
:1043E000FEF7BCF8002038BD21462846FFF766FDE1
:1043F000002038BD6388002B40F09C8011F07F0FB7
:1044000001D0FEF7B3F8284600F0E0F8D5F8B8324E
:104410009B68214628469847002038BD2146FFF773
:104420004DFD002038BD90F89C32022B02D0032BAA
:1044300026D070E031B1802904D02146FFF73EFD3F
:10444000002038BD12F0800F09D001F07F0101EB90
:1044500081018B0003F110012944043108E001F0CF
:104460007F0101EB81018B0003F5A8712944043120
:1044700000240C600222284600F07AF8204638BD5D
:1044800052B2002A0DDA01F00F0303EB8303980008
:104490002844838CA3B921462846FFF70FFD00204E
:1044A00038BD01F00F0303EB830398002844B0F8F4
:1044B00064312BB921462846FFF700FD002038BDA6
:1044C000002A09DA01F07F0202EB8202930003F175
:1044D00010042C44043408E001F07F0202EB820255
:1044E000930003F5A8742C44043409B1802902D147
:1044F0000023236008E02846FDF7ECFF10B10123FC
:10450000236001E00023236002222146284600F0B8
:104510002FF8002038BD2146FFF7D0FC002038BD21
:104520002146FFF7CBFC002038BD2146FFF7C6FC33
:10453000002038BD002038BDC8B170B50D46164604
:104540000446FFF793FC01304000308028700323BD
:104550006B70022307E0EA5401345A1CD2B20021E6
:10456000A9540233DBB22278002AF4D170BD70471F
:1045700010B513460222C0F894228361C3610A4633
:104580000021FEF703F8002010BD00BF08B5134658
:104590000A460021FDF7FAFF002008BD10B51346BA
:1045A0000322C0F89422C0F85831C0F85C310A46A2
:1045B0000021FDF7F3FF002010BD00BF08B5134632
:1045C0000A460021FDF7EAFF002008BD08B50423D4
:1045D000C0F8943200231A461946FDF7D7FF002091
:1045E00008BD00BF08B50523C0F8943200231A4661
:1045F0001946FDF7D3FF002008BD00BF10B5D0F865
:10460000BC42D0F8C0325BB194F80002FF2807D05A
:104610009B6894F8012221469847FF2384F80032D2
:10462000002010BD43230380004870477400002021
:104630004323038000487047400100204323038048
:1046400000487047FC0000200A23038000487047A0
:10465000F000002038B5D0F8BC5275B10446FDF723
:1046600051FFC5F80C02D4F8C032DB6805F50371C0
:10467000D5F804029847002038BD032038BD00BF9C
:1046800070B5D0F8C462D0F8BC3243B301EB8104FA
:10469000A20002449469A4B1C1EBC105AA0032444E
:1046A000556CB4FBF5F205FB124454B901EB8102E1
:1046B000930003449C6123462246FDF767FF204692
:1046C00070BD0024C3F81442D0F8C02215690A4610
:1046D00003F50471D3F80802A847204670BD0320F3
:1046E00070BD00BF70B582B005460C46D0F8BC6204
:1046F00000238DF80730ADF804300B7813F060021A
:1047000027D0202A59D1CA88DAB113F0800F0CD0F3
:10471000D0F8C0329B68314660789847E2883146CD
:104720002846FFF725FF00204EE04B7886F8003240
:104730008B7986F80132CA883146FFF72FFF0020B7
:1047400042E0D0F8C0329B680022487898470020A9
:104750003AE04B780B2B2CD8DFE803F006332B2BF9
:104760002B2B2B2B2B2B142390F89C32032B05D1B6
:10477000022201A9FFF7FCFE002025E0FFF79EFBC7
:10478000032021E090F89C32032B06D101220DF189
:104790000701FFF7EDFE002016E0FFF78FFB032077
:1047A00012E090F89C32032B0DD0FFF787FB03201B
:1047B0000AE0FFF783FB032006E0FFF77FFB0320FF
:1047C00002E0002000E0002002B070BD38B50446D1
:1047D0008121FDF7BBFE0025258701212046FDF73D
:1047E000B5FEA4F8785182212046FDF7AFFEA4F86B
:1047F0004C50A4F84E50D4F8BC324BB1D4F8C0326F
:104800005B689847D4F8BC0200F0EEF8C4F8BC52DC
:10481000002038BD70B504464FF4077000F0DCF896
:1048200020B90023C4F8BC32022070BD0546C4F88C
:10483000BC02237CABB94FF40073022281212046D5
:10484000FDF778FE012626874FF4007302223146D9
:104850002046FDF76FFEA4F878611023A4F84E30CF
:1048600012E04023022281212046FDF763FE01264B
:1048700026874023022231462046FDF75BFEA4F83E
:1048800078611023A4F84E300823032282212046A9
:10489000FDF750FE0123A4F84C30D4F8C0321B6859
:1048A00098470023C5F81432C5F81832237C4BB959
:1048B0004FF40073D5F8042201212046FDF76EFE67
:1048C000002070BD4023D5F8042201212046FDF7C9
:1048D00065FE002070BD00BF19B1C0F8C0120020F5
:1048E00070470320704700BFD0F8BC32C3F80812ED
:1048F000C3F8102200207047D0F8BC32C3F804126D
:1049000000207047D0F8BC229AB108B5037C43B9A7
:104910004FF40073D2F804220121FDF73FFE00207E
:1049200008BD4023D2F804220121FDF737FE002004
:1049300008BD0320704700BFDFF834D0002103E03A
:104940000C4B5B58435004310B480C4B42189A42B5
:10495000F6D30B4A02E0002342F8043B094B9A428B
:10496000F9D3FCF7F1FC00F011F8FBF733FE7047C8
:1049700000000120584C000800000020E801002041
:10498000E8010020A4520020FEE7000070B50E4BA5
:104990000E4CE41AA41000251E46A54204D056F879
:1049A000253098470135F8E700F0FAF8084C094B34
:1049B000E41AA41000251E46A54204D056F825305E
:1049C00098470135F8E770BD504C0008504C00087E
:1049D000544C0008504C0008024B0146186800F087
:1049E00061B800BFE4010020024B0146186800F0E6
:1049F0000BB800BFE401002002440346934202D0FA
:104A000003F8011BFAE7704738B50546002946D080
:104A100051F8043C0C1F002BB8BFE41800F0B0F8AC
:104A20001F4A1368114613B96360146032E0A34251
:104A30000ED92268A018834204BF18685B686360BF
:104A400004BF121822600C6024E0A24203D813466F
:104A50005A68002AF9D118681918A1420BD12168A7
:104A6000014458188242196014D1106852685A6083
:104A7000014419600EE002D90C232B600AE0216882
:104A80006018824204BF10685268626004BF09184F
:104A900021605C602846BDE8384000F072B838BD3F
:104AA000A841002070B5CD1C25F0030508350C2D5C
:104AB00038BF0C25002D064601DBA94202D90C2384
:104AC000336046E000F05CF8234B1C681A46214630
:104AD000A1B10B685B1B0ED40B2B03D90B60CC1858
:104AE000CD501EE08C420DBF63684B68636013605D
:104AF00018BF0C4615E00C464968E9E7174C2368D7
:104B00001BB9304600F02CF820602946304600F0F2
:104B100027F8431C18D0C41C24F00304A0420DD174
:104B20002560304600F02DF804F10B00231D20F025
:104B30000700C31A0ED05A42E25070BD211A304607
:104B400000F00EF80130EBD10C233360304600F05A
:104B500018F8002070BD00BFA8410020A44100202B
:104B600038B5064C002305460846236000F00AF8D5
:104B7000431C02D1236803B12B6038BDA052002032
:104B800070477047044A05491368002B08BF0B465D
:104B90001844106018467047AC410020A85200200D
:104BA000F8B500BFF8BC08BC9E467047F8B500BF1A
:084BB000F8BC08BC9E467047EA
:104BB800D44B000825060008000000000000000093
:104BC80080000000000000000000000064656661CD
:104BD800756C745461736B000000000000000000E5
:104BE800010203040607080900000000010203048B
:104BF80049444C450000000053544D333220566957
:104C0800727475616C20436F6D506F727400000090
:104C180053544D6963726F656C656374726F6E6926
:104C28006373000043444320436F6E666967000066
:104C380043444320496E74657266616365000000F1
:084C4800E4B5FF7F010000004C
:044C5000C501000892
:044C5400A1010008B2
:104C580010000000010000000024F400AAAAAAAA7B
:104C6800A5210008B12100085D22000839220008AA
:104C780025220008792200089D220008040309045F
:104C88001A030000000000000000000000000000FF
:104C980000000000000000000000000012010002F7
:104CA8000202004083044057000201020301000091
:104CB800E9220008C1220008C5220008CD22000808
:104CC800C922000809024300020100C03209040099
:104CD8000001020201000524001001052401000161
:104CE80004240202052406000107058203080010B7
:104CF80009040100020A0000000705010240000043
:104D0800070581024000000015480008CD4700084B
:104D1800E546000800000000FD450008814600083F
:104D280055460008000000000000000000000000D8
:104D380031460008254600083D4600084946000857
:104D48000A060002000000400100000009074300B5
:104D5800020104C032090400000102020100052416
:104D680000100105240100010424020205240600A4
:104D7800010705820308001009040100020A000067
:104D880000070501024000000705810240000000FD
:104D980009024300020100C03209040000010202B6
:104DA8000100052400100105240100010424020269
:104DB8000524060001070582030800100904010004
:104DC800020A00000007050102000200070581022F
:104DD80000020000000000000000000000000000C9
:104DE80000000000000000000000000000000000BB
:104DF80000000000000000000000000000000000AB
:104E0800000000000000000000000000000000009A
:104E1800000000000000000000000000000000008A
:104E2800000000000000000000000000000000007A
:084E38000000000084010020CD
:04000005080049396D
:00000001FF
