:020000040800F2
:10000000000002205D5D0008790500087D050008FC
:10001000810500088505000889050008000000002A
:10002000000000000000000000000000014D00087A
:100030008D05000800000000A14D0008054E0008D5
:10004000AD5D0008AD5D0008AD5D0008AD5D000868
:10005000AD5D0008AD5D0008AD5D0008AD5D000858
:10006000AD5D0008AD5D0008AD5D0008AD5D000848
:10007000AD5D0008AD5D0008AD5D0008AD5D000838
:10008000AD5D0008AD5D0008AD5D0008AD5D000828
:10009000AD5D0008AD5D0008AD5D0008AD5D000818
:1000A000AD5D0008AD5D0008AD5D0008AD5D000808
:1000B000AD5D0008AD5D0008AD5D0008AD5D0008F8
:1000C000AD5D0008AD5D0008AD5D0008AD5D0008E8
:1000D000AD5D0008AD5D0008AD5D0008AD5D0008D8
:1000E000AD5D0008AD5D000800000000AD5D0008DA
:1000F000AD5D0008AD5D0008AD5D0008AD5D0008B8
:10010000AD5D0008AD5D0008AD5D0008AD5D0008A7
:10011000AD5D0008AD5D000891050008AD5D00080B
:10012000AD5D0008AD5D0008AD5D0008AD5D000887
:10013000AD5D0008AD5D0008AD5D0008AD5D000877
:1001400000000000000000000000000000000000AF
:10015000AD5D0008AD5D0008AD5D0008AD5D000857
:10016000AD5D0008AD5D0008AD5D0008AD5D000847
:10017000AD5D0008AD5D0008AD5D0008AD5D000837
:10018000AD5D0008AD5D0008AD5D0008AD5D000827
:10019000AD5D0008AD5D0008AD5D0008AD5D000817
:1001A000AD5D0008AD5D0008AD5D0008AD5D000807
:1001B000AD5D0008AD5D0008AD5D0008AD5D0008F7
:1001C000AD5D0008AD5D0008AD5D0008AD5D0008E7
:1001D000AD5D0008A1050008AD5D0008AD5D00083B
:1001E000AD5D0008AD5D0008AD5D0008AD5D0008C7
:1001F000AD5D0008AD5D0008AD5D0008AD5D0008B7
:10020000AD5D0008AD5D0008AD5D0008AD5D0008A6
:10021000AD5D0008AD5D0008AD5D0008AD5D000896
:10022000AD5D0008AD5D0008AD5D00080000000098
:10023000AD5D0008AD5D000800000000AD5D000888
:10024000AD5D0008AD5D0008AD5D0008AD5D000866
:10025000AD5D0008AD5D0008AD5D0008AD5D000856
:10026000AD5D0008AD5D0008AD5D0008AD5D000846
:10027000AD5D0008AD5D0008AD5D00080000000048
:10028000AD5D0008AD5D0008AD5D00080000000038
:0802900000000000AD5D000854
:1002A00010B5054C237833B9044B13B10448AFF3B0
:1002B00000800123237010BDEC010020000000002D
:1002C000BC660008084B10B51BB108490848AFF3DD
:1002D00000800848036803B910BD074B002BFBD012
:1002E000BDE81040184700BF00000000F0010020EA
:1002F000BC660008EC0100200000000000000000C7
:1003000001F0FF01102A2BDB10F0070F08D010F8C6
:10031000013B013A8B422DD010F0070F42B3F6D1CA
:10032000F0B441EA012141EA014122F007047FF0E3
:1003300000070023F0E80256083C85EA010586EA3A
:10034000010685FA47F5A3FA87F586FA47F6A5FA76
:1003500087F68EB9EED1F0BC01F0FF0102F0070282
:1003600032B110F8013B013A83EA010313B1F8D12D
:100370000020704701387047002D06BF354603380E
:10038000073815F0010F07D1013015F4807F02BF47
:10039000013015F4C03F0130F0BC0138704700BF98
:1003A00008B50268024B9A4201D102F017F808BD65
:1003B0000010004072B6FEE700B5CDB04C2200211F
:1003C00039A805F036FD2022002131A805F031FDC5
:1003D000BC22002102A805F02CFD022001F09CFFA8
:1003E00000230193364B9A6942F440429A619B691B
:1003F00003F440430193334BDA6A42F00102DA62BC
:10040000DB6A03F001030193019B2D4B9B6913F4FD
:10041000005FFAD02C4A936A23F0030343F00203EF
:100420009362012339934FF480333A93022342932A
:10043000439305224492C0224592469347934893A2
:100440000823499300234A934B9339A800F0C6FA36
:1004500008B1FFF7AFFF3F2331930323329300230B
:100460003393082334934023359336934FF48062BB
:1004700037923893042131A800F0EEFE08B1FFF75F
:1004800099FF4FF48023029319230B93C0230C93FD
:1004900002230D9304220E920F93002310931193C5
:1004A00012934FF40013239302A801F095F908B1B9
:1004B000FFF780FF01F05CFF4DB05DF804FB00BF6B
:1004C00000480258000400580044025808B501F0E2
:1004D00057FFFFF771FF00F009F802F03BF804F056
:1004E00059FAC82001F08CFFFBE700BF30B589B096
:1004F0000024039404940594069407941C4BD3F8A9
:10050000E02042F00402C3F8E020D3F8E02002F03B
:1005100004020092009AD3F8E02042F08002C3F86F
:10052000E020D3F8E02002F080020192019AD3F893
:10053000E02042F00102C3F8E020D3F8E03003F0FD
:1005400001030293029B0B4D22464FF400512846B3
:1005500001F0D2FE4FF4005303930123049305945A
:10056000069403A9284601F0CDFD09B030BD00BFB7
:100570000044025800080258FEE700BFFEE700BF33
:10058000FEE700BFFEE700BFFEE700BF704700BF09
:1005900008B5024800F0A2F808BD00BFCC41002019
:1005A00008B5024802F098FC08BD00BFE8560020DC
:1005B00000B583B00A4BD3F8F42042F00202C3F82E
:1005C000F420D3F8F43003F002030193019B0022DE
:1005D0000F216FF0010000F017F803B05DF804FB85
:1005E00000440258064AD36823F4E0631B041B0C42
:1005F000000200F4E0601843024B0343D3607047ED
:1006000000ED00E00000FA0530B4144BDB68C3F3E2
:100610000223C3F10704042C28BF04241D1D062D4A
:1006200001D9DD1E00E00025012303FA04F4013C9A
:100630002140A940AB40013B1A400A43002804DB9B
:100640001201D2B2064B1A5405E000F00F0012015D
:10065000D2B2044B1A5430BC704700BF00ED00E02A
:1006600000E400E014ED00E0002808DB420900F09F
:100670001F00012303FA00F0014B43F822007047EA
:1006800000E100E0704700BF90F83D30DBB2012B85
:1006900016D1022380F83D300268D36843F001038D
:1006A000D36002689168084B0B40062B18BFB3F566
:1006B000803F07D0136843F00103136000207047A8
:1006C000012070470020704707000100704700BFFD
:1006D000704700BF704700BF704700BF10B50446A9
:1006E00003681A6912F0020F17D0DA6812F0020FCD
:1006F00013D06FF002021A610123037703689B692C
:1007000013F0030F02D0FFF7E3FF04E0FFF7DEFF73
:100710002046FFF7DFFF0023237723681A6912F0D2
:10072000040F19D0DA6812F0040F15D06FF004022C
:100730001A610223237723689B6913F4407F03D057
:100740002046FFF7C5FF05E02046FFF7BFFF204624
:10075000FFF7C0FF0023237723681A6912F0080F00
:1007600019D0DA6812F0080F15D06FF008021A617C
:10077000042323772368DB6913F0030F03D020469B
:10078000FFF7A6FF05E02046FFF7A0FF2046FFF792
:10079000A1FF0023237723681A6912F0100F19D0E4
:1007A000DA6812F0100F15D06FF010021A610823EA
:1007B00023772368DB6913F4407F03D02046FFF7DB
:1007C00087FF05E02046FFF781FF2046FFF782FF05
:1007D0000023237723681A6912F0010F09D0DA6821
:1007E00012F0010F05D06FF001021A612046FFF7E9
:1007F000D7FD23681A6912F0800F09D0DA6812F069
:10080000800F05D06FF080021A61204600F0E2F8F8
:1008100023681A6912F4807F09D0DA6812F0800F19
:1008200005D06FF480721A61204600F0D5F8236875
:100830001A6912F0400F09D0DA6812F0400F05D0A3
:100840006FF040021A612046FFF746FF23681A69DD
:1008500012F0200F09D0DA6812F0200F05D06FF0E7
:1008600020021A61204600F0B3F810BD70B403688E
:10087000374A904214BF00250125B0F1804F14BFC4
:100880002A4645F00102AAB9324CA04214BF002406
:100890000124314EB0420DD064B904F1804404F516
:1008A0008234A04214BF0024012406F50066B04241
:1008B00000D01CB123F070034C68234312BB254ABF
:1008C000904214BF00220122234CA0421AD0CAB980
:1008D00002F1804202F58232904214BF00220122CE
:1008E00004F50064A0420DD062B91C4A904214BFC6
:1008F0000022012204F59A34A04203D012B9184A0A
:10090000904203D123F44073CC68234323F0800347
:100910004A69134303608A68C2620A688262114BA3
:10092000984214BF2B4645F001035BB90B4B98422C
:1009300014BF002301230C4A904203D013B9084B83
:10094000984201D10B6903630123436170BC704776
:100950000000014000080040000400400044014045
:1009600000480140000401400040014068B310B558
:10097000044690F83D3013F0FF0F04D1002380F8B7
:100980003C30FFF77FFE022384F83D30211D2068B4
:10099000FFF76CFF012384F8483084F83E3084F878
:1009A0003F3084F8403084F8413084F8423084F895
:1009B000433084F8443084F8453084F8463084F875
:1009C000473084F83D30002010BD0120704700BF43
:1009D000704700BF704700BF704700BF002800F09D
:1009E000058338B50446036813F0010F61D0AC4AA3
:1009F000136903F03803926A102B05D0182B0CD121
:100A000002F00302022A08D1A54B1B6813F4003F31
:100A10004FD06368002B4CD1EAE26368B3F5803FA6
:100A200005D19F4A136843F48033136020E04BB92B
:100A30009B4B1A6822F480321A601A6822F48022D2
:100A40001A6015E0B3F5A02F09D1954B1A6842F44E
:100A500080221A601A6842F480321A6008E0904BD3
:100A60001A6822F480321A601A6822F480221A600E
:100A700063687BB101F0BEFC054605E001F0BAFCFD
:100A8000401B642800F2B682854B1B6813F4003FBC
:100A9000F4D00EE001F0AEFC054605E001F0AAFC42
:100AA000401B642800F2A8827D4B1B6813F4003FB2
:100AB000F4D1236813F0020F00F08480784A1369A0
:100AC000926A13F0380304D0182B2DD112F0030FC3
:100AD0002AD1734B1B6813F0040F03D0E368002B7B
:100AE00000F08C8201F0A0FC41F20303984212D87E
:100AF0002269402A07D16A4A536823F47C3343F4BD
:100B0000003353605EE066494B6823F47C3343EA6C
:100B100002334B6056E0624A536823F0FE4321697A
:100B200043EA016353604DE0E268002A36D05C4935
:100B30000B6823F0190313430B6001F05BFC0546BF
:100B400005E001F057FC401B022800F25982544B8B
:100B50001B6813F0040FF4D001F066FC41F20303AC
:100B6000984212D82269402A07D14D4A536823F48B
:100B70007C3343F40033536024E049494B6823F449
:100B80007C3343EA02334B601CE0454A536823F050
:100B9000FE43216943EA0163536013E0404A13684E
:100BA00023F00103136001F025FC054605E001F088
:100BB00021FC401B022800F22582394B1B6813F0F0
:100BC000040FF4D1236813F0100F00F08880344A2A
:100BD000136903F03803926A082B05D0182B2ED125
:100BE00002F00302012A2AD12D4B1B6813F4807FE7
:100BF00003D0E369802B40F0078201F015FC41F23D
:100C00000303984212D8226A202A07D1244A536843
:100C100023F0F84343F08043536060E020494B6881
:100C200023F0F84343EA82634B6058E01C4AD368E0
:100C300023F07C53216A43EA0163D3604FE0E36908
:100C4000002B38D0164A136843F08003136001F07C
:100C5000D1FB054605E001F0CDFB401B022800F268
:100C6000D5810F4B1B6813F4807FF4D001F0DCFBBF
:100C700041F20303984215D8226A202A07D1084A74
:100C8000536823F0F84343F08043536027E004495E
:100C90004B6823F0F84343EA82634B601FE000BFD8
:100CA00000440258AE4AD36823F07C53216A43EAD9
:100CB0000163D36013E0AA4A136823F08003136032
:100CC00001F098FB054605E001F094FB401B02286B
:100CD00000F29E81A24B1B6813F4807FF4D123683D
:100CE00013F0080F2AD06369A3B19D4A536F43F0F4
:100CF0000103536701F07EFB054605E001F07AFB36
:100D0000401B022800F28681954B5B6F13F0020FA7
:100D1000F4D013E0924A536F23F00103536701F0BC
:100D200069FB054605E001F065FB401B022800F267
:100D300073818B4B5B6F13F0020FF4D1236813F0B8
:100D4000200F2AD0A369A3B1854A136843F48053C6
:100D5000136001F04FFB054605E001F04BFB401B23
:100D6000022800F25B817E4B1B6813F4005FF4D015
:100D700013E07B4A136823F48053136001F03AFBBD
:100D8000054605E001F036FB401B022800F24881D1
:100D9000734B1B6813F4005FF4D1236813F0040F46
:100DA00061D0704A136843F48073136001F022FB32
:100DB000054605E001F01EFB401B642800F232816D
:100DC000684B1B6813F4807FF4D0A368012B05D116
:100DD000634A136F43F0010313671FE04BB9604B85
:100DE0001A6F22F001021A671A6F22F004021A67C2
:100DF00014E0052B09D15A4B1A6F42F004021A670E
:100E00001A6F42F001021A6708E0554B1A6F22F080
:100E100001021A671A6F22F004021A67A3688BB1E5
:100E200001F0E8FA054607E001F0E4FA401B41F260
:100E30008833984200F2F880494B1B6F13F0020F81
:100E4000F2D010E001F0D6FA054607E001F0D2FA40
:100E5000401B41F28833984200F2E880404B1B6F00
:100E600013F0020FF2D1636A002B00F0E1803C4ADC
:100E7000126902F03802182A00F08F80022B77D115
:100E8000374A136823F08073136001F0B3FA054604
:100E900005E001F0AFFA401B022800F2CB80304B96
:100EA0001B6813F0007FF4D12D4B9A6A2E49114034
:100EB000A26AE06A42EA00120A439A62226B511E59
:100EC000C1F30801626B013A520292B21143A26B64
:100ED000013A120402F4FE021143E26B013A1206D7
:100EE00002F0FE420A431A63DA6A22F00102DA6271
:100EF000596B1E4A0A40A16C42EAC1025A63DA6A7F
:100F000022F00C01226C0A43DA62DA6A22F0020152
:100F1000626C0A43DA62DA6A42F48032DA62DA6ACE
:100F200042F40032DA62DA6A42F48022DA62DA6A81
:100F300042F00102DA621A6842F080721A6001F02F
:100F400059FA044604E001F055FA001B022873D850
:100F5000034B1B6813F0007FF5D0002038BD00BFA5
:100F600000440258004802580CFCFFFF0700FFFF36
:100F70003A4A136823F08073136001F03BFA044689
:100F800004E001F037FA001B022857D8334B1B68E6
:100F900013F0007FF5D1002038BD304A916A106B04
:100FA000012B4DD001F00303A26A93424AD1C1F351
:100FB0000511E36A994247D1C0F30802236B013B54
:100FC0009A4243D1C0F34622636B013B9A423FD120
:100FD000C0F30642A36B013B9A423BD1C0F30660CB
:100FE000E36B013B984237D0012038BD01207047A8
:100FF000012038BD032038BD032038BD012038BD95
:10100000032038BD032038BD012038BD032038BD82
:10101000032038BD032038BD032038BD032038BD70
:10102000032038BD032038BD032038BD032038BD60
:10103000002038BD032038BD032038BD032038BD53
:10104000012038BD012038BD012038BD012038BD48
:10105000012038BD012038BD002038BD00440258B1
:10106000754B1B6903F03803102B00F0DC80182B44
:1010700010D00BB1714870476F4B1B6813F0200FF5
:1010800000F0D3806C4B1868C0F3C1006C4B23FA9E
:1010900000F0704710B46849886A00F003008A6A5B
:1010A000C2F30512CB6A03F001044B6BC3F3CC030C
:1010B00003FB04F307EE903AF8EE677A002A00F09B
:1010C000B680012849D010B1022863D07FE05A4B86
:1010D0001B6813F0200F23D057480368C3F3C101E6
:1010E000574BCB4007EE103AF8EE476A07EE102A4E
:1010F000B8EE476A86EE867A036BC3F3080306EE02
:10110000903AF8EE666A9FED4F6A67EE867A76EE61
:10111000A77AF7EE006A77EEA66A67EE266A72E0B3
:1011200007EE102AF8EE476A9FED476A86EE267AA8
:10113000414B1B6BC3F3080306EE903AF8EE666A68
:101140009FED406A67EE867A76EEA77AF7EE006A40
:1011500077EEA66A67EE266A55E007EE102AF8EEEB
:10116000476A9FED3A6A86EE267A334B1B6BC3F3D0
:10117000080306EE903AF8EE666A9FED326A67EE73
:10118000867A76EEA77AF7EE006A77EEA66A67EEC1
:10119000266A38E007EE102AF8EE476A9FED2C6ABF
:1011A00086EE267A244B1B6BC3F3080306EE903AB7
:1011B000F8EE666A9FED236A67EE867A76EEA77A86
:1011C000F7EE006A77EEA66A67EE266A1BE007EE86
:1011D000102AB8EE477ADFED1D6A86EE876A164B55
:1011E0001B6BC3F3080306EE903AF8EE666A9FEDB8
:1011F000157A67EE877A76EEA77AF7EE006A77EED1
:10120000A66A66EE266A0C4B1B6BC3F346230133BA
:1012100007EE903AB8EE677AC6EE877AFCEEE77A88
:1012200017EE900A04E00B4870470548704700200D
:101230005DF8044B704700BF0044025800093D00B0
:101240000090D003000000390024744C0024744A3C
:1012500020BCBE4B40787D01002800F02F8170B586
:1012600004469E4B1B6803F00F038B420BD29B4A34
:10127000136823F00F030B431360136803F00F038D
:10128000994240F01D81236813F0040F0CD02269AD
:10129000934B9B6903F070039A4205D99048836988
:1012A00023F0700313438361236813F0080F0CD0FD
:1012B00062698B4BDB6903F070039A4205D9884859
:1012C000C36923F070031343C361236813F0100F45
:1012D0000CD0A269824BDB6903F4E0639A4205D922
:1012E0007F48C36923F4E0631343C361236813F0A9
:1012F000200F0CD0E2697A4B1B6A03F070039A420C
:1013000005D97748036A23F0700313430362236807
:1013100013F0020F0CD0E268714B9B6903F00F03CE
:101320009A4205D96E48836923F00F031343836102
:101330000D46236813F0010F3ED069498B6923F4F1
:101340007062A36813438B616368022B04D10A683F
:1013500012F4003F16D1B5E0032B05D1604A1268A4
:1013600012F0007F0ED1AFE0012B05D15C4A12686C
:1013700012F4807F06D1A9E0594A126812F0040FD6
:1013800000F0A68056490A6922F0070213430B6158
:1013900001F030F8064607E001F02CF8801B41F21E
:1013A0008833984200F296804D4B1B6903F0380356
:1013B0006268B3EBC20FEFD1236813F0020F0CD0B9
:1013C000E268474B9B6903F00F039A4205D24449F8
:1013D0008B6923F00F0313438B61404B1B6803F0B1
:1013E0000F039D420AD23D4A136823F00F032B439B
:1013F0001360136803F00F039D426DD1236813F04F
:10140000040F0CD02269364B9B6903F070039A429B
:1014100005D233498B6923F0700313438B61236832
:1014200013F0080F0CD062692D4BDB6903F07003D9
:101430009A4205D22A49CB6923F070031343CB614A
:10144000236813F0100F0CD0A269254BDB6903F45D
:10145000E0639A4205D22249CB6923F4E063134347
:10146000CB61236813F0200F0CD0E2691C4B1B6A80
:1014700003F070039A4205D219490B6A23F07003F6
:1014800013430B62FFF7ECFD15498B69C3F303238C
:10149000144AD35C03F01F03D8408B6903F00F0399
:1014A000D35C03F01F0320FA03F30F4A13600F4BC2
:1014B00018600F4B186801F063F870BD0120704789
:1014C000012070BD012070BD012070BD012070BDE4
:1014D000012070BD032070BD012070BD00200052AE
:1014E00000440258F0660008080000200C000020AC
:1014F0000000002008B5FFF7B3FD0B4A9369C3F362
:1015000003230A49CB5C03F01F0320FA03F392691B
:1015100002F00F02885C00F01F0023FA00F0044A7A
:101520001060044A136008BD00440258F0660008C9
:10153000080000200C00002008B5FFF7DBFF054B7A
:10154000DB69C3F30213044AD35C03F01F03D840E2
:1015500008BD00BF00440258F06600083F23036046
:10156000114B1A6902F0070242609A6902F4706234
:1015700082609A6902F00F02C2609A6902F07002FA
:101580000261DA6902F070024261DA6902F4E06233
:1015900082611B6A03F07003C361044B1B6803F094
:1015A0000F030B60704700BF004402580020005238
:1015B000424B9B6A03F00303032B79D070B50E46B0
:1015C00005463E4A136823F08063136000F012FF63
:1015D000044604E000F00EFF001B02286AD8374BD7
:1015E0001B6813F0006FF5D1344B9A6A22F47C32F9
:1015F000296842EA01329A626A68511EC1F3080101
:10160000A868421E520292B241EA0200E96801391A
:10161000090401F4FE0240EA02012A69013A1206B5
:1016200002F0FE420A439A63DA6A22F0C0016A6954
:101630000A43DA62DA6A22F02001AA690A43DA620E
:10164000DA6A22F01002DA62D96B1D4A0A40E969AF
:1016500042EAC102DA63DA6A42F01002DA622EB9B3
:101660001A46DB6A43F40023D3620CE0012E05D155
:10167000124AD36A43F48013D36204E00F4AD36A58
:1016800043F40013D3620D4A136843F08063136080
:1016900000F0B0FE044604E000F0ACFE001B02289F
:1016A0000AD8064B1B6813F0006FF5D0002070BD00
:1016B00001207047032070BD032070BD0044025814
:1016C0000700FFFF424B9B6A03F00303032B79D013
:1016D00070B50E4605463E4A136823F080531360EA
:1016E00000F088FE044604E000F084FE001B02289F
:1016F0006AD8374B1B6813F0005FF5D1344B9A6AF8
:1017000022F07C72296842EA01529A626A68511E8C
:10171000C1F30801A868421E520292B241EA0200D7
:10172000E9680139090401F4FE0240EA02012A696C
:10173000013A120602F0FE420A431A64DA6A22F4FF
:1017400040616A690A43DA62DA6A22F40071AA69BE
:101750000A43DA62DA6A22F48072DA62596C1D4A4C
:101760000A40E96942EAC1025A64DA6A42F48072C4
:10177000DA622EB91A46DB6A43F48003D3620CE0C6
:10178000012E05D1124AD36A43F40003D36204E068
:101790000F4AD36A43F08073D3620D4A136843F053
:1017A0008053136000F026FE044604E000F022FEA1
:1017B000001B02280AD8064B1B6813F0005FF5D007
:1017C000002070BD01207047032070BD032070BD54
:1017D000004402580700FFFFF8B50446036813F001
:1017E000006F2CD0436EB3F5801F11D001D843B1E8
:1017F0001AE0B3F5001F11D0B3F5401F14D1002536
:1018000013E09F4AD36A43F40033D36200250CE00F
:1018100002210430FFF7CCFE054606E00221243009
:10182000FFF750FF054600E001255DB994490B6DB7
:1018300023F44012636E13430B652E4603E000262B
:10184000354600E02E46236813F4807F25D0636D73
:10185000042B17D8DFE803F003090F171700884A95
:10186000D36A43F40033D3620DE00021201DFFF75B
:101870009FFE054607E0002104F12400FFF722FF48
:10188000054600E001253DB97D490B6D23F00702B7
:10189000636D13430B6500E02E46236813F4007F4D
:1018A0002BD0A36D802B16D003D843B1402B0CD086
:1018B00018E0C02B17D0B3F5807F14D012E0704A27
:1018C000D36A43F40033D3620DE00021201DFFF7FB
:1018D0006FFE054607E0002104F12400FFF7F2FE49
:1018E000054600E001253DB965490B6D23F4E07222
:1018F000A36D13430B6500E02E46236813F4806F3D
:1019000030D0D4F8A430B3F5800F18D004D853B138
:10191000B3F5001F0DD019E0B3F5C00F17D0B3F524
:10192000000F14D012E0564AD36A43F40033D36256
:101930000DE00021201DFFF73BFE054607E00021DA
:1019400004F12400FFF7BEFE054600E0012545B97D
:101950004B498B6D23F46002D4F8A43013438B659C
:1019600000E02E46236813F4006F30D0D4F8A8307E
:10197000B3F1007F18D004D853B1B3F1807F0DD0FC
:1019800019E0B3F1407F17D0B3F1806F14D012E0AB
:101990003B4AD36A43F40033D3620DE00021201D9B
:1019A000FFF706FE054607E0002104F12400FFF7DB
:1019B00089FE054600E0012545B931498B6D23F0CC
:1019C000E062D4F8A83013438B6500E02E4623680C
:1019D00013F0007F21D0A36C102B07D001D893B156
:1019E00010E0202B08D0302B0DD00BE0244AD36A16
:1019F00043F40033D36206E00221201DFFF7D8FD37
:101A0000054600E001253DB91D49CB6C23F03002AD
:101A1000A36C1343CB6400E02E46236813F4805F6D
:101A200031D0E36DB3F5005F18D004D853B1B3F5EE
:101A3000805F0DD019E0B3F5405F17D0B3F5804F4C
:101A400014D012E00E4AD36A43F40033D3620DE09F
:101A50000021201DFFF7ACFD054607E0002104F141
:101A60002400FFF72FFE054600E0012555B9044983
:101A70000B6D23F4E042E36D13430B6503E000BFFD
:101A8000004402582E46236813F4005F2BD0236EC7
:101A9000B3F5003F15D004D8DBB1B3F5803F0AD0D1
:101AA00016E0B3F5802F14D0B3F5A02F11D0B3F505
:101AB000403F0DD10DE00121201DFFF779FD0546C6
:101AC00007E0012104F12400FFF7FCFD054600E0DA
:101AD00001253DB98F490B6D23F4E022236E13439A
:101AE0000B6500E02E46236813F4804F2DD0D4F808
:101AF000AC30B3F1005F15D004D8DBB1B3F1805F37
:101B00000AD016E0B3F1804F14D0B3F1A04F11D03A
:101B1000B3F1405F0DD10DE00121201DFFF748FD1D
:101B2000054607E0012104F12400FFF7CBFD05463F
:101B300000E0012545B977498B6D23F0E042D4F8E8
:101B4000AC3013438B6500E02E46236813F4004F3E
:101B50001FD0E36EB3F1805F04D0B3F1005F07D014
:101B600063B90CE06B4AD36A43F40033D36206E0F6
:101B70000121201DFFF71CFD054600E001253DB9B0
:101B800064490B6D23F04052E36E13430B6500E094
:101B90002E46236813F0807F1DD0636C032B0FD873
:101BA000DFE803F00F02080F5A4AD36A43F4003308
:101BB000D36206E00221201DFFF7FAFC054600E093
:101BC00001253DB95349CB6C23F00302636C1343E9
:101BD000CB6400E02E46236813F4800F65D04E4A94
:101BE000136843F48073136000F004FC074604E0BC
:101BF00000F000FCC01B642805D8474B1B6813F499
:101C0000807FF5D000E00325002D4BD1414B1A6FAA
:101C1000D4F8B030534013F4407F0CD03D4B1A6FD2
:101C200022F44072196F41F480311967196F21F461
:101C3000803119671A67D4F8B030B3F5807F11D1BD
:101C400000F0D8FB074606E000F0D4FBC01B41F2D1
:101C50008833984205D82F4B1B6F13F0020FF3D037
:101C600000E0032505BBD4F8B03003F44072B2F5B0
:101C7000407F09D12748016921F47C51274A02EAB3
:101C800013130B43036104E0224A136923F47C53CA
:101C90001361204A116FD4F8B030C3F30B030B4328
:101CA000136702E02E4600E02E46236813F0010F72
:101CB00037D0A36F282B23D8DFE803F0232222227A
:101CC0002222222215222222222222221B22222208
:101CD00022222222232222222222222223222222E2
:101CE0002222222223000121201DFFF761FC05464C
:101CF00007E0012104F12400FFF7E4FC054600E0C1
:101D000001256DB903494B6D23F03802A36F1343CE
:101D10004B6506E00044025800480258CFFFFF0020
:101D20002E46236813F0020F1FD0636F052B11D8C6
:101D3000DFE803F01103091111110121201DFFF744
:101D400037FC054607E0012104F12400FFF7BAFC47
:101D5000054600E001253DB9AC494B6D23F0070273
:101D6000636F13434B6500E02E46236813F0040FA6
:101D700021D0D4F89030052B11D8DFE803F01103FF
:101D8000091111110121201DFFF712FC054607E082
:101D9000012104F12400FFF795FC054600E0012530
:101DA00045B99A498B6D23F00702D4F8903013435C
:101DB0008B6500E02E46236813F0200F2DD0D4F859
:101DC0008C30B3F1005F15D004D8DBB1B3F1805F84
:101DD0000AD016E0B3F1804F14D0B3F1A04F11D068
:101DE000B3F1405F0DD10DE00021201DFFF7E0FBB6
:101DF000054607E0022104F12400FFF763FC0546D5
:101E000000E0012545B981494B6D23F0E042D4F84B
:101E10008C3013434B6500E02E46236813F0400FCF
:101E20002DD0D4F89830B3F5006F15D004D8DBB1BD
:101E3000B3F5806F0AD016E0B3F5805F14D0B3F528
:101E4000A05F11D0B3F5406F0DD10DE00021201D32
:101E5000FFF7AEFB054607E0022104F12400FFF77F
:101E600031FC054600E0012545B968498B6D23F436
:101E7000E052D4F8983013438B6500E02E46236877
:101E800013F0800F2DD0D4F89C30B3F5804F15D0CF
:101E900004D8DBB1B3F5005F0AD016E0B3F5004F0C
:101EA00014D0B3F5204F11D0B3F5C04F0DD10DE0D4
:101EB0000021201DFFF77CFB054607E0022104F10D
:101EC0002400FFF7FFFB054600E0012545B94F4917
:101ED0008B6D23F46042D4F89C3013438B6500E093
:101EE0002E46236813F0080F13D0D4F88030B3F5D2
:101EF000805F06D1022104F12400FFF7E3FB00B16B
:101F0000012642494B6D23F44052D4F880301343EC
:101F10004B65236813F0100F13D0D4F89430B3F549
:101F2000807F06D1022104F12400FFF7CBFB00B132
:101F3000012636498B6D23F44072D4F89430134354
:101F40008B65236813F4002F21D0D4F8A030B3F5AB
:101F5000803F09D0B3F5003F0ED063B90021201DAA
:101F6000FFF726FB054607E0022104F12400FFF7F6
:101F7000A9FB054600E0012545B924498B6D23F4F2
:101F80004032D4F8A03013438B6500E02E4623681E
:101F900013F4802F23D0D4F88430B3F5001F0BD076
:101FA000B3F5401F10D0B3F5801F0CD1174AD36A88
:101FB00043F40033D36207E0012104F12400FFF76A
:101FC00081FB054600E0012545B910494B6D23F41E
:101FD0004012D4F8843013434B6500E02E4623684A
:101FE00013F4803F1FD0E36C1BB1B3F5803F06D0E4
:101FF0000EE0064AD36A43F40033D36209E00221BB
:10200000201DFFF7D5FA054603E000BF0044025843
:1020100001253DB93A49CB6C23F48032E36C13437C
:10202000CB6400E02E46236813F0005F06D0022147
:1020300004F12400FFF746FB00B10126236813F4E6
:10204000003F1ED0E36FB3F5807F09D001D86BB994
:102050000DE0B3F5007F0AD0B3F5407F06D106E06E
:10206000274AD36A43F40033D36200E001253DB927
:1020700023494B6D23F44072E36F13434B6500E03B
:102080002E46236813F4801F06D01D490B6D23F0E4
:102090000042236F13430B65236813F0805F07D062
:1020A00017490B6923F48042D4F8B43013430B6111
:1020B000236813F4001F06D011490B6D23F08072C2
:1020C000A36E13430B65236813F0804F09D00C4BAC
:1020D0001A6922F400421A611969D4F8B8200A4337
:1020E0001A612368002B06DA0549CB6C23F04052B5
:1020F000236D1343CB640EB90020F8BD0120F8BD59
:10210000004402582DE9F04182B00023E4E00124AC
:102110009C40224000F0DF804D686E1E112D18BFDC
:10212000012E01D9122D15D187684FEA430E0326DF
:1021300006FA0EF627EA0606CD6805FA0EF53543CF
:102140008560456825EA04044D68C5F300159D4087
:102150002C434460C5685F000324BC40E44305EAA7
:10216000040E8D68BD404EEA0505C5604D68122D10
:1021700018BF022D13D1DE08083650F8268003F070
:1021800007054FEA850E0F2505FA0EF528EA050C1E
:102190000D6905FA0EF54CEA050540F8265005686C
:1021A00004EA05064C6804F0030505FA07F4344315
:1021B00004604C6814F0805F00F08D804A4CD4F8C5
:1021C000F45045F00205C4F8F450D4F8F44004F09B
:1021D00002040194019C9E08B51C444C54F82570DF
:1021E00003F00304A4000F25A54027EA0507404D8E
:1021F000A84225D005F58065A84223D005F5806565
:10220000A84221D005F58065A8421FD005F580655C
:10221000A8421DD005F58065A8421BD005F5806554
:10222000A84219D005F58065A84217D005F580654C
:10223000A84215D005F58065A84213D1092512E002
:10224000002510E001250EE002250CE003250AE040
:10225000042508E0052506E0062504E0072502E040
:10226000082500E00A2505FA04F43C4302361F4D18
:1022700045F826401F4C2568D44305EA04064F68FC
:1022800017F4803F01D042EA05061A4D2E606E68B1
:1022900004EA06054F6817F4003F01D042EA06053C
:1022A000144E75604FF0B0452D6804EA05064F687E
:1022B00017F4801F01D042EA05064FF0B0452E60AA
:1022C0006D682C404E6816F4001F01D042EA0504E8
:1022D0004FF0B042546001330A6832FA03F47FF4DD
:1022E00016AF02B0BDE8F081004402580004005867
:1022F00000000258800000580AB18161704709044B
:1023000081617047436931EA030302D109048161A5
:1023100070478161704700BF144BDB6813F0040FF6
:1023200007D1124BDB6803F00703834219D0012069
:10233000704710B50D4AD36823F007031843D060E7
:1023400000F058F8044605E000F054F8001BB0F522
:102350007A7F08D8054B5B6813F4005FF4D0002047
:1023600010BD00207047012010BD00BF004802587A
:10237000024AD36843F08073D36070470048025824
:1023800010B50320FEF72EF9FEF76AFE0F498B69A0
:10239000C3F303230E4AD35C03F01F03D8408B69B9
:1023A00003F00F03D35C03F01F0320FA03F3094A81
:1023B0001360094B1860002000F0E2F818B90446D9
:1023C000FEF7F6F800E00124204610BD0044025854
:1023D000F0660008080000200C000020034B19786C
:1023E000034A13680B441360704700BF04000020C9
:1023F000BC410020014B1868704700BFBC41002061
:1024000038B50446FFF7F6FF0546B4F1FF3F02D0AA
:10241000044B1B781C44FFF7EDFF401B8442FAD8A5
:1024200038BD00BF04000020014B1868000C704745
:102430000010005C294AD2F8883043F47003C2F8D7
:102440008830274B1B6803F00F03062B06D8244A5D
:10245000136823F00F0343F007031360214B1A683E
:1024600042F001021A6000221A6119681E4A0A40ED
:102470001A601B4B1B6803F00F03072B06D9184A81
:10248000136823F00F0343F007031360154B00227A
:102490009A61DA611A62154999621549D96215493A
:1024A00019635A639963DA6319645A64196821F4E9
:1024B000802119601A66104B1A68104B1340B3F153
:1024C000005F02D201220E4B1A6043F2D2020D4B82
:1024D0001A604FF00062014B9A60704700ED00E017
:1024E00000200052004402587FEDF6EA000202028A
:1024F0000000FF01800201010010005C0000FFFFEE
:10250000088100510040005208B500F087F8084AE1
:102510001368013313604FF400510648FFF7F2FED1
:10252000054800F0A7F9C82002F070FAEFE700BFF5
:10253000C44100200008025800670008034B0360F4
:10254000034B0B6080231360704700BF080400201A
:102550000802002030B589B001AC074D0FCD0FC483
:1025600095E8070084E80700002101A802F018FAA6
:10257000024B186009B030BDD4660008C04100208D
:102580000F283BD810B58AB00446002201463620F9
:10259000FEF73AF83620FEF767F81B4B1C601B4B22
:1025A000D3F8E82042F01002C3F8E820D3F8E8306E
:1025B00003F010030093009B01A902A8FEF7CEFFD1
:1025C000079B13B9FEF7B8FF02E0FEF7B5FF400026
:1025D0000F4BA3FB00239B0C013B0E480E4A0260ED
:1025E00040F2E732C2604360002303618360FEF77C
:1025F000BDF928B90748FEF747F802E00120704707
:1026000001200AB010BD00BF0000002000440258A5
:1026100083DE1B43CC4100200010004008B500229F
:102620000E490F4802F0A8FC08B1FDF7C3FE0D49A2
:102630000B4802F0BDFC08B1FDF7BCFE0A49084892
:1026400003F042FB08B1FDF7B5FE054802F0C4FCFB
:1026500008B1FDF7AFFEFFF78BFE08BD10000020AC
:1026600018420020BC0000206000002012230B80D4
:10267000004870474C00002004230B80004870473E
:102680002C00002030B4002310E0040F092C03D8E4
:10269000303401F8134002E0373401F813400001F0
:1026A0005C00013400250D550133DBB29342ECD3BD
:1026B00030BC704738B50A4B1B680A4A14680432AC
:1026C000106818180AD0084D0822A91CFFF7DAFF75
:1026D000042205F112012046FFF7D4FF38BD00BFE8
:1026E00000E8F11F04E8F11F3000002008B51A23AC
:1026F0000B80FFF7DFFF014808BD00BF300000205E
:1027000008B50A4620B90549054803F00DF903E06C
:102710000249034803F008F9004808BDE8440020D6
:102720001867000810B5044C0A462146034803F018
:10273000FBF8204610BD00BFE844002030670008C9
:1027400008B50A4620B90549054803F0EDF803E04D
:102750000249034803F0E8F8004808BDE8440020B7
:102760004467000808B50A4620B90549054803F042
:10277000DBF803E00249034803F0D6F8004808BD3F
:10278000E844002050670008002070470020704790
:1027900000207047124A136809680B441360B3F5B0
:1027A000006F12D29A1E0F498A5C0D2A0DD05A1E54
:1027B0008A5C0A2A09D010B50B4C1944204603F054
:1027C00093FA204603F0B0FA07E00121044A516071
:1027D0000021044AD15400207047002010BD00BFE2
:1027E0005C040020E84600201842002010B5064C8A
:1027F00000220649204603F06FFA0549204603F0FF
:1028000073FA002010BD00BF18420020E84E0020DF
:10281000E8460020F8B506460F46FFF7EBFD144BDF
:10282000D3F8BC42D4F814322BB10546FFF7E2FDD1
:10283000401B0A2818D80E4D3A463146284603F068
:102840004BFA284603F056FA0646FFF7D3FD054635
:1028500004E0FFF7CFFD401B0A2807D8D4F8143254
:10286000002BF6D13046F8BD0120F8BD0120F8BD9F
:10287000184200200FB410B582B004AB53F8042BFB
:102880000193074C4FF40061204603F0C3FB81B273
:102890002046FFF7BFFF02B0BDE8104004B070470C
:1028A000E84E002010B588B00023039304930593ED
:1028B000069307930268184B9A422BD1174CD4F811
:1028C000E03043F00103C4F8E030D4F8E03003F026
:1028D00001030193019B4FF4C0530393022304931C
:1028E0000A23079303A90E48FFF70CFCD4F8D8304D
:1028F00043F00063C4F8D830D4F8D83003F0006354
:102900000293029B002205216520FDF77DFE6520D4
:10291000FDF7AAFE08B010BD0000084000440258B0
:102920000000025808B500F57171D0F8040402F0F7
:1029300069FB08BD08B5C1EBC10293000344D3F89D
:102940000822D0F8040402F08BFB08BD08B5C1EBE7
:10295000C102930003449A6CD0F8040402F0BCFB5B
:1029600008BD00BF08B5D0F8040402F055FC08BD4E
:1029700010B50446C3682BB1022B05D0FDF71AFD34
:10298000012102E0002100E00121D4F8040402F05A
:102990002BFCD4F8040402F0FDFB10BD10B5044676
:1029A000D0F8040402F024FC2268D2F8003E43F080
:1029B0000103C2F8003E236A23B1034A136943F0BE
:1029C0000603136110BD00BF00ED00E008B5D0F8AC
:1029D000040402F017FC08BD08B5D0F8040402F0A6
:1029E00029FC08BD08B5D0F8040402F021FC08BD9C
:1029F00008B5D0F8040402F01FFC08BD08B5D0F8F3
:102A0000040402F01BFC08BD03785BBB10B5034651
:102A10001548C0F80434C3F8C402144B03600923FA
:102A200043600222C260002303618261C3610362CA
:102A300043628362C362036300F0F0F808B1FDF7FC
:102A4000B9FC094C8021204600F014FE40220021F0
:102A5000204600F0EBFD80220121204600F0E6FD3B
:102A6000002010BD00207047E856002000000840FC
:102A7000D0F8C42211F0800F08D001F07F01C1EB23
:102A8000C1018B00134493F83E00704701F07F01B1
:102A9000C1EBC1018B00134493F8FE01704700BFE6
:102AA00008B5D0F8C40200F015FD08BD10B1022829
:102AB00002D003E0002070470120704703207047D8
:102AC00008B5D0F8C40200F043F9FFF7EFFF08BDE6
:102AD00010B51C4613462246D0F8C40200F054FC40
:102AE000FFF7E4FF10BD00BF08B5D0F8C40200F046
:102AF0008BFCFFF7DBFF08BD08B5D0F8C40200F07F
:102B00001DFDFFF7D3FF08BD08B5D0F8C40200F0E3
:102B100055FDFFF7CBFF08BD08B5D0F8C40200F0A3
:102B20001FFCFFF7C3FF08BD08B5D0F8C40200F0D2
:102B3000DBFCFFF7BBFF08BD08B5D0F8C40200F00E
:102B40009BFCFFF7B3FF08BD2DE9F04782B0D0F83A
:102B50000080CA00521A930003445A6D1B6D9A42BA
:102B600056D8C1469B1AC1EBC104A2000244526C64
:102B7000934200D81A460C46074602F1030A4FEA70
:102B80009A0A1EE05B1AC4EBC4018A003A44566CF0
:102B9000B34200D81E4606F1030A4FEA9A0AE30040
:102BA0001B1B9D003D44A96C3B7C0093B3B2E2B279
:102BB000404601F0BBF8AB6C3344AB646B6D1E4414
:102BC0006E6509EB441303F510639B699BB29A454C
:102BD00009D8E3001B1B9A003A44516D136D9942CA
:102BE00001D2002BCED1E3001B1B980007443A6DA5
:102BF0007B6D9A420ED804F00F04012303FA04F40B
:102C0000D8F8343823EA0404C8F83448002002E035
:102C1000012000E0002002B0BDE8F087F0B58BB0E5
:102C2000002800F090800446056890F8BD3313F04A
:102C3000FF0F04D1002380F8BC33FFF733FE0323DA
:102C400084F8BD33EB6B13F4807F01D10023236143
:102C5000206800F007FE254655F8107B6E460FCD24
:102C60000FC60FCD0FC695E8030086E80300231DAD
:102C70000ECB384600F036FD20B1022384F8BD3378
:102C8000012561E00021206800F0F2FD002315E03D
:102C9000D900C81A82002244012082F83D0082F83F
:102CA0003C30A2F84230002082F83F00506490642B
:102CB000CA1A9100214408650133DBB26568AB4252
:102CC000E6D3002315E0D800C11A8A00224400216F
:102CD00082F8FD1182F8FC3182F8FF11C2F804126B
:102CE000C2F80812C21A90002044C0F81012013332
:102CF000DBB29D42E7D8254655F8107B6E460FCDD6
:102D00000FC60FCD0FC695E8030086E80300231D0C
:102D10000ECB384600F0F2FD054620B1022384F8C0
:102D2000BD33012510E0002384F83830012384F8F6
:102D3000BD33636A012B02D1204600F09FFC20685E
:102D400001F098F900E0012528460BB0F0BD00BF66
:102D5000026890F8BC33012B18D010B5012380F81D
:102D6000BC33836A012B06D18369012B03D0936B9B
:102D700043F4803393630446006801F06FF92068E0
:102D800000F06AFD002084F8BC0310BD02207047EB
:102D900070B504460D460068066C00EB411303F560
:102DA000306399682269012A44D111F0080F09D0D3
:102DB000344A964263D911F4004F60D04FF4004278
:102DC0009A605CE011F0200F02D020229A6056E059
:102DD00011F0280F53D12B4A964206D911F4004F17
:102DE00003D04FF400429A6049E0E900491B8A0091
:102DF0002244D2F804121B69C3F31203C91AC2F8A1
:102E00001412D2F80812D2F804320B44C2F8083275
:102E10005DB9C5EBC50293002344D3F8103223B942
:102E200004F57172012101F079F9E9B22046FFF74A
:102E300081FD24E0144A964210D111F4004F03D0D2
:102E40004FF400429A601AE011F0200F01D02022C6
:102E50009A60E9B22046FFF76DFD10E05DB9C5EB61
:102E6000C50293002344D3F8103223B904F57172DC
:102E7000002101F053F9E9B22046FFF75BFD002085
:102E800070BD00BF0A30544F0A31544F38B5044664
:102E900003681D6C03EB4111D1F8082B0D4B9D42CB
:102EA00007D901F5306112F4004F02D04FF400430E
:102EB0008B602046FFF736FD064B9D4208D92369FB
:102EC000012B05D104F571720121206801F026F96A
:102ED000002038BD0A30544F2DE9F04704460568FC
:102EE000284601F007F9002840F038822E46206875
:102EF00001F0CCF8002800F03182206801F0C6F81B
:102F000010F0020F04D02268536903F002035361EA
:102F1000206801F0BBF810F0100F45D022689369CB
:102F200023F0100393612F6A07F00F08C7F34343A0
:102F3000022B1FD147F6F0731F4230D04FEAC80A68
:102F4000C8EB0A034FEA8309A1443F09C7F30A0209
:102F5000D9F80812284601F003F8C7F30A07D9F890
:102F600008323B44C9F80832D9F814321F44C9F872
:102F7000147214E0062B12D1082204F57171284650
:102F800000F0EEFFC7F30A174FEAC803C8EB0301CE
:102F90008A002244D2F814323B44C2F81432226828
:102FA000936943F010039361206801F06FF810F407
:102FB000002F45D0206801F06DF807464FF000085B
:102FC0003CE017F0010F36D05FFA88F1206801F07D
:102FD00071F8814610F0010F08D006EB481301226A
:102FE000C3F8082B41462046FFF7D2FE19F0080F20
:102FF00008D006EB48130822C3F8082B41462046A8
:10300000FFF744FF19F0100F04D006EB481310220D
:10301000C3F8082B19F0200F04D006EB4813202228
:10302000C3F8082B19F4005F05D006EB48134FF4E2
:103030000052C3F8082B08F101087F08002FC0D107
:10304000206801F023F810F4802F6ED0206801F082
:1030500029F807464FF0000865E017F0010F5FD030
:103060005FFA88FA5146206801F02EF8814610F088
:10307000010F2ED008F00F03012101FA03F2D6F858
:10308000343823EA0203C6F8343806EB4813C3F891
:10309000081923698B4218D14FEAC802C8EB020213
:1030A00093002344996C5A6C0A449A64B8F1000F57
:1030B0000BD1C8EBC802930023441B6D2BB904F558
:1030C00071720121206801F029F851462046FFF76E
:1030D0003DFC19F0080F04D006EB48130822C3F892
:1030E000082919F0100F04D006EB48131022C3F87A
:1030F000082919F0400F04D006EB48134022C3F80A
:10310000082919F0020F04D006EB48130222C3F875
:10311000082919F0800F03D041462046FFF714FD1F
:1031200008F101087F08002F97D1206800F0AEFF5A
:10313000002818DAD5F8043823F00103C5F804385C
:1031400094F8F433012B06D1002184F8F4132046BF
:1031500000F0A8FA02E02046FFF738FC2268536925
:1031600003F000435361206800F090FF10F4006FFB
:103170000CD0D5F8083813F0010F02D02046FFF725
:103180000DFC2268536903F400635361206800F06A
:103190007DFF10F0006F17D02268536903F00063C1
:1031A000536194F8F43363B9012184F8F41323686C
:1031B0005B6DC3F38303C4F8F833204600F072FA62
:1031C00002E02046FFF7EAFB206800F05FFF10F402
:1031D000805F5AD005F500677B6823F001037B60B0
:1031E0001021206800F05CFB002220E006EB421377
:1031F0004FF67F30C3F80809D3F8001921F4001105
:10320000C3F80019D3F8001941F00061C3F80019A0
:10321000C3F8080BD3F8001B21F40011C3F8001BFE
:10322000D3F8001B41F00061C3F8001B0132636852
:103230009A42DBD3FB6943F00113FB61236B53B16B
:10324000D7F8843043F00B03C7F884307B6C43F02D
:103250000B037B6408E07A6942F22B0313437B6122
:103260003B6943F00B033B61D5F8003823F4FE6360
:10327000C5F8003804F57172217C206800F04EFF1B
:103280002268536903F480535361206800F0FEFE06
:1032900010F4005F16D0206800F030FF206800F0C6
:1032A000F3FBE0602568FEF725F9227B01462846FE
:1032B00000F05CFA2046FFF75BFB2268536903F4D9
:1032C00000535361206800F0E1FE10F0080F07D0B2
:1032D0002046FFF747FB2268536903F00803536158
:1032E000206800F0D3FE10F4801F08D00021204693
:1032F000FFF778FB2268536903F480135361206859
:1033000000F0C4FE10F4001F08D000212046FFF793
:1033100063FB2268536903F400135361206800F0D3
:10332000B5FE10F0804F07D02046FFF761FB226802
:10333000536903F080435361206800F0A7FE10F04A
:10334000040F0BD023685D6815F0040F02D02046EF
:10335000FFF754FB226853682B435360BDE8F087A6
:1033600090F8BC33012B0DD010B50446012380F832
:10337000BC3380F83810006800F060FE002084F84C
:10338000BC0310BD02207047F8B511F0800F0ED0BD
:1033900001F00F06F500AF1BBC002746383404448B
:1033A00004343E460644012586F83D500EE001F007
:1033B0000F06F500AF1BBC00274604F5FC7404445F
:1033C00004343E460644002586F8FD5101F00F0105
:1033D0002170A260E370627802B1E180022B01D11A
:1033E0000023237190F8BC33012B0BD00546012339
:1033F00080F8BC332146006800F056FB002085F8B9
:10340000BC03F8BD0220F8BD38B511F0800F0ED016
:1034100001F00F04E200151BAB001D4638330344D6
:1034200004332C460444012284F83D200EE001F0D0
:103430000F04E200151BAB001D4603F5FC730344AB
:1034400004332C460444002284F8FD2101F00F01CE
:10345000197090F8BC23012A0BD00446012280F891
:10346000BC231946006800F069FB002084F8BC0307
:1034700038BD022038BD00BF70B501F00F05EE0069
:10348000711B8C0004F5FC740444211D761BB400F0
:103490000444C4F80822C4F810320023C4F81432DB
:1034A00084F8FD3184F8FC510369012B05D1C5EB8B
:1034B000C506B4000444C4F80C2225B9DAB2006889
:1034C00000F0A8FB03E0DAB2006800F045FC002041
:1034D00070BD00BF01F00F01C1EBC1018B001844AA
:1034E000D0F81402704700BF70B501F00F05EE0070
:1034F000711B8C0038340444211D761BB400044435
:10350000A264236500236365012384F83D3084F8B9
:103510003C500369012B04D1C5EBC506B40004443B
:10352000E26425B9DAB2006800F074FB03E0DAB2B5
:10353000006800F011FC002070BD00BF38B501F03C
:103540000F0543689D4235D811F0800F0BD0EA007B
:10355000511B8B00194638330344043301440122C4
:1035600081F83D200CE0CA00541AA3001C4603F564
:10357000FC730344043322460244002182F8FD1107
:1035800001229A701D7090F8BC23012A14D00446C1
:10359000012280F8BC231946006800F0F3FC2DB925
:1035A00004F57172217C206800F0B8FD002084F8D9
:1035B000BC0338BD012038BD022038BD01F00F0327
:1035C000426893422DD810B511F0800F0BD0DA006D
:1035D000D41AA1000C4638310144043104440122BC
:1035E00084F83D200BE0DA00D41AA1000C4601F566
:1035F000FC71014404310444002284F8FD210022BE
:103600008A700B7090F8BC33012B0CD00446012358
:1036100080F8BC33006800F0E3FC002084F8BC03B1
:1036200010BD01207047022010BD00BF30B40468F7
:10363000636A19B943EA0240A06218E00D46A06A25
:1036400003EB1040002308E003F1400104EB81018B
:10365000496800EB11400133DBB2691E8B42F3D3A2
:1036600040EA024005F13F0104EB8101486000207F
:1036700030BC7047036859620020704702460368F7
:103680000121C0F8FC13002082F8F4039A6942F08B
:1036900000629A61596D024A0A435A65704700BF39
:1036A00003000010704700BF002301330C4A93420F
:1036B00011D80269002AF8DA036943F001030361B3
:1036C00000230133064A934207D8026912F0010F22
:1036D000F7D100207047032070470320704700BFD8
:1036E000400D030084B010B5044603A880E80E0026
:1036F000089B012B16D1A36B23F48033A363E268EC
:10370000194B1340E360E36823F44013E3600F9B1D
:10371000012B03D1E36843F48013E3602046FFF7F5
:10372000C3FF11E0E36843F04003E3602046FFF786
:10373000BBFF0C9B23B9A36B43F48033A36303E06B
:10374000A36B23F48033A363069B012B07D1A368EB
:1037500043F00603A360A36843F02003A360BDE821
:10376000104004B0704700BFBFFFBDFF022A3CD12C
:103770002C4B0B442C4A934239D92C4B0B442C4AEA
:10378000934236D92B4B0B442B4A934233D92B4BC4
:103790000B4402F5C332A03293422ED9284B0B447E
:1037A000284A93422BD9284B0B4402F5922202F56A
:1037B0007872934225D9254B0B4402F5C32202F5BA
:1037C000207293421FD9224B0B4402F5B71202F527
:1037D0005872934219D91F4B0B4402F5122202F57D
:1037E000F862934213D8072112E0092110E00F215B
:1037F0000EE00E210CE00D210AE00C2108E00B2167
:1038000006E00A2104E0092102E0082100E0062187
:10381000C26822F47052C260C36843EA8123C36065
:1038200000207047405327FFFF340C00401E1BFF51
:103830003F420F0000DC0BFF7F4F1200808CF9FE2F
:1038400060B6E5FE5FE3160000D3CEFEC05BB3FEBC
:1038500000CA91FEE05459FE836843F0010383607F
:1038600000207047836823F00103836000207047C5
:1038700008B5C36823F0C043C360012904D1C368FD
:1038800043F00053C36004E041B9C36843F0804390
:10389000C3603220FEF7B4FD002008BD012008BD42
:1038A000890141F02001016100230133054A93425F
:1038B00005D8026912F0200FF7D1002070470320CD
:1038C000704700BF400D0300102303610023013344
:1038D000054A934205D8026912F0100FF7D1002073
:1038E00070470320704700BF400D0300D0F8003838
:1038F0001943C0F800180020704700BF84B02DE9BC
:10390000F041044607A880E80E002546002306E0A3
:1039100003F1400204EB82020021516001330E2BBF
:10392000F6D9119B93B9D4F8043843F00203C4F8D4
:103930000438A36B23F40013A363236843F040030C
:103940002360236843F08003236003E0A36B43F408
:103950000013A3630023C4F8003E04F50066D4F806
:103960000038C4F800380C9B012B0BD1099B23B9FC
:1039700000212046FFF7BAFF08E001212046FFF7AB
:10398000B5FF03E003212046FFF7B0FF10212046DA
:10399000FFF786FF10B94FF0000801E04FF0010873
:1039A0002046FFF791FF08B14FF001080023336173
:1039B0007361F3611BE005EB431202F51061D2F86D
:1039C000000900280ADA23B94FF00060C2F80009A4
:1039D00007E04FF09040C2F8000902E00020C2F872
:1039E000000900220A614FF67F328A60013307998D
:1039F0008B42E0D300231BE005EB431202F530605D
:103A0000D2F8007B002F0ADA23B94FF00067C2F822
:103A1000007B07E04FF09047C2F8007B02E00027F0
:103A2000C2F8007B002202614FF67F3282600133D0
:103A30008B42E1D3336923F4807333610023A361A4
:103A40006FF0804363610A9B1BB9A36943F01003C5
:103A5000A361A2690A4B1343A3610D9B1BB1A36928
:103A600043F00803A361119B012B03D1A269054B0D
:103A70001343A3614046BDE8F04104B0704700BF66
:103A800000383C8004000040D0F8083813F00603EA
:103A900005D0062B18BF022B03D10220704700204F
:103AA00070470F20704700BF70B40B784A78012A26
:103AB00021D1D0F81C6803F00F02012404FA02F2AD
:103AC00092B23243C0F81C2800EB4310D0F8002912
:103AD00012F4004F2DD1D0F800498A68C2F30A02CF
:103AE000C97842EA814242EA83532343124A1A4385
:103AF000C0F800291DE0D0F81C4803F00F06012291
:103B0000B24044EA0242C0F81C2800EB4310D0F84F
:103B1000003B13F4004F0CD1D0F8004B8B68C3F37B
:103B20000A02CB7842EA83432343034A1A43C0F88C
:103B3000002B002070BC70470080001030B40B7860
:103B40004A78012A30D100EB4313D3F80029002A28
:103B50000BDAD3F8002942F00062C3F80029D3F849
:103B6000002942F08042C3F80029D0F83C580A7876
:103B700002F00F02012404FA02F292B225EA0202D4
:103B8000C0F83C28D0F81C28097801F00F018C40BF
:103B9000A4B222EA0404C0F81C48D3F800191B4A56
:103BA0000A40C3F800292DE000EB4313D3F8002BA3
:103BB000002A0BDAD3F8002B42F00062C3F8002B86
:103BC000D3F8002B42F08042C3F8002BD0F83C58C9
:103BD0000A7802F00F02012404FA02F225EA0242F6
:103BE000C0F83C28D0F81C28097801F00F018C405F
:103BF00022EA0444C0F81C48D3F8001B044A0A40D7
:103C0000C3F8002B002030BC704700BF007833ECB5
:103C10000078F3EF70B40B784C78012C59D14C69D3
:103C2000A4B900EB4314D4F810693E4D3540C4F8F4
:103C30001059D4F8105945F40025C4F81059D4F897
:103C40001069394D3540C4F810591AE000EB43149F
:103C500004F510642669344D354025612669314DDF
:103C6000354025614E698D68AE4200D94D612569A8
:103C700045F40025256126694D69C5F312053543D4
:103C80002561012A0ED10A691AB100EB4311C1F86E
:103C9000142900EB4310D0F8002942F00442C0F888
:103CA00000293BE000EB4313D3F8002942F0044223
:103CB000C3F800294B69002B30D0D0F834380A788B
:103CC00002F00F02012101FA02F21A43C0F834286F
:103CD00024E000EB431000F530631D69124C2C40CA
:103CE0001C611D690F4C2C401C614C690CB18C6827
:103CF0004C611C6944F400241C611D698C68C4F388
:103D000012042C431C61012A02D1CA6802B15A6113
:103D1000D0F8003B43F00443C0F8003B002070BCE7
:103D2000704700BFFFFF07E00000F8FF70B49DF888
:103D30000C406CB903339B08002507E000EB02340C
:103D400004F5805451F8046B266001359D42F5D38B
:103D5000002070BC704700BFF0B583B00C784B7882
:103D6000012B40F0A7804B69A3B900EB4413D3F8B3
:103D70001069784D3540C3F81059D3F8105945F4FF
:103D80000025C3F81059D3F81069734D3540C3F8B6
:103D9000105930E000EB4413D3F810696E4D3540F4
:103DA000C3F81059D3F810696A4D3540C3F810595B
:103DB000D3F810794D698E683544013DB5FBF6F5B1
:103DC000664E06EAC5453D43C3F81059D3F810695D
:103DD0004D69C5F312053543C3F8105903F5106357
:103DE000CD78012D07D11D6925F0C0451D611D69E4
:103DF00045F000551D61012A27D10B691BB100EB6D
:103E00004412C2F81439CB78012B15D1D0F80838F8
:103E100013F4807F08D100EB4412D2F8003943F04C
:103E20000053C2F8003907E000EB4412D2F8003921
:103E300043F08053C2F8003900EB4414D4F8003941
:103E400043F00443C4F8003981E000EB4414D4F893
:103E5000003943F00443C4F80039CB78012B0ED06D
:103E60004B69002B73D0D0F834480B7803F00F0364
:103E7000012202FA03F32343C0F8343867E0D0F894
:103E8000083813F4807F06D1D4F8003943F000538A
:103E9000C4F8003905E0D4F8003943F08053C4F881
:103EA000003914460B46C9681A789B8A0094FFF7BC
:103EB0003DFF4CE000EB441404F530631E69264DD1
:103EC00035401D611E69234D35401D614D6955B951
:103ED0001E698D68C5F3120535431D611D6945F4E2
:103EE00000251D6113E08E683544013DB5FBF6F5F4
:103EF0001F691A4E06EAC5463E431E611F698E6859
:103F0000ADB206FB05F5C5F312053D431D61012A5F
:103F100002D1CA6802B15A61CB78012B11D1D0F815
:103F2000083813F4807F06D1D4F8003B43F00053E7
:103F3000C4F8003B05E0D4F8003B43F08053C4F8DC
:103F4000003BD4F8003B43F00443C4F8003B00209E
:103F500003B0F0BDFFFF07E00000F8FF0000F81F0E
:103F600010B403329208002305E000F58054246861
:103F700041F8044B01339342F7D308465DF8044BF4
:103F8000704700BF0B784A78012A13D100EB431029
:103F9000D0F80029002A06DB2BB1D0F8003923F035
:103FA0008043C0F80039D0F8003943F40013C0F85A
:103FB000003912E000EB4310D0F8002B002A06DB9A
:103FC0002BB1D0F8003B23F08043C0F8003BD0F881
:103FD000003B43F40013C0F8003B0020704700BFD3
:103FE0000B784A78012A13D100EB4310D0F800393E
:103FF00023F40013C0F80039CB78023BDBB2012B6D
:1040000019D8D0F8003943F08053C0F8003912E0D5
:1040100000EB4310D0F8003B23F40013C0F8003B42
:10402000CB78023BDBB2012B05D8D0F8003B43F044
:104030008053C0F8003B0020704700BFD0F8003824
:1040400023F4FE63C0F80038D0F80038090101F409
:10405000FE611943C0F800180020704708B5D0F879
:10406000043823F00203C0F804380320FEF7C8F92F
:10407000002008BD08B5D0F8043843F00203C0F8AA
:1040800004380320FEF7BCF9002008BD42698069AE
:104090001040704700F50063D0F81808DB6918403D
:1040A000000C704700F50063D0F81808DB69184071
:1040B00080B2704700EB4111D1F8082B00F5006089
:1040C00040691040704700BF10B4D0F81048D0F8D5
:1040D000342801F00F0322FA03F3DB01DBB22343A0
:1040E00000EB411000F51060806818405DF8044B4B
:1040F000704700BF406900F001007047D0F8002908
:10410000054B1340C0F80039D0F8043843F48073ED
:10411000C0F804380020704700F8FFFF10B4046CAA
:10412000144B9C4203D9D0F8003B002B1EDB00242B
:10413000C0F8104BD0F8104B44F40024C0F8104BDA
:10414000D0F8104B44F01804C0F8104BD0F8104BC6
:1041500044F0C044C0F8104B012907D1C0F8142B1B
:10416000D0F8003B43F08023C0F8003B00205DF80E
:10417000044B70470A30544F00F1080343604FF07E
:10418000FF328260C360036100230360704700BF99
:1041900000230361704700BF43684B609A688A60E0
:1041A0009A68516099600861036801330360704741
:1041B00030B40D68B5F1FF3F01D1026907E000F1AD
:1041C000080200E01A4653681C68A542FAD25368F8
:1041D0004B6099608A605160086103680133036035
:1041E00030BC7047036942688168916082684168A9
:1041F00051605A68904201D182685A60002202617F
:104200001A68013A1A601868704700BF084B1B68AB
:104210001B6823B94FF0FF32064B1A607047044BFE
:104220001B68DB68DB685A68024B1A60704700BF86
:1042300064040020400500202DE9F047804699469F
:10424000089D099F0A9C236B6FF04046164403EBC0
:10425000860626F0070641B90FE0D05CE11881F828
:104260003400D15C29B1013301E00A4600230F2B51
:10427000F3D9002384F8433002E0002384F834307B
:10428000062D00D90625E56265644FF0000AC4F8E2
:1042900048A0201DFFF77CFF04F11800FFF778FF0E
:1042A0002461C5F10705A5616462C4F84CA084F8D7
:1042B00050A04A464146304600F00AFD206007B152
:1042C0003C60BDE8F08700BF38B5002407E004EB90
:1042D000840293000E481844FFF74EFF0134062C69
:1042E000F5D90C4D2846FFF747FF0B4C2046FFF74A
:1042F00043FF0A48FFF740FF0948FFF73DFF094821
:10430000FFF73AFF084B1D60084B1C6038BD00BF2B
:1043100088040020480500205C05002024050020BA
:104320006C0400207005002064040020800400203C
:1043300010B5044600F0F6FC204A13680133136000
:104340001F4B1B683BB91E4B1C601368012B0DD122
:10435000FFF7BAFF0AE01B4B1B683BB9184B1B6801
:10436000DA6AE36A9A4201D8154B1C60164A136850
:1043700001331360E36A012202FA03F11348026871
:104380000A43026003EB83039A00211D1048104486
:10439000FFF702FF00F0E8FC0A4B1B686BB1084B0B
:1043A0001B68DA6AE36A9A4207D24FF08052094BDF
:1043B0001A60BFF34F8FBFF36F8F10BD1C05002035
:1043C000200500206804002044050020840500200A
:1043D0008804002004ED00E010B5044690F8513048
:1043E00033B9006B00F0FAFB204600F0F7FB10BD7C
:1043F000012B02D100F0F2FB10BD022B08D04FF0D0
:10440000500383F31188BFF36F8FBFF34F8FFEE725
:1044100010BD00BF10B514E000F084FC0B4BDB684E
:10442000DC68201DFFF7DEFE094A1368013B1360BC
:10443000084A1368013B136000F096FC2046FFF722
:10444000CBFF044B1B68002BE6D110BD6C04002091
:104450001C0500201805002008B5FFF7DBFF064B00
:104460001B68012BF9D94FF08052044B1A60BFF33F
:104470004F8FBFF36F8FF0E78804002004ED00E05A
:1044800070B504460E461F4B1D681F4B186804305C
:10449000FFF7A8FE50B91C4B1B68DA6A012303FA28
:1044A00002F21A490B6823EA02030B60B4F1FF3FE2
:1044B00014BF00230123002E08BF002333B1124B89
:1044C000196804311248FFF767FE70BD2C440E4B8B
:1044D0001B685C60A54207D90E4B18680A4B196827
:1044E0000431FFF765FE70BD0B4B1868064B196869
:1044F0000431FFF75DFE094B1B689C4201D2074B5C
:104500001C6070BD3C0500202005002084050020B3
:104510007005002080040020640400204005002075
:1045200070B586B00B9D0C9C45B94FF0500383F3DA
:104530001188BFF36F8FBFF34F8FFEE744B94FF081
:10454000500383F31188BFF36F8FBFF34F8FFEE7E4
:1045500054260496049E542E08D04FF0500383F343
:104560001188BFF36F8FBFF34F8FFEE7049E002CBF
:1045700018BF002D10D02563022584F85150002566
:104580000395029405AD01950A9D0095FFF754FE31
:104590002046FFF7CDFE01E000230593059806B005
:1045A00070BD00BF2DE9F04385B006460F461546A5
:1045B0009846900000F090FA60B18146542000F0D7
:1045C0008BFA044610B1C0F8309004E0484600F081
:1045D00005FB00E000249CB1002384F851300393D4
:1045E00002940D9B01930C9B009343462A46394647
:1045F0003046FFF721FE2046FFF79AFE012001E03A
:104600004FF0FF3005B0BDE8F08300BF10B588B0B3
:1046100000240594069407AA06A905A8FDF78EFFB5
:10462000059B0293069B019300942346079A0F492A
:104630000F48FFF775FF08B1012300E000239BB18D
:104640004FF0500383F31188BFF36F8FBFF34F8F89
:104650004FF0FF32074B1A600122074B1A6000220D
:10466000064B1A6000F000FC08B010BD606700083F
:104670005944000840050020680400203C05002043
:10468000024A136801331360704700BF140500200D
:10469000F8B53B4B1B68002B65D13A4B1D680135C3
:1046A0001D60C5B9384B1B681B6843B14FF0500300
:1046B00083F31188BFF36F8FBFF34F8FFEE7324A4A
:1046C0001168324B186810601960314A1368013361
:1046D0001360FFF79BFD2F4B1B689D4203D2002404
:1046E00036E0012400E00024274B1B681B6823B937
:1046F0004FF0FF32274B1A602AE0234B1B68DB6820
:10470000DE6873689D4202D2224A136020E0371DA2
:104710003846FFF767FDB36A1BB106F11800FFF7D3
:1047200061FDF36A012202FA03F11B4802680A43A1
:10473000026003EB83039A00394618481044FFF7E0
:104740002BFDF26A164B1B68DB6A9A42C9D2CBE793
:10475000134B1B68DB6A03EB83039A000F4B9B58D8
:10476000012B06D806E00F4A1368013313600024BA
:1047700000E001240C4B1B6803B101242046F8BD66
:10478000140500203C050020640400208004002063
:104790003805002040050020840500208804002002
:1047A00020050020840400208805002038B5344B03
:1047B0001B6843B94FF0500383F31188BFF36F8F29
:1047C000BFF34F8FFEE700F0ADFA2D4B1A68013AA8
:1047D0001A601B68002B4CD12A4B1B6833BB00248A
:1047E0004AE0294BDB68DC6804F11800FFF7FAFCAB
:1047F000251D2846FFF7F6FCE36A012202FA03F1C1
:10480000224802680A43026003EB83039A002946A8
:104810001F481044FFF7C0FCE26A1E4B1B68DB6AAE
:104820009A4204D301221C4B1A6000E00024164B6C
:104830001B68002BD5D10CB1FFF7E8FC174B1C68A7
:1048400054B1FFF725FF10B10122134B1A60013C50
:10485000F7D10022114B1A600F4B1B685BB14FF070
:1048600080520F4B1A60BFF34F8FBFF36F8F01243D
:1048700002E0002400E0002400F076FA204638BD73
:10488000140500201C0500202405002084050020BC
:1048900088040020200500208805002084040020D2
:1048A00004ED00E010B5A8B10446104B1B6843B1FD
:1048B0004FF0500383F31188BFF36F8FBFF34F8F17
:1048C000FEE7FFF7DDFE00212046FFF7D9FDFFF7E9
:1048D0006DFF00E0002038B94FF08052044B1A60A1
:1048E000BFF34F8FBFF36F8F10BD00BF14050020C3
:1048F00004ED00E01F4B1B681BB101221E4B1A6028
:10490000704700221C4B1A601C4B1B68B3FA83F3E0
:10491000DBB2C3F11F0303EB83018A0018498A58F5
:1049200042B94FF0500383F31188BFF36F8FBFF389
:104930004F8FFEE730B4124D9900CA1890002844FA
:1049400042685468446019448A0008322A449442F8
:1049500005D1606803EB83018A002A44506003EBB1
:1049600083039A00064B1A445368DA68054B1A60B1
:1049700030BC704714050020880500208405002005
:104980008804002020050020842801D003307047CF
:104990000020704708B5FFF739FE002008BD00BFB2
:1049A0002DE9F04387B004460F464569A5B18669F5
:1049B00096B1D0F80480D0F80090B0F90800FFF765
:1049C000E3FF22690296019500903B464946404626
:1049D000FFF7A6FD059013E065682668D4F81080FF
:1049E000B4F90800FFF7D0FF05AB019300903B46F8
:1049F0001FFA88F231462846FFF7D4FD012801D17D
:104A0000059800E0002007B0BDE8F08308B508B9BC
:104A10000120FFE7FFF746FF002008BD124A12F011
:104A2000070F07D0D11D21F00701C1F570531344C2
:104A30000A4601E04FF470530C48026000214160C7
:104A40001344083B23F007030948036059601960C9
:104A5000991A51601360074B1960074B19604FF0AA
:104A60000042064B1A6070479C0500209405002008
:104A700090050020A04100208C0500209C410020D2
:104A8000134B00E013461A688242FBD310B45C68F3
:104A90001919884203D14168214459601846446875
:104AA00001198A420CD10B4909688A4206D0526822
:104AB000224442601A681268026002E0016000E06D
:104AC0000260984200D018605DF8044B704700BF48
:104AD000940500209005002070B50446FFF7D0FD36
:104AE000394B1B680BB9FFF799FF384B1B681C4209
:104AF00053D194B1083414F0070F0ED024F00704FA
:104B0000083404F0070343B14FF0500383F31188D6
:104B1000BFF36F8FBFF34F8FFEE7002C3FD02C4BBE
:104B20001B689C423DD82B4B1D6801E02B46154667
:104B30006A68944202D92A68002AF7D1224A126888
:104B4000954230D01E6808362A681A606B681B1BB5
:104B5000102B10D9281910F0070F08D04FF0500370
:104B600083F31188BFF36F8FBFF34F8FFEE743606E
:104B70006C60FFF785FF6A6815490B689B1A0B602C
:104B8000154909688B4201D213490B600F4B1B6812
:104B90001A436A6000232B6006E0002604E000262A
:104BA00002E0002600E00026FFF700FE16F0070FE7
:104BB00008D04FF0500383F31188BFF36F8FBFF31A
:104BC0004F8FFEE7304670BD900500209C410020CD
:104BD0008C05002094050020A0410020A0B338B52A
:104BE0000346A0F1080550F8042C1849096812EA98
:104BF000010408D14FF0500383F31188BFF36F8F86
:104C0000BFF34F8FFEE750F8080C40B14FF0500350
:104C100083F31188BFF36F8FBFF34F8FFEE794B11B
:104C200088B91C4622EA010243F8042CFFF728FD4C
:104C300054F8043C064A11680B4413602846FFF7F9
:104C40001FFFFFF7B3FD38BD704700BF9C41002038
:104C50008C05002082B0002301930D4B1B68B3F13B
:104C6000FF3F08D04FF0500383F31188BFF36F8FDD
:104C7000BFF34F8FFEE74FF0500383F31188BFF36C
:104C80006F8FBFF34F8F019B002BFCD002B070479A
:104C90007400002008480068006880F308884FF01E
:104CA000000080F3148862B661B6BFF34F8FBFF384
:104CB0006F8F00DF00BF000008ED00E0DFF80C00A0
:104CC000016841F4700101607047000088ED00E068
:104CD0004FF0807340F8043C21F0010140F8081CBB
:104CE000054B40F80C3C40F8202C6FF0020340F8D4
:104CF000243C4438704700BF554C000800000000B9
:104D0000074B19680868B0E8F04F80F30988BFF3D3
:104D10006F8F4FF0000080F311887047AFF3008071
:104D2000200500204FF0500383F31188BFF36F8FED
:104D3000BFF34F8F0A4A136801331360012B0DD163
:104D4000084B1B6813F0FF0F08D04FF0500383F39C
:104D50001188BFF36F8FBFF34F8FFEE7704700BF1F
:104D60007400002004ED00E0094B1B6843B94FF0CC
:104D7000500383F31188BFF36F8FBFF34F8FFEE7AC
:104D8000013B034A13600BB983F31188704700BFDE
:104D9000740000200000000000000000000000007F
:104DA000EFF30980BFF36F8F154B1A681EF0100FD9
:104DB00008BF20ED108A20E9F04F10602DE90900AE
:104DC0004FF0500080F31188BFF34F8FBFF36F8F08
:104DD000FFF790FD4FF0000080F3118809BC1968BF
:104DE0000868B0E8F04F1EF0100F08BFB0EC108A52
:104DF00080F30988BFF36F8F704700BFAFF3008067
:104E00002005002008B54FF0500383F31188BFF34D
:104E10006F8FBFF34F8FFFF73BFC18B14FF08052FD
:104E2000024B1A60002383F3118808BD04ED00E0F3
:104E3000084A0023136008490B60084B1B680849A7
:104E4000A1FB03139B09013B06490B600723136079
:104E5000704700BF10E000E018E000E00C00002008
:104E6000D34D621014E000E03A4B1A683A4B9A4274
:104E700008D14FF0500383F31188BFF36F8FBFF356
:104E80004F8FFEE7334B1A68344B9A4208D14FF0EC
:104E9000500383F31188BFF36F8FBFF34F8FFEE78B
:104EA00010B582B02E4B1A78D2B20192FF221A703E
:104EB0001B78DBB28DF803309DF8033003F050030C
:104EC000284A13700722284B1A6009E0264A136803
:104ED000013B13609DF803305B00DBB28DF80330BB
:104EE0009DF8033013F0800FF0D11F4B1B68032B8C
:104EF00008D04FF0500383F31188BFF36F8FBFF3D7
:104F00004F8FFEE71B0203F4E063174A1360019B17
:104F1000DBB2134A1370154B1A6842F470021A6020
:104F20001A6842F070421A60FFF782FF0024104BAB
:104F30001C60FFF7C3FE0F4A136843F04043136041
:104F4000FFF7A8FEFFF7D6FCFFF784FE204602B06D
:104F500010BD00BF00ED00E071C20F4170C20F41F3
:104F600000E400E0A4410020A841002020ED00E082
:104F70007400002034EF00E0C0B108B50346D0F85B
:104F8000B80210B10020C3F8B802D3F8CC0210B1B7
:104F90000020C3F8CC0209B1C3F8B41218460123AB
:104FA00080F89C320270FDF72FFD08BD032070478A
:104FB00010B582B00023ADF8063051B10446C0F8F8
:104FC000B8128B6A0DF106009847C4F8CC02002095
:104FD00000E0032002B010BD08B5FDF771FD08BD6B
:104FE00008B5D0F8B83213B11B68984708BD032044
:104FF00008BD00BF08B5D0F8B8320BB15B68984760
:10500000002008BD38B5044600F2AA25284600F065
:1050100035F90123C4F89432B4F8B032C4F89832A8
:1050200094F8AA1201F01F03012B08D013B1022B30
:105030000AD00EE02946204600F0FEFA38BD294687
:10504000204600F037FB38BD2946204600F064FBBF
:1050500038BD01F080012046FDF74EFD38BD00BF90
:1050600010B5044619BB1346D0F89422032A2BD15D
:10507000D0F85C11D0F8602191420AD9891AC0F8A1
:105080005C118A4228BF0A46194600F08FFC0020B6
:1050900010BDD0F8B8321B6923B190F89C22032AC6
:1050A00000D19847204600F089FC002010BD0A4638
:1050B000D0F8B8329B694BB190F89C12032907D104
:1050C0001146984730B110BD002010BD032010BD1F
:1050D000032010BD002010BD10B50446002943D1A7
:1050E0001346D0F89422022A36D1C269016A8A4254
:1050F0000BD9521AC261194600F040FC00231A462F
:1051000019462046FDF718FD26E08A4213D183692F
:10511000994210D8D0F8982293420CD2002211461E
:1051200000F02CFC0021C4F898120B460A462046D9
:10513000FDF702FD10E0D4F8B832DB682BB194F82B
:105140009C22032A01D12046984780212046FDF762
:10515000D3FC204600F03EFC94F8A032012B10D185
:10516000002084F8A00210BD0A46D0F8B8325B696E
:105170004BB190F89C12032907D11146984730B1E2
:1051800010BD002010BD032010BD032010BD002065
:1051900010BD00BF70B50446012380F89C32002387
:1051A000C0F894324360C0F8A432D0F8BC3223B1C6
:1051B000D0F8B8325B68002198474023002211469E
:1051C0002046FDF785FC0126A4F864614025C4F85B
:1051D00060512B46002280212046FDF779FCA684F1
:1051E0002562002070BD00BF01740020704700BF21
:1051F00090F89C3280F89D32042380F89C32002085
:10520000704700BF90F89C32042B03D190F89D3278
:1052100080F89C320020704708B590F89C32032B30
:1052200004D1D0F8B832DB6903B19847002008BD3B
:1052300000207047002070470020704708B5012308
:1052400080F89C32D0F8B83213B15B680179984786
:10525000002008BD0346002002E00130C0B2013347
:105260001A78002AF9D1704708B54B88012B03D171
:10527000C0F8A43200F0A2FB08BD00BF0B78037099
:105280004B7843708B78CA7843EA022343800B79CA
:105290004A7943EA022383808B79CA7943EA02235D
:1052A000C380704710B504468021FDF725FC00211E
:1052B0002046FDF721FC10BD30B583B004460D46F5
:1052C0000023ADF806304A88130A013B062B00F292
:1052D000B580DFE803F0040D23B3B391A100D0F84B
:1052E000B4321B680DF10601007C98470023AAE048
:1052F000037C4BB9D0F8B8329B6A0DF10600984791
:105300000223437000239EE0D0F8B832DB6A0DF12F
:105310000600984702234370002394E0D2B2052A86
:1053200064D8DFE802F0031323334353D0F8B432D8
:105330005B682BB10DF10601007C9847002382E0E9
:105340002946FFF7AFFF012300207CE0D0F8B432FC
:105350009B682BB10DF10601007C9847002372E099
:105360002946FFF79FFF012300206CE0D0F8B432FC
:10537000DB682BB10DF10601007C9847002362E049
:105380002946FFF78FFF012300205CE0D0F8B432FC
:105390001B692BB10DF10601007C9847002352E0F8
:1053A0002946FFF77FFF012300204CE0D0F8B432FC
:1053B0005B692BB10DF10601007C9847002342E0A8
:1053C0002946FFF76FFF012300203CE0D0F8B432FC
:1053D0009B692BB10DF10601007C9847002332E058
:1053E0002946FFF75FFF012300202CE02946FFF745
:1053F00059FF0123002026E0037C3BB9D0F8B832E6
:105400005B6B0DF10600984700231CE02946FFF76F
:1054100049FF0123002016E0037C4BB9D0F8B832D5
:105420001B6B0DF1060098470723437000230AE029
:105430002946FFF737FF0123002004E02946FFF744
:1054400031FF01230020B3B9EA888AB1BDF80630E4
:105450004BB19A4228BF1A46ADF8062001462046B5
:1054600000F07EFA07E029462046FFF71BFF02E026
:10547000204600F0A3FA03B030BD00BF38B50446A3
:105480008B88F3B9CB88E3B94B887F2B19D803F00D
:105490007F0590F89C32032B02D1FFF703FF38BD44
:1054A00080F89E522946FDF737FB204600F086FA29
:1054B0001DB1022384F89C3238BD012384F89C324C
:1054C00038BD2046FFF7EEFE38BD00BF70B504467C
:1054D0000D468978304B1970012904D92946FFF708
:1054E000E1FE032070BD90F89C32022B02D0032B0A
:1054F00018D047E091B14160FFF772FD064628B130
:1055000029462046FFF7CEFE304670BD204600F00B
:1055100055FA032384F89C32304670BD00F04EFAF1
:10552000002070BD51B9022380F89C324160FFF722
:1055300061FD204600F042FA002070BD43689942A8
:105540001CD0D9B2FFF756FD134B19786160204685
:10555000FFF746FD064660B129462046FFF7A2FE4A
:1055600021792046FFF746FD022384F89C3230461D
:1055700070BD204600F022FA304670BD00F01EFAE1
:10558000002070BD2946FFF78DFE034B1978204699
:10559000FFF730FD032070BDAC41002008B5CB887B
:1055A000012B02D0FFF77EFE08BD90F89C328BB134
:1055B000022B02D9032B08D00CE00146002341F84E
:1055C000083F012200F0CCF908BD0122011D00F0C6
:1055D000C7F908BDFFF766FE08BD00BF08B590F823
:1055E0009C32013B022B12D8CB88022B02D0FFF752
:1055F00059FE08BD0123C360D0F8A4320BB10323C8
:10560000C360022200F10C0100F0AAF908BDFFF707
:1056100049FE08BD08B590F89C32013B022B08D822
:105620004B88012B07D10023C0F8A43200F0C6F943
:1056300008BDFFF737FE08BD08B50B7803F060031F
:10564000202B04D0402B02D0002B2ED104E0D0F828
:10565000B8329B68984708BD4B78092B21D8DFE802
:1056600003F0141C201820090520100DFFF724FE5C
:10567000002008BDFFF702FF002008BDFFF726FF4E
:1056800008BDFFF78BFF002008BDFFF7A7FF002034
:1056900008BDFFF7E9FD002008BDFFF7BBFF0020B4
:1056A00008BDFFF7FFFD002008BDFFF7FBFD002050
:1056B00008BD00BF70B505460C460B7803F06003CB
:1056C000202B02D0402B00D00BBB95F89C32013B25
:1056D000022B16D82379012B0DD8D5F8B8329B6848
:1056E0002146284698470646E3889BB990B9284644
:1056F00000F064F90EE021462846FFF7D3FD0026AE
:1057000008E021462846FFF7CDFD002602E0FFF71E
:10571000C9FD0026304670BD38B505460C468A885E
:105720000B7803F06003202B06D0D1B2402B03D0BE
:10573000002B40F0F18006E0D5F8B8329B68214696
:105740002846984738BD6378012B30D0002B5FD0B6
:10575000032B40F0DC8090F89C32022B02D0032B0C
:1057600011D01FE0002918BF802907D0FDF7C4F928
:1057700080212846FDF7C0F9002038BD2146FFF7FB
:1057800091FD002038BD63883BB9002918BF8029EE
:1057900003D0E3880BB9FDF7AFF9284600F00EF906
:1057A000002038BD2146FFF77DFD002038BD90F870
:1057B0009C32022B02D0032B11D024E0002918BF09
:1057C000802907D0FDF798F980212846FDF794F944
:1057D000002038BD2146FFF765FD002038BD6388F5
:1057E000002B40F09E8011F07F0F01D0FDF78CF967
:1057F000284600F0E3F8D5F8B8329B6821462846E1
:105800009847002038BD2146FFF74CFD002038BDE9
:1058100090F89C32022B02D0032B27D072E0002993
:1058200018BF802904D02146FFF73CFD002038BD79
:1058300012F0800F09D001F07F0101EB81018B0094
:1058400003F110010144043108E001F07F0101EB94
:1058500081018B0003F5A8710144043100240C6020
:105860000222284600F07CF8204638BD52B2002AB9
:105870000DDA01F00F0303EB830398002844838CB7
:10588000A3B921462846FFF70DFD002038BD01F0E1
:105890000F0303EB830398002844B0F864312BB95D
:1058A00021462846FFF7FEFC002038BD002A09DA11
:1058B00001F07F0202EB8202930003F110042C44FA
:1058C000043408E001F07F0202EB8202930003F54A
:1058D000A8742C440434802918BF002902D1002365
:1058E000236008E02846FDF7C3F810B101232360C8
:1058F00001E00023236002222146284600F030F810
:10590000002038BD2146FFF7CDFC002038BD2146E0
:10591000FFF7C8FC002038BD2146FFF7C3FC00207C
:1059200038BD002038BD00BFC8B170B50D46164661
:105930000446FFF78FFC01304000308028700323BD
:105940006B70022307E0EA5401345A1CD2B20021E2
:10595000A9540233DBB22278002AF4D170BD70471B
:1059600010B513460222C0F894228361C3610A462F
:105970000021FDF7D9F8002010BD00BF08B513467F
:105980000A460021FDF7D0F8002008BD10B51346E7
:105990000322C0F89422C0F85831C0F85C310A469E
:1059A0000021FDF7C9F8002010BD00BF08B513465F
:1059B0000A460021FDF7C0F8002008BD08B5042301
:1059C000C0F8943200231A461946FDF7ADF80020BE
:1059D00008BD00BF08B50523C0F8943200231A465D
:1059E0001946FDF7A9F8002008BD00BF10B5D0F892
:1059F000BC42D0F8C0325BB194F80002FF2807D057
:105A00009B6894F8012221469847FF2384F80032CE
:105A1000002010BD43230380004870477800002019
:105A20004323038000487047440100204323038040
:105A300000487047000100200A2303800048704797
:105A4000F400002038B5D0F8BC5275B10446FDF71B
:105A500027F8C5F80C02D4F8C032DB6805F50371ED
:105A6000D5F804029847002038BD032038BD00BF98
:105A700070B5D0F8C462D0F8BC3243B301EB8104F6
:105A8000A20002449469A4B1C1EBC105AA0032444A
:105A9000556CB4FBF5F205FB124454B901EB8102DD
:105AA000930003449C6123462246FDF73DF82046BF
:105AB00070BD0024C3F81442D0F8C02215690A460C
:105AC00003F50471D3F80802A847204670BD0320EF
:105AD00070BD00BF70B582B005460C46D0F8BC6200
