:020000040800F2
:1000000000000220F14B00086108000865080008A4
:10001000690800086D080008710800080000000069
:10002000000000000000000000000000D13B0008BC
:100030007508000800000000713C0008D53C00086D
:10004000414C0008414C0008414C0008414C00085C
:10005000414C0008414C0008414C0008414C00084C
:10006000414C0008414C0008414C0008414C00083C
:10007000414C0008414C0008414C0008414C00082C
:10008000414C0008414C0008414C0008414C00081C
:10009000414C0008414C0008414C0008414C00080C
:1000A000414C0008414C0008414C0008414C0008FC
:1000B000414C0008414C0008414C0008414C0008EC
:1000C000414C0008414C0008414C0008414C0008DC
:1000D000414C000879080008414C0008414C0008D8
:1000E000414C0008414C000800000000414C000851
:1000F000414C0008414C0008414C0008414C0008AC
:10010000414C0008414C0008414C0008414C00089B
:10011000414C0008414C000889080008414C000887
:10012000414C0008414C0008414C0008414C00087B
:10013000414C0008414C0008414C0008414C00086B
:1001400000000000000000000000000000000000AF
:10015000414C0008414C0008414C0008414C00084B
:10016000414C0008414C0008414C0008414C00083B
:10017000414C0008414C0008414C0008414C00082B
:10018000414C0008414C0008414C0008414C00081B
:10019000414C0008414C0008414C0008414C00080B
:1001A000414C0008414C0008414C0008414C0008FB
:1001B000414C0008414C0008414C0008414C0008EB
:1001C000414C0008414C0008414C0008414C0008DB
:1001D000414C0008414C0008414C0008414C0008CB
:1001E000414C0008414C0008414C0008414C0008BB
:1001F000414C0008414C0008414C0008414C0008AB
:10020000414C0008414C0008414C0008414C00089A
:10021000414C0008414C0008414C0008414C00088A
:10022000414C0008414C0008414C0008000000000F
:10023000414C0008414C000800000000414C0008FF
:10024000414C0008414C0008414C0008414C00085A
:10025000414C0008414C0008414C0008414C00084A
:10026000414C0008414C0008414C0008414C00083A
:10027000414C0008414C0008414C000800000000BF
:10028000414C0008414C0008414C000800000000AF
:0802900000000000414C0008D1
:1002A00010B5054C237833B9044B13B10448AFF3B0
:1002B00000800123237010BD7800002000000000A2
:1002C000105B0008084B10B51BB108490848AFF394
:1002D00000800848036803B910BD074B002BFBD012
:1002E000BDE81040184700BF000000007C0000205F
:1002F000105B0008780000200000000000000000F3
:1003000001F0FF01102A2BDB10F0070F08D010F8C6
:10031000013B013A8B422DD010F0070F42B3F6D1CA
:10032000F0B441EA012141EA014122F007047FF0E3
:1003300000070023F0E80256083C85EA010586EA3A
:10034000010685FA47F5A3FA87F586FA47F6A5FA76
:1003500087F68EB9EED1F0BC01F0FF0102F0070282
:1003600032B110F8013B013A83EA010313B1F8D12D
:100370000020704701387047002D06BF354603380E
:10038000073815F0010F07D1013015F4807F02BF47
:10039000013015F4C03F0130F0BC0138704700BF98
:1003A00053B94AB9002908BF00281CBF4FF0FF31DC
:1003B0004FF0FF3000F07EB9ADF1080C6DE904CECE
:1003C00000F006F8DDF804E0DDE9022304B0704730
:1003D0002DE9F0478C460E460446089D002B50D16F
:1003E0008A4217466CD9B2FA82FEBEF1000F0BD0DA
:1003F000CEF1200420FA04F401FA0EF644EA060CC9
:1004000002FA0EF700FA0EF44FEA1749220CBCFB71
:10041000F9F01FFA87F809FB10C642EA064600FB0E
:1004200008F3B34209D9F61900F1FF3280F02281B6
:10043000B34240F21F8102383E44F61AA2B2B6FB24
:10044000F9F309FB136642EA064403FB08F8A045EA
:1004500009D9E41903F1FF3280F00A81A04540F286
:100460000781023B3C44C8EB040443EA00400021FE
:10047000002D62D024FA0EF400232C606B60BDE8DE
:10048000F0878B4207D9002D55D0002185E8410027
:100490000846BDE8F087B3FA83F1002940F0908068
:1004A000B34202D3824200F2F880841A66EB03065C
:1004B0000120B446002D40D085E81010BDE8F0873B
:1004C00012B90127B7FBF2F7B7FA87FEBEF1000FAA
:1004D00035D1F31B4FEA17481FFA87FC0121B3FB04
:1004E000F8F0220C08FB103642EA06460CFB00F33B
:1004F000B34207D9F61900F1FF3202D2B34200F23B
:10050000CE801046F61AA2B2B6FBF8F308FB1366CB
:1005100042EA06440CFB03FCA44507D9E41903F1A5
:10052000FF3202D2A44500F2B5801346CCEB04049E
:1005300043EA00409CE729462846BDE8F087CEF113
:10054000200106FA0EF307FA0EF720FA01F94FEA36
:100550001748CE4049EA0309B6FBF8FA4FEA1944B6
:1005600008FB1A661FFA87FC44EA06430AFB0CF2F2
:100570009A4200FA0EF40AD9DB190AF1FF3180F031
:1005800087809A4240F28480AAF1020A3B449B1A77
:100590001FFA89F9B3FBF8F108FB113349EA034369
:1005A00001FB0CF69E4207D9DB1901F1FF326BD239
:1005B0009E4269D902393B449B1B41EA0A418EE7BE
:1005C000C1F1200E22FA0EF48B40234320FA0EF7DD
:1005D00006FA01F44FEA134C26FA0EF63C43B6FB3A
:1005E000FCF9270C0CFB19661FFA83F847EA06464C
:1005F00009FB08F7B74202FA01F200FA01FA08D93A
:10060000F61809F1FF3041D2B7423FD9A9F10209EA
:100610001E44F61BA0B2B6FBFCF40CFB146640EAC9
:10062000064704FB08F8B84507D9FF1804F1FF3066
:1006300028D2B84526D9023C1F4444EA0940C8EBF9
:100640000707A0FB02894F4544464E4614D329D0E4
:1006500065B3BAEB040367EB060707FA0EFECB405F
:10066000CF404EEA030385E888000021BDE8F0870B
:100670001346F8E61046E0E6B8EB020469EB030621
:100680000138E5E70446D8E7114695E78146C0E71B
:100690008A467CE7023B3C4448E708460AE70238C2
:1006A0003E442FE7C245E7D33E46D1E72946BDE8A1
:1006B000F08700BF704700BF08B50268024B9A423E
:1006C00001D102F099FB08BD0010004072B6FEE7B0
:1006D00000B5CDB04C22002139A804F0D9FA20226F
:1006E000002131A804F0D4FABC22002102A804F0B1
:1006F000CFFA022002F026FB002301932A4B9A69CD
:1007000042F440429A619B6903F440430193274BB2
:10071000DA6A42F00102DA62DB6A03F00103019354
:10072000019B214B9B6913F4005FFAD0012339939D
:100730004FF480333A930223429343930522449229
:10074000C022459246934793489308234993002338
:100750004A934B9339A800F0B5FA08B1FFF7B6FFFA
:100760003F2331930323329300233393082334939D
:100770004023359336934FF48062379238930421A7
:1007800031A800F0DDFE08B1FFF7A0FF01230293BE
:100790000023209302A801F0A5F908B1FFF796FF06
:1007A0004DB05DF804FB00BF00480258000400583B
:1007B00008B502F0F3FAFFF78BFF00F00BF803F037
:1007C00043FB02F0DFFB03F04FF8C82002F026FBEA
:1007D000FBE700BF30B589B000240394049405946E
:1007E000069407941C4BD3F8E02042F00402C3F8AF
:1007F000E020D3F8E02002F004020092009AD3F83F
:10080000E02042F08002C3F8E020D3F8E02002F0BC
:1008100080020192019AD3F8E02042F00102C3F86D
:10082000E020D3F8E03003F001030293029B0B4D6C
:1008300022464FF40051284602F0EEF84FF40053E0
:100840000393012304930594069403A9284601F019
:10085000E9FF09B030BD00BF00440258000802584B
:10086000FEE700BFFEE700BFFEE700BFFEE700BFF8
:10087000FEE700BF704700BF08B5024803F086FBE3
:1008800008BD00BF9440002008B5024800F09AF867
:1008900008BD00BF4840002000B583B00A4BD3F824
:1008A000F42042F00202C3F8F420D3F8F43003F04D
:1008B00002030193019B00220F216FF0010000F061
:1008C00017F803B05DF804FB00440258064AD368E9
:1008D00023F4E0631B041B0C000200F4E0601843E7
:1008E000024B0343D360704700ED00E00000FA05BF
:1008F00030B4144BDB68C3F30223C3F10704042CA8
:1009000028BF04241D1D062D01D9DD1E00E0002591
:10091000012303FA04F4013C2140A940AB40013B10
:100920001A400A43002804DB1201D2B2064B1A54C3
:1009300005E000F00F001201D2B2044B1A5430BC93
:10094000704700BF00ED00E000E400E014ED00E0BF
:10095000002808DB420900F01F00012303FA00F021
:10096000014B43F82200704700E100E0704700BFF0
:1009700090F83D30DBB2012B16D1022380F83D30D8
:100980000268D36843F00103D36002689168084BA2
:100990000B40062B18BFB3F5803F07D0136843F018
:1009A000010313600020704701207047002070474A
:1009B00007000100704700BF704700BF704700BFCD
:1009C000704700BF10B5044603681A6912F0020FA1
:1009D00017D0DA6812F0020F13D06FF002021A611A
:1009E0000123037703689B6913F0030F02D0FFF71D
:1009F000E3FF04E0FFF7DEFF2046FFF7DFFF002301
:100A0000237723681A6912F0040F19D0DA6812F0FC
:100A1000040F15D06FF004021A61022323772368B4
:100A20009B6913F4407F03D02046FFF7C5FF05E024
:100A30002046FFF7BFFF2046FFF7C0FF00232377C4
:100A400023681A6912F0080F19D0DA6812F0080F3B
:100A500015D06FF008021A61042323772368DB693D
:100A600013F0030F03D02046FFF7A6FF05E0204652
:100A7000FFF7A0FF2046FFF7A1FF0023237723689D
:100A80001A6912F0100F19D0DA6812F0100F15D091
:100A90006FF010021A61082323772368DB6913F4CF
:100AA000407F03D02046FFF787FF05E02046FFF791
:100AB00081FF2046FFF782FF0023237723681A690E
:100AC00012F0010F09D0DA6812F0010F05D06FF0B3
:100AD00001021A612046FFF7EFFD23681A6912F040
:100AE000800F09D0DA6812F0800F05D06FF0800215
:100AF0001A61204600F0E2F823681A6912F4807F38
:100B000009D0DA6812F0800F05D06FF480721A6194
:100B1000204600F0D5F823681A6912F0400F09D07A
:100B2000DA6812F0400F05D06FF040021A612046DB
:100B3000FFF746FF23681A6912F0200F09D0DA6820
:100B400012F0200F05D06FF020021A61204600F04D
:100B5000B3F810BD70B40368374A904214BF002543
:100B60000125B0F1804F14BF2A4645F00102AAB911
:100B7000324CA04214BF00240124314EB0420DD0AB
:100B800064B904F1804404F58234A04214BF002407
:100B9000012406F50066B04200D01CB123F07003BA
:100BA0004C68234312BB254A904214BF0022012205
:100BB000234CA0421AD0CAB902F1804202F5823217
:100BC000904214BF0022012204F50064A0420DD01F
:100BD00062B91C4A904214BF0022012204F59A34E3
:100BE000A04203D012B9184A904203D123F44073B3
:100BF000CC68234323F080034A69134303608A6867
:100C0000C2620A688262114B984214BF2B4645F0BB
:100C100001035BB90B4B984214BF002301230C4A1C
:100C2000904203D013B9084B984201D10B6903637A
:100C30000123436170BC7047000001400008004080
:100C4000000400400044014000480140000401400D
:100C50000040014068B310B5044690F83D3013F0F1
:100C6000FF0F04D1002380F83C30FFF77FFE022302
:100C700084F83D30211D2068FFF76CFF012384F8C4
:100C8000483084F83E3084F83F3084F8403084F8AF
:100C9000413084F8423084F8433084F8443084F89A
:100CA000453084F8463084F8473084F83D300020E1
:100CB00010BD0120704700BF704700BF704700BFE4
:100CC000704700BF002800F0058338B5044603686C
:100CD00013F0010F61D0AC4A136903F03803926A34
:100CE000102B05D0182B0CD102F00302022A08D1D8
:100CF000A54B1B6813F4003F4FD06368002B4CD109
:100D0000EAE26368B3F5803F05D19F4A136843F474
:100D10008033136020E04BB99B4B1A6822F4803279
:100D20001A601A6822F480221A6015E0B3F5A02F29
:100D300009D1954B1A6842F480221A601A6842F46D
:100D400080321A6008E0904B1A6822F480321A60F0
:100D50001A6822F480221A6063687BB102F058F8A6
:100D6000054605E002F054F8401B642800F2B68204
:100D7000854B1B6813F4003FF4D00EE002F048F8F6
:100D8000054605E002F044F8401B642800F2A88202
:100D90007D4B1B6813F4003FF4D1236813F0020F5E
:100DA00000F08480784A1369926A13F0380304D003
:100DB000182B2DD112F0030F2AD1734B1B6813F09F
:100DC000040F03D0E368002B00F08C8202F03AF8A5
:100DD00041F20303984212D82269402A07D16A4A95
:100DE000536823F47C3343F4003353605EE0664978
:100DF0004B6823F47C3343EA02334B6056E0624A8B
:100E0000536823F0FE43216943EA016353604DE0D8
:100E1000E268002A36D05C490B6823F019031343BB
:100E20000B6001F0F5FF054605E001F0F1FF401B06
:100E3000022800F25982544B1B6813F0040FF4D0BF
:100E400002F000F841F20303984212D82269402AC6
:100E500007D14D4A536823F47C3343F40033536085
:100E600024E049494B6823F47C3343EA02334B6066
:100E70001CE0454A536823F0FE43216943EA0163BD
:100E8000536013E0404A136823F00103136001F03C
:100E9000BFFF054605E001F0BBFF401B022800F242
:100EA0002582394B1B6813F0040FF4D1236813F02B
:100EB000100F00F08880344A136903F03803926AF7
:100EC000082B05D0182B2ED102F00302012A2AD1BB
:100ED0002D4B1B6813F4807F03D0E369802B40F017
:100EE000078201F0AFFF41F20303984212D8226A51
:100EF000202A07D1244A536823F0F84343F0804363
:100F0000536060E020494B6823F0F84343EA826372
:100F10004B6058E01C4AD36823F07C53216A43EAB3
:100F20000163D3604FE0E369002B38D0164A1368A1
:100F300043F08003136001F06BFF054605E001F00C
:100F400067FF401B022800F2D5810F4B1B6813F48A
:100F5000807FF4D001F076FF41F20303984215D868
:100F6000226A202A07D1084A536823F0F84343F045
:100F70008043536027E004494B6823F0F84343EA79
:100F800082634B601FE000BF00440258AE4AD36842
:100F900023F07C53216A43EA0163D36013E0AA4A39
:100FA000136823F08003136001F032FF054605E06B
:100FB00001F02EFF401B022800F29E81A24B1B680D
:100FC00013F4807FF4D1236813F0080F2AD06369EB
:100FD000A3B19D4A536F43F00103536701F018FF1B
:100FE000054605E001F014FF401B022800F286814F
:100FF000954B5B6F13F0020FF4D013E0924A536FDE
:1010000023F00103536701F003FF054605E001F0FB
:10101000FFFE401B022800F273818B4B5B6F13F0C5
:10102000020FF4D1236813F0200F2AD0A369A3B1D3
:10103000854A136843F48053136001F0E9FE0546C6
:1010400005E001F0E5FE401B022800F25B817E4BCB
:101050001B6813F4005FF4D013E07B4A136823F499
:101060008053136001F0D4FE054605E001F0D0FE88
:10107000401B022800F24881734B1B6813F4005F89
:10108000F4D1236813F0040F61D0704A136843F45D
:101090008073136001F0BCFE054605E001F0B8FE68
:1010A000401B642800F23281684B1B6813F4807F78
:1010B000F4D0A368012B05D1634A136F43F00103F9
:1010C00013671FE04BB9604B1A6F22F001021A67D9
:1010D0001A6F22F004021A6714E0052B09D15A4B4B
:1010E0001A6F42F004021A671A6F42F001021A677F
:1010F00008E0554B1A6F22F001021A671A6F22F0AE
:1011000004021A67A3688BB101F082FE054607E06E
:1011100001F07EFE401B41F28833984200F2F880D5
:10112000494B1B6F13F0020FF2D010E001F070FE7C
:10113000054607E001F06CFE401B41F288339842FF
:1011400000F2E880404B1B6F13F0020FF2D1636A8C
:10115000002B00F0E1803C4A126902F03802182AA4
:1011600000F08F80022B77D1374A136823F0807309
:10117000136001F04DFE054605E001F049FE401BFD
:10118000022800F2CB80304B1B6813F0007FF4D1B3
:101190002D4B9A6A2E491140A26AE06A42EA001277
:1011A0000A439A62226B511EC1F30801626B013A35
:1011B000520292B21143A26B013A120402F4FE02EF
:1011C0001143E26B013A120602F0FE420A431A632F
:1011D000DA6A22F00102DA62596B1E4A0A40A16CF7
:1011E00042EAC1025A63DA6A22F00C01226C0A4315
:1011F000DA62DA6A22F00201626C0A43DA62DA6ABF
:1012000042F48032DA62DA6A42F40032DA62DA6A8E
:1012100042F48022DA62DA6A42F00102DA621A6883
:1012200042F080721A6001F0F3FD044604E001F020
:10123000EFFD001B022873D8034B1B6813F0007FDF
:10124000F5D0002038BD00BF0044025800480258C5
:101250000CFCFFFF0700FFFF3A4A136823F080737E
:10126000136001F0D5FD044604E001F0D1FD001B40
:10127000022857D8334B1B6813F0007FF5D10020AC
:1012800038BD304A916A106B012B4DD001F0030339
:10129000A26A93424AD1C1F30511E36A994247D148
:1012A000C0F30802236B013B9A4243D1C0F34622AC
:1012B000636B013B9A423FD1C0F30642A36B013BF3
:1012C0009A423BD1C0F30660E36B013B984237D0B2
:1012D000012038BD01207047012038BD032038BDF2
:1012E000032038BD012038BD032038BD032038BDA0
:1012F000012038BD032038BD032038BD032038BD90
:10130000032038BD032038BD032038BD032038BD7D
:10131000032038BD032038BD002038BD032038BD70
:10132000032038BD032038BD012038BD012038BD61
:10133000012038BD012038BD012038BD012038BD55
:10134000002038BD00440258754B1B6903F0380378
:10135000102B00F0DC80182B10D00BB171487047B7
:101360006F4B1B6813F0200F00F0D3806C4B186894
:10137000C0F3C1006C4B23FA00F0704710B4684909
:10138000886A00F003008A6AC2F30512CB6A03F090
:1013900001044B6BC3F3CC0303FB04F307EE903A59
:1013A000F8EE677A002A00F0B680012849D010B123
:1013B000022863D07FE05A4B1B6813F0200F23D024
:1013C00057480368C3F3C101574BCB4007EE103AAF
:1013D000F8EE476A07EE102AB8EE476A86EE867A7C
:1013E000036BC3F3080306EE903AF8EE666A9FEDCE
:1013F0004F6A67EE867A76EEA77AF7EE006A77EEA6
:10140000A66A67EE266A72E007EE102AF8EE476ACF
:101410009FED476A86EE267A414B1B6BC3F30803A8
:1014200006EE903AF8EE666A9FED406A67EE867ABD
:1014300076EEA77AF7EE006A77EEA66A67EE266A7E
:1014400055E007EE102AF8EE476A9FED3A6A86EEFD
:10145000267A334B1B6BC3F3080306EE903AF8EE83
:10146000666A9FED326A67EE867A76EEA77AF7EEC5
:10147000006A77EEA66A67EE266A38E007EE102A61
:10148000F8EE476A9FED2C6A86EE267A244B1B6B9A
:10149000C3F3080306EE903AF8EE666A9FED236AFE
:1014A00067EE867A76EEA77AF7EE006A77EEA66A9E
:1014B00067EE266A1BE007EE102AB8EE477ADFEDEA
:1014C0001D6A86EE876A164B1B6BC3F3080306EE94
:1014D000903AF8EE666A9FED157A67EE877A76EEB7
:1014E000A77AF7EE006A77EEA66A66EE266A0C4BDC
:1014F0001B6BC3F34623013307EE903AB8EE677ACD
:10150000C6EE877AFCEEE77A17EE900A04E00B4805
:1015100070470548704700205DF8044B704700BFD6
:101520000044025800093D000090D003000000393B
:101530000024744C0024744A20BCBE4B40787D01CA
:10154000002800F02F8170B504469E4B1B6803F005
:101550000F038B420BD29B4A136823F00F030B43FC
:101560001360136803F00F03994240F01D81236854
:1015700013F0040F0CD02269934B9B6903F07003A6
:101580009A4205D99048836923F07003134383611D
:10159000236813F0080F0CD062698B4BDB6903F0F2
:1015A00070039A4205D98848C36923F07003134336
:1015B000C361236813F0100F0CD0A269824BDB6962
:1015C00003F4E0639A4205D97F48C36923F4E063DA
:1015D0001343C361236813F0200F0CD0E2697A4BE8
:1015E0001B6A03F070039A4205D97748036A23F017
:1015F000700313430362236813F0020F0CD0E268F8
:10160000714B9B6903F00F039A4205D96E488369B9
:1016100023F00F03134383610D46236813F0010F7A
:101620003ED069498B6923F47062A36813438B61D0
:101630006368022B04D10A6812F4003F16D1B5E0AA
:10164000032B05D1604A126812F0007F0ED1AFE083
:10165000012B05D15C4A126812F4807F06D1A9E003
:10166000594A126812F0040F00F0A68056490A6920
:1016700022F0070213430B6101F0CAFB064607E0A4
:1016800001F0C6FB801B41F28833984200F296803D
:101690004D4B1B6903F038036268B3EBC20FEFD107
:1016A000236813F0020F0CD0E268474B9B6903F0EC
:1016B0000F039A4205D244498B6923F00F03134369
:1016C0008B61404B1B6803F00F039D420AD23D4AD9
:1016D000136823F00F032B431360136803F00F0309
:1016E0009D426DD1236813F0040F0CD02269364B54
:1016F0009B6903F070039A4205D233498B6923F04A
:10170000700313438B61236813F0080F0CD06269D8
:101710002D4BDB6903F070039A4205D22A49CB694D
:1017200023F070031343CB61236813F0100F0CD028
:10173000A269254BDB6903F4E0639A4205D2224992
:10174000CB6923F4E0631343CB61236813F0200FCC
:101750000CD0E2691C4B1B6A03F070039A4205D25D
:1017600019490B6A23F0700313430B62FFF7ECFD7A
:1017700015498B69C3F30323144AD35C03F01F0399
:10178000D8408B6903F00F03D35C03F01F0320FAEA
:1017900003F30F4A13600F4B18600F4B186801F0EA
:1017A00007FC70BD01207047012070BD012070BD95
:1017B000012070BD012070BD012070BD032070BDEF
:1017C000012070BD0020005200440258545B000804
:1017D000080000200C0000200000002008B5FFF7E2
:1017E000B3FD0B4A9369C3F303230A49CB5C03F0AF
:1017F0001F0320FA03F3926902F00F02885C00F0E5
:101800001F0023FA00F0044A1060044A136008BD68
:1018100000440258545B0008080000200C0000201F
:1018200008B5FFF7DBFF054BDB69C3F30213044A7E
:10183000D35C03F01F03D84008BD00BF004402582A
:10184000545B000808B5FFF7C9FF054BDB69C3F31C
:101850000223044AD35C03F01F03D84008BD00BF35
:1018600000440258545B00083F230360114B1A697F
:1018700002F0070242609A6902F4706282609A691B
:1018800002F00F02C2609A6902F070020261DA6926
:1018900002F070024261DA6902F4E06282611B6A5E
:1018A00003F07003C361044B1B6803F00F030B606C
:1018B000704700BF0044025800200052424B9B6A10
:1018C00003F00303032B79D070B50E4605463E4A5C
:1018D000136823F08063136001F09AFA044604E071
:1018E00001F096FA001B02286AD8374B1B6813F0E8
:1018F000006FF5D1344B9A6A22F47C32296842EAAF
:1019000001329A626A68511EC1F30801A868421E3A
:10191000520292B241EA0200E9680139090401F475
:10192000FE0240EA02012A69013A120602F0FE4272
:101930000A439A63DA6A22F0C0016A690A43DA62EA
:10194000DA6A22F02001AA690A43DA62DA6A22F02E
:101950001002DA62D96B1D4A0A40E96942EAC10203
:10196000DA63DA6A42F01002DA622EB91A46DB6AEA
:1019700043F40023D3620CE0012E05D1124AD36A4E
:1019800043F48013D36204E00F4AD36A43F4001394
:10199000D3620D4A136843F08063136001F038FA94
:1019A000044604E001F034FA001B02280AD8064B72
:1019B0001B6813F0006FF5D0002070BD0120704748
:1019C000032070BD032070BD004402580700FFFFD4
:1019D000424B9B6A03F00303032B79D070B50E468C
:1019E00005463E4A136823F08053136001F010FA55
:1019F000044604E001F00CFA001B02286AD8374BB9
:101A00001B6813F0005FF5D1344B9A6A22F07C72A8
:101A1000296842EA01529A626A68511EC1F30801BC
:101A2000A868421E520292B241EA0200E9680139F6
:101A3000090401F4FE0240EA02012A69013A120691
:101A400002F0FE420A431A64DA6A22F440616A69CB
:101A50000A43DA62DA6A22F40071AA690A43DA6296
:101A6000DA6A22F48072DA62596C1D4A0A40E96926
:101A700042EAC1025A64DA6A42F48072DA622EB92A
:101A80001A46DB6A43F48003D3620CE0012E05D1D1
:101A9000124AD36A43F40003D36204E00F4AD36AC4
:101AA00043F08073D3620D4A136843F08053136090
:101AB00001F0AEF9044604E001F0AAF9001B022887
:101AC0000AD8064B1B6813F0005FF5D0002070BDEC
:101AD00001207047032070BD032070BD00440258F0
:101AE0000700FFFFF8B50446036813F0006F2CD021
:101AF000436EB3F5801F11D001D843B11AE0B3F59E
:101B0000001F11D0B3F5401F14D1002513E09F4AE8
:101B1000D36A43F40033D36200250CE00221043081
:101B2000FFF7CCFE054606E002212430FFF750FF08
:101B3000054600E001255DB994490B6D23F4401280
:101B4000636E13430B652E4603E00026354600E026
:101B50002E46236813F4807F25D0636D042B17D89D
:101B6000DFE803F003090F171700884AD36A43F42C
:101B70000033D3620DE00021201DFFF79FFE0546D4
:101B800007E0002104F12400FFF722FF054600E0F2
:101B900001253DB97D490B6D23F00702636D1343A9
:101BA0000B6500E02E46236813F4007F2BD0A36D55
:101BB000802B16D003D843B1402B0CD018E0C02B9B
:101BC00017D0B3F5807F14D012E0704AD36A43F483
:101BD0000033D3620DE00021201DFFF76FFE0546A4
:101BE00007E0002104F12400FFF7F2FE054600E0C3
:101BF00001253DB965490B6D23F4E072A36D1343D4
:101C00000B6500E02E46236813F4806F30D0D4F8C3
:101C1000A430B3F5800F18D004D853B1B3F5001F2A
:101C20000DD019E0B3F5C00F17D0B3F5000F14D0E5
:101C300012E0564AD36A43F40033D3620DE0002128
:101C4000201DFFF73BFE054607E0002104F12400BC
:101C5000FFF7BEFE054600E0012545B94B498B6DF7
:101C600023F46002D4F8A43013438B6500E02E46C1
:101C7000236813F4006F30D0D4F8A830B3F1007F9C
:101C800018D004D853B1B3F1807F0DD019E0B3F16F
:101C9000407F17D0B3F1806F14D012E03B4AD36A73
:101CA00043F40033D3620DE00021201DFFF706FE50
:101CB000054607E0002104F12400FFF789FE0546F0
:101CC00000E0012545B931498B6D23F0E062D4F87D
:101CD000A83013438B6500E02E46236813F0007F85
:101CE00021D0A36C102B07D001D893B110E0202B8A
:101CF00008D0302B0DD00BE0244AD36A43F40033D4
:101D0000D36206E00221201DFFF7D8FD054600E062
:101D100001253DB91D49CB6C23F03002A36C134360
:101D2000CB6400E02E46236813F4805F31D0E36D6E
:101D3000B3F5005F18D004D853B1B3F5805F0DD070
:101D400019E0B3F5405F17D0B3F5804F14D012E01F
:101D50000E4AD36A43F40033D3620DE00021201D04
:101D6000FFF7ACFD054607E0002104F12400FFF772
:101D70002FFE054600E0012555B904490B6D23F4FB
:101D8000E042E36D13430B6503E000BF00440258DB
:101D90002E46236813F4005F2BD0236EB3F5003F6B
:101DA00015D004D8DBB1B3F5803F0AD016E0B3F507
:101DB000802F14D0B3F5A02F11D0B3F5403F0DD133
:101DC0000DE00121201DFFF779FD054607E0012107
:101DD00004F12400FFF7FCFD054600E001253DB9B4
:101DE0008F490B6D23F4E022236E13430B6500E053
:101DF0002E46236813F4804F2DD0D4F8AC30B3F1C5
:101E0000005F15D004D8DBB1B3F1805F0AD016E0D3
:101E1000B3F1804F14D0B3F1A04F11D0B3F1405FB4
:101E20000DD10DE00121201DFFF748FD054607E01B
:101E3000012104F12400FFF7CBFD054600E0012558
:101E400045B977498B6D23F0E042D4F8AC301343A9
:101E50008B6500E02E46236813F4004F1FD0E36E1D
:101E6000B3F1805F04D0B3F1005F07D063B90CE039
:101E70006B4AD36A43F40033D36206E00121201D8C
:101E8000FFF71CFD054600E001253DB964490B6DD7
:101E900023F04052E36E13430B6500E02E462368A7
:101EA00013F0807F1DD0636C032B0FD8DFE803F0A5
:101EB0000F02080F5A4AD36A43F40033D36206E094
:101EC0000221201DFFF7FAFC054600E001253DB97F
:101ED0005349CB6C23F00302636C1343CB6400E0E3
:101EE0002E46236813F4800F65D04E4A136843F4DE
:101EF0008073136000F08CFF074604E000F088FF59
:101F0000C01B642805D8474B1B6813F4807FF5D0AD
:101F100000E00325002D4BD1414B1A6FD4F8B030AF
:101F2000534013F4407F0CD03D4B1A6F22F44072A3
:101F3000196F41F480311967196F21F480311967E5
:101F40001A67D4F8B030B3F5807F11D100F060FF8C
:101F5000074606E000F05CFFC01B41F28833984260
:101F600005D82F4B1B6F13F0020FF3D000E00325B1
:101F700005BBD4F8B03003F44072B2F5407F09D10C
:101F80002748016921F47C51274A02EA13130B43C5
:101F9000036104E0224A136923F47C531361204A4D
:101FA000116FD4F8B030C3F30B030B43136702E097
:101FB0002E4600E02E46236813F0010F37D0A36FA2
:101FC000282B23D8DFE803F02322222222222222F8
:101FD00015222222222222221B22222222222222F5
:101FE00023222222222222222322222222222222CF
:101FF00023000121201DFFF761FC054607E00121B8
:1020000004F12400FFF7E4FC054600E001256DB96A
:1020100003494B6D23F03802A36F13434B6506E071
:102020000044025800480258CFFFFF002E462368A4
:1020300013F0020F1FD0636F052B11D8DFE803F0F8
:102040001103091111110121201DFFF737FC05466D
:1020500007E0012104F12400FFF7BAFC054600E087
:1020600001253DB9AC494B6D23F00702636F134363
:102070004B6500E02E46236813F0040F21D0D4F8FE
:102080009030052B11D8DFE803F01103091111116D
:102090000121201DFFF712FC054607E0012104F194
:1020A0002400FFF795FC054600E0012545B99A4953
:1020B0008B6D23F00702D4F8903013438B6500E05A
:1020C0002E46236813F0200F2DD0D4F88C30B3F1B6
:1020D000005F15D004D8DBB1B3F1805F0AD016E001
:1020E000B3F1804F14D0B3F1A04F11D0B3F1405FE2
:1020F0000DD10DE00021201DFFF7E0FB054607E0B4
:10210000022104F12400FFF763FC054600E00125ED
:1021100045B981494B6D23F0E042D4F88C3013432C
:102120004B6500E02E46236813F0400F2DD0D4F805
:102130009830B3F5006F15D004D8DBB1B3F5806FDC
:102140000AD016E0B3F5805F14D0B3F5A05F11D0CC
:10215000B3F5406F0DD10DE00021201DFFF7AEFB60
:10216000054607E0022104F12400FFF731FC054693
:1021700000E0012545B968498B6D23F4E052D4F89D
:10218000983013438B6500E02E46236813F0800FD0
:102190002DD0D4F89C30B3F5804F15D004D8DBB1E6
:1021A000B3F5005F0AD016E0B3F5004F14D0B3F5D5
:1021B000204F11D0B3F5C04F0DD10DE00021201DEF
:1021C000FFF77CFB054607E0022104F12400FFF73E
:1021D000FFFB054600E0012545B94F498B6D23F40F
:1021E0006042D4F89C3013438B6500E02E46236890
:1021F00013F0080F13D0D4F88030B3F5805F06D108
:10220000022104F12400FFF7E3FB00B1012642495B
:102210004B6D23F44052D4F8803013434B65236850
:1022200013F0100F13D0D4F89430B3F5807F06D19B
:10223000022104F12400FFF7CBFB00B1012636494F
:102240008B6D23F44072D4F8943013438B6523686C
:1022500013F4002F21D0D4F8A030B3F5803F09D07B
:10226000B3F5003F0ED063B90021201DFFF726FB18
:10227000054607E0022104F12400FFF7A9FB05460B
:1022800000E0012545B924498B6D23F44032D4F890
:10229000A03013438B6500E02E46236813F4802F93
:1022A00023D0D4F88430B3F5001F0BD0B3F5401F12
:1022B00010D0B3F5801F0CD1174AD36A43F4003312
:1022C000D36207E0012104F12400FFF781FB0546FA
:1022D00000E0012545B910494B6D23F44012D4F8B4
:1022E000843013434B6500E02E46236813F4803F8F
:1022F0001FD0E36C1BB1B3F5803F06D00EE0064A59
:10230000D36A43F40033D36209E00221201DFFF7B2
:10231000D5FA054603E000BF0044025801253DB947
:102320003A49CB6C23F48032E36C1343CB6400E076
:102330002E46236813F0005F06D0022104F124002A
:10234000FFF746FB00B10126236813F4003F1ED0BF
:10235000E36FB3F5807F09D001D86BB90DE0B3F519
:10236000007F0AD0B3F5407F06D106E0274AD36A42
:1023700043F40033D36200E001253DB923494B6D9E
:1023800023F44072E36F13434B6500E02E4623684D
:1023900013F4801F06D01D490B6D23F00042236FFC
:1023A00013430B65236813F0805F07D017490B694F
:1023B00023F48042D4F8B43013430B61236813F440
:1023C000001F06D011490B6D23F08072A36E1343DA
:1023D0000B65236813F0804F09D00C4B1A6922F467
:1023E00000421A611969D4F8B8200A431A612368B7
:1023F000002B06DA0549CB6C23F04052236D1343C2
:10240000CB640EB90020F8BD0120F8BD004402588D
:1024100008B5FFF7E3F9054B1B6AC3F30213044A3F
:10242000D35C03F01F03D84008BD00BF004402582E
:10243000545B000830B477498C6A8A6AC2F305326B
:10244000CB6AC3F30015CB6BC3F3CC0303FB05F3DB
:10245000002A00F0D98004F0030407EE903AF8EE69
:10246000677A012C49D014B1022C63D07FE0694B0C
:102470001B6813F0200F23D0664C2368C3F3C101FF
:10248000654BCB4007EE103AF8EE476A07EE102A8C
:10249000B8EE476A86EE867AA36BC3F3080306EEAE
:1024A000903AF8EE666A9FED5D6A67EE867A76EEA0
:1024B000A77AF7EE006A77EEA67A67EE277A72E0DF
:1024C00007EE102AF8EE476A9FED556A86EE267AE7
:1024D000504B9B6BC3F3080306EE903AF8EE666A26
:1024E0009FED4E6A67EE867A76EEA77AF7EE006A7F
:1024F00077EEA67A67EE277A55E007EE102AF8EE17
:10250000476A9FED486A86EE267A424B9B6BC3F37F
:10251000080306EE903AF8EE666A9FED406A67EEB1
:10252000867A76EEA77AF7EE006A77EEA67A67EEFD
:10253000277A38E007EE102AF8EE476A9FED3A6AEC
:1025400086EE267A334B9B6BC3F3080306EE903A74
:10255000F8EE666A9FED316A67EE867A76EEA77AC4
:10256000F7EE006A77EEA67A67EE277A1BE007EEB1
:10257000102AF8EE476A9FED2B6A86EE267A254BE5
:102580009B6BC3F3080306EE903AF8EE666A9FED84
:10259000236A67EE867A76EEA77AF7EE006A77EE20
:1025A000A67A67EE277A1B4A936BC3F3462306EE9F
:1025B000903AF8EE666AB7EE006A76EE866A87EEC3
:1025C000A67ABCEEC77A80ED007A936BC3F306431C
:1025D00006EE903AF8EE666A76EE866A87EEA67A9E
:1025E000BCEEC77A80ED017A936BC3F3066307EE06
:1025F000103AB8EE477A37EE067AC7EE876AFCEEF5
:10260000E66AC0ED026A03E0002303604360836072
:1026100030BC7047004402580090D00300000039DD
:102620000024744C0024744A20BCBE4B30B477495B
:102630008C6A8A6AC2F30552CB6AC3F300254B6CDD
:10264000C3F3CC0303FB05F3002A00F0D98004F0A8
:10265000030407EE903AF8EE677A012C49D014B1E2
:10266000022C63D07FE0694B1B6813F0200F23D04E
:10267000664C2368C3F3C101654BCB4007EE103AAB
:10268000F8EE476A07EE102AB8EE476A86EE867AB9
:10269000236CC3F3080306EE903AF8EE666A9FEDEA
:1026A0005D6A67EE867A76EEA77AF7EE006A77EED5
:1026B000A67A67EE277A72E007EE102AF8EE476AEC
:1026C0009FED556A86EE267A504B1B6CC3F30803C8
:1026D00006EE903AF8EE666A9FED4E6A67EE867AED
:1026E00076EEA77AF7EE006A77EEA67A67EE277A9B
:1026F00055E007EE102AF8EE476A9FED486A86EE2D
:10270000267A424B1B6CC3F3080306EE903AF8EEB0
:10271000666A9FED406A67EE867A76EEA77AF7EEF4
:10272000006A77EEA67A67EE277A38E007EE102A7D
:10273000F8EE476A9FED3A6A86EE267A334B1B6CB9
:10274000C3F3080306EE903AF8EE666A9FED316A2D
:1027500067EE867A76EEA77AF7EE006A77EEA67ACB
:1027600067EE277A1BE007EE102AF8EE476A9FED26
:102770002B6A86EE267A254B1B6CC3F3080306EE04
:10278000903AF8EE666A9FED236A67EE867A76EEF7
:10279000A77AF7EE006A77EEA67A67EE277A1B4AE9
:1027A000136CC3F3462306EE903AF8EE666AB7EE72
:1027B000006A76EE866A87EEA67ABCEEC77A80ED6E
:1027C000007A136CC3F3064306EE903AF8EE666A9D
:1027D00076EE866A87EEA67ABCEEC77A80ED017A3D
:1027E000136CC3F3066307EE103AB8EE477A37EE80
:1027F000067AC7EE876AFCEEE66AC0ED026A03E07D
:10280000002303604360836030BC7047004402587B
:102810000090D003000000390024744C0024744A56
:1028200020BCBE4B2DE9F04182B00023E4E001243E
:102830009C40224000F0DF804D686E1E112D18BFB5
:10284000012E01D9122D15D187684FEA430E0326B8
:1028500006FA0EF627EA0606CD6805FA0EF53543A8
:102860008560456825EA04044D68C5F300159D4060
:102870002C434460C5685F000324BC40E44305EA80
:10288000040E8D68BD404EEA0505C5604D68122DE9
:1028900018BF022D13D1DE08083650F8268003F049
:1028A00007054FEA850E0F2505FA0EF528EA050CF7
:1028B0000D6905FA0EF54CEA050540F82650056845
:1028C00004EA05064C6804F0030505FA07F43443EE
:1028D00004604C6814F0805F00F08D804A4CD4F89E
:1028E000F45045F00205C4F8F450D4F8F44004F074
:1028F00002040194019C9E08B51C444C54F82570B8
:1029000003F00304A4000F25A54027EA0507404D66
:10291000A84225D005F58065A84223D005F580653D
:10292000A84221D005F58065A8421FD005F5806535
:10293000A8421DD005F58065A8421BD005F580652D
:10294000A84219D005F58065A84217D005F5806525
:10295000A84215D005F58065A84213D1092512E0DB
:10296000002510E001250EE002250CE003250AE019
:10297000042508E0052506E0062504E0072502E019
:10298000082500E00A2505FA04F43C4302361F4DF1
:1029900045F826401F4C2568D44305EA04064F68D5
:1029A00017F4803F01D042EA05061A4D2E606E688A
:1029B00004EA06054F6817F4003F01D042EA060515
:1029C000144E75604FF0B0452D6804EA05064F6857
:1029D00017F4801F01D042EA05064FF0B0452E6083
:1029E0006D682C404E6816F4001F01D042EA0504C1
:1029F0004FF0B042546001330A6832FA03F47FF4B6
:102A000016AF02B0BDE8F08100440258000400583F
:102A100000000258800000580AB181617047090423
:102A200081617047436931EA030302D1090481617E
:102A300070478161704700BF002800F07F81034626
:102A400090F83520D2B2022A03D0802242650120BC
:102A500070470268A248A3498A4218BF82420CBF4D
:102A6000012100212CD0303082422BD018308242FC
:102A70002AD01830824229D01830824228D018300B
:102A8000824227D01830824226D000F5567082420A
:102A900024D01830824223D01830824222D01830FD
:102AA000824221D01830824220D0183082421FD07A
:102AB000183082421ED0183082421DD101201CE005
:102AC00001201AE0012018E0012016E0012014E0A6
:102AD000012012E0012010E001200EE001200CE0B6
:102AE00001200AE0012008E0012006E0012004E0C6
:102AF000012002E0012000E0002000283AD004205C
:102B000083F8350051BB784B9A4227D018339A424C
:102B100024D018339A4221D018339A421ED0183349
:102B20009A421BD018339A4218D003F556739A4232
:102B300014D018339A4211D018339A420ED0183359
:102B40009A420BD018339A4208D018339A4205D0D3
:102B500018339A4202D018339A4205D1136823F0F1
:102B60000103136000207047136823F00103136012
:102B70000020704710B5116821F00E0111601A682D
:102B80005849574C8A4218BFA2422AD018318A426B
:102B900027D018318A4224D018318A4221D01831E6
:102BA0008A421ED018318A421BD018318A4218D06E
:102BB00001F556718A4214D018318A4211D0183169
:102BC0008A420ED018318A420BD018318A4208D07E
:102BD00018318A4205D018318A4202D018318A420F
:102BE00004D1116821F00101116003E0116821F0A6
:102BF000010111601A683B49394C8A4218BFA24250
:102C000044D018318A4243D018318A4242D0183118
:102C10008A4241D018318A4240D018318A423FD08E
:102C200018318A423ED001F556718A423CD01831A3
:102C30008A423BD018318A423AD018318A4239D080
:102C400018318A4238D018318A4237D018318A4236
:102C500036D018318A4235D024498A4234D01431D2
:102C60008A4233D014318A4232D014318A4231D070
:102C700014318A4230D014318A422FD014318A4222
:102C800036D014318A4234D1012032E0012030E0C4
:102C900001202EE001202CE001202AE0012028E084
:102CA000012026E0012024E0012022E0012020E094
:102CB00001201EE001201CE001201AE0012018E0A4
:102CC000012016E0012014E0012012E0012010E0B4
:102CD00001200EE001200CE001200AE0012008E0C4
:102CE00010000240280002404000024008540258F0
:102CF0000120B8B1196E0A6822F480720A60986DDA
:102D0000DA6D02F01F0101228A4042605A6E996E0C
:102D10005160DA6E32B1116821F4807111601A6F5E
:102D2000596F5160002283F83420012283F8352046
:102D30001A6D2AB118469047002010BD0120704737
:102D4000002010BD144BDB6813F0040F07D1124BA9
:102D5000DB6803F00703834219D00120704710B5E8
:102D60000D4AD36823F007031843D06000F050F8F1
:102D7000044605E000F04CF8001BB0F57A7F08D857
:102D8000054B5B6813F4005FF4D0002010BD0020F9
:102D90007047012010BD00BF0048025810B5032045
:102DA000FDF794FDFEF7D0FA0F498B69C3F30323B7
:102DB0000E4AD35C03F01F03D8408B6903F00F0366
:102DC000D35C03F01F0320FA03F3094A1360094B95
:102DD0001860002000F0ECF818B90446FDF75CFD1F
:102DE00000E00124204610BD00440258545B000856
:102DF000080000200C000020034B1978034A1368D8
:102E00000B441360704700BF0400002040400020C6
:102E1000014B1868704700BF4040002038B5044699
:102E2000FFF7F6FF0546B4F1FF3F02D0044B1B78D5
:102E30001C44FFF7EDFF401B8442FAD838BD00BFA9
:102E400004000020014B1868000C70470010005C63
:102E5000294AD2F8883043F47003C2F88830274BEF
:102E60001B6803F00F03062B06D8244A136823F0CF
:102E70000F0343F007031360214B1A6842F001026D
:102E80001A6000221A6119681E4A0A401A601B4B18
:102E90001B6803F00F03072B06D9184A136823F0A9
:102EA0000F0343F007031360154B00229A61DA61A8
:102EB0001A62154999621549D962154919635A630D
:102EC0009963DA6319645A64196821F480211960DE
:102ED0001A66104B1A68104B1340B3F1005F02D210
:102EE00001220E4B1A6043F2D2020D4B1A604FF0D2
:102EF0000062014B9A60704700ED00E00020005234
:102F0000004402587FEDF6EA000202020000FF01D1
:102F1000800201010010005C0000FFFF08810051E9
:102F20000040005208B50D4C2368013323604FF474
:102F300000510B48FFF776FD22680A4B53F8221028
:102F4000094801F0ADFE2368B3F5803F01D10022AE
:102F50002260642000F0C4FCE5E700BFE802002026
:102F600000080258645B0008645B0408034B0360BC
:102F7000034B0B6080231360704700BF9402002056
:102F80009400002030B589B001AC074D0FCD0FC4BF
:102F900095E8070084E80700002101A800F06AFC1A
:102FA000024B186009B030BD285B00084440002087
:102FB0000F283BD810B58AB00446002201463620BF
:102FC000FDF796FC3620FDF7C3FC1B4B1C601B4B2A
:102FD000D3F8E82042F01002C3F8E820D3F8E83034
:102FE00003F010030093009B01A902A8FEF73CFC2C
:102FF000079B13B9FEF714FC02E0FEF711FC40003A
:103000000F4BA3FB00239B0C013B0E480E4A0260B2
:1030100040F2E732C2604360002303618360FDF742
:1030200019FE28B90748FDF7A3FC02E0012070470C
:1030300001200AB010BD00BF00000020004402586B
:1030400083DE1B43484000200010004000F10803CD
:1030500043604FF0FF328260C3600361002303606E
:10306000704700BF00230361704700BF43684B6097
:103070009A688A609A6851609960086103680133B0
:103080000360704730B40D68B5F1FF3F01D10269AC
:1030900007E000F1080200E01A4653681C68A542E8
:1030A000FAD253684B6099608A6051600861036886
:1030B0000133036030BC70470369426881689160E6
:1030C0008268416851605A68904201D182685A60B2
:1030D000002202611A68013A1A601868704700BF3E
:1030E000084B1B681B6823B94FF0FF32064B1A6070
:1030F0007047044B1B68DB68DB685A68024B1A6038
:10310000704700BFEC020020C80300202DE9F04703
:1031100080469946089D099F0A9C236B6FF04046A4
:10312000164403EB860626F0070641B90FE0D05C93
:10313000E11881F83400D15C29B1013301E00A467D
:1031400000230F2BF3D9002384F8433002E000233F
:1031500084F83430062D00D90625E56265644FF009
:10316000000AC4F848A0201DFFF77CFF04F11800F6
:10317000FFF778FF2461C5F10705A5616462C4F813
:103180004CA084F850A04A464146304600F00AFD63
:10319000206007B13C60BDE8F08700BF38B500246F
:1031A00007E004EB840293000E481844FFF74EFF3B
:1031B0000134062CF5D90C4D2846FFF747FF0B4C80
:1031C0002046FFF743FF0A48FFF740FF0948FFF793
:1031D0003DFF0948FFF73AFF084B1D60084B1C6094
:1031E00038BD00BF10030020D0030020E4030020FE
:1031F000AC030020F4020020F8030020EC020020C1
:103200000803002010B5044600F0F4FC204A1368BF
:10321000013313601F4B1B683BB91E4B1C601368C6
:10322000012B0DD1FFF7BAFF0AE01B4B1B683BB91E
:10323000184B1B68DA6AE36A9A4201D8154B1C6086
:10324000164A136801331360E36A012202FA03F19C
:10325000134802680A43026003EB83039A00211DAE
:1032600010481044FFF702FF00F0E6FC0A4B1B6811
:103270006BB1084B1B68DA6AE36A9A4207D24FF0D7
:103280008052094B1A60BFF34F8FBFF36F8F10BD91
:10329000A4030020A8030020F0020020CC0300209B
:1032A0000C0400201003002004ED00E010B50446DB
:1032B00090F8513033B9006B00F0FAFB204600F073
:1032C000F7FB10BD012B02D100F0F2FB10BD022B69
:1032D00008D04FF0500383F31188BFF36F8FBFF313
:1032E0004F8FFEE710BD00BF10B514E000F082FC68
:1032F0000B4BDB68DC68201DFFF7DEFE094A136814
:10330000013B1360084A1368013B136000F094FC12
:103310002046FFF7CBFF044B1B68002BE6D110BD06
:10332000F4020020A4030020A003002008B5FFF74A
:10333000DBFF064B1B68012BF9D94FF08052044B81
:103340001A60BFF34F8FBFF36F8FF0E710030020B9
:1033500004ED00E070B504460E461F4B1D681F4B80
:1033600018680430FFF7A8FE50B91C4B1B68DA6AD6
:10337000012303FA02F21A490B6823EA02030B60E5
:10338000B4F1FF3F14BF00230123002E08BF002328
:1033900033B1124B196804311248FFF767FE70BD54
:1033A0002C440E4B1B685C60A54207D90E4B186875
:1033B0000A4B19680431FFF765FE70BD0B4B1868A6
:1033C000064B19680431FFF75DFE094B1B689C42F0
:1033D00001D2074B1C6070BDC4030020A80300206D
:1033E0000C040020F803002008030020EC02002059
:1033F000C803002070B586B00B9D0C9C45B94FF0FA
:10340000500383F31188BFF36F8FBFF34F8FFEE735
:1034100044B94FF0500383F31188BFF36F8FBFF3AC
:103420004F8FFEE754260496049E542E08D04FF08A
:10343000500383F31188BFF36F8FBFF34F8FFEE705
:10344000049E002C18BF002D10D02563022584F89F
:10345000515000250395029405AD01950A9D0095F4
:10346000FFF754FE2046FFF7CDFE01E00023059351
:10347000059806B070BD00BF2DE9F04385B0064643
:103480000F4615469846900000F090FA60B18146CC
:10349000542000F08BFA044610B1C0F8309004E0DC
:1034A000484600F005FB00E000249CB1002384F8AE
:1034B0005130039302940D9B01930C9B0093434660
:1034C0002A4639463046FFF721FE2046FFF79AFE8E
:1034D000012001E04FF0FF3005B0BDE8F08300BFF0
:1034E00010B588B000240594069407AA06A905A87B
:1034F000FFF73CFD059B0293069B01930094234636
:10350000079A0F490F48FFF775FF08B1012300E044
:1035100000239BB14FF0500383F31188BFF36F8FEB
:10352000BFF34F8F4FF0FF32074B1A600122074B5A
:103530001A600022064B1A6000F0FEFB08B010BDB6
:10354000785B04082D330008C8030020F002002037
:10355000C4030020024A136801331360704700BFA0
:103560009C030020F8B53B4B1B68002B65D13A4B00
:103570001D6801351D60C5B9384B1B681B6843B118
:103580004FF0500383F31188BFF36F8FBFF34F8F5A
:10359000FEE7324A1168324B186810601960314AF0
:1035A000136801331360FFF79BFD2F4B1B689D428F
:1035B00003D2002436E0012400E00024274B1B68DE
:1035C0001B6823B94FF0FF32274B1A602AE0234BC8
:1035D0001B68DB68DE6873689D4202D2224A136072
:1035E00020E0371D3846FFF767FDB36A1BB106F1CF
:1035F0001800FFF761FDF36A012202FA03F11B488C
:1036000002680A43026003EB83039A0039461848B4
:103610001044FFF72BFDF26A164B1B68DB6A9A42D7
:10362000C9D2CBE7134B1B68DB6A03EB83039A0019
:103630000F4B9B58012B06D806E00F4A1368013345
:103640001360002400E001240C4B1B6803B101242B
:103650002046F8BD9C030020C4030020EC0200209B
:1036600008030020C0030020C80300200C04002031
:1036700010030020A80300200C03002010040020E9
:1036800038B5344B1B6843B94FF0500383F31188AE
:10369000BFF36F8FBFF34F8FFEE700F0ABFA2D4BF8
:1036A0001A68013A1A601B68002B4CD12A4B1B6820
:1036B00033BB00244AE0294BDB68DC6804F11800C6
:1036C000FFF7FAFC251D2846FFF7F6FCE36A012206
:1036D00002FA03F1224802680A43026003EB830303
:1036E0009A0029461F481044FFF7C0FCE26A1E4BAF
:1036F0001B68DB6A9A4204D301221C4B1A6000E06B
:103700000024164B1B68002BD5D10CB1FFF7E8FC49
:10371000174B1C6854B1FFF725FF10B10122134B62
:103720001A60013CF7D10022114B1A600F4B1B6845
:103730005BB14FF080520F4B1A60BFF34F8FBFF356
:103740006F8F012402E0002400E0002400F074FAEE
:10375000204638BD9C030020A4030020AC030020B9
:103760000C04002010030020A803002010040020F7
:103770000C03002004ED00E010B5A8B10446104B86
:103780001B6843B14FF0500383F31188BFF36F8F71
:10379000BFF34F8FFEE7FFF7DDFE00212046FFF766
:1037A000D9FDFFF76DFF00E0002038B94FF08052DF
:1037B000044B1A60BFF34F8FBFF36F8F10BD00BF74
:1037C0009C03002004ED00E01F4B1B681BB101228D
:1037D0001E4B1A60704700221C4B1A601C4B1B6862
:1037E000B3FA83F3DBB2C3F11F0303EB83018A0057
:1037F00018498A5842B94FF0500383F31188BFF338
:103800006F8FBFF34F8FFEE730B4124D9900CA1887
:103810009000284442685468446019448A00083281
:103820002A44944205D1606803EB83018A002A444C
:10383000506003EB83039A00064B1A445368DA681E
:10384000054B1A6030BC70479C0300201004002018
:103850000C04002010030020A8030020842801D0BD
:10386000033070470020704708B5FFF739FE00208D
:1038700008BD00BF2DE9F04387B004460F464569F7
:10388000A5B1866996B1D0F80480D0F80090B0F95F
:103890000800FFF7E3FF22690296019500903B467E
:1038A00049464046FFF7A6FD059013E06568266887
:1038B000D4F81080B4F90800FFF7D0FF05AB0193EE
:1038C00000903B461FFA88F231462846FFF7D4FDA8
:1038D000012801D1059800E0002007B0BDE8F08381
:1038E00008B508B90120FFE7FFF746FF002008BD33
:1038F000124A12F0070F07D0D11D21F00701C1F5C0
:10390000705313440A4601E04FF470530C480260B0
:10391000002141601344083B23F00703094803607A
:1039200059601960991A51601360074B1960074B71
:1039300019604FF00042064B1A60704724040020C3
:103940001C0400201804002028400020140400203B
:1039500024400020134B00E013461A688242FBD338
:1039600010B45C681919884203D141682144596038
:103970001846446801198A420CD10B4909688A42E9
:1039800006D05268224442601A681268026002E05F
:10399000016000E00260984200D018605DF8044BBE
:1039A000704700BF1C0400201804002070B50446B6
:1039B000FFF7D0FD394B1B680BB9FFF799FF384B68
:1039C0001B681C4253D194B1083414F0070F0ED079
:1039D00024F00704083404F0070343B14FF0500308
:1039E00083F31188BFF36F8FBFF34F8FFEE7002C77
:1039F0003FD02C4B1B689C423DD82B4B1D6801E0EF
:103A00002B4615466A68944202D92A68002AF7D1E3
:103A1000224A1268954230D01E6808362A681A6019
:103A20006B681B1B102B10D9281910F0070F08D03A
:103A30004FF0500383F31188BFF36F8FBFF34F8FA5
:103A4000FEE743606C60FFF785FF6A6815490B6805
:103A50009B1A0B60154909688B4201D213490B6010
:103A60000F4B1B681A436A6000232B6006E0002698
:103A700004E0002602E0002600E00026FFF700FE3A
:103A800016F0070F08D04FF0500383F31188BFF3EF
:103A90006F8FBFF34F8FFEE7304670BD18040020D4
:103AA00024400020140400201C0400202840002092
:103AB000A0B338B50346A0F1080550F8042C184906
:103AC000096812EA010408D14FF0500383F311880A
:103AD000BFF36F8FBFF34F8FFEE750F8080C40B174
:103AE0004FF0500383F31188BFF36F8FBFF34F8FF5
:103AF000FEE794B188B91C4622EA010243F8042C7F
:103B0000FFF728FD54F8043C064A11680B44136083
:103B10002846FFF71FFFFFF7B3FD38BD704700BF12
:103B2000244000201404002082B0002301930D4B98
:103B30001B68B3F1FF3F08D04FF0500383F31188A7
:103B4000BFF36F8FBFF34F8FFEE74FF0500383F348
:103B50001188BFF36F8FBFF34F8F019B002BFCD0F9
:103B600002B070471000002008480068006880F329
:103B700008884FF0000080F3148862B661B6BFF386
:103B80004F8FBFF36F8F00DF00BF000008ED00E034
:103B9000DFF80C00016841F470010160704700001B
:103BA00088ED00E04FF0807340F8043C21F0010103
:103BB00040F8081C054B40F80C3C40F8202C6FF0F6
:103BC000020340F8243C4438704700BF293B0008FA
:103BD000074B19680868B0E8F04F80F30988BFF315
:103BE0006F8F4FF0000080F311887047AFF30080B3
:103BF000A80300204FF0500383F31188BFF36F8FA9
:103C0000BFF34F8F0A4A136801331360012B0DD1A4
:103C1000084B1B6813F0FF0F08D04FF0500383F3DD
:103C20001188BFF36F8FBFF34F8FFEE7704700BF60
:103C30001000002004ED00E0094B1B6843B94FF071
:103C4000500383F31188BFF36F8FBFF34F8FFEE7ED
:103C5000013B034A13600BB983F31188704700BF1F
:103C60001000002000000000000000000000000024
:103C7000EFF30980BFF36F8F154B1A681EF0100F1A
:103C800008BF20ED108A20E9F04F10602DE90900EF
:103C90004FF0500080F31188BFF34F8FBFF36F8F49
:103CA000FFF792FD4FF0000080F3118809BC1968FE
:103CB0000868B0E8F04F1EF0100F08BFB0EC108A93
:103CC00080F30988BFF36F8F704700BFAFF30080A8
:103CD000A803002008B54FF0500383F31188BFF309
:103CE0006F8FBFF34F8FFFF73DFC18B14FF080523D
:103CF000024B1A60002383F3118808BD04ED00E035
:103D0000084A0023136008490B60084B1B680849E8
:103D1000A1FB03139B09013B06490B6007231360BA
:103D2000704700BF10E000E018E000E00C00002049
:103D3000D34D621014E000E03A4B1A683A4B9A42B5
:103D400008D14FF0500383F31188BFF36F8FBFF397
:103D50004F8FFEE7334B1A68344B9A4208D14FF02D
:103D6000500383F31188BFF36F8FBFF34F8FFEE7CC
:103D700010B582B02E4B1A78D2B20192FF221A707F
:103D80001B78DBB28DF803309DF8033003F050034D
:103D9000284A13700722284B1A6009E0264A136844
:103DA000013B13609DF803305B00DBB28DF80330FC
:103DB0009DF8033013F0800FF0D11F4B1B68032BCD
:103DC00008D04FF0500383F31188BFF36F8FBFF318
:103DD0004F8FFEE71B0203F4E063174A1360019B59
:103DE000DBB2134A1370154B1A6842F470021A6062
:103DF0001A6842F070421A60FFF782FF0024104BED
:103E00001C60FFF7C5FE0F4A136843F04043136080
:103E1000FFF7AAFEFFF7D8FCFFF786FE204602B0A8
:103E200010BD00BF00ED00E071C20F4170C20F4134
:103E300000E400E02C4000203040002020ED00E0B5
:103E40001000002034EF00E008B51548154B036062
:103E50004FF4E133436000238360C36003610C22AD
:103E600042618361C36103624362836200F0E4FDE7
:103E700008B1FCF72BFC0021094800F06DFE08B1E9
:103E8000FCF724FC0021064800F08CFE08B1FCF78A
:103E90001DFC034800F040FE08B1FCF717FC08BD0C
:103EA000944000200010014000B589B00023039326
:103EB0000493059306930793026803F1804303F587
:103EC00088339A422BD1174BD3F8F02042F01002DE
:103ED000C3F8F020D3F8F02002F010020192019A0A
:103EE000D3F8E02042F00102C3F8E020D3F8E0303C
:103EF00003F001030293029B4FF4C0630393022378
:103F000004930723079303A90748FEF78BFC0022BD
:103F100005212520FCF7ECFC2520FCF719FD09B054
:103F20005DF804FB004402580000025808B54FF643
:103F3000FF7392B2024800F0D7FC002008BD00BF1A
:103F4000944000200268136823F4907313600268A1
:103F50009168044B0B4093602023C0F88430002309
:103F6000C3667047FEFFFFEF704700BF08B50168EA
:103F70000A6822F040020A602022C0F88020002255
:103F80000267FFF7F1FF08BD704700BF70B5044638
:103F90000168CB690D68886840F60F021A400FD19E
:103FA00013F0200F0CD015F0200F02D110F0805F1D
:103FB00006D0E36E002B00F0D1802046984770BDFC
:103FC000002A00F09480664A024003D1654E3542D3
:103FD00000F08D8013F0010F09D015F4807F06D01A
:103FE00001260E62D4F888103143C4F8881013F00B
:103FF000020F0BD010F0010F08D0216802260E62CC
:10400000D4F8881041F00401C4F8881013F0040FAC
:104010000BD010F0010F08D0216804260E62D4F8EE
:10402000881041F00201C4F8881013F0080F0BD07B
:1040300015F0200F00D13AB1226808211162D4F89E
:1040400088200A43C4F8882013F4006F0CD015F0C0
:10405000806F09D022684FF400611162D4F8882083
:1040600042F02002C4F88820D4F88820002A75D0B5
:1040700013F0200F09D015F0200F02D110F0805F4F
:1040800003D0E36E0BB120469847D4F8882023680C
:104090009B6813F0400F02D112F0280F20D0204669
:1040A000FFF750FF23689A6812F0400F14D09A6807
:1040B00022F040029A60A36F53B12B4A1A65A06F99
:1040C000FEF7BAFC002849D0A06F036D984770BD79
:1040D0002046FFF759FF70BD2046FFF755FF70BD22
:1040E0002046FFF751FF0023C4F8883070BD13F459
:1040F000801F09D010F4800F06D04FF480130B629C
:10410000204600F003FD70BD13F0800F0AD015F0BB
:10411000800F02D110F4000F04D0236FF3B12046BA
:10412000984770BD13F0400F06D015F0400F03D034
:104130002046FFF71BFF70BD13F4000F06D015F0EB
:10414000804F03D0204600F0E5FC70BD13F0807F67
:1041500004D0002D02DA204600F0DAFC70BD00BF6A
:1041600001000010200100046D41000808B5806BBB
:104170000023A0F85E30A0F85630FFF705FF08BD19
:104180002DE9F04387B00446826803691A43436906
:104190001A43C3691A43436E1A43016808687C4B8B
:1041A000034013430B6021684B6823F44052E368DB
:1041B00013434B60A1692268764B9A4201D0236A6F
:1041C00019439068744B03400B4393602168CB6A9A
:1041D00023F00F02636A1343CB6223686F4A934252
:1041E0003CD16F4A526D02F03802282A34D8DFE8F9
:1041F00012F0290033003300330033003300330062
:104200003300320133003300330033003300330016
:1042100033002B003300330033003300330033000E
:1042200033002D00330033003300330033003300FC
:1042300033002F00330033003300330033003300EA
:1042400033003100012219E1082217E1102215E1A3
:10425000202213E1402211E180220FE1514A9342D2
:1042600019D14F4A526D02F00702052A11D8DFE832
:1042700012F00600F40008000A000C000E000022F4
:10428000FCE00822FAE01022F8E02022F6E04022CA
:10429000F4E08022F2E0444A934219D1404A526D40
:1042A00002F00702052A11D8DFE812F00600D90053
:1042B00008000A000C000E000022DFE00822DDE00A
:1042C0001022DBE02022D9E04022D7E08022D5E096
:1042D000364A934216D1324A526D02F00702052A3D
:1042E0000ED8DFE802F003BE0507090B0022C5E087
:1042F0000822C3E01022C1E02022BFE04022BDE03E
:104300008022BBE02A4A934216D1254A526D02F020
:104310000702052A0ED8DFE802F003A60507090BFD
:104320000022ABE00822A9E01022A7E02022A5E0AD
:104330004022A3E08022A1E01E4A93423CD1184AC9
:10434000526D02F03802282A20D8DFE802F0151F4B
:104350001F1F1F1F1F1F8E1F1F1F1F1F1F1F171F06
:104360001F1F1F1F1F1F191F1F1F1F1F1F1F1B1F67
:104370001F1F1F1F1F1F1D0001227FE008227DE05D
:1043800010227BE0202279E0402277E0802275E055
:10439000F369FFCF000C0058FFF4FF11001001403B
:1043A000004402580044004000480040004C0040D7
:1043B0000050004000140140884A934216D1884AB8
:1043C000526D02F00702052A0ED8DFE802F0035012
:1043D0000507090B002251E008224FE010224DE0B2
:1043E00020224BE0402249E0802247E07D4A934270
:1043F00016D17B4A526D02F00702052A0ED8DFE87B
:1044000002F003380507090B002237E0082235E0E7
:10441000102233E0202231E040222FE080222DE0E4
:10442000714A934227D102F50E32926D02F00702D3
:10443000052A0ED8DFE802F003210507090B022246
:104440001CE008221AE0102218E0202216E0402288
:1044500014E0802212E0042210E004220EE0042284
:104460000CE004220AE0042208E0042206E0042210
:1044700004E0042202E0802200E004225A498B4238
:104480006BD1082A19D004D8022A0CD0042A0ED0E5
:1044900027E0202A04D0402A26D0102A21D112E079
:1044A0005248002526E0FDF7B3FF002522E003A8CF
:1044B000FDF7C0FF049800251CE06846FEF7B6F83B
:1044C0000198002516E0464B1B6813F0200F0FD013
:1044D000434B1868C0F3C100454B23FA00F0002598
:1044E00008E00020012505E04FF40040002501E030
:1044F0003F480025002800F02881626A3D4B33F8D0
:104500001220B0FBF2F3666806EB46018B42C0F066
:104510001381B3EB063F00F21181002792B2002312
:104520003946FBF73DFF4FEA012949EA10694FEA96
:104530000028700832463B4618EB000649F1000798
:1045400030463946FBF72CFFA0F540722A4B9A42C1
:1045500000F2F6802368D860F7E0E369B3F5004F16
:1045600040F08180402A57D8DFE802F024285656D0
:104570002C56565632565656565656564856565637
:104580005656565656565656565656562156565600
:1045900056565656565656565656565656565656BB
:1045A00056565656565656565656565659000F4853
:1045B00000253AE0FDF734F9002536E0FDF742F931
:1045C000002532E003A8FDF735FF049800252CE014
:1045D0006846FEF72BF80198002526E00078004099
:1045E00000440258007C0040000C005800093D00C7
:1045F0000090D003805B0408FFFC0F00594B1B6840
:1046000013F0200F0FD0574B1868C0F3C100564B62
:1046100023FA00F0002508E00020012505E04FF412
:104620000040002501E050480025002800F08D8062
:10463000626A4E4B33F81230B0FBF3F063685A08ED
:1046400002EB4000B0FBF3F39AB2103A4FF6EF7171
:104650008A4277D89AB222F00F02C3F3420313437F
:104660002268D36071E0402A47D8DFE802F02428AE
:1046700046462C4646463246464646464646384616
:1046800046464646464646464646464646462146EF
:1046900046464646464646464646464646464646BA
:1046A00046464646464646464646464646464900ED
:1046B0002F4800252AE0FDF7B3F8002526E0FDF796
:1046C000C1F8002522E003A8FDF7B4FE04980025F8
:1046D0001CE06846FDF7AAFF0198002516E0214B73
:1046E0001B6813F0200F0FD01E4B1868C0F3C100D9
:1046F0001D4B23FA00F0002508E00020012505E00D
:104700004FF40040002501E017480025E8B1626A37
:10471000164B33F81230B0FBF3F0636800EB530034
:10472000B0FBF3F080B2A0F110024FF6EF739A42A3
:104730000AD82368D86008E0012506E0012504E0D6
:10474000012502E0012500E001250123A4F86A30DB
:10475000A4F868300023E3662367284607B0BDE865
:10476000F08300BF004402580090D003805B04082F
:1047700000093D00836A13F0010F06D001684B6801
:1047800023F40032C36A13434B60836A13F0020FB1
:1047900006D001684B6823F48032036B13434B60EF
:1047A000836A13F0040F06D001684B6823F480225B
:1047B000436B13434B60836A13F0080F06D0016804
:1047C0004B6823F40042836B13434B60836A13F0FE
:1047D000100F06D001688B6823F48052C36B13431B
:1047E0008B60836A13F0200F06D001688B6823F476
:1047F0000052036C13438B60836A13F0400F11D097
:1048000001684B6823F48012436C13434B60436C84
:10481000B3F5801F06D101684B6823F4C002836C96
:1048200013434B60836A13F0800F06D001684B6816
:1048300023F40022C36C13434B6070472DE9F04111
:1048400004460F4616469846069D41E0B5F1FF3FE7
:104850003ED0FEF7DDFAC8EB0000854200D3A5B9D3
:104860002268136823F4D07313602268936823F0DE
:10487000010393602023C4F88030C4F884300023FF
:1048800084F87C300320BDE8F08123681A6812F0B8
:10489000040F1DD0DA6912F4006F19D04FF40062D2
:1048A0001A622268136823F4D07313602268936835
:1048B00023F0010393602023C4F88030C4F88430CF
:1048C000C4F88830002384F87C300320BDE8F081F0
:1048D0002368DB6937EA03030CBF01230023B342DB
:1048E000B4D00020BDE8F0812DE9F04182B01E4631
:1048F000D0F88030202B59D104460D469046002A2E
:1049000018BF002954D090F87C30012B52D00123DD
:1049100080F87C300023C0F888302123C0F8803034
:10492000FEF776FA0746A4F85480A4F85680A368E8
:10493000B3F5805F04D123692BB14FF0000804E088
:104940004FF0000801E0A8460025002384F87C30E1
:104950001AE000963B46002280212046FFF76EFFBA
:1049600050BB35B9226838F8023BC3F308039362A1
:1049700003E0236815F8012B9A62B4F856309BB215
:10498000013B9BB2A4F85630B4F856309BB2002BD2
:10499000DFD100963B46002240212046FFF74EFF24
:1049A000034658B92022C4F8802008E0022306E01C
:1049B000012304E0022302E0032300E0032318465E
:1049C00002B0BDE8F08100BF30B583B004460023DB
:1049D000C0F88830FEF71CFA054623681B6813F000
:1049E000080F0AD06FF07E430093034600224FF475
:1049F00000112046FFF722FFC0B923681B6813F09F
:104A0000040F0AD06FF07E4300932B4600224FF430
:104A100080012046FFF712FF50B92023C4F88030F0
:104A2000C4F88430002084F87C0002E0032000E019
:104A3000032003B030BD00BF68B310B50446D0F802
:104A400080301BB980F87C30FFF72EFA2423C4F89D
:104A500080302268136823F0010313602046FFF7BB
:104A60008FFB012819D0A36A13B12046FFF782FEFD
:104A70002268536823F4904353602268936823F0BC
:104A80002A0393602268136843F0010313602046F1
:104A9000FFF79AFF10BD0120704710BD10B485B01C
:104AA0000446194B02AA1868596803C26A4653F8AB
:104AB000080F596803C2636E2BB90123A4F86A304A
:104AC000A4F868301BE022689368C3F342639168DE
:104AD00004AA02EB517111F8082C120111F8101CF4
:104AE00092FBF1F2A4F86A2004AA134413F8082CEC
:104AF000120113F8103C92FBF3F3A4F8683005B0F0
:104B00005DF8044B704700BF445B0008704700BF6E
:104B1000704700BF704700BF90F87C30012B18D061
:104B2000012380F87C302423C0F8803003681A68A1
:104B3000196821F00101196022F000520023436638
:104B400001680A602022C0F8802080F87C30184676
:104B500070470220704700BF38B590F87C30012BB9
:104B60001DD00446012380F87C302423C0F8803017
:104B700003681D681A6822F001021A6002689368CF
:104B800023F0604319439160FFF788FF23681D609D
:104B90002023C4F88030002084F87C0038BD022037
:104BA00038BD00BF38B590F87C30012B1DD00446CD
:104BB000012380F87C302423C0F8803003681D680E
:104BC0001A6822F001021A600268936823F0606399
:104BD00019439160FFF762FF23681D602023C4F82A
:104BE0008030002084F87C0038BD022038BD00BF32
:104BF000DFF834D0FEF72CF9002103E00B4B5B58B3
:104C0000435004310A480B4B42189A42F6D30A4AE1
:104C100002E0002342F8043B084B9A42F9D300F02B
:104C200011F8FBF7C5FD704700000220405C040846
:104C3000000000207800002078000020244100209F
:104C4000FEE7000070B50E4B0E4CE41AA4100025D0
:104C50001E46A54204D056F8253098470135F8E79E
:104C600000F056FF084C094BE41AA41000251E461C
:104C7000A54204D056F8253098470135F8E770BDB5
:104C8000385C0408385C04083C5C0408385C0408A0
:104C900002440346934202D003F8011BFAE770472F
:104CA0000FB40A4B13B51C6824B1A36913B920468D
:104CB00000F04EF805AB049AA1680193204600F07D
:104CC00059F902B0BDE8104004B0704774000020EC
:104CD000014900F0A9B800BF65580008002310B5CD
:104CE000044603604360836081814366C28103613F
:104CF00043618361194608225C30FFF7C9FF054B09
:104D00006362054BA362054BE362054B2462236398
:104D100010BD00BF05550008275500085F55000865
:104D20008355000870B568234D1E5D430E4605F19E
:104D3000740100F097F8044640B1002180E8420079
:104D40000C30A06005F16802FFF7A2FF204670BD9D
:104D5000836910B5044633BB8364C3640365124B97
:104D6000124A1B688262984204BF0123836100F0EB
:104D70001FF86060204600F01BF8A060204600F09D
:104D800017F80022E06004216068FFF7A7FF012206
:104D90000921A068FFF7A2FF02221221E068FFF7B5
:104DA0009DFF0123A36110BD985B0408D14C00084E
:104DB000F8B51C4B1E68B369074613B93046FFF7B8
:104DC000C7FF4836B4687368013B04D4B4F90C508B
:104DD0007DB16834F8E733680BB13668F2E7042137
:104DE0003846FFF79FFF30600028F6D10C233B6068
:104DF000F8BD4FF6FF73E3810123A381656625604B
:104E0000A560656025616561A5610822294604F1F8
:104E10005C00FFF73DFF6563A563A564E56420467C
:104E2000F8BD00BF985B04082DE9F8438046894629
:104E300000F14804002694B1A5686768013F0CD4CE
:104E4000AB89012B07D9B5F90E30013303D02946C0
:104E50004046C84706436835F0E72468EBE730462C
:104E6000BDE8F88370B5CD1C25F0030508350C2D81
:104E700038BF0C25002D064601DBA94202D90C23C0
:104E8000336046E000F08AFD234B1C681A46214639
:104E9000A1B10B685B1B0ED40B2B03D90B60CC1894
:104EA000CD501EE08C420DBF63684B686360136099
:104EB00018BF0C4615E00C464968E9E7174C236813
:104EC0001BB9304600F00EFB20602946304600F04A
:104ED00009FB431C18D0C41C24F00304A0420DD1CC
:104EE0002560304600F05BFD04F10B00231D20F02F
:104EF0000700C31A0ED05A42E25070BD211A304644
:104F000000F0F0FA0130EBD10C233360304600F0B2
:104F100046FD002070BD00BF384000203440002016
:104F20009368013B002B10B4936009DA9469A342A3
:104F300002DBCBB20A2B03D15DF8044B00F026BB99
:104F40001368581C10601970C8B25DF8044B7047A4
:104F5000F8B506460F461446D518AC4208D03A4676
:104F600014F8011B3046FFF7DBFF431CF5D100E0CE
:104F70000020F8BD2DE9F04F9DB00C461746039375
:104F8000064618B183690BB9FFF7E2FE7F4B9C42DE
:104F900001D1746808E07E4B9C4201D1B46803E003
:104FA0007C4B9C4208BFF468A38918070CD5236981
:104FB00053B10023099320238DF8293030238DF835
:104FC0002A30DFF8D4B144E02146304600F044FBFB
:104FD0000028EED04FF0FF30D5E0039A111D126883
:104FE0000391002A80F28C80524243F00200079223
:104FF000049098F800302E2B00F08480032298F85B
:1050000000106548FBF77CF948B14023CBEB00006A
:1050100003FA00F0049B1843049008F1010898F883
:1050200000105E488DF82810062208F10107FBF7F2
:1050300067F9002800F09580594B002B40F08880DC
:10504000039B073323F0070308330393099B53445F
:105050000993B846454615F8013B1BB9B8EB07095B
:105060000FD003E0252BF9D0A846F3E74B463A468C
:1050700021463046FFF76CFF01307FD0099B4B443F
:10508000099398F80030002B78D000234FF0FF32BE
:1050900004930793059206938DF853301A930127D2
:1050A000052229783F48FBF72BF905F10108049BFD
:1050B00038B13C4A801A07FA00F01843049045467C
:1050C000EEE7D90644BF20228DF853201A0744BFCB
:1050D0002B228DF853202A782A2A3FF47EAF079A94
:1050E00000210A20A846013598F80030303B092BF2
:1050F00003D800FB02320121F4E700293FF479AF25
:10510000079276E798F801302A2B0BD1039B1A1DE2
:105110001B680392002BB8BF4FF0FF3308F1020861
:1051200005936BE70023059308F1010019460A2552
:105130008046013098F80020303A092A03D805FB50
:1051400001210123F4E7002B3FF458AF059155E707
:1051500003AB00932246144B04A93046AFF3008002
:1051600007E003AB009322460F4B04A9304600F042
:1051700093F8B0F1FF3F82467FF468AFA3895B06E6
:105180003FF528AF09981DB0BDE8F08F9C5B04087F
:10519000BC5B0408DC5B0408025C0408065C0408D1
:1051A00000000000FC5B0408514F00082DE9F047A7
:1051B00091461F460A698B68DDF820809342B8BF8C
:1051C0001346C9F8003091F8432006460C4612B148
:1051D0000133C9F800302368990642BFD9F800307E
:1051E0000233C9F80030256815F0060510D104F126
:1051F000190A07E00123524639463046C0470130BC
:105200001AD00135E368D9F800209B1A9D42F1DBE2
:1052100094F843302268003318BF012392060FD55B
:10522000E1185A1C302081F84300224494F84510BC
:1052300082F84310023303E04FF0FF30BDE8F087FF
:1052400004F1430239463046C0470130F4D02268A9
:10525000D9F80050E36802F00602042A08BF5D1B7B
:105260002269A3680CBF25EAE57500259342C4BFF7
:105270009B1AED184FF000091A344D4509D001234F
:10528000224639463046C0470130D5D009F10109E0
:10529000F3E70020BDE8F0872DE9F04317460A7ECA
:1052A00085B06E2A984606460C460C9B01F1430ECB
:1052B00000F0AE8011D8632A22D009D8002A00F06D
:1052C000BB80582A40F0CA8081F84520834955E0C8
:1052D000642A1ED0692A1CD0C0E0732A00F0B08076
:1052E00009D86F2A2ED0702A40F0B8800A6842F0A0
:1052F00020020A603EE0752A24D0782A3AD0ADE038
:105300001A6801F14205111D1960136884F84230D2
:10531000A8E021681A6811F0800F02D0111D1960F1
:1053200008E011F0400F02F10401196002D0B2F957
:10533000003000E01368002B3CDA2D225B4284F839
:10534000432037E021681A6811F0800F02D0111D48
:10535000196007E011F0400F02F10401196001D05B
:10536000138800E01368227E5C496F2A14BF0A226A
:1053700008221BE078225A4984F8452022681868E0
:1053800012F0800F00F104051D6003D1550601D510
:10539000038800E00368D00744BF42F02002226087
:1053A0001BB9226822F0200222601022002084F81B
:1053B000430001E049490A226568A560002D08DB29
:1053C000206820F0040020602BB9002D7DD17546A7
:1053D0000CE0002B79D07546B3FBF2F002FB1033E2
:1053E000CB5C05F8013D03460028F5D1082A0BD116
:1053F0002368DA0708D5236962689A42DEBF302342
:1054000005F8013C05F1FF35C5EB0E0323612EE0E5
:1054100008681A68496910F0800F03D0101D1860E1
:10542000136808E010F0400F02F1040018601368E0
:1054300001D0198000E0196000232361754616E051
:105440001A68111D19601568626800212846FAF76C
:1054500057FF08B1401B6060636804E004F1420537
:1054600084F8422001232361002384F84330CDF8DF
:1054700000803B4603AA21463046FFF797FE0130E5
:1054800002D14FF0FF3026E023692A4639463046E4
:10549000C0470130F5D023689B0710D5002504F1E3
:1054A000190907E001234A4639463046C047013012
:1054B000E7D00135E368039A9B1A9D42F2DBE0686E
:1054C000039B9842B8BF184605E00B7884F8423039
:1054D00004F142058AE705B0BDE8F0830D5C0408DD
:1054E0001E5C040838B5064C0023054608462360B8
:1054F00000F000FB431C02D1236803B12B6038BDD0
:105500002041002010B50C46B1F90E1000F096FABB
:105510000028ABBF636DA3891B1823F48053ACBF75
:105520006365A38110BD2DE9F0411F468B89DB0522
:1055300005460C46164605D502230022B1F90E1089
:1055400000F0BAF9A389B4F90E1023F48053A381B3
:1055500032463B462846BDE8F04100F06BB810B536
:105560000C46B1F90E1000F0A7F9431CA38915BF32
:10557000606523F4805343F48053A38118BFA38153
:1055800010BDB1F90E1000F0D5B80000F8B50F4607
:105590001446054618B183690BB9FFF7D9FB224BB6
:1055A0009C4201D16C6808E0204B9C4201D1AC6860
:1055B00003E01F4B9C4208BFEC68A369A360A3896A
:1055C0001A0709D523693BB123682069181A636952
:1055D0009842FEB20FDB08E02146284600F03CF876
:1055E0000028F1D04FF0FF361BE02146284600F09E
:1055F00039F90028F6D1A368013BA36023685A1C3F
:1056000022601F7063690130984204D0A389DB07D0
:1056100007D50A2E05D12146284600F023F9002897
:10562000E0D13046F8BD00BF9C5B0408BC5B0408B9
:10563000DC5B040838B5074C0546084611460022D5
:1056400022601A46FEF772FC431C02D1236803B1A4
:105650002B6038BD20410020324B70B51D680646D6
:105660000C4625B1AB6913B92846FFF771FB2E4BE9
:105670009C4201D16C6808E02C4B9C4201D1AC6883
:1056800003E02B4B9C4208BFEC68B4F90C309AB293
:1056900015071DD4D00602D4092232603AE0510722
:1056A00012D5616B41B104F14403994202D03046F6
:1056B00000F076F900236363A38923F02403A38118
:1056C0000023636023692360A38943F00803A38157
:1056D00023694BB9A38903F42073B3F5007F03D08A
:1056E0002146304600F01EF9A28912F0010305D0D0
:1056F0000023A36063695B42A36103E0920758BF84
:105700006369A36023695BB9B4F90C3003F08000CE
:1057100080B230B143F04003A3814FF0FF3070BD41
:10572000002070BD740000209C5B0408BC5B040872
:10573000DC5B040838B5064C0023054608462360A8
:1057400000F0B0F9431C02D1236803B12B6038BDCF
:10575000204100208A892DE9F041054610070C46BA
:1057600059D44B68002B02DC0B6C002B17DDE66A6A
:10577000AEB102F48052002392B22F682B600AB1BE
:10578000606D15E0216A01232846B047411C0FD106
:105790002B686BB11D2B01D0162B03D12F6000207D
:1057A000BDE8F081A38943F04003A381BDE8F08107
:1057B000A3895A0705D56368C01A636B0BB1236CC4
:1057C000C01A00230246E66A216A2846B047431CF5
:1057D000A38906D129681D293AD8214ACA40D6078B
:1057E00036D500226260D9042269226004D5421CA9
:1057F00001D12B6803B96065616B2F600029CED0A1
:1058000004F14403994202D0284600F0C9F8002070
:105810006063BDE8F0810F69002FC0D093070E6868
:1058200008BF4B690F6018BF0023C7EB06088B60E9
:1058300002E00744C0EB0808B8F1000FAFDD4346B3
:105840003A46216AA66A2846B0470028F1DCA389B7
:1058500043F04003A3814FF0FF30BDE8F08100BF6B
:105860000100402038B50B6905460C46DBB118B184
:1058700083690BB9FFF76CFA0C4B9C4201D16C6841
:1058800008E00B4B9C4201D1AC6803E0094B9C4201
:1058900008BFEC68B4F90C302BB121462846BDE8AE
:1058A0003840FFF757BF002038BD00BF9C5B04089D
:1058B000BC5B0408DC5B040838B5074C05460846A9
:1058C0001146002222601A4600F004F9431C02D15E
:1058D000236803B12B6038BD2041002070B50E460F
:1058E000B1F90E10002990B014461D4606DA0023C7
:1058F0002B60B3891A060ED540230EE001AA00F0F2
:10590000AFF80028F3DB029A02F47042A2F50053CC
:105910005A425A412A604FF480630020236010B03D
:1059200070BD00008B8973B59E0705460C4610D4E8
:1059300001AB6A46FFF7D2FF009906462846FFF7FB
:1059400091FA68B9B4F90C309A0522D443F00203F5
:10595000A38104F14703236023610123636118E0FD
:105960000D4BAB62A389206043F08003A381009BB1
:105970006361019B20614BB1B4F90E10284600F021
:1059800081F818B1A38943F00103A381A0893043B2
:10599000A08102B070BD00BFD14C000870477047B5
:1059A00038B50546002946D051F8043C0C1F002BA1
:1059B000B8BFE418FFF7F2FF1F4A1368114613B986
:1059C0006360146032E0A3420ED92268A0188342BB
:1059D00004BF18685B68636004BF121822600C6023
:1059E00024E0A24203D813465A68002AF9D1186865
:1059F0001918A1420BD1216801445818824219603C
:105A000014D1106852685A60014419600EE002D93E
:105A10000C232B600AE021686018824204BF1068E2
:105A20005268626004BF091821605C602846BDE8C6
:105A30003840FFF7B4BF38BD3840002038B5074CB8
:105A4000054608461146002222601A4600F04AF830
:105A5000431C02D1236803B12B6038BD20410020D4
:105A600038B5074C0023054608461146236000F070
:105A700021F8431C02D1236803B12B6038BD00BF5D
:105A80002041002038B5064C002305460846236017
:105A900000F018F8431C02D1236803B12B6038BD15
:105AA00020410020024B58221A604FF0FF3070470F
:105AB00020410020024B58221A604FF0FF307047FF
:105AC00020410020024B58221A600020704700BF7E
:105AD00020410020024B58221A604FF0FF307047DF
