:020000040800F2
:1000000000000120917100080106000805060008A3
:10001000090600080D06000811060008000000008F
:10002000000000000000000000000000F16B00086C
:100030001506000800000000916C0008F10B000894
:10004000E1710008E1710008E1710008E171000848
:10005000E1710008E1710008E1710008E171000838
:10006000E1710008E1710008E1710008E171000828
:10007000E1710008E1710008E1710008E171000818
:10008000E1710008E1710008E17100080000000062
:10009000000000000000000000000000E171000806
:1000A000E1710008E1710008E1710008E1710008E8
:1000B000E1710008E1710008E1710008E1710008D8
:1000C000E1710008E1710008E1710008E1710008C8
:1000D000E1710008990D0008E171000800000000BE
:1000E000E1710008E1710008E17100080000000002
:1000F000000000000000000000000000E1710008A6
:1001000000000000E1710008E1710008E1710008E1
:1001100000000000000000000000000000000000DF
:10012000E1710008E1710008E1710008E171000867
:10013000E171000800000000000000000000000065
:100140000000000000000000000000004130000836
:10015000E1710008E1710008E1710008E171000837
:10016000E1710008E17100080000000000000000DB
:10017000000000000000000000000000000000007F
:1001800000000000E1710008000000000000000015
:04019000E171000811
:1001A00010B5054C237833B9044B13B10448AFF3B1
:1001B00000800123237010BD80010020000000009A
:1001C000C4810008084B10B51BB108490848AFF3BB
:1001D00000800848036803B910BD074B002BFBD013
:1001E000BDE81040184700BF000000008401002057
:1001F000C481000880010020000000000000000011
:1002000001F0FF01102A2BDB10F0070F08D010F8C7
:10021000013B013A8B422DD010F0070F42B3F6D1CB
:10022000F0B441EA012141EA014122F007047FF0E4
:1002300000070023F0E80256083C85EA010586EA3B
:10024000010685FA47F5A3FA87F586FA47F6A5FA77
:1002500087F68EB9EED1F0BC01F0FF0102F0070283
:1002600032B110F8013B013A83EA010313B1F8D12E
:100270000020704701387047002D06BF354603380F
:10028000073815F0010F07D1013015F4807F02BF48
:10029000013015F4C03F0130F0BC0138704700BF99
:1002A00053B94AB9002908BF00281CBF4FF0FF31DD
:1002B0004FF0FF3000F07EB9ADF1080C6DE904CECF
:1002C00000F006F8DDF804E0DDE9022304B0704731
:1002D0002DE9F0478C460E460446089D002B50D170
:1002E0008A4217466CD9B2FA82FEBEF1000F0BD0DB
:1002F000CEF1200420FA04F401FA0EF644EA060CCA
:1003000002FA0EF700FA0EF44FEA1749220CBCFB72
:10031000F9F01FFA87F809FB10C642EA064600FB0F
:1003200008F3B34209D9F61900F1FF3280F02281B7
:10033000B34240F21F8102383E44F61AA2B2B6FB25
:10034000F9F309FB136642EA064403FB08F8A045EB
:1003500009D9E41903F1FF3280F00A81A04540F287
:100360000781023B3C44C8EB040443EA00400021FF
:10037000002D62D024FA0EF400232C606B60BDE8DF
:10038000F0878B4207D9002D55D0002185E8410028
:100390000846BDE8F087B3FA83F1002940F0908069
:1003A000B34202D3824200F2F880841A66EB03065D
:1003B0000120B446002D40D085E81010BDE8F0873C
:1003C00012B90127B7FBF2F7B7FA87FEBEF1000FAB
:1003D00035D1F31B4FEA17481FFA87FC0121B3FB05
:1003E000F8F0220C08FB103642EA06460CFB00F33C
:1003F000B34207D9F61900F1FF3202D2B34200F23C
:10040000CE801046F61AA2B2B6FBF8F308FB1366CC
:1004100042EA06440CFB03FCA44507D9E41903F1A6
:10042000FF3202D2A44500F2B5801346CCEB04049F
:1004300043EA00409CE729462846BDE8F087CEF114
:10044000200106FA0EF307FA0EF720FA01F94FEA37
:100450001748CE4049EA0309B6FBF8FA4FEA1944B7
:1004600008FB1A661FFA87FC44EA06430AFB0CF2F3
:100470009A4200FA0EF40AD9DB190AF1FF3180F032
:1004800087809A4240F28480AAF1020A3B449B1A78
:100490001FFA89F9B3FBF8F108FB113349EA03436A
:1004A00001FB0CF69E4207D9DB1901F1FF326BD23A
:1004B0009E4269D902393B449B1B41EA0A418EE7BF
:1004C000C1F1200E22FA0EF48B40234320FA0EF7DE
:1004D00006FA01F44FEA134C26FA0EF63C43B6FB3B
:1004E000FCF9270C0CFB19661FFA83F847EA06464D
:1004F00009FB08F7B74202FA01F200FA01FA08D93B
:10050000F61809F1FF3041D2B7423FD9A9F10209EB
:100510001E44F61BA0B2B6FBFCF40CFB146640EACA
:10052000064704FB08F8B84507D9FF1804F1FF3067
:1005300028D2B84526D9023C1F4444EA0940C8EBFA
:100540000707A0FB02894F4544464E4614D329D0E5
:1005500065B3BAEB040367EB060707FA0EFECB4060
:10056000CF404EEA030385E888000021BDE8F0870C
:100570001346F8E61046E0E6B8EB020469EB030622
:100580000138E5E70446D8E7114695E78146C0E71C
:100590008A467CE7023B3C4448E708460AE70238C3
:1005A0003E442FE7C245E7D33E46D1E72946BDE8A2
:1005B000F08700BF704700BF00B583B000F0B4F80B
:1005C000542000F01DFB4FF4E13000F08DFB02F0F1
:1005D0008FFB02F0D3FB064B0093064B064A01212A
:1005E000064804F0C1F906F0BDFD05F01FFDFEE769
:1005F00080000020EC000020280000202C53002068
:10060000704700BFFEE700BFFEE700BFFEE700BF88
:10061000FEE700BF704700BF82B000230193009344
:10062000294A136843F480331360274B1B6803F493
:1006300000330093019B01330193009B1BB9019B85
:10064000B3F5A04FF1D1204B1B6813F4003F02D04B
:100650000123009301E000230093009B012B30D184
:10066000194B1A6C42F080521A6418490A6842F415
:1006700040420A609A689A609A689A609A6842F45E
:1006800080529A60124A5A601A6842F080721A6068
:100690000D4B1B6813F0007FFAD040F202720D4B35
:1006A0001A60A3F580639A6822F003029A609A6840
:1006B00042F002029A60044B9B6803F00C03082B83
:1006C000F9D102B0704700BF00380240007000400E
:1006D00019544107003C024010B5104CD4F8883042
:1006E00043F47003C4F888300D4B1A6842F00102DD
:1006F0001A60002199601A6822F0847222F4803214
:100700001A60084A5A601A6822F480221A60D96076
:10071000FFF782FF4FF00063A36010BD00ED00E023
:10072000003802401030002430B583B0012104208D
:1007300000F020F94FF40055009501238DF80430A6
:1007400000228DF8062003228DF805208DF8073051
:10075000054C6946204600F051F82946204600F035
:100760008FF803B030BD00BF00080240C3780BB360
:1007700010B4184BDA68D243C2F30222C2F104016A
:10078000CCB20F2313414178A140C9B28278134003
:100790000B431B01DBB202780F490A4482F8003395
:1007A0000378580903F01F03012202FA03F341F80A
:1007B00020300BE003785A0903F01F03012101FAEE
:1007C00003F32032044941F8223070475DF8044BAE
:1007D000704700BF00ED00E000E100E0042805D113
:1007E000054A136843F0040313607047024A136814
:1007F00023F004031360704710E000E070B400239E
:100800003AE001229A400C68A24334D104685D00AA
:100810000322AA40D2431440046006680C79AC401D
:10082000344304600C79013CE4B2012C15D884688F
:100830002240826084684A79AA40224382604668E6
:100840009AB20124944026EA0404446046688C79F4
:1008500004FA02F292B232434260C4689AB256007D
:100860000322B24024EA0202C260C668CC7904FACC
:1008700005F23243C26001330F2BC2D970BC7047FE
:1008800001837047436959404161704730B401F0BA
:1008900007039B009A40C908083150F821400F25F2
:1008A00005FA03F324EA030340F8213050F821301D
:1008B0001A4340F8212030BC704700BF10B4294BC8
:1008C0009B6803F00C03042B05D0082B06D053BB08
:1008D000254B036029E0254B036026E0214B5A6835
:1008E0005B6803F03F0312F4800F09D01F4AB2FB8C
:1008F000F3F21C4B5B68C3F3881303FB02F208E0BE
:10090000194AB2FBF3F3174A5168C1F3881101FB8E
:1009100003F2144B5B68C3F3014301335B00B2FB8A
:10092000F3F3036001E0104B03600E4CA368C3F3C4
:1009300003130F49CB5CDAB20368D3404360A2686B
:10094000C2F382228A5CD2B223FA02F28260A268E7
:10095000C2F342328A5CD2B2D340C3605DF8044B2A
:10096000704700BF003802400024F40040787D0149
:100970000400002021B1054B1A6B10431863704727
:10098000024A136B23EA00001063704700380240EC
:1009900021B1054B5A6B104358637047024A536BA1
:1009A00023EA0000506370470038024021B1054B34
:1009B0005A6C104358647047024A536C23EA000093
:1009C000506470470038024021B1054B5A6A104309
:1009D00058627047024A536A23EA00005062704727
:1009E000003802402DE9F041038803F441570D8897
:1009F0004E888C88B1F806800A89B1F80AC08B89C4
:100A0000B1F80EE03543254348EA050414434CEAA7
:100A100004021A434EEA02033B430380838B9BB2DA
:100A200023F400639BB283830B8A0382BDE8F081C9
:100A300029B103889BB243F04003038070470388C9
:100A40009BB223F040039BB203807047808980B241
:100A5000704700BF818170470389194201D001208E
:100A600070470020704700BF30B585B004460D4682
:100A7000038A9BB223F44053CA88134303828389B9
:100A80009BB223F4B05323F00C01A8882A896B8908
:100A9000024313430B43A381A38A9BB223F4407305
:100AA000AA891343A3826846FFF708FF204B9C42A4
:100AB00003D003F580639C4201D1039A00E0029ABF
:100AC000A38913F4004F08D002EB820202EB8202EA
:100AD00029684900B2FBF1F107E002EB820202EB68
:100AE000820229688900B2FBF1F1124BA3FB0123BA
:100AF0005B091B011A09642000FB1212A18911F481
:100B0000004F08D0D20032320A49A1FB0212C2F3D0
:100B100042121A4307E0120132320649A1FB0212C7
:100B2000C2F343121A4392B2228105B030BD00BF16
:100B3000001001401F85EB5129B183899BB243F41A
:100B400000538381704783899BB223F400539BB287
:100B500083817047C1F30801818070478088C0F3AA
:100B60000800704710B4C1F3421401F01F010123C3
:100B700003FA01F19C4201D10C3004E0022C01D1B6
:100B8000103000E014301AB103681943016003E02B
:100B9000036823EA010101605DF8044B704700BF60
:100BA00010B4C1F3421201F01F040123A340012A33
:100BB00003D1828992B2134008E0022A03D1028A4B
:100BC00092B2134002E0828A92B21340090A0122D3
:100BD00002FA01F1028892B2114013B119B9002052
:100BE00002E0002000E001205DF8044B704700BFE8
:100BF00008B505F0FFFC012801D006F07BF808BD20
:100C000010B504460420FFF7E9FD0A4B1C704FF4B1
:100C10007A7000FB04F00122074B1A80074B1A6818
:100C200042F002021A6058601A6842F001021A602B
:100C300010BD00BF9C0100209E01002010E000E0DC
:100C400030B40C4A55680C4B1B7800FB03F09368DA
:100C500000211A46074B9B689A42FBD002D9D21A50
:100C6000114402E0EC1A224411448142F1D330BC19
:100C7000704700BF10E000E09C01002010B5044662
:100C800005F0B8FC01280DD00A4B1888844203D324
:100C9000B4FBF0F005F028FB064B1B88B4FBF3F225
:100CA00003FB12444FF47A7000FB04F0FFF7C8FF17
:100CB00010BD00BF9E01002070B50E4615460024F1
:100CC0000BE0084B1B8803F080039BB2002BF8D08D
:100CD000315D0448FFF73EFF0134AC42F1DB2846AA
:100CE00070BD00BF00100140F0B589B0074601217A
:100CF0000846FFF73FFE01211020FFF757FE254E63
:100D0000072209213046FFF7C1FD07220A2130469C
:100D1000FFF7BCFD4FF4C063069302238DF81C302F
:100D20008DF81D3000248DF81E4001258DF81F50D0
:100D300006A93046FFF762FD0297ADF80C40ADF80A
:100D40000E40ADF81040ADF814400C23ADF8123051
:100D500004F1804404F5883402A92046FFF784FE9C
:100D600029462046FFF7E8FE2A4640F22551204654
:100D7000FFF7F8FE25238DF8043003238DF80530A6
:100D80008DF806308DF8075001A8FFF7EFFC09B089
:100D9000F0BD00BF0000024008B540F225511A48DE
:100DA000FFF7FEFE00282DD01748FFF7D7FEC0B290
:100DB000164B1B8813F4004F24D103F4804292B2E7
:100DC00062B10A2803D00022104B1A8008BD6FEAD6
:100DD00043436FEA53430D4A138008BD0D2804D1E5
:100DE00043F48043094A138008BDC3F30D02084948
:100DF000885401339BB2054A1380C72B02D90022C5
:100E0000024B1A8008BD00BF00100140A001002065
:100E10002059002008B5084A13889BB223F03803F4
:100E20009BB2138013889BB2184310800121104697
:100E3000FFF7FEFD08BD00BF0030014010B50446BD
:100E400002210A48FFF708FE0028F9D0214607488A
:100E5000FFF700FE01210548FFF7FEFD0028F9D04D
:100E60000248FFF7F3FDC0B210BD00BF00300140E3
:100E7000F0B583B0012141F20100FFF797FDE023B7
:100E8000009302278DF8047000248DF80640032398
:100E90008DF8053001258DF807501D4E6946304606
:100EA000FFF7ACFC052211463046FFF7EFFC0522A8
:100EB00006213046FFF7EAFC052207213046FFF7FE
:100EC000E5FC29464FF48050FFF77EFD21464FF4A4
:100ED0008050FFF779FD0F490C804FF482734B80EF
:100EE0008C80CF800D814FF400734B8138238B8130
:100EF000CC8107230B82084C2046FFF773FD29465F
:100F00002046FFF795FDFF20FFF798FF03B0F0BDE7
:100F100000000240E85900200030014010B5064CA6
:100F2000002323600520FFF789FFFF20FFF786FFDE
:100F30000123236010BD00BF9002404210B5044C55
:100F4000002323600620FFF779FF0123236010BDF3
:100F50009002404238B50E4D00242C609020FFF7DF
:100F60006DFF2046FFF76AFF2046FFF767FF204628
:100F7000FFF764FFFF20FFF761FF000284B2FF204C
:100F8000FFF75CFF204301232B6080B238BD00BF18
:100F90009002404210B582B001210846FFF7EAFCFA
:100FA0001023009301248DF8044000238DF80630AF
:100FB00003238DF805308DF8074069460948FFF78F
:100FC0001DFC094B1C60FFF753FF0820FFF722FFB1
:100FD000FFF7C0FF0146054B1880054806F04AF9A7
:100FE00002B010BD000002409002404214000020F8
:100FF000DC810008F8B506460F46154600240E4B66
:101000001C600320FFF71AFFC7F30740FFF716FF26
:10101000C7F30720FFF712FFF8B2FFF70FFF05E055
:10102000FF20FFF70BFF30550134A4B2AC42F7D3D9
:101030000122014B1A60F8BD9002404208B5FFF74B
:101040006DFF10F0010FFAD108BD00BFF8B50646DC
:101050000F461546FFF772FF00240F4B1C6002205D
:10106000FFF7ECFEC7F30740FFF7E8FEC7F30720E2
:10107000FFF7E4FEF8B2FFF7E1FE04E0305DFFF7B2
:10108000DDFE0134A4B2AC42F8D30122024B1A6057
:10109000FFF7D4FFF8BD00BF90024042F8B5074605
:1010A0000E461446CDB2C5F58075ADB2954203D358
:1010B000154601E04FF480752A4631463846FFF761
:1010C000C5FFAC4208D02F442E44641BA4B2B4F533
:1010D000807FEFD82546EFE7F8BD00BF70B5044626
:1010E00001460F4806F0C6F82403FFF727FFFFF775
:1010F000A5FF0C4D00262E602020FFF79FFEC4F3B5
:101100000740FFF79BFE200A00F0F000FFF796FE75
:101110003046FFF793FE01232B60FFF78FFF70BD72
:10112000E4810008900240422DE9F04706468946D6
:1011300017464FEA1138C1F30B05C5F58054A4B228
:10114000944204D3144602E04FF4805400254FEA41
:10115000083A4FF4805251461B48FFF74BFF0023DB
:1011600006E0EA181849525CFF2A03D101339BB20A
:101170009C42F6D89C4213D94046FFF7AFFF0023AC
:1011800005E05919F05C104A885401339BB29C4227
:10119000F7D84FF4805251460B48FFF77FFF04E029
:1011A000224649463046FFF779FFA7420AD008F1A8
:1011B00001082644A1443F1BBFB2B7F5805FC3D8E6
:1011C0003C46C3E7BDE8F087FC590020002070478B
:1011D00020B908B5FFF7DEFE002008BD01207047EA
:1011E00070B50D46144658B1042070BD4FF400721E
:1011F00061022846FFF7FEFE013405F5007533460F
:101200005E1E002BF2D1002070BD00BF70B50D46F0
:10121000144658B1042070BD4FF400726102284694
:10122000FFF782FF013405F5007533465E1E002B83
:10123000F2D1002070BD00BFA8B9032915D8DFE89E
:1012400001F00204090E002070474FF48043136040
:10125000002070474FF4007313800020704708236C
:10126000138000207047042070470420704700BF9F
:101270004278007840EA0220704700BFC278837845
:1012800043EA0222437843EA0223007840EA03203B
:10129000704700BF0170090A417070470170C1F3C7
:1012A00007234370C1F307438370090EC170704771
:1012B000802804D9FE2804D928B1002070470020D6
:1012C0007047012070470120704700BF3F2808D9B0
:1012D0007E2808D9802801D3FE2806D938B10020FD
:1012E000704700207047012070470120704701209F
:1012F000704700BF02394369023B994204D2836AB6
:10130000408900FB013070470020704770B50646E9
:101310000D4601F11A00FFF7ABFF04463378032BAB
:1013200005D105F11400FFF7A3FF44EA004070BDAA
:1013300070B506460C46154691B204F11A00FFF747
:10134000A9FF3378032B04D1290C04F11400FFF713
:10135000A1FF70BD10B40468E4B12246511C13789B
:10136000202B02D90A463A2BF8D13A2B15D12378F3
:10137000A3F13002D2B2092A04D80234A14203D127
:10138000303B02E0012300E00123002B07DC016079
:10139000184606E04FF0FF3003E0002001E04FF078
:1013A000FF305DF8044B704738B50D46044678B100
:1013B00003687BB11A787AB18188DA8891420DD1BD
:1013C0005878FFF703FF10F0010F09D0092008E05B
:1013D000092006E0092004E0092002E0092000E0DD
:1013E000002008B9236800E000232B6038BD00BF4F
:1013F00038B5C378E3B1044600F130050123C26A71
:1014000029464078FFF702FFA0B90023E370E16AA4
:10141000236ACB1AA26993420ED2A378022B0DD174
:1014200001230A4429466078FFF7F0FE002038BD0A
:10143000002038BD012038BD002038BD002038BD57
:1014400070B5C36A8B4212D004460D46FFF7D0FF39
:10145000064668B901232A4604F130016078FFF797
:10146000BFFE10B101264FF0FF35E56200E0002617
:10147000304670BD38B504460023C3704FF0FF33CB
:10148000C362FFF7DDFF00284FD104F22E20FFF7E3
:10149000EFFE054694F83030EB2B03D0E92B01D05A
:1014A000E82B3CD14AF655239D4206D10822234918
:1014B00004F1820005F0BCFEC8B304F13B00FFF765
:1014C000D7FE94F83D20431E184228D1B0F5007F86
:1014D00025D324D81AB3531E1A4220D104F13E005A
:1014E000FFF7C6FED8B194F84030013B012B16D867
:1014F00004F14100FFF7BCFE88B104F14300FFF79F
:10150000B7FE7F2806D804F15000FFF7B7FEB0F50C
:10151000803F04D304F14600FFF7AAFE48B94AF61B
:1015200055239D4207D1022038BD042038BD00203C
:1015300038BD002038BD032038BD00BF0C82000834
:1015400070B584B006460D460021FFF793FF0228D0
:1015500012D029D845B300240FE006F13000230152
:1015600003F5E3731844FFF789FE04AB03EB840330
:1015700043F8100C013400E00024032CEDD90DB128
:101580006C1E00E0002404AB03EB840353F8101C32
:1015900019B13046FFF76EFF00E0032025B901289E
:1015A00002D90134032CEED904B070BD2DE9F04707
:1015B0000E46174600230B60FFF7CCFE051EC0F257
:1015C0000C81A54B53F82540002C00F009813460B4
:1015D00007F0FE0723787BB16078FFF7F7FD10F086
:1015E000010F09D1002F00F0FE8010F0040F40F031
:1015F000FD800020BDE8F08700232370E8B2607012
:10160000FFF7E6FD10F0010F40F0F3801FB110F07E
:10161000040F40F0F18000212046FFF791FF0428DD
:1016200000F0ED80012800F2ED80E66A04F13B0055
:10163000FFF71EFEB0F5007F40F0E78004F14600A2
:10164000FFF716FE804620B904F15400FFF716FE9E
:101650008046C4F8188094F8409084F8029009F10C
:10166000FF33DBB2012B00F2D38008FB09F994F8B9
:101670003D506581002D00F0CE806B1E1D4240F074
:10168000CD8004F14100FFF7F3FD8246208110F088
:101690000F0F40F0C68004F14300FFF7E9FD074655
:1016A00020B904F15000FFF7E9FD074604F13E00C0
:1016B000FFF7DEFD0346002800F0B68009EB0002CC
:1016C00002EB1A129742C0F0B280BF1AB7FBF5F5D1
:1016D000002D00F0AF8061498D4201D9002700E064
:1016E00003274FF6F5718D4200D8022740F6F571B9
:1016F0008D4200D80127002F00F09F8002356561E0
:10170000E661334423623244A262032F11D104F113
:101710005A00FFF7ADFD002840F09280BAF1000FAB
:1017200040F0918004F15C00FFF7A8FD6062AD001D
:101730000FE0BAF1000F00F089804B446362022F82
:1017400001D16D0005E005EB450305F0010505EB52
:10175000530505F2FF15B8EB552F7AD34FF0FF3341
:101760002361E36080232371032F2CD104F16000F7
:10177000FFF77EFD012826D1711C2046FFF760FE91
:1017800008BB0023237104F22E20FFF771FD4AF6F7
:101790005523984217D104F13000FFF76FFD304B0D
:1017A000984210D104F50570FFF768FD2D4B984263
:1017B00009D104F50670FFF761FD206104F507709B
:1017C000FFF75CFDE0602770274A138801339BB266
:1017D0001380E3800020BDE8F0870B20BDE8F08790
:1017E0000C20BDE8F0870020BDE8F0870A20BDE8A6
:1017F000F0870320BDE8F0870A20BDE8F0870120CC
:10180000BDE8F0870D20BDE8F0870D20BDE8F0872A
:101810000D20BDE8F0870D20BDE8F0870D20BDE864
:10182000F0870D20BDE8F0870D20BDE8F0870D2082
:10183000BDE8F0870D20BDE8F0870D20BDE8F087FA
:101840000D20BDE8F0870D20BDE8F0870D20BDE834
:10185000F0870D20BDE8F087A4010020F5FFFF0F01
:101860005252614172724161A20100202DE9F0479C
:10187000012977D94369994276D217460C46064624
:101880000378022B40D0032B51D0012B6ED101EBFA
:101890005108016A01EB5821FFF7D2FD05460028E7
:1018A00065D106F1300A08F10109C8F3080814F0FF
:1018B000010409D01AF808203B0103F47F6302F009
:1018C0000F021343DBB200E0FBB20AF80830012339
:1018D000F370316A01EB59213046FFF7B1FD05463F
:1018E000002844D1C9F3080914B1C7F3071206E070
:1018F0001AF8093023F00F03C7F303221A430AF83A
:1019000009200123F37032E0016A01EB1421FFF793
:1019100097FD054658BB06F13000630003F4FF73E2
:10192000B9B21844FFF7B6FC0123F3701FE0016A57
:1019300001EBD411FFF784FD0546C0B927F07047CD
:1019400006F13003A10001F4FE715C182046FFF798
:1019500095FC00F0704139432046FFF79FFC0123BE
:10196000F37004E0022502E0022500E0022528468B
:10197000BDE8F087F8B50668012953D97369994223
:1019800052D20C463378022B2AD0032B38D0012BAD
:101990004CD101EB5105316A01EB55213046FFF77F
:1019A0004FFD002844D16F1CC5F30805354495F858
:1019B0003050316A01EB57213046FFF741FD0028D6
:1019C00039D1C7F30803334493F8300045EA0020C7
:1019D00014F0010F01D00009F8BDC0F30B00F8BDF1
:1019E000316A01EB14213046FFF72AFD30BB06F1C6
:1019F0003000610001F4FF710844FFF739FCF8BDC5
:101A0000316A01EBD4113046FFF71AFDC8B906F16F
:101A10003003A10001F4FE701844FFF72FFC20F002
:101A20007040F8BD0120F8BD0120F8BD0120F8BDCF
:101A30004FF0FF30F8BD4FF0FF30F8BD4FF0FF30F2
:101A4000F8BD4FF0FF30F8BD2DE9F0410768B1F562
:101A5000001F3DD206460C4611F01F0F3BD13161ED
:101A600085681DB93B78022B00D97D6A35B93B8961
:101A7000B3EB541F32D97B6AB3611AE0B7F80A801E
:101A80004FEA48280EE029463046FFF773FF054627
:101A9000B0F1FF3F25D0012826D97B69984226D294
:101AA000C8EB04044445EED229463846FFF722FC31
:101AB000B0617561B369EBB103EB5423B36107F116
:101AC0003003C4F308042344F3610020BDE8F0812F
:101AD0000220BDE8F0810220BDE8F0810220BDE8CF
:101AE000F0810120BDE8F0810220BDE8F0810220F4
:101AF000BDE8F0810220BDE8F08100BF2DE9F04192
:101B000007460668884629B9F5687DB173699D4224
:101B10000ED20EE0FFF72EFF012869D9B0F1FF3F8A
:101B200074D07369984271D3454602E0012500E004
:101B300001253069002869D0454516D16C1C7369B0
:101B40009C4200D3022421463846FFF713FF0128A8
:101B50005CD0B0F1FF3F59D068B1F368012B06D9D2
:101B60007269934205D3002405E0002403E00024B9
:101B700001E01D460024A4B92C46013473699C423F
:101B800002D3012D37D9022421463846FFF7F2FE51
:101B900038B1012832D0B0F1FF3F31D0AC42ECD1A6
:101BA00030E04FF0FF3221463046FFF75FFE03463C
:101BB00040B9B8F1000F05D0224641463046FFF744
:101BC00055FE034673B9F46032697369023B9A4269
:101BD00001D8013A3261337943F001033371204671
:101BE000BDE8F081012B10D14FF0FF30BDE8F0814E
:101BF0000120BDE8F0810020BDE8F081BDE8F08162
:101C0000BDE8F0810020BDE8F0810120BDE8F08151
:101C1000F8B50E46046801292CD9074611466369B8
:101C20009E4229D22AB14FF0FF322046FFF71EFE16
:101C300020BB31463846FFF79DFE0546F8B1012826
:101C40001FD0B0F1FF3F1ED0002231462046FFF7E3
:101C50000DFED0B923696269911E8B4205D2013312
:101C60002361237943F0010323712E469542E0D38B
:101C70000020F8BD0220F8BD0220F8BDF8BD00200C
:101C8000F8BD0220F8BD0120F8BDF8BDF8B5054645
:101C90000C46FFF7ADFB00BB21462846FFF72AFBA9
:101CA0000746E86205F130064FF400720021304625
:101CB00005F0D8FA002400E001346B899C4207D279
:101CC0000123E21931466878FFF7A0FA0028F3D023
:101CD0006889001B18BF0120F8BD0120F8BD00BFB6
:101CE0002DE9F843066805692035B5F5001F01D3D5
:101CF000002383618369002B48D088460446C5F3DE
:101D00000807002F3BD101338361416941B9338911
:101D1000B3EB551F33D8002383610420BDE8F8835B
:101D20007389013B13EA552329D1FFF723FE81462E
:101D300001282ED9B0F1FF3F2ED07369984217D3F6
:101D4000B8F1000F04D10023A3610420BDE8F8839B
:101D500061692046FFF7D2FE814600B3012821D0F9
:101D6000B0F1FF3F21D001463046FFF78FFFF8B9B1
:101D7000C4F8149049463046FFF7BCFAA0612561CB
:101D800030363E44E6610020BDE8F8830420BDE81B
:101D9000F8830220BDE8F8830120BDE8F88307201E
:101DA000BDE8F8830220BDE8F8830120BDE8F88390
:101DB0000120BDE8F88300BF70B504460668002125
:101DC000FFF742FEE8B9A1693046FFF739FB054647
:101DD000C0B9E0690378B3B1C37A03F03F03A371DC
:101DE000C37A13F0080F05D10B2204F1200105F08E
:101DF0001FFA50B100212046FFF772FF0028E2D001
:101E000070BD70BD70BD042070BD284670BD00BFA0
:101E1000F8B504460F4606680021FFF715FE024696
:101E2000B8B90025A1693046FFF70AFB024680B920
:101E3000E3691B78E52B00D01BB90135BD4201D108
:101E400007E0002501212046FFF74AFF024600284F
:101E5000E8D0042A00D107221046F8BD2DE9F04F42
:101E600083B083460191D1F8008000F120094FF042
:101E700020330362C9F80430C9F80730002637461A
:101E80004FF0080A7D1C18F80740202C41D92F2C50
:101E900003D05C2C08D100E0013518F805302F2B59
:101EA000FAD05C2BF8D034E02E2C01D0B24509D802
:101EB000BAF10B0F46D02E2C46D12F4608264FF0F4
:101EC0000B0ADFE72046FFF7F3F988B1023718F86D
:101ED00005502846FFF7FAF9C0B30AF1FF339E42D6
:101EE00036D2731C09F8064009F803500236C9E7D8
:101EF00021461B4805F038FA60BBA4F16103DBB250
:101F0000192B01D8203CE4B209F8064001362F46CF
:101F1000B8E74544019B1D60F6B19BF82030E52BE6
:101F200002D105238BF82030202C04D92B78202BCC
:101F300003D8042302E0042300E000238BF82B30B5
:101F400000200AE0062008E0062006E0062004E063
:101F5000062002E0062000E0062003B0BDE8F08F76
:101F60001882000830B583B004460191056801E08D
:101F700001330193019B1A782F2AF9D05C2AF7D0FC
:101F80000022A2601B781F2B08D8802384F82B30F6
:101F900011462046FFF758FD034627E001A92046D9
:101FA000FFF75CFF034608BB2046FFF705FF94F8E8
:101FB0002B20034628B1042818D112F0040F12D0A8
:101FC00014E012F0040F11D1A37913F0100F0CD00C
:101FD00005F130012369C3F3080319442846FFF7CC
:101FE00095F9A060DAE7052300E00523184603B061
:101FF00030BD00BF70B5044606680121FFF708FF39
:102000000546B0B9A1693046FFF71AFA054680B90E
:1020100020220021E06905F025F9E36954F8201F2A
:10202000626819605A602189A27A19819A72012323
:10203000F370284670BD00BF70B50446FFF7D8F9AD
:102040000546002837D12378032B2DD12379012B86
:102050002AD104F130064FF400720021304605F019
:1020600001F94AF6552104F22E20FFF713F913491E
:102070003046FFF713F9124904F50570FFF70EF922
:10208000216904F50670FFF709F9E16804F50770A6
:10209000FFF704F9E2690132E26201233146607818
:1020A000FFF7B4F800232371002211466078FFF790
:1020B000C3F800B10125284670BD00BF52526141EE
:1020C000727241612DE9F04F85B000900191934605
:1020D000994603AA0121FFF7AFF800287FD1DDF868
:1020E0000C80082401E06400E4B23CB1B8FBF4F3D6
:1020F0003F22B3FBF2F3B3F5806FF4D804B9FF24A9
:102100004FF400720021484605F0ACF809F5DF767F
:102110003F254FF0000A4DE0019B53F82A70642FD1
:1021200007D805D06423B8FBF3F303FB07F700E0FF
:102130004746EB19984501D39D4201D9C5EB0807E5
:10214000002F3DD0294606F10800FFF7A7F83946D1
:1021500006F10C00FFF7A2F886F804B03F22B5FBA9
:10216000F2F3B3FBF4F104FB1130C3EB8313EB1A6E
:10217000DBB20133DBB27070880820F03F0003430C
:10218000B370F1703D446B1EB3FBF2F2B2FBF4F19D
:1021900004FB1120C2EB82129B1ADBB20133DBB2CB
:1021A00070718A0822F03F021343B371F171103647
:1021B0000AF1010ABAF1030F02D80DB14545ABD3BC
:1021C0004AF6552109F5FF70FFF764F80123002254
:1021D00049460098FFF71AF818B1012002E00120E3
:1021E00000E0002005B0BDE8F08F00BF10B584B05E
:1021F00001900091144604A840F8041DFFF7AAF8C6
:10220000002814DB0C4B53F820300BB100221A705D
:10221000019B0BB100221A70019A074B43F8202052
:102220003CB1002201A96846FFF7C0F902E00B208B
:1022300000E0002004B010BDA40100202DE9F0470B
:1022400090B00191002800F0E9800546164602F0A2
:102250003F073A4603A901A8FFF7A8F9044600285A
:1022600040F0D780039B0493019904A8FFF77AFEFE
:10227000044620B99DF93B30002B00DA062416F005
:102280001C0F53D044B1042C03D104A8FFF7B2FEB5
:10229000044647F008070BE09DF8163013F0110FC5
:1022A00003D116F0040F02D102E0072400E0082455
:1022B000002C4BD117F0080F48D05B4E31460B98DD
:1022C0000E30FEF7EBFF31460B981630FEF7E6FFB7
:1022D000039EDDF82C8041463046FFF717F8814613
:1022E000202388F80B3000220B993046FFF720F8A6
:1022F00000210B981C30FEF7D1FF0122039BDA70FE
:10230000B9F1000F22D0039BDE6A0022494604A8DF
:10231000FFF77EFC0446C8B931460398FFF790F8F2
:10232000044609F1FF33039AD3600FE074B99DF8B6
:10233000163013F0100F06D116F0020F06D013F06E
:10234000010F02D102E0042400E007244CB917F089
:10235000080F01D047F04007039BDB6A2B620B9B01
:102360006B62002C55D1DDF80CA0DDF82C804146C5
:102370005046FEF7CBFF0646A86008F11C00FEF7AA
:102380007DFF8046E860C5F800A0BAF80630AB8053
:102390002F7400216974E961696105F128094FF41E
:1023A0000072484604F05EFF17F0200F31D0B8F1FC
:1023B000000F2ED0C5F81480BAF80A707F020DE025
:1023C00031462846FFF7D6FA0646012800D80224EF
:1023D000B6F1FF3F00D10124C7EB08080CB9B8459E
:1023E000EED8AE61ACB9C8F3080393B1039F314690
:1023F0003846FEF77FFF48B100EB5822EA6101231F
:1024000049467878FEF7ECFE10B902E0022400E0BD
:1024100001242CB100232B60204602E0092000E0BB
:10242000204610B0BDE8F087000021502DE9F04FA4
:1024300085B00446884616461F4600233B6001903F
:1024400003A9FEF7B1FF002840F0C180607C00289E
:1024500040F0BF80237C13F0020F00F0B980636965
:10246000F342C0F0AB80DE43A8E06369C3F3080227
:10247000002A40F08380039AB2F80A9009F1FF39EC
:1024800019EA53291DD133B9A06840B90021019838
:10249000FFF734FB03E0A1690198FFF72FFB002849
:1024A00000F08F80012802D10220607491E0B0F129
:1024B000FF3F02D1012060748BE0A061A36803B9E3
:1024C000A06094F91030002B0FDA0123E26904F1C7
:1024D000280103984078FEF799FE10B1012060743E
:1024E00077E0237C03F07F032374DDF80CB0A1694F
:1024F0005846FEF7FFFE824610B90220607468E07D
:10250000CA44750A25D009EB0503BBF80A2093429B
:1025100001D9C9EB02052B46524641469BF8010002
:10252000FEF774FE10B10120607452E0E169CAEB5D
:1025300001018D420BD94FF4007208EB412104F1E7
:10254000280004F084FE237C03F07F0323746D02D3
:1025500027E0E3699A450FD06269E3689A420BD29B
:102560000123524604F128019BF80100FEF738FED2
:1025700010B1012060742CE0C4F81CA06369C3F39F
:102580000803C3F50075AE4200D2354604F12800B9
:102590002A464146184404F05AFE237C63F07F0328
:1025A0002374761B3B682B443B60A84463691D443D
:1025B0006561E3689D4238BF1D46E560002E7FF4EB
:1025C00054AF237C43F040032374002001E000E07B
:1025D000072005B0BDE8F08F30B583B0044601A9EF
:1025E000FEF7E2FE00283CD1227C12F0400F39D0E9
:1025F00012F0800F0CD00123E26904F12801019848
:102600004078FEF703FE70BB237C03F07F03237446
:10261000216A0198FEF714FF38BB656AEB7A43F034
:102620002003EB72A26829462068FEF781FEE1686C
:1026300005F11C00FEF732FE0D4905F11600FEF70C
:102640002DFE002105F11200FEF724FE0122019B60
:10265000DA700198FFF7F0FC237C23F04003237429
:1026600003E002E001E00120FFE703B030BD00BF5E
:102670000000215010B582B00446FFF7ADFF0346BD
:1026800038B901A92046FEF78FFE034608B900229B
:102690002260184602B010BD2DE9F04F8FB00EAC8D
:1026A00044F8140D894616461D462046FEF752FE94
:1026B0000028C0F2EA82AD4B53F820300BB1002263
:1026C0001A70C4B2B9F1000F01D1DFF8B092204600
:1026D000FEF77EFD10F0010F40F0D98210F0040FDC
:1026E00040F0D782D9F804300D933BB90DAA0321ED
:1026F0002046FEF7A1FD08B101230D930D9A531E4C
:10270000B3F5004F01D21A4201D001230D9399F87D
:10271000008099F801707B1EDBB2012B00D90127E4
:10272000D9F808A00AF1FF33B3F5004F05D21AF02B
:102730000F0F04D04FF4007A01E04FF4007AD9F87B
:102740000C30B3F1807F04D85A1E134202D000230C
:1027500000E000234FEA53296D0A00F09C82002E0E
:1027600000F09B820EAA002342F8083D012120467A
:10277000FEF762FD002840F0928208F0080303F0A3
:10278000FF0202923BB90C9B3F2B07D93F3B0C93B6
:102790003F23009304E00023009301E00023009313
:1027A0000C9A7F2A40F27D82B9F1800F01D94FF057
:1027B000800908F0020303F0FF0013B118F0010FC5
:1027C00006D018F0010F00F06E824FF0020B01E00E
:1027D0004FF0030B02F1A04303F504130593079494
:1027E000089594464A4603E01A4601E04FF0030B71
:1027F000BBF1030F24D17AB94FEA5C4E00234FF0AE
:10280000010802E001334FEA4808594931F8131032
:1028100019B18E45F6D200E09046BCFBF8F3991C46
:10282000890001F2FF114D0AA3F57F43F63B5149A0
:102830008B4200F23A82002301934FF0200E29E0F0
:102840007AB94FEA1C3E00214FF0010802E0013145
:102850004FEA4808484B33F811301BB19E45F6D279
:1028600000E09046BCFBF8F340F6F5718B4202D9CC
:1028700002335B0006E003EB430301335B080333E1
:102880004FF0010B03F2FF135D0ACAF31613019315
:102890004FF0010E009B03EB0E0407FB0541019B6B
:1028A00019440D9B01EB030909F1FF395B4209EA69
:1028B00003035B1ABBF1030F02D19E441C440DE0DD
:1028C000B3FBF7F907FB1939B9F1000F03D0013B4E
:1028D0000EF1010E0134B3FBF7F31D4401EB0813B5
:1028E00000995B1A9C45C0F0E281CEEB0C0307FB1C
:1028F000153301995B1AB3FBF8F3BBF1030F0CD14D
:102900004FF6F5718B4208D8002A40F0D2815FEA79
:1029100058027FF46DAF0E20DBE1BBF1020F2FD127
:102920004FF6F5718B4212D922B94FEA4803402B7A
:102930007FF65AAF00287FF459AF002A40F0BB81E0
:102940004FEA4802802A7FF653AF0E20C1E140F6DD
:10295000F5718B4214D8002A40F0AF814FEA48024B
:10296000802A7FF645AF0E20B3E100BFA40100200E
:10297000FC810008FFFFFE0FEC8100085C8200086C
:102980000394CDF818E00495079C089D1A46079318
:10299000BBF1010F04D140F6F5739A4200F28F812A
:1029A0004FF400794A460021304604F05BFCCA4BE4
:1029B00003CB306071601A889B783281B3724946CC
:1029C00006F10B00FEF766FC86F80D80BDF81810C6
:1029D00006F10E00FEF75EFC377406F11100BBF144
:1029E000030F02D01FFA8AF100E00021FEF752FC2B
:1029F0000C99B1F5803F05D289B206F11300FEF7BC
:102A000049FC03E006F12000FEF748FCF82373754B
:102A10003F2106F11800FEF73DFCFF2106F11A00E8
:102A2000FEF738FC009906F11C00FEF737FCBBF1FD
:102A3000030F35D1059906F14300FEF72FFC0499E9
:102A400006F12400FEF72AFC022106F12C00FEF715
:102A500025FC012106F13000FEF71CFC062106F1E1
:102A60003200FEF717FC802386F84030292386F8D1
:102A7000423006F1470CDFF870E2BEE80F00C6F8FE
:102A80004700CCF80410CCF80820CCF80C30BEF885
:102A900000209EF80230ACF810208CF8123026E0AE
:102AA000059906F12700FEF7F9FBBDF8101006F1B5
:102AB0001600FEF7EFFB802386F82430292386F8E2
:102AC000263006F12B0CDFF824E2BEE80F00C6F832
:102AD0002B00CCF80410CCF80820CCF80C30BEF851
:102AE00000209EF80230ACF810208CF8123006F569
:102AF000FF794AF655214846FEF7CCFB0123009AA0
:102B000031462046FEF782FB002840F0DA80BBF118
:102B1000030F33D10123009A063231462046FEF7D7
:102B200075FB4FF400720021304604F09BFB6B49AB
:102B30003046FEF7B3FB6A4906F5F270FEF7AEFBCE
:102B4000079B591E06F5F470FEF7A8FB022106F557
:102B5000F670FEF7A3FB4AF655214846FEF79AFBAE
:102B60000123009A073231462046FEF74FFB01232E
:102B7000009A1A4431462046FEF748FB6A020021BB
:102B8000304604F06FFB4FF00009CDF8008039E0CB
:102B9000BBF1030F10D16FF007013046FEF77EFB4B
:102BA0004FF0FF31301DFEF779FB6FF0704106F1F9
:102BB0000800FEF773FB09E0BBF1010F01D14949A1
:102BC00001E06FF007013046FEF768FBDDF810808A
:102BD000C246A84528BFAA465346039A3146204616
:102BE000FEF714FB00286ED14FF40072002130462E
:102BF00004F038FB039B53440393B8EB0A08E7D176
:102C000009F10109B945C3D3DDF80080BBF1030F19
:102C100002D1DDF80C9003E0DDF80C90DDF80480C3
:102C20004746A84528BF2F463B464A4631462046E0
:102C3000FEF7ECFA002848D1B944B8EB0708EFD109
:102C4000BBF1030F08D00C9BB3F5803F06D2BBF15C
:102C5000020F05D1042204E00C2202E0062200E06B
:102C60000122029B4BB90C9B0A9300230B93334622
:102C70000AA92046FFF726FA48BB00221146204643
:102C8000FEF7DAFA20B3012023E00B2021E0032035
:102C90001FE00A201DE011201BE0112019E0012097
:102CA00017E00E2015E0132013E00E2011E00E2097
:102CB0000FE00E200DE00E200BE00E2009E00E20AC
:102CC00007E0012005E0012003E0012001E000E031
:102CD00000200FB0BDE8F08F2882000852526141F9
:102CE00072724161F8FFFF003482000848820008D8
:102CF00010B5012219491A48FFF778FA0D2822D198
:102D0000184804F029FB4FF40073174A00211748B4
:102D1000FFF7C2FC014690B9154804F01DFB0F4CAB
:102D2000012221460020FFF761FA012221460C48CA
:102D3000FFF75CFA80B10E4804F00EFB10BD0D48A1
:102D400004F098FAFEE7014618B10B4804F092FA35
:102D500010BD074804F000FB10BD00BF6C820008E6
:102D6000246C00207082000854700020E08100086C
:102D70008882000894820008A482000800B5ADF59E
:102D80000D7D3222084902A8FFF758FA40B901AB7D
:102D90001022064902A8FFF749FB02A8FFF76AFCC8
:102DA0000DF50D7D5DF804FBB882000818000020C9
:102DB00070B582B001210846FDF7DCFD01218020BD
:102DC000FDF7E6FD4FF4C053009302238DF8043065
:102DD00000258DF8065003238DF805308DF8075037
:102DE0000F4C69462046FDF709FD4FF40043009360
:102DF00001268DF804608DF8075069462046FDF7DE
:102E0000FDFC084B1E600A220B212046FDF73EFD0B
:102E10000A220C212046FDF739FD02B070BD00BF2B
:102E200000000240BC02404200B583B043238DF84D
:102E3000043000238DF8053003238DF8063001237C
:102E40008DF8073001A8FDF791FC03B05DF804FB95
:102E500008B5FDF7F5FE08BD08B5FDF70FFF08BD85
:102E600012230B80004870474800002004230B8089
:102E7000004870474400002008B50A4620B90549BB
:102E8000054800F0DFFF03E00249044800F0DAFFE4
:102E9000004808BD54720020D8820008F082000863
:102EA00010B5044C0A462146034800F0CBFF2046EB
:102EB00010BD00BF547200200C83000808B50A46FC
:102EC00020B90549054800F0BDFF03E00249044868
:102ED00000F0B8FF004808BD5472002018830008B5
:102EE0002883000808B50A4620B90549054800F0BE
:102EF000A9FF03E00249034800F0A4FF004808BD11
:102F0000547200203883000808B50A4620B90549E4
:102F1000054800F097FF03E00249034800F092FFE4
:102F2000004808BD54720020448300084FF4007329
:102F300013604FF4C0430B6000207047034A1378BE
:102F400043F0100313700020704700BFA801002059
:102F5000002070470020704708B5FEF71BF80020DE
:102F600008BD00BF10B50846064C217841F00201AB
:102F700021705B02510203F47E42FEF73BF8002011
:102F800010BD00BFA801002010B50846064C2178EE
:102F900041F0010121705B02510203F47E42FEF711
:102FA000C3F8002010BD00BFA8010020704700BF7B
:102FB00008B510B1012804D007E0064804F0CCF9A8
:102FC00008BD054804F0C8F908BD044804F0C4F978
:102FD00008BD00BF788300089C830008C0830008F8
:102FE00008B5024804F0B8F908BD00BFE483000842
:102FF00008B5024804F0B0F908BD00BFFC83000822
:1030000008B5024804F0A8F908BD00BF18840008FC
:1030100008B50122024B1A70024804F09DF908BD60
:10302000A90100202884000808B50022024B1A706C
:10303000024804F091F908BDA9010020408400086D
:1030400008B5024800F07AFA08BD00BF2C530020F2
:1030500010B50446837A43B1D0F80C316FF34103C5
:103060006FF30003D0F80C2113602269536823F03A
:1030700001035360054B1B689B69204698474FF03E
:103080000043E2685361012010BD00BF9C00002096
:1030900030B583B0054600248DF8074090F8123112
:1030A0008DF80730154B1B685B6998472B699A6848
:1030B0004FF40064EB685C61AB7AE3B112F0010F8E
:1030C00019D095F81531012B15D19DF80730DBB2D9
:1030D000032B10D1D5F80C21136843F001031360C2
:1030E000D5F80C21136843F003031360044A1369F5
:1030F00043F006031361012003B030BD9C000020A3
:1031000000ED00E010B50446044B1B68DB689847EF
:103110000823E2685361012010BD00BF9C0000201D
:1031200010B50446044B1B68DB6998474FF48013C5
:10313000E2685361012010BD9C00002010B50446D8
:10314000044B1B681B6A98474FF40013E2685361F5
:10315000012010BD9C00002010B402691469536B5B
:10316000CB40DB01DBB22343043100EB81008268FA
:10317000906818405DF8044B704700BF2DE9F0419E
:10318000074601F0A9FA0446002553E014F0010FA8
:103190004ED05FFA85F84146384601F0A3FA06465C
:1031A00010F0010F2BD0012605F1140307EB830368
:1031B0005B689E60FB78B34210D105F1140307EB06
:1031C00083035B681969AA002A44D3003B44D3F8FF
:1031D0007C23C1F31201521AC3F88C23184B1B68CD
:1031E0001B68414638469847FB78012B07D135B913
:1031F00097F81131052B02D1384601F083FA16F009
:10320000020F06D0022605F1140307EB83035B6867
:103210009E6016F0080F0BD0094B1B689B68384660
:103220009847082605F1140307EB83035B689E604B
:1032300001356408002CA9D10120BDE8F08100BF50
:103240009C0000202DE9F04107460D468A000A4403
:10325000D3000344D3F83021D3F83411521AD3F8F1
:1032600024319A4200D8134603F103084FEA980824
:103270002B1D07EB83039B689B6927E05B1A05EB1B
:103280008501CA003A44D2F82461B34200D81E46F0
:1032900006F103084FEA9808AB002B44DC003C44DD
:1032A000B3B2EAB2D4F82811384600F023FED4F8BD
:1032B00028313344C4F82831D4F834311E44C4F8DA
:1032C00034612B1D07EB83039B689B699BB2984578
:1032D0000BD2AB002B44DA003A44D2F83411D2F8C6
:1032E0003031994201D2002BC8D10120BDE8F081D4
:1032F0002DE9F041074601F0FFF9044600265EE0A3
:1033000014F0010F59D05FFA86F841463846FFF7AE
:1033100023FF054610F0010F1ED0012303FA06F02B
:1033200039694A6B22EA00024A631D46321D07EBE7
:10333000820292689360244B1B685B684146384662
:103340009847FB78AB4207D136B997F81131042B77
:1033500002D1384601F0D6F915F0080F05D008253E
:10336000331D07EB83039B689D6015F0100F05D09C
:103370001025331D07EB83039B689D6015F0400FFC
:1033800005D04025331D07EB83039B689D6015F036
:10339000020F05D00225331D07EB83039B689D6058
:1033A00015F0800F09D031463846FFF74BFF8025D6
:1033B000331D07EB83039B689D6001366408002C76
:1033C0009ED10120BDE8F0819C0000202DE9F04154
:1033D0000546C268936923F010039361C3681C6AB1
:1033E00004F00F06C4F34343022B02D0062B1CD07B
:1033F0002BE047F6F073234227D0C4F30A144FEAB8
:10340000860808EB0603DF0007442246D7F880133E
:1034100000F086FDD7F880332344C7F88033D7F80F
:103420008C331C44C7F88C430FE0082200F2CC51C7
:1034300000F076FDC4F30A14B2009119CB002B44BE
:10344000D3F88C231444C3F88C43EA68936943F09F
:10345000100393610120BDE8F08100BF2DE9F8431E
:1034600004460025A8462F462E460269536823F0DD
:1034700001035360294600F027FE2B460CE01A1D7D
:1034800004EB82029268FF21916003F1140204EBC5
:10349000820252689160013362789342EFD32369CC
:1034A0004FF0FF329A614FF0010969F30F0569F39C
:1034B0001F452369DD6148F00B082369C3F81480B8
:1034C00047F00B0723691F61226913686FF30A1322
:1034D0001360204601F016F946F48056E3685E61F9
:1034E000034B1B681B69204698474846BDE8F88394
:1034F0009C00002038B5044600F018FFE368DD6842
:10350000204600F003FF032808D10023A3704FF4E6
:103510000073A380092363F38D2506E00123A370C4
:103520004023A380052363F38D25E368DD604FF41A
:103530000053E2685361012038BD00BF2DE9F0411E
:10354000054600F021FE00285AD0284600F024FE4F
:103550000646002858D0C0F3074717F0080F04D0DC
:103560002846FFF70BFE044600E0002417F0040F86
:1035700003D02846FFF7BCFE04435FFA86F818F034
:10358000020F02D00223EA685361002E03DA2846B4
:10359000FFF75EFD0443C6F3072616F0080F03D0BD
:1035A0002846FFF775FD044318F0080F03D028469E
:1035B000FFF7A8FD044318F0100F03D02846FFF7CB
:1035C00005FF044316F0100F03D02846FFF746FF0F
:1035D000044316F0200F03D02846FFF78BFF044367
:1035E00017F0100F03D02846FFF79AFD044317F099
:1035F000200F08D02846FFF7A1FD2043BDE8F08149
:103600000020BDE8F0812046BDE8F08138B50446D1
:1036100000F098FC012384F81231002284F8142170
:1036200015E091001144CB002344012183F81D11C2
:1036300083F81C21A3F82221002183F81F114020C8
:10364000C3F82401C3F82811C3F83011013260789F
:103650008242E6D3002214E091001144CB002344BF
:10366000002183F8751383F87423A3F87A2383F871
:1036700077134025C3F87C53C3F88013C3F888132D
:1036800001328242E8D3204600F016FD204600F0C9
:10369000C3FC0021204600F05BFD204600F0A4FDA5
:1036A000204600F001FD38BD70B54DB2002D09DA9D
:1036B00001F07F0606EB8606F40004F58C740444E2
:1036C000043408E001F07F0606EB8606F40004F5FA
:1036D0005C740444043401F07F012170ED0F6570C7
:1036E000A260E37005B1E180022B01D100232371B8
:1036F000214600F031FE002070BD00BF10B54AB277
:10370000002A09DA01F07F0404EB8404E30003F5E6
:103710008C730344043308E001F07F0404EB840459
:10372000E30003F55C730344043301F07F01197077
:10373000D20F5A70194600F041FE002010BD00BFA4
:1037400070B501F07F04A6003519E9000D4601F5BA
:103750005C71014404310544C5F88023C5F8883301
:103760000023C5F88C3385F8753385F87443C37826
:10377000012B05D104EB8405EB000344C3F884233B
:1037800004EB8404E300034493F8743313B900F0AA
:10379000D7FE01E000F036FE002070BD70B501F0EC
:1037A0007F05AE007119CC0004F58C740444211D12
:1037B0002E44F4000444012684F81D6184F81C5151
:1037C000C4F82821C4F82C210022C4F83421C4F8FC
:1037D000303115B900F0B4FE01E000F013FE002016
:1037E00070BD00BF10B54AB2002A09DA01F07F04AB
:1037F00004EB8404E30003F58C730344043306E014
:1038000001EB8104E30003F55C73034404330124FA
:103810009C7001F07F011970D20F5A70194600F0A8
:1038200023FF002010BD00BF10B54AB2002A09DAFC
:1038300001F07F0404EB8404E30003F58C7303447C
:10384000043306E001EB8104E30003F55C730344F9
:10385000043300249C7001F07F011970D20F5A705C
:10386000194600F01DFF204610BD00BF08B511F03D
:10387000800F04D001F07F0100F026FC01E000F091
:1038800047FC002008BD00BF002361F30A13026952
:1038900011680B431360704710B504461346C4F813
:1038A0003C21C4F83821022280F811210A46002167
:1038B000FFF774FF002010BD08B513460A4600212B
:1038C000FFF76CFF002008BD08B513460A4600212B
:1038D000FFF736FF002008BD10B50446042380F82A
:1038E000113100231A461946FFF758FF204600F011
:1038F00009FF002010BD00BF10B50446052380F865
:10390000113100231A461946FFF71AFF204600F02E
:10391000F9FE002010BD00BF01EB8101CB0018446F
:10392000B0F88C03704700BF0346002002E001306E
:10393000C0B201331A78002AF9D1704710B5044695
:103940004B88012B09D1C0F81831D0F8E4359B68B9
:1039500098472046FFF7C0FF10BD022B29D18B8866
:1039600013F0FF0F25D1026952681B0A013B042B9B
:1039700017D8DFE803F003070B0F1300012363F3ED
:1039800006120EE0022363F306120AE0032363F338
:10399000061206E0042363F3061202E0052363F334
:1039A0000612044B1A60012384F816312046FFF7F3
:1039B00093FF10BD9472002090F8CC350B7090F8F6
:1039C000CD354B7090F8CE3590F8CF2503EB022320
:1039D0004B8090F8D03590F8D12503EB02238B80F3
:1039E00090F8D23590F8D32503EB02239BB2CB801D
:1039F000C0F84031012380F81131704710B50446FA
:103A00008021FFF7EFFE00212046FFF7EBFE204666
:103A100000F078FE10BD00BF30B583B005460C46FF
:103A20004A88130A013B062B67D8DFE803F0041627
:103A30002266665E6200D0F8EC351B680DF1060167
:103A400080789847E388402B03D095F81231012BFA
:103A500057D10823ADF8063053E0D0F8E4359B6A1F
:103A60000DF106018078984702234370C5F8F005F0
:103A700047E0D2B2052A34D8DFE802F0030B131B6B
:103A8000232BD0F8EC355B680DF106018078984760
:103A900037E0D0F8EC359B680DF106018078984747
:103AA0002FE0D0F8EC35DB680DF1060180789847FF
:103AB00027E0D0F8EC351B690DF1060180789847B6
:103AC0001FE0D0F8EC355B690DF10601807898476E
:103AD00017E0D0F8EC359B690DF106018078984726
:103AE0000FE02146FFF78AFF19E02146FFF786FF26
:103AF00015E02146FFF782FF11E02146FFF77EFF28
:103B00000DE0BDF8063053B1E28842B19A4228BFB9
:103B10001A46ADF8062001462846FFF7BDFE03B061
:103B200030BD00BF38B504468B88E3B9CB88D3B924
:103B30008D7805F07F0590F81231032B02D1FFF745
:103B40005DFF38BD80F814512946FFF79DFE2046E1
:103B5000FFF7C2FE1DB1022384F8123138BD0123E4
:103B600084F8123138BD2046FFF748FF38BD00BF4A
:103B700010B504468B78214A1370012B02D9FFF748
:103B80003DFF10BD90F81221022A02D0032A10D066
:103B900030E05BB180F81031032280F81221194621
:103BA00000F0FCFE2046FFF797FE10BDFFF794FEE5
:103BB00010BD5BB9022280F8122180F8103119463D
:103BC00000F0F8FE2046FFF787FE10BD90F81011B8
:103BD0008B420CD000F0EEFE084B197884F81011DF
:103BE000204600F0DBFE2046FFF776FE10BDFFF713
:103BF00073FE10BDFFF702FF10BD00BFB40100202F
:103C000008B5CB88012B02D0FFF7F8FE08BD90F86D
:103C10001231022B02D0032B05D00AE00122064903
:103C2000FFF73AFE08BD012200F58871FFF734FE68
:103C300008BDFFF7E3FE08BDB801002008B590F805
:103C40001231023B012B0DD80122084B1A60D0F82B
:103C5000183113B10322054B1A6002220349FFF702
:103C60001BFE08BDFFF7CAFE08BD00BFAC01002067
:103C700010B5044690F81231023B012B0DD84B8849
:103C8000012B0CD10023C0F81831D0F8E4359B6823
:103C900098472046FFF720FE10BDFFF7AFFE10BD8E
:103CA00008B54B78092B1BD8DFE803F011171A145D
:103CB0001A08051A0E0BFFF7AFFE13E0FFF732FFED
:103CC00010E0FFF755FF0DE0FFF79AFF0AE0FFF75E
:103CD000B5FF07E0FFF732FE04E0FFF7C9FF01E0A0
:103CE000FFF78CFE002008BD38B504460D4690F85D
:103CF0001231032B0FD10B79012B09D8D0F8E43501
:103D00009B689847EB8843B92046FFF7E5FD04E040
:103D1000FFF774FE01E0FFF771FE002038BD00BF21
:103D200038B505460C468A88D1B26378012B27D076
:103D3000002B49D0032B40F0818090F81231022BE8
:103D400002D0032B07D017E0002977D0802975D047
:103D5000FFF748FD72E0638823B919B1802901D0CB
:103D6000FFF740FDD5F8E4359B6821462846984783
:103D70002846FFF7B1FD61E02146FFF73FFE5DE019
:103D800090F81231022B02D0032B07D018E0002943
:103D900054D0802952D0FFF725FD4FE06388002BD7
:103DA0004CD149B1802907D0FFF73EFDD5F8E43565
:103DB0009B682146284698472846FFF78DFD3DE041
:103DC0002146FFF71BFE39E090F81231022B02D09A
:103DD000032B06D02FE089B380292FD0FFF702FDF7
:103DE0002CE052B2002A10DA01F07F0101EB8101D0
:103DF000CB00034493F81E311BB10122104B1A6013
:103E000013E000220E4B1A600FE0002A0DDB01EBDD
:103E10008101CB00034493F876331BB10122084B98
:103E20001A6002E00022064B1A600222044928466A
:103E3000FFF732FD02E02146FFF7E0FD002038BD2C
:103E4000B0010020D0B170B50D4616460446FFF70C
:103E50006BFD0130400080B23080287003236B700E
:103E6000022307E05A1CD2B20134E9540233DBB218
:103E70000021A95421780029F4D170BD704700BFFA
:103E8000C3684FF0FF325A60C3686FF080425A61D6
:103E9000014BC268936170470008008030B583B061
:103EA0000546002401940320FEF7D2FFEB681A694F
:103EB000019201340E4A944217D8019A002AF2DA8C
:103EC000019A42F001020192019A1A610023EA6804
:103ED000126901920133064A934203D8019A12F003
:103EE000010FF4D10320FEF7B3FF002003B030BD73
:103EF000400D030010B4C4786CB903339B10323208
:103F000000EB82008468002203E051F8040B20607B
:103F100001329A42F9D300205DF8044B704700BF8C
:103F200010B403329210D0F8D040002303E0206890
:103F300041F8040B01339342F9D308465DF8044B72
:103F4000704700BF30B40023C37001238370402347
:103F5000838001290DD10123C37208230370042338
:103F600043704FF4A073C380022303724FF0A04448
:103F70000CE051B90023C3720C2303700623437075
:103F80004FF4A063C380234C00E00024C46004F518
:103F90000063036100230FE004EB431202F5106598
:103FA000191D00EB81018D6002F5306203F11401EF
:103FB00000EB81014A60013342789342ECD304F56F
:103FC0008063436104F58863C0F8CC30002309E0C6
:103FD00004EB431101F5A06103F1220200EB820220
:103FE000916001330578AB42F2D3002309E004EB82
:103FF000033101F5805103F1320200EB820291603E
:104000000133AB42F3D304F56064C0F80C410020E7
:1040100030BC70470000044038B50446037A012BD9
:1040200022D10025C268936B6FF31043417A09B126
:1040300043F480139363E268D3686FF386136FF3DE
:1040400096536FF351436FF3D343D3602046FFF78A
:1040500025FFE378012B19D1052363F3440545F0CF
:104060002005E3689D6011E0C268D16841F040031B
:10407000D360FFF713FF4FF43413627A0AB14FF4A1
:104080007413E26893631420FEF7E6FEE378012BD5
:1040900007D1E3689D68052262F3440545F02005D9
:1040A0009D60002038BD00BFC268936843F00103E3
:1040B00093600020704700BFC268936823F001033B
:1040C00093600020704700BF00B583B000230193C8
:1040D000019A42F020020192019A61F38A12019240
:1040E000C26801991161C268126901920133074ADD
:1040F000934203D8019A12F0200FF4D10320FEF767
:10410000A7FE002003B05DF804FB00BF400D0300D4
:1041100000B583B000230193019A42F0100201928E
:10412000C26801991161C268126901920133074A9C
:10413000934203D8019A12F0100FF4D10320FEF736
:1041400087FE002003B05DF804FB00BF400D0300B4
:1041500008B5C268D3686FF35D736FF39E7301296E
:1041600002D143F0005302E009B943F08043D36029
:104170003220FEF771FE002008BD00BFC3685869F9
:1041800000F00100704700BF08B5FFF7F7FF10F11E
:10419000FF3018BF012008BDC36858699B691840EB
:1041A000704700BF0269136861F301031360704731
:1041B00038B505460024C3689C61C3686FF080422F
:1041C0005A61FFF75DFEEB7803B9102444F47014D4
:1041D00044F4605444F00804EA68936923EA040351
:1041E0001C439461002038BD70B504460025D0F80A
:1041F0000C311D600269136865F3CC231360C37A28
:10420000012B20D12E460321FFF7CCFFE26880234B
:104210005362C0F2400563F30F05E2689562C02265
:1042200062F30F0663F31F46E368C3F804614FF4BB
:10423000A07363F30F066FF31F46E368C3F80861CA
:10424000E368C3F80C6110212046FFF73DFF2046CC
:10425000FFF75EFF236900221A6123695A6123690F
:104260004FF0FF3199612369DA6116E0131D04EB09
:1042700083039B681B68002B02DA4FF0904100E03B
:104280000021131D04EB83039868016099680020E6
:1042900008619B68FF219960013263789A42E5D3F7
:1042A000002218E002F1140304EB83035B681B682F
:1042B000002B02DA4FF0904100E0002102F11403DC
:1042C00004EB8303586801605968002008615B684B
:1042D000FF219960013263789A42E3D3226913691E
:1042E00043F480731361E378012B09D10323402247
:1042F00062F38A0343F4803362F359432269136300
:104300002046FFF755FF002070BD00BF03699B6882
:10431000C3F34103022B04D005D8012B03D00320A3
:104320007047012070470220704700BF03699B68F7
:1043300082691168C3F34103022B02D06FF30A01B3
:1043400002E0032363F30A0111600269536843F436
:10435000807353600020704730B400224B78012BEB
:1043600008D10D782C1D00EB8404A468AB4063F3E6
:104370000F0209E00D7805F1140400EB8404646871
:104380000123AB4063F31F42236813F4004F0DD1A8
:104390008D6865F30A03CD7865F39343C98861F3AB
:1043A000995343F0805343F4004323600369D96970
:1043B0000A43DA61002030BC704700BF70B40022AD
:1043C00015464B78012B08D10E78311D00EB810189
:1043D0008C68B34063F30F0509E00B7803F1140414
:1043E00000EB840464680121994061F31F456FF379
:1043F000CF3222600269D36923EA0503D36100202A
:1044000070BC704738B54B78012B58D10B7804330A
:1044100000EB83039B681A681C694B692BB96FF327
:104420001204012363F3DC440DE063F312048D688E
:104430002B44013BB3FBF5F363F3DC44CB78012B56
:1044400001D163F35E740B78043300EB83039B6844
:104450001C61C378012B07D10B78043300EB830375
:104460009B680C695C610CE0CB78012B09D04B692F
:104470003BB10C78012303FA04F405696B6B234309
:104480006B63CB78012B09D103699B6813F4807FA0
:1044900002D142F0005201E042F0805242F0044268
:1044A0000B78043300EB83039B681A60CB78012BF5
:1044B00044D18B8A0A78C968FFF71CFD3EE00B786F
:1044C000143300EB83035B681A681C694B6933B9CA
:1044D0008B6863F31204012363F3DC440CE08D6802
:1044E0002B44013BB3FBF5F3C3F3090363F3DC4453
:1044F00005FB03F363F312040B78143300EB83031F
:104500005B681C61C378012B06D10B78143300EB78
:1045100083035B680C695C61CB78012B06D14B7916
:1045200013B142F0005201E042F0805242F00442E6
:104530000B78143300EB830043681A60002038BD09
:1045400030B482B04B78012B49D183691A681C6959
:1045500000944C696CB99DF800406FF306048DF827
:1045600000409DF80240012565F3C4048DF8024027
:1045700017E08D68AC4207D94D619DF8004065F3A6
:1045800006048DF8004005E09DF8005064F3060530
:104590008DF800509DF80240012565F3C4048DF8A4
:1045A0000240009C1C61C478012C06D10C780434B4
:1045B00000EB8404A4680D69656142F004421A604E
:1045C000C378002B4CD14B69002B49D00A780123CA
:1045D00003FA02F201694B6B13434B6340E00B7823
:1045E000143300EB83035B681A681B6900934B6903
:1045F00073B98C689DF8003064F306038DF80030C1
:104600009DF80230012464F3C4038DF802300EE0FB
:104610008C684C619DF8003064F306038DF800301F
:104620009DF80230012464F3C4038DF802300B7846
:10463000143300EB83035B68009C1C61C378012B7F
:1046400006D10B78143300EB83035B680C695C6163
:1046500042F004420B78143300EB830043681A6085
:10466000002002B030BC70474B78012B0DD10B7885
:10467000043300EB830082681368002B01DA43F0F7
:10468000804343F40013136008E00B78143300EB0D
:1046900083004268116841F40013136000207047E2
:1046A0004B78012B05D10B78043300EB8300806835
:1046B00004E00B78143300EB8300406802686FF36A
:1046C0005552CB78023BDBB2012B01D842F080522D
:1046D00002600020704700BF03699869DB691840D9
:1046E000000C7047143100EB81014B689A68036934
:1046F00058691040704700BF03699869DB6918402A
:1047000080B2704782B000230093C0238DF803303D
:104710004FF00003012262F3C4038DF80230182326
:104720008DF80030436D009A1A61C378012B08D1CF
:10473000436D00F2CC525A61436D1A684FF08022EB
:104740001A6002B0704700BF0369024A12685A60DB
:10475000002070479472002010B50446D0F8E83568
:104760001B699847032384F81231002010BD00BF55
:1047700008B590F8123180F81331042380F8123113
:10478000D0F8E835DB689847002008BD08B5D0F8B8
:10479000E435DB6903B19847002008BD08B5D0F8BF
:1047A000E4351B6A9847002008BD00BF08B5D0F863
:1047B000E4355B6A9847002008BD00BF10B5044689
:1047C000002340221946FEF76FFF0023402280217C
:1047D0002046FEF769FF012384F81231D4F8E8354A
:1047E0005B68A0789847002010BD00BF10B582B06C
:1047F00004466946FFF7E0F89DF8001001F01F033A
:10480000012B08D013B1022B0AD00EE069462046D6
:10481000FFF746FA0EE069462046FFF765FA09E021
:1048200069462046FFF77CFA04E001F0800120464B
:10483000FEF7D8FF002002B010BD00BF10B504463F
:10484000002947D190F81131022B38D1D0F8382106
:10485000D0F824319A4211D9D21AC0F83821C1783F
:10486000012904D1D0F828110B44C0F8283192B2A4
:10487000D4F828112046FFF71FF820E0D0F83C11AB
:10488000B1FBF3F203FB121262B98B420AD8D0F8E3
:104890004031994206D21146FFF70EF80023C4F8C2
:1048A00040310CE0D4F8E435DB682BB194F81221E8
:1048B000032A01D1204698472046FFF71DF894F8B7
:1048C0001631012B11D12046FFF73EFF002384F85B
:1048D00016310AE00A46D0F8E4355B692BB190F84E
:1048E0001211032901D111469847002010BD00BFC5
:1048F00010B5044659BB90F81131032B32D1D0F8D2
:104900009033D0F87C23934214D99B1AC0F890338B
:10491000C178012904D1D0F880131144C0F8801364
:104920009A4228BF1A4692B2D4F880132046FEF766
:10493000CBFF17E0D0F8E4351B6923B190F81221C2
:10494000032A00D198472046FEF7C6FF0AE00A4630
:10495000D0F8E4359B692BB190F81211032901D1ED
:1049600011469847002010BDF8B504460D4616467E
:104970001F46FEF71DFAC4F8E475069BC4F8E83537
:10498000C4F8EC6529462046FEF740FED4F8E83529
:104990001B6898472046FEF747FAF8BD10B5044655
:1049A000D0F8E4351B689847D4F8E8359B689847F9
:1049B000002010BD08B5D0F8E4355B6898470020AA
:1049C00008BD00BF10B504460D4B1B7B43B90C4B13
:1049D0009B682BB10B4B1B7813B90121FEF702FF2B
:1049E00081212046FEF7FEFE064B1B78022B05D1E7
:1049F0001F23034A01212046FEF7A2FE10BD00BF7F
:104A00009CA2002098A2002010B50A4B9B689A42F5
:104A100028BF1A4693B2084A9468E41A94600024A6
:104A200014730424054A14700A468121FEF7B6FE69
:104A300010BD00BF9CA20020BCA20020CCA2002080
:104A400010B5044600200B4B18700B4B18700B4B25
:104A50001B681B68984701212046FEF707FF81214C
:104A60002046FEF703FF1F23054A01212046FEF7DB
:104A700067FE10BDCCA2002098A200205C000020A0
:104A80009CA2002008B50022044B1A700121044B9F
:104A900019701F23034AFEF753FE08BDCCA2002065
:104AA00098A200209CA200200022014B1A7070479F
:104AB000CCA2002010B50446084A094B13601173BC
:104AC0000021084B19700D238121FEF767FE1F237B
:104AD000054A01212046FEF733FE10BDBCA200208E
:104AE00055534253CCA200209CA2002010B504468E
:104AF0000C4B1B78022B03D012D3042B0DD910BD05
:104B0000094B1A4613F8021C00F08CFC002807DA47
:104B100001212046FFF7CEFF10BD0021FFF7CAFF9D
:104B200010BD00BFCCA20020ABA2002010B50446EF
:104B3000214A5168214B596092689A600121FEF721
:104B4000EBFE1F280CD11C4B1A681D4B9A4207D153
:104B5000194B597B012903D89B7B0BB1102B0CD926
:104B600020220521144B587B00F0B4F90222154B8A
:104B70001A702046FFF726FF10BD134A204600F0AA
:104B800051FC002803DA2046FFF71CFF10BD0F4B35
:104B90001B78013BDBB2022B0CD90D4B1A8822B1DA
:104BA0000C492046FFF730FF10BD1AB900212046FE
:104BB000FFF780FF10BD00BF9CA20020BCA2002018
:104BC0005553424398A20020ABA20020CCA2002063
:104BD000CEA200209872002010B504460A4B1B7824
:104BE00013B1012B03D010BDFFF7A0FF10BD074B81
:104BF0001A4613F8021C00F015FC002803DA012104
:104C00002046FFF757FF10BDCCA20020ABA200202A
:104C100008B50A4B1B78022B06D18121FEF7E2FD75
:104C20000022064B1A7008BD11F0800F04D0012B32
:104C300002D00121FFF73EFF08BD00BF98A200206F
:104C400020230B8000487047CC00002010B504469C
:104C50008121FEF753FD01212046FEF74FFD20463E
:104C6000FFF722FF002010BD10B50446FFF7EEFF4E
:104C70000223402281212046FEF716FD0223402216
:104C800001212046FEF710FD2046FFF7D9FE002047
:104C900010BD00BF70B506460C460B7813F06005DA
:104CA0003FD0202D6BD14A78FE2A02D0FF2A23D094
:104CB00033E04A88D2B9CA88012A17D113F0800F8D
:104CC00014D0304B1B689B699847C0B22E4B1870AC
:104CD00030B1012219463046FEF7DEFD00254FE0D7
:104CE00021463046FEF78AFE022549E0214630463D
:104CF000FEF784FE022543E04A8842B9CA8832B9E9
:104D000013F0800F03D1FFF7BDFE002538E02146E8
:104D10003046FEF773FE022532E0FEF76FFE0225F5
:104D20002EE04B780A2B04D00B2B07D0012B27D178
:104D300008E001221549FEF7AFFD21E08A78134B08
:104D40001A701DE00979FEF791FD21793046FEF7D2
:104D5000D5FCA18811F0800F06D002234022C9B2F1
:104D60003046FEF7A1FC05E002234022C9B23046DE
:104D7000FEF79AFC21793046FFF74AFF00E0002554
:104D8000284670BD5C000020BD010020BC01002051
:104D900008B5FFF7ABFE002008BD00BF08B5FFF760
:104DA0001BFF002008BD00BF4B7813F0010F0DD191
:104DB0000D4B1B68DA6900EBC0008300D018027944
:104DC00005320B799A4203D2134601E007230748C4
:104DD000074A138004E0013B9BB2C15C054AD154F1
:104DE000002BF8D1002070475C0000205C84000894
:104DF000CEA20020987200200823064A138005E006
:104E0000013B9BB2044AD15C044AD154002BF7D138
:104E100000207047CEA200206C8400089872002009
:104E20000823064A138005E0013B9BB2044AD15C8B
:104E3000044AD154002BF7D100207047CEA20020A5
:104E40006484000898720020002304E00020194ABE
:104E5000D0540133DBB2112BF8D910B4154B7022AA
:104E60001A700C22DA71144B1B78144A1278934290
:104E700013D0134A12F833400E48847002EBC30279
:104E800054790473127942730133DBB20A4A137006
:104E9000042B02D10022084B1A701222094B1A80EF
:104EA0000B79934201D8074A138000205DF8044B28
:104EB000704700BF98720020D8A200200CA30020E9
:104EC000E0A20020CEA200200020014B18807047F5
:104ED000CEA2002010B4094C2378094800F8331002
:104EE000120200EBC30042600133DBB22370042BDB
:104EF00001D1002222705DF8044B70470CA3002002
:104F0000E0A2002010B5104B9B6843B12022052180
:104F10000D4B587BFFF7DEFF4FF0FF3311E00446E7
:104F20000A4B1B689B689847034638B13A22022116
:104F30002046FFF7CFFF4FF0FF3302E00021044A85
:104F40001180184610BD00BF9CA200205C0000200C
:104F5000CEA2002030B583B00546002304E0002136
:104F60001A4AD15401339BB20B2BF8D9184B1B684A
:104F70005B6801AA694628469847044638B13A2238
:104F800002212846FFF7A6FF4FF0FF341BE00F4B2E
:104F90000822DA7000994A1E100E1871C2F30740F9
:104FA0005871C2F307229A710139D97102221A721B
:104FB000019AC2F307415972C2F307219972DA725A
:104FC0000C22044B1A80204603B030BD987200209A
:104FD0005C000020CEA2002038B50546164B1B68A9
:104FE0005B68164A1649984738B13A22022128468A
:104FF000FFF770FF4FF0FF341CE00446104B1968B8
:105000004A1E100E0F4B1870C2F307405870C2F3BF
:1050100007229A700139D970084A1268110E197165
:10502000C2F307415971C2F307219971DA7108225D
:10503000054B1A80204638BD5C000020D4A2002019
:10504000D0A2002098720020CEA2002008B50A4409
:10505000064B1B689A4206D921220521FFF73AFF29
:105060004FF0FF3008BD002008BD00BFD0A20020D7
:10507000F8B50646214B1C68B4F5405F28BF4FF4D5
:1050800040541F4B1B681F691E4B1D682A46002396
:105090001D49D1E90001FBF703F9B4FBF5F39BB21D
:1050A00002461A493046B847002807DA112204217F
:1050B0003046FFF70FFF4FF0FF30F8BD2346134A8D
:1050C000812113480068FEF769FB0F49D1E90023ED
:1050D000121943F10003C1E90023084A13681B1B9E
:1050E00013600C498A68141B8C6023B903220A4B95
:1050F0001A700020F8BD0020F8BD00BFDCA200201F
:105100005C000020D4A2002000A3002098720020A0
:1051100008A30020BCA20020CCA20020F8B50546C0
:10512000324B1B78002B55D10C46314B93F90C3088
:10513000002B08DB202205212D4B587BFFF7CAFEF0
:105140004FF0FF30F8BD2B4B1B689B68984738B178
:105150003A2202212846FFF7BDFE4FF0FF30F8BD8E
:10516000A178E3781B0443EA0163217943EA012330
:10517000617919430E46CF171F4BC3E90067E279E7
:10518000237A43EA02221D4B1A602846FFF75EFF8E
:10519000002827DB0222154B1A70194B1968164894
:1051A00044680268A2FB012301FB0433C0E9002329
:1051B000124A136803FB01F313600D4A926893428D
:1051C00008D0202205210A4B587BFFF783FE4FF0C1
:1051D000FF30F8BD4FF440520A4B1A802846FFF7C3
:1051E00047FFF8BD4FF0FF30F8BD00BFCCA2002054
:1051F0009CA200205C00002000A30020DCA2002074
:10520000D4A20020CEA20020F8B50646244B1C688C
:10521000B4F5405F28BF4FF44054224B1B685F69D0
:10522000214B1D682A4600232049D1E90001FBF7E4
:1052300037F8B4FBF5F39BB202461D493046B84738
:10524000002807DA032204213046FFF743FE4FF01F
:10525000FF30F8BD1549D1E90023121943F10003CD
:10526000C1E900230E4A13681B1B136011498A68A9
:10527000141B8C6033B900210F4B1868FFF71AFC20
:105280000020F8BDB3F5405F28BF4FF440539BB2F8
:10529000074A012108480068FEF752FA0020F8BDCD
:1052A000DCA200205C000020D4A2002000A300208B
:1052B00098720020BCA2002008A300202DE97043B2
:1052C00006463F4B1B78002B71D10D463D4B93F9A1
:1052D0000C30002B08DA202205213A4B587BFFF7CF
:1052E000F9FD4FF0FF3468E0374B1B689B68984727
:1052F00038B13A2202213046FFF7ECFD4FF0FF347F
:105300005BE0314B1B68DB6830469847044638B198
:10531000272202213046FFF7DDFD4FF0FF344CE03D
:10532000A978EB781B0443EA0163297943EA012356
:105330006979194388464FEAE179244BC3E900892A
:10534000EA792B7A43EA0222214B1A603046FFF7B2
:105350007DFE00282FDB1F4B19681C48456802683A
:10536000A2FB012301FB0533C0E90023184A13689F
:1053700003FB01F31360134A9268934208D0202282
:105380000521104B587BFFF7A5FD4FF0FF3414E0CB
:1053900001210B4A1170B3F5405F28BF4FF4405311
:1053A0009BB20D4A0D480068FEF7CAF905E0FFF709
:1053B0002BFF044601E04FF0FF342046BDE8708328
:1053C000CCA200209CA200205C00002000A30020B2
:1053D000DCA20020D4A200209872002008A30020A4
:1053E00008B54B7813F0020F06D024220521FFF7F1
:1053F00071FD4FF0FF3008BD074B1A88074B196845
:10540000FFF724FE002803DB0020054B188008BDB1
:105410004FF0FF3008BD00BFDCA2002000A3002039
:10542000CEA2002010B50C463C4B186013785A2BC6
:105430006BD8DFE803F02E6A6A336A6A6A6A6A6ABE
:105440006A6A6A6A6A6A6A6A386A6A6A6A6A6A6AEE
:10545000473D6A6A426A6A6A6A516A566A6A5B6A60
:10546000606A6A6A6A656A6A6A6A6A6A6A6A6A6AAB
:105470006A6A6A6A6A6A6A6A6A6A6A6A6A6A6A6A8C
:105480006A6A6A6A6A6A6A6A6A6A6A6A6A6A6A6A7C
:105490004C0011462046FFF735FD10BD1146204651
:1054A000FFF7D2FC10BD11462046FFF77DFC10BD72
:1054B00011462046FFF708FD10BD11462046FFF7B4
:1054C00003FD10BD11462046FFF796FC10BD1146A6
:1054D0002046FFF7A5FC10BD11462046FFF73AFD18
:1054E00010BD11462046FFF777FD10BD114620463E
:1054F000FFF714FE10BD11462046FFF7DFFE10BD7A
:1055000011462046FFF76CFF10BD202205212046E2
:10551000FFF7E0FC4FF0FF3010BD00BF08A30020F4
:1055200000F1080343604FF0FF328260C360036103
:1055300000230360704700BF00230361704700BF72
:1055400043684B609A688A609A6851609960086104
:10555000036801330360704730B40D68B5F1FF3F55
:1055600001D1026907E000F1080200E01A46536821
:105570001C68A542FAD253684B6099608A605160FA
:10558000086103680133036030BC704703694268F7
:10559000816891608268416851605A68904201D187
:1055A00082685A60002202611868013818607047EA
:1055B00010B5044601F02EFBA26BE36B9A4201D1B9
:1055C000012400E0002401F047FB204610BD00BF8D
:1055D00010B5044601F01EFBA36B0BB9012400E0DB
:1055E000002401F039FB204610BD00BF70B5044611
:1055F0001646856B026C3AB9036843BB406801F0FC
:105600005DF80023636029E06EB9806801F01FFE39
:10561000A268236C1344A3606268934219D3236881
:10562000A36000201AE0C06801F011FE236C5B4209
:10563000E2681A44E26021688A4202D26268134436
:10564000E360022E07D145B1013D002006E00020B5
:1056500004E0002002E0002000E000200135A56306
:1056600070BD00BF026C72B110B50346C46814442B
:10567000C4604068844201D31868D8600846D9687D
:1056800001F0E5FD10BD704738B5054601F0C2FADE
:1056900095F8454064B20AE06B6A53B105F1240005
:1056A00000F006FF08B100F09FFF013C64B2002C3F
:1056B000F2DCFF2385F8453001F0CEFA01F0AAFABA
:1056C00095F8444064B20AE02B6953B105F110002B
:1056D00000F0EEFE08B100F087FF013C64B2002C40
:1056E000F2DCFF2385F8443001F0B6FA38BD00BF84
:1056F00038B540B94FF0500383F31188BFF36F8F73
:10570000BFF34F8FFEE704460D4601F083FA216890
:10571000E26B236C03FB021060600020A063A160B9
:10572000013A02FB0313E360FF2384F8443084F85A
:1057300045307DB92369ABB104F1100000F0B8FE2B
:1057400080B14FF08052094B1A60BFF34F8FBFF307
:105750006F8F07E004F11000FFF7E2FE04F1240070
:10576000FFF7DEFE01F078FA012038BD04ED00E01D
:1057700038B51D46049C0B4609B9246000E0226040
:10578000E063236401212046FFF7B2FF84F84C5008
:1057900038BD00BF40B94FF0500383F31188BFF309
:1057A0006F8FBFF34F8FFEE7F0B583B0034611B1A3
:1057B00001FB00F000E000201D4617460C4650306B
:1057C00001F0C6FB064638B100903B4600F150029E
:1057D00021462846FFF7CCFF304603B0F0BD00BF9E
:1057E000F0B585B0019240B94FF0500383F31188B2
:1057F000BFF36F8FBFF34F8FFEE7044619B9026CFA
:105800001AB9012202E0012200E0002242B94FF061
:10581000500383F31188BFF36F8FBFF34F8FFEE701
:10582000022B03D1E26B012A02D102E0012200E047
:10583000002242B94FF0500383F31188BFF36F8FFA
:10584000BFF34F8FFEE71D460E4600F0D3FE18B99A
:10585000019B1BB9012302E0012300E0002343B9AF
:105860004FF0500383F31188BFF36F8FBFF34F8F57
:10587000FEE7002701F0CEF9A26BE36B9A4201D359
:10588000022D21D12A4631462046FFF7AFFE636A3A
:105890006BB104F1240000F00BFE88B14FF0805290
:1058A000324B1A60BFF34F8FBFF36F8F08E038B1F0
:1058B0004FF080522D4B1A60BFF34F8FBFF36F8FA5
:1058C00001F0CAF901204EE0019B1BB901F0C4F9B7
:1058D000002048E01FB902A800F030FE012701F0C7
:1058E000BBF900F0E5FB01F095F994F844305BB2A8
:1058F000B3F1FF3F02D1002384F8443094F84530DF
:105900005BB2B3F1FF3F02D1002384F8453001F0D0
:10591000A3F901A902A800F027FEF0B92046FFF77D
:1059200047FEA0B1019904F1100000F08DFD204662
:10593000FFF7AAFE00F05CFC00289BD14FF08052DC
:105940000A4B1A60BFF34F8FBFF36F8F92E7204669
:10595000FFF79AFE00F04CFC8CE72046FFF794FE20
:1059600000F046FC002005B0F0BD00BF04ED00E0F3
:105970002DE9F84340B94FF0500383F31188BFF38A
:105980006F8FBFF34F8FFEE7044619B9006C18B94B
:10599000012002E0012000E0002040B94FF0500358
:1059A00083F31188BFF36F8FBFF34F8FFEE7022B96
:1059B00003D1E06B012802D102E0012000E00020C9
:1059C00040B94FF0500383F31188BFF36F8FBFF3DB
:1059D0004F8FFEE71F469046894601F02DFAEFF300
:1059E00011864FF0500383F31188BFF36F8FBFF31D
:1059F0004F8FA26BE36B9A4201D3022F1ED194F812
:105A000045506DB23A4649462046FFF7EFFDB5F1E5
:105A1000FF3F0DD1636A9BB104F1240000F048FD03
:105A200080B1B8F1000F0FD00120C8F800000CE0E1
:105A30006B1C5BB284F84530012006E0002004E0D6
:105A4000012002E0012000E0012086F31188BDE87A
:105A5000F88300BF2DE9F04184B0019240B94FF0C6
:105A6000500383F31188BFF36F8FBFF34F8FFEE7AF
:105A7000044619B9026C1AB9012202E0012200E0C1
:105A8000002242B94FF0500383F31188BFF36F8FA8
:105A9000BFF34F8FFEE71F46884600F0ABFD18B9F5
:105AA000019B1BB9012302E0012300E0002343B95D
:105AB0004FF0500383F31188BFF36F8FBFF34F8F05
:105AC000FEE7002601F0A6F8A56B85B3E66841461F
:105AD0002046FFF7C7FDB7B9013DA563236813B999
