:020000040800F2
:1000000000C0002085080008710600087506000879
:10001000790600087D06000881060008000000003F
:10002000000000000000000000000000850600083D
:1000300089060008000000008D06000891060008EF
:10004000CD080008CD080008CD080008CD0800083C
:10005000CD080008CD080008CD080008CD0800082C
:10006000CD080008CD080008CD080008CD0800081C
:10007000CD080008CD080008CD080008CD0800080C
:10008000CD080008CD080008CD080008CD080008FC
:10009000CD080008CD080008CD080008CD080008EC
:1000A000CD080008CD080008CD080008CD080008DC
:1000B000CD080008CD080008CD080008CD080008CC
:1000C000CD080008CD080008CD080008CD080008BC
:1000D000CD080008CD080008CD080008CD080008AC
:1000E000CD080008CD080008CD080008CD0800089C
:1000F000CD080008CD080008CD080008CD0800088C
:10010000CD080008CD080008CD080008CD0800087B
:10011000CD080008CD080008CD080008CD0800086B
:10012000CD080008CD080008CD080008CD0800085B
:1001300000000000000000000000000000000000BF
:1001400000000000000000000000000000000000AF
:10015000000000000000000000000000000000009F
:10016000000000000000000000000000000000008F
:10017000000000000000000000000000000000007F
:10018000000000000000000000000000000000006F
:10019000000000000000000000000000000000005F
:1001A000000000000000000000000000000000004F
:1001B000000000000000000000000000000000003F
:1001C000000000000000000000000000000000002F
:1001D000000000000000000000000000000000001F
:0401E0005FF8E0F1F3
:1001E40010B5054C237833B9044B13B10448AFF36D
:1001F40000800123237010BD7C000020000000005B
:1002040064120008084B10B51BB108490848AFF345
:1002140000800848036803B910BD074B002BFBD0CE
:10022400BDE81040184700BF000000008000002017
:10023400641200087C00002000000000C378FBB1B9
:10024400154BDB68DB43C3F30223C3F104010F2224
:10025400DA40437803FA01F1837813400B431B011E
:100264000278DBB20D490A4482F800330378580956
:1002740003F01F03012202FA03F341F82030704710
:1002840003785A0903F01F03012101FA03F3203212
:10029400024941F82230704700ED00E000E100E03F
:1002A400042805D1054A136843F00403136070471A
:1002B400024A136823F004031360704710E000E05F
:1002C400F0B4CB7803F00F02154613F0100F01D0F1
:1002D4008D7815430B78E3B10668002316E00122FC
:1002E4009A400C8832EA04040FD19C000F27A740DF
:1002F40026EA070605FA04F42643CC78282C01D113
:10030400426102E0482C00D102610133072BE6D997
:1003140006600B88FF2B1ED94668002318E003F102
:1003240008040122A2400C8832EA04040FD19C0084
:100334000F27A74026EA070605FA04F42643CC78DB
:10034400282C00D14261CC78482C00D102610133C1
:10035400072BE4D94660F0BC704700BF01617047C9
:100364004161704710B4294B5B6803F00C03042B04
:1003740005D0082B06D013BB254B036021E0244B8A
:1003840003601EE0214A53685268C3F38343023377
:1003940012F4803F04D11F4A02FB03F3036010E010
:1003A4001A4A526812F4003F04D01A4A02FB03F3BB
:1003B400036006E0164A02FB03F3036001E0144BFA
:1003C400036012494B68C3F30313134CE35CDAB2C2
:1003D4000368D34043604A68C2F30222A25CD2B2EB
:1003E40023FA02F282604A68C2F3C222A25CD2B249
:1003F400D340C3604A68C2F3813208498A5CD2B2EE
:10040400B3FBF2F3036110BC704700BF001002405D
:1004140000127A0000093D000400002000000020C2
:1004240021B1054B9A69104398617047024A936958
:1004340023EA0000906170470010024030B587B095
:1004440004460D46038A9BB2CA8823F440531343DF
:10045400038283899BB28A88098968890A43024393
:1004640023F4B05323F00C031343A381A38A9BB258
:10047400AA8923F440731343A38201A8FFF772FFF0
:100484001E4B9C4201D1049A00E0039AA38913F401
:10049400004F08D002EB820202EB82022968490075
:1004A400B2FBF1F107E002EB820202EB820229685F
:1004B4008900B2FBF1F1124BA3FB01235B091B0181
:1004C4001A09642000FB1212A18911F4004F08D00C
:1004D400D20032320A49A1FB0212C2F342121A4379
:1004E40007E0120132320649A1FB0212C2F34312A1
:1004F4001A4392B2228107B030BD00BF00380140D8
:100504001F85EB5129B183899BB243F40053838146
:10051400704783899BB223F400539BB28381704755
:1005240010B4C1F3421401F01F01012303FA01F1D5
:100534009C4201D10C3004E0022C01D1103000E0C7
:1005440014301AB103681943016003E0036823EA15
:100554000101016010BC7047C1F30801818070473C
:1005640000B583B001210420FFF75AFF4FF48073D4
:10057400ADF8043010238DF8073003238DF80630CE
:1005840001A90348FFF79CFE03B05DF804FB00BF1C
:100594000008014008B54FF480710248FFF7DEFE01
:1005A40008BD00BF0008014008B54FF4807102483F
:1005B400FFF7D6FE08BD00BF0008014008B56FF084
:1005C4000400FFF76DFE084B1B68084AA2FB0323D7
:1005D400C3F34753064A1370C3EB431203EB82037E
:1005E400DA00044B1A8008BD1400002083DE1B438C
:1005F400980000209A0000200C4B1B8800FB03F09D
:100604000B4B586000229A601A6842F001021A608B
:10061400074B1B6803F00113012BF9D0044B1A6834
:1006240022F001021A6000229A6070479A000020AA
:1006340010E000E008B5FFF7C1FFFFF791FF4FF4AA
:10064400E13000F0CBF8FFF7A5FF4FF4FA70FFF7A5
:10065400D3FFFFF7A9FF4FF4FA70FFF7CDFF02486D
:1006640000F0BCF9EFE700BF7C120008704700BF40
:10067400FEE700BFFEE700BFFEE700BFFEE700BFE6
:10068400704700BF704700BF704700BF704700BF8E
:1006940082B00023019300932C4A136843F48033FF
:1006A40013602A4B1B6803F400330093019B01334E
:1006B4000193009B1BB9019BB3F5A06FF1D1234BB0
:1006C4001B6813F4003F02D00123009301E00023D0
:1006D4000093009B012B36D11D4B1A6842F0100287
:1006E4001A601A6822F003021A601A6842F00202C1
:1006F4001A60A3F580535A685A605A685A605A6857
:1007040042F480625A605A6822F47C125A605A6831
:1007140042F4E8125A601A6842F080721A600B4B75
:100724001B6813F0007FFAD0084B5A6822F00302CA
:100734005A605A6842F002025A60044B5B6803F044
:100744000C03082BF9D102B0704700BF001002401F
:100754000020024008B5FFF79BFF08BD08B5104B09
:100764001A6842F001021A6059680E4A0A405A6037
:100774001A6822F0847222F480321A601A6822F411
:1007840080221A605A6822F4FE025A604FF41F0253
:100794009A60FFF7DFFF4FF00062034B9A6008BDD9
:1007A400001002400000FFF800ED00E070B50E46B6
:1007B400154600240BE0084B1B8803F080039BB212
:1007C400002BF8D0315D0448FFF7C6FE0134AC427B
:1007D400F1DB284670BD00BF0038014070B586B01B
:1007E4000646012144F20400FFF71AFE4FF4007399
:1007F400ADF8143003248DF8164018238DF8173003
:100804001D4D05A92846FFF75BFD4FF48063ADF845
:10081400143004238DF8173005A92846FFF750FD3E
:1008240025238DF800308DF801408DF80240012514
:100834008DF803506846FFF701FD01960023ADF8DB
:100844000830ADF80A30ADF80C30ADF810300C2398
:10085400ADF80E30094C01A92046FFF7EFFD2A46FA
:1008640040F225512046FFF75BFE29462046FFF75C
:1008740049FE06B070BD00BF0008014000380140C9
:100884000C480D490D4A002302E0D458C4500433E7
:10089400C4188C42F9D30A4A0A4C002301E01360BD
:1008A4000432A242FBD3FFF759FF00F00FF8FFF721
:1008B400C1FE7047000000207C000020F8120008F0
:1008C4007C000020AC000020FEE700000E4B70B559
:1008D4001E460E4C0025E41AA410A54204D056F876
:1008E400253098470135F8E700F0BAFC084B094C6D
:1008F4001E46E41AA4100025A54204D056F825305B
:1009040098470135F8E770BDF0120008F0120008AE
:10091400F0120008F412000803460244934202D085
:1009240003F8011BFAE7704770B50E46054618B187
:1009340083690BB900F00CFAAB69AC6813B92846AB
:1009440000F006FA224B9C4201D16C6808E0214B6E
:100954009C4201D1AC6803E01F4B9C4208BFEC6889
:10096400A3891B0701D523693BB92146284600F01A
:1009740091F810B14FF0FF3070BD013EA36816F836
:10098400011F013BA36091B1002B04DAA2699342D9
:1009940006DB0A2904D023685A1C22601970EDE78B
:1009A4002246284600F022F80130E7D1E2E7002B86
:1009B40008DA22460A21284600F018F80130D9D076
:1009C4000A2070BD23680A205A1C2260187070BD6A
:1009D40090120008B0120008D0120008024B014621
:1009E4001868FFF7A1BF00BF78000020F8B50F46D4
:1009F4001446054618B183690BB900F0A9F9224BD6
:100A04009C4201D16C6808E0204B9C4201D1AC6847
:100A140003E01F4B9C4208BFEC68A369A360A38951
:100A24001A0709D523693BB123682069FEB2181A55
:100A3400636998420FDB08E02146284600F02AF853
:100A44000028F1D04FF0FF361BE02146284600F085
:100A540015F90028F6D1A3680130013BA36023688F
:100A64005A1C22601F706369984204D0A389DB0773
:100A740007D50A2E05D12146284600F0FFF80028A4
:100A8400E0D13046F8BD00BF90120008B012000853
:100A9400D0120008324B70B51D6806460C4625B1CD
:100AA400AB6913B9284600F053F92E4B9C4201D18F
:100AB4006C6808E02C4B9C4201D1AC6803E02B4BE2
:100AC4009C4208BFEC68B4F90C309AB215071DD4E7
:100AD400D00602D4092232603AE0510712D5616B84
:100AE40041B104F14403994202D0304600F01AFAAD
:100AF40000236363A38923F02403A3810023636099
:100B040023692360A38943F00803A38123694BB9B4
:100B1400A38903F42073B3F5007F03D02146304644
:100B240000F0C4F9A28912F0010305D00023A360E8
:100B340063695B42A36103E0920758BF6369A360E2
:100B440023695BB9B4F90C3003F0800080B230B192
:100B540043F04003A3814FF0FF3070BD002070BD0F
:100B64007800002090120008B0120008D01200088B
:100B74008A892DE9F041054610070C4659D44B6883
:100B8400002B02DC0B6C002B17DDE66AAEB102F41D
:100B94008052002392B22F682B600AB1606D15E079
:100BA400216A01232846B047411C0FD12B686BB141
:100BB4001D2B01D0162B03D12F600020BDE8F0813E
:100BC400A38943F04003A381BDE8F081A3895A07B8
:100BD40005D56368C01A636B0BB1236CC01A00237C
:100BE4000246E66A216A2846B047431CA38906D117
:100BF40029681D2939D8204ACA40D60735D500228C
:100C040062602269D904226004D5421C01D12B6898
:100C140003B96065616B2F600029CED004F14403F1
:100C2400994202D0284600F07DF900206063BDE8B7
:100C3400F0810F69002FC0D093070E680CBF4B6979
:100C44000023C7EB06080F608B6002E00744C0EB8B
:100C54000808B8F1000FB0DD43463A46216A284639
:100C6400A66AB0470028F1DCA38943F04003A381BE
:100C74004FF0FF30BDE8F0810100402038B50B692A
:100C840005460C46DBB118B183690BB900F060F876
:100C94000C4B9C4201D16C6808E00B4B9C4201D187
:100CA400AC6803E0094B9C4208BFEC68B4F90C3013
:100CB4002BB121462846BDE83840FFF759BF002034
:100CC40038BD00BF90120008B0120008D01200080E
:100CD400014900F0A9B800BF810C000810B5044612
:100CE400002303604360836081814366C2810361A2
:100CF40043618361194608225C30FFF70DFE054B02
:100D040024626362044BA362044BE362044B2363D7
:100D140010BD00BF9D100008BF100008F7100008A8
:100D24001B11000870B568234D1E5D430E4605F186
:100D3400740100F043F9044640B1002180E8420008
:100D44000C30A06005F16802FFF7E6FD204670BD97
:100D5400836910B5044633BB8364C3640365124BD3
:100D6400124A1B688262984204BF0123836100F027
:100D74001FF86060204600F01BF8A060204600F0D9
:100D840017F80022E06004216068FFF7A7FF012242
:100D94000921A068FFF7A2FF02221221E068FFF7F1
:100DA4009DFF0123A36110BD8C120008D50C00081F
:100DB400F8B51C4B07461E68B36913B93046FFF7F4
:100DC400C7FF4836B4687368013B04D4B4F90C50C7
:100DD4007DB16834F8E733680BB13668F2E7042173
:100DE4003846FFF79FFF30600028F6D10C233B60A4
:100DF400F8BD4FF6FF73E3810123A3816566256087
:100E0400A560656025616561A5610822294604F134
:100E14005C00FFF781FD6563A563A564E564204676
:100E2400F8BD00BF8C1200082DE9F84380468946BE
:100E340000F14804002694B1A5686768013F0CD40A
:100E4400AB89012B07D9B5F90E30013303D02946FC
:100E54004046C84706436835F0E72468EBE7304668
:100E6400BDE8F88370B50E46B1F90E1090B00029B4
:100E740014461D4606DA00232B60B3891A060ED5E4
:100E840040230EE001AA00F06DF90028F3DB029A7A
:100E940002F47042A2F500535A425A412A604FF4B8
:100EA40080630020236010B070BD00008B8973B58F
:100EB4009E0705460C4610D401AB6A46FFF7D2FFE5
:100EC40000990646284600F079F868B9B4F90C3060
:100ED4009A0522D443F00203A38104F1470323605B
:100EE40023610123636118E00D4BAB62A389206089
:100EF40043F08003A381009B20616361019B4BB19C
:100F0400B4F90E10284600F03FF918B1A38943F054
:100F14000103A381A0893043A08102B070BD00BF4A
:100F2400D50C000838B50546002944D051F8043CD6
:100F34000C1F002BB8BFE41800F048F91E4A1368D0
:100F4400114613B96360146030E0A3420DD92268DE
:100F5400A018834201BF18685B681218226063609E
:100F64000C6023E0A24203D813465A68002AF9D140
:100F740018681918A1420BD12168014458188242FB
:100F8400196013D110685268014419605A600DE069
:100F940002D90C232B6009E021686018824201BF4A
:100FA400106852680918216062605C602846BDE8D8
:100FB400384000F00CB938BDA000002070B5CD1C3D
:100FC40025F0030508350C2D38BF0C25002D0646E9
:100FD40001DBA94202D90C23336046E000F0F6F8A5
:100FE400234B1C681A462146A1B10B685B1B0ED427
:100FF4000B2B03D90B60CC18CD501EE08C420BBFD9
:1010040063684B681360636018BF0C4615E00C46B8
:101014004968E9E7174C23681BB9304600F02CF8FF
:1010240020602946304600F027F8431C18D0C41C21
:1010340024F00304A0420DD12560304600F0C7F827
:1010440004F10B00231D20F00700C31A0ED05A42EE
:10105400E25070BD211A304600F00EF80130EBD199
:101064000C233360304600F0B2F8002070BD00BF9E
:10107400A00000209C00002038B5064C0023054643
:101084000846236000F0DEF8431C02D1236803B154
:101094002B6038BDA800002010B50C46B1F90E1025
:1010A40000F096F80028ABBF636DA3891B1823F4E6
:1010B4008053ACBF6365A38110BD2DE9F0411F4689
:1010C4008B890546DB050C46164605D5022300220E
:1010D400B1F90E1000F068F8A389324623F4805366
:1010E400A381B4F90E103B462846BDE8F04100F058
:1010F40017B810B50C46B1F90E1000F055F8431CA2
:10110400A38915BF606523F4805343F48053A381FE
:1011140018BFA38110BDB1F90E1000F013B8000080
:1011240038B5074C054608461146002222601A4687
:10113400FFF73CFB431C02D1236803B12B6038BD8D
:10114400A800002038B5064C002305460846236055
:1011540000F050F8431C02D1236803B12B6038BD62
:10116400A800002038B5074C002305460846114660
:10117400236000F047F8431C02D1236803B12B60BD
:1011840038BD00BFA800002038B5064C0023054632
:101194000846236000F03EF8431C02D1236803B1E3
:1011A4002B6038BDA800002038B5074C054608461A
:1011B4001146002222601A4600F034F8431C02D182
:1011C400236803B12B6038BDA80000207047704726
:1011D40038B5074C054608461146002222601A46D7
:1011E40000F028F8431C02D1236803B12B6038BDFA
:1011F400A8000020024B58221A604FF0FF307047BD
:10120400A8000020024B58221A604FF0FF307047AC
:10121400A8000020024B58221A600020704700BF2B
:10122400A8000020024B58221A604FF0FF3070478C
:10123400A8000020024B58221A604FF0FF3070477C
:10124400A8000020044A05491368002B08BF0B4678
:101254001844106018467047A4000020B000002015
:10126400F8B500BFF8BC08BC9E467047F8B500BF8F
:08127400F8BC08BC9E4670475F
:10127C004F4B2C7869616F666569210D0000000089
:10128C00180000200000000000000000000000001A
:10129C000000000000000000000000000000000042
:1012AC000000000000000000000000000000000032
:1012BC000000000000000000000000000000000022
:1012CC000000000000000000000000000000000012
:1012DC000000000000000000000000000000000002
:0412EC0000000000FE
:0412F00009020008E7
:0412F400E501000808
:1012F80002040608000000000102030401020304BE
:101308000607080900A24A0400000000901200081D
:10131800B0120008D0120008000000000000000011
:1013280000000000000000000000000000000000B5
:1013380000000000000000000000000000000000A5
:101348000000000000000000000000000000000095
:101358000000000000000000000000000000000085
:0C13680000000000000000001800002041
:040000050800088562
:00000001FF
