:020000040800F2
:1000000000000220B94D0008390800083D0800082A
:1000100041080008450800084908000800000000E1
:100020000000000000000000000000004D08000873
:100030005108000800000000550800085908000891
:10004000094E0008094E0008094E0008094E000834
:10005000094E000861080008094E0008094E000812
:10006000094E0008094E0008094E0008094E000814
:10007000094E0008094E0008094E0008094E000804
:10008000094E0008094E0008094E00080000000053
:10009000000000000000000000000000094E000801
:1000A000094E0008094E0008094E0008094E0008D4
:1000B000094E0008094E0008094E0008094E0008C4
:1000C000094E0008094E0008094E0008650800089E
:1000D000094E0008094E0008094E00080000000003
:1000E000094E0008094E0008094E000800000000F3
:1000F000000000000000000000000000094E0008A1
:1001000000000000094E0008094E0008094E0008D2
:1001100000000000000000000000000000000000DF
:10012000094E0008094E0008094E0008094E000853
:10013000094E000800000000000000000000000060
:10014000000000000000000000000000750800082A
:10015000094E0008094E0008094E0008094E000823
:10016000094E0008094E00080000000000000000D1
:10017000000000000000000000000000000000007F
:1001800000000000094E0008000000000000000010
:08019000094E0008094E0008A9
:1001980010B5054C237833B9044B13B10448AFF3B9
:1001A80000800123237010BDE00100200000000042
:1001B80020500008084B10B51BB108490848AFF398
:1001C80000800848036803B910BD074B002BFBD01B
:1001D800BDE81040184700BF00000000E4010020FF
:1001E80020500008E00100200000000053B94AB97F
:1001F800002908BF00281CBF4FF0FF314FF0FF3027
:1002080000F07EB9ADF1080C6DE904CE00F006F8F7
:10021800DDF804E0DDE9022304B070472DE9F0477A
:100228008C460E460446089D002B50D18A4217463C
:100238006CD9B2FA82FEBEF1000F0BD0CEF12004C9
:1002480020FA04F401FA0EF644EA060C02FA0EF754
:1002580000FA0EF44FEA1749220CBCFBF9F01FFA1A
:1002680087F809FB10C642EA064600FB08F3B342CA
:1002780009D9F61900F1FF3280F02281B34240F229
:100288001F8102383E44F61AA2B2B6FBF9F309FB05
:10029800136642EA064403FB08F8A04509D9E419A5
:1002A80003F1FF3280F00A81A04540F20781023B4A
:1002B8003C44C8EB040443EA00400021002D62D00E
:1002C80024FA0EF400232C606B60BDE8F0878B42A3
:1002D80007D9002D55D0002185E841000846BDE822
:1002E800F087B3FA83F1002940F09080B34202D33B
:1002F800824200F2F880841A66EB03060120B446B5
:10030800002D40D085E81010BDE8F08712B901270C
:10031800B7FBF2F7B7FA87FEBEF1000F35D1F31B32
:100328004FEA17481FFA87FC0121B3FBF8F0220CAB
:1003380008FB103642EA06460CFB00F3B34207D925
:10034800F61900F1FF3202D2B34200F2CE80104615
:10035800F61AA2B2B6FBF8F308FB136642EA0644A3
:100368000CFB03FCA44507D9E41903F1FF3202D2C0
:10037800A44500F2B5801346CCEB040443EA0040E0
:100388009CE729462846BDE8F087CEF1200106FA09
:100398000EF307FA0EF720FA01F94FEA1748CE4094
:1003A80049EA0309B6FBF8FA4FEA194408FB1A664A
:1003B8001FFA87FC44EA06430AFB0CF29A4200FA49
:1003C8000EF40AD9DB190AF1FF3180F087809A42CE
:1003D80040F28480AAF1020A3B449B1A1FFA89F969
:1003E800B3FBF8F108FB113349EA034301FB0CF6B0
:1003F8009E4207D9DB1901F1FF326BD29E4269D9BF
:1004080002393B449B1B41EA0A418EE7C1F1200EA9
:1004180022FA0EF48B40234320FA0EF706FA01F471
:100428004FEA134C26FA0EF63C43B6FBFCF9270CB0
:100438000CFB19661FFA83F847EA064609FB08F71A
:10044800B74202FA01F200FA01FA08D9F61809F1DE
:10045800FF3041D2B7423FD9A9F102091E44F61B29
:10046800A0B2B6FBFCF40CFB146640EA064704FB9A
:1004780008F8B84507D9FF1804F1FF3028D2B84565
:1004880026D9023C1F4444EA0940C8EB0707A0FBF1
:1004980002894F4544464E4614D329D065B3BAEB7A
:1004A800040367EB060707FA0EFECB40CF404EEA7F
:1004B800030385E888000021BDE8F0871346F8E6C5
:1004C8001046E0E6B8EB020469EB03060138E5E7FD
:1004D8000446D8E7114695E78146C0E78A467CE797
:1004E800023B3C4448E708460AE702383E442FE707
:1004F800C245E7D33E46D1E72946BDE8F08700BFAD
:10050800704700BF72B6FEE700B59BB030220021ED
:100518000EA804F0ADFC002309930A930B930C93E7
:100528000D930393049305930693079308930193FC
:10053800264A116C41F080511164126C02F080520D
:100548000192019A0293224B1A6842F440421A60BF
:100558001B6803F440430293029B05230E934FF458
:1005680080330F9301231093022314934FF48003D5
:100578001593192316934FF4A8731793042318930C
:10058800072319930EA801F0EDFE08B1FFF7BAFF93
:100598000F23099302210A9100230B934FF48052F1
:1005A8000C920D9309A802F039F908B1FFF7AAFFD8
:1005B800022303934FF48073079303A802F0E8F92A
:1005C80008B1FFF79FFF1BB05DF804FB003802403D
:1005D8000070004008B502F013FCFFF795FF00F02B
:1005E80009F800F0C7F800F083F900F08FF900F07F
:1005F80071F8FEE7F0B58BB00024059406940794D3
:100608000894099401942F4B1A6B42F004021A6360
:100618001A6B02F004020192019A02941A6B42F0DA
:1006280080021A631A6B02F080020292029A039403
:100638001A6B42F001021A631A6B02F0010203926C
:10064800039A04941A6B42F002021A631B6B03F0BC
:1006580002030493049B1C4D01224FF400512846C9
:1006680002F026FB194E01221021304602F020FB31
:100678004FF400530593012706970794089405A99A
:10068800284602F03FFA48F20F73059303250695B2
:10069800079405A9304602F035FA1023059306970A
:1006A8000794089505A9304602F02CFA4FF2FF731B
:1006B80005930695079405A9054802F023FA0BB09F
:1006C800F0BD00BF003802400008024000000240B0
:1006D8000004024000B587B00023019302930393FE
:1006E8000493059300931B481B4A026043607F22D2
:1006F8008260FF22C26003614361836102F0FAFBFA
:1007080008B1FFF7FFFE00238DF804308DF805309F
:100718008DF8063004930593012201A90D4802F0D3
:1007280057FC08B1FFF7EEFE01228DF800200423E4
:100738008DF801308DF8022019238DF803306946B1
:10074800044802F0C1FC08B1FFF7DCFE07B05DF811
:1007580004FB00BF18020020002800400268034B79
:100768009A4202D10122024B1A60704700280040C9
:100778003C0E474208B50D480D4B03604FF4827399
:10078800436000238360C360036143614FF40072D8
:100798008261C3610362436283620A23C36202F017
:1007A800FFFC08B1FFF7AEFE08BD00BF380200200D
:1007B8000030014010B588B00023039304930593DB
:1007C800069307930268184B9A422AD10024019491
:1007D80003F584335A6C42F480525A645A6C02F41A
:1007E80080520192019A02941A6B42F001021A6334
:1007F8001B6B03F001030293029BE0230393022384
:100808000493032306930523079303A9074802F0DB
:1008180079F922462146232002F076FA232002F0B5
:10082800A5FA08B010BD00BF00300140000002402A
:10083800FEE700BFFEE700BFFEE700BFFEE700BF20
:10084800FEE700BF704700BF704700BF704700BF9A
:1008580008B502F0EFFA08BD704700BF08B50248B6
:1008680002F0E2FC08BD00BF3802002008B50248CB
:1008780000F02CFC08BD00BFCC27002000B583B0D9
:10088800002100910E4B5A6C42F480425A645A6C13
:1008980002F480420092009A01911A6C42F0805250
:1008A8001A641B6C03F080530193019B0A460520D0
:1008B80002F02AFA052002F059FA03B05DF804FBA9
:1008C80000380240024B01221A701878704700BFA6
:1008D80014000020024B01221A701878704700BFDC
:1008E8001400002000207047002070470120704746
:1008F80008B50349034802F05FFD034B187008BDB3
:1009080090020020000000209402002008B5002278
:100918000D490E4802F056FD08B1FFF7F3FD0C49EA
:100928000A4802F06BFD08B1FFF7ECFD09490748DA
:1009380003F078FB08B1FFF7E5FD044802F072FD0B
:1009480008B1FFF7DFFD08BD18000020FC220020D9
:10095800E00000206800002012230B800048704748
:100968005400002004230B80004870473400002006
:1009780030B4002310E0040F092C03D8303401F8F8
:10098800134002E0373401F8134000015C000134E1
:1009980000250D550133DBB29342ECD330BC7047D0
:1009A80038B50A4B1B680A4A1468043210681818CC
:1009B8000AD0084D0822A91CFFF7DAFF042205F126
:1009C80012012046FFF7D4FF38BD00BF107AFF1F81
:1009D800147AFF1F3800002008B51A230B80FFF790
:1009E800DFFF014808BD00BF3800002008B50A46EF
:1009F80020B90549054803F0B9F903E0024903485D
:100A080003F0B4F9004808BDCC2500203850000890
:100A180010B5044C0A462146034803F0A7F92046BE
:100A280010BD00BFCC2500204C50000808B50A4670
:100A380020B90549054803F099F903E0024903483C
:100A480003F094F9004808BDCC2500206050000848
:100A580008B50A4620B90549054803F087F903E0B7
:100A68000249034803F082F9004808BDCC2500205C
:100A78006C500008002070474FF480330B604FF42F
:100A880000731380002070470020704700207047D3
:100A980000207047002070470020704730B589B0AB
:100AA8000023039304930593069307930368B3F114
:100AB800A04F2ED100250195174C236B43F001035D
:100AC8002363236B03F001030193019B4FF4C0538D
:100AD800039302230493032306930A23079303A98A
:100AE8000E4802F00FF8636B43F0800363630295CE
:100AF800636C43F480436364636C03F48043029340
:100B0800029B2A460121432002F0FEF8432002F00E
:100B18002DF909B030BD00BF003802400000024086
:100B280008B500F57171D0F8040402F091FC08BD15
:100B380008B5C1EBC10293000344D3F80822D0F8EA
:100B4800040402F0B3FC08BD08B5C1EBC102930070
:100B580003449A6CD0F8040402F0E4FC08BD00BF1A
:100B680008B5D0F8040402F07DFD08BD10B50446B0
:100B7800C368022B01D0FFF7C5FC0121D4F8040497
:100B880002F058FDD4F8040402F02AFD10BD00BF9D
:100B980010B50446D0F8040402F050FD2268D2F8DB
:100BA800003E43F00103C2F8003E236A23B1034A22
:100BB800136943F00603136110BD00BF00ED00E0A8
:100BC80008B5D0F8040402F043FD08BD08B5D0F814
:100BD800040402F055FD08BD08B5D0F8040402F07D
:100BE8004DFD08BD08B5D0F8040402F04BFD08BD62
:100BF80008B5D0F8040402F047FD08BD03785BBBD4
:100C080010B503461548C0F80434C3F8C4024FF0C1
:100C1800A0430360042343600222C26000230361EF
:100C28008261C36103624362C362036300F0F6F842
:100C380008B1FFF767FC094C8021204600F014FE3C
:100C480040220021204600F0EBFD802201212046B1
:100C580000F0E6FD002010BD00207047CC270020E2
:100C6800D0F8C42211F0800F08D001F07F01C1EB49
:100C7800C1018B00134493F83E00704701F07F01D7
:100C8800C1EBC1018B00134493F8FE01704700BF0C
:100C980008B5D0F8C40200F0FBFC08BD10B102286A
:100CA80002D003E0002070470120704703207047FE
:100CB80008B5D0F8C40200F045F9FFF7EFFF08BD0A
:100CC80010B51C4613462246D0F8C40200F03AFC80
:100CD800FFF7E4FF10BD00BF08B5D0F8C40200F06C
:100CE80071FCFFF7DBFF08BD08B5D0F8C40200F0BF
:100CF8007BFDFFF7D3FF08BD08B5D0F8C40200F0AC
:100D0800FBFCFFF7CBFF08BD08B5D0F8C40200F024
:100D180033FDFFF7C3FF08BD08B5D0F8C40200F0E3
:100D2800FDFBFFF7BBFF08BD08B5D0F8C40200F013
:100D3800B9FCFFF7B3FF08BD08B5D0F8C40200F04E
:100D480079FCFFF7ABFF08BD2DE9F04782B0D0F87A
:100D58000080CA00521A930003445A6D1B6D9A42D0
:100D680056D8C1469B1AC1EBC104A2000244526C7A
:100D7800934200D81A460C46074602F1030A4FEA86
:100D88009A0A1EE05B1AC4EBC4018A003A44566C06
:100D9800B34200D81E4606F1030A4FEA9A0AE30056
:100DA8001B1B9D003D44A96C3B7C0093B3B2E2B28F
:100DB800404601F0ABF8AB6C3344AB646B6D1E443A
:100DC8006E6509EB441303F510639B699BB29A4562
:100DD80009D8E3001B1B9A003A44516D136D9942E0
:100DE80001D2002BCED1E3001B1B980007443A6DBB
:100DF8007B6D9A420ED804F00F04012303FA04F421
:100E0800D8F8343823EA0404C8F83448002002E04B
:100E1800012000E0002002B0BDE8F087F0B58BB0FB
:100E2800002800F08A800446056890F8BD3313F066
:100E3800FF0F04D1002380F8BC33FFF72FFE0323F4
:100E480084F8BD33EB6B13F4807F01D10023236159
:100E5800206800F0EDFD254655F8107B6E460FCD55
:100E68000FC60FCD0FC695E8030086E80300231DC3
:100E78000ECB384600F01CFD20B1022384F8BD33A8
:100E880001255BE00021206800F0D8FD002315E073
:100E9800D900C81A82002244012082F83D0082F855
:100EA8003C30A2F84230002082F83F005064906441
:100EB800CA1A9100214408650133DBB26568AB4268
:100EC800E6D3002315E0D800C11A8A002244002185
:100ED80082F8FD1182F8FC3182F8FF11C2F8041281
:100EE800C2F80812C21A90002044C0F81012013348
:100EF800DBB29D42E7D8254655F8107B6E460FCDEC
:100F08000FC60FCD0FC695E8030086E80300231D22
:100F18000ECB384600F0D8FD054620B1022384F8F0
:100F2800BD3301250AE0002384F83830012384F812
:100F3800BD33206801F092F900E0012528460BB086
:100F4800F0BD00BF026890F8BC33012B18D010B573
:100F5800012380F8BC33836A012B06D18369012BF6
:100F680003D0936B43F4803393630446006800F026
:100F780059FD206801F064F9002084F8BC0310BD15
:100F88000220704770B504460D460068066C00EBF9
:100F9800411303F5306399682269012A44D111F09D
:100FA800080F09D0344A964263D911F4004F60D033
:100FB8004FF400429A605CE011F0200F02D020222A
:100FC8009A6056E011F0280F53D12B4A964206D961
:100FD80011F4004F03D04FF400429A6049E0E90051
:100FE800491B8A002244D2F804121B69C3F3120376
:100FF800C91AC2F81412D2F80812D2F804320B44F3
:10100800C2F808325DB9C5EBC50293002344D3F892
:10101800103223B904F57172012101F075F9E9B2B2
:101028002046FFF785FD24E0144A964210D111F4BA
:10103800004F03D04FF400429A601AE011F0200FDD
:1010480001D020229A60E9B22046FFF771FD10E036
:101058005DB9C5EBC50293002344D3F8103223B918
:1010680004F57172002101F04FF9E9B22046FFF74B
:101078005FFD002070BD00BF0A30544F0A31544F45
:1010880038B5044603681D6C03EB4111D1F8082BF1
:101098000D4B9D4207D901F5306112F4004F02D083
:1010A8004FF400438B602046FFF73AFD064B9D4204
:1010B80008D92369012B05D104F571720121206833
:1010C80001F022F9002038BD0A30544F2DE9F047CD
:1010D80004460568284601F003F9002840F01B8201
:1010E8002E46206801F0C8F8002800F01482206815
:1010F80001F0C2F810F0020F04D02268536903F01F
:1011080002035361206801F0B7F810F0100F45D0C2
:101118002268936923F0100393612F6A07F00F0880
:10112800C7F34343022B1FD147F6F0731F4230D059
:101138004FEAC80AC8EB0A034FEA8309A1443F09EA
:10114800C7F30A02D9F80812284600F0FBFFC7F3D4
:101158000A07D9F808323B44C9F80832D9F81432DA
:101168001F44C9F8147214E0062B12D1082204F5A2
:101178007171284600F0E6FFC7F30A174FEAC80363
:10118800C8EB03018A002244D2F814323B44C2F867
:1011980014322268936943F010039361206801F0C8
:1011A8006BF810F4002F45D0206801F069F8074665
:1011B8004FF000083CE017F0010F36D05FFA88F1D5
:1011C800206801F06DF8814610F0010F08D006EB99
:1011D80048130122C3F8082B41462046FFF7D2FEE8
:1011E80019F0080F08D006EB48130822C3F8082B9B
:1011F80041462046FFF744FF19F0100F04D006EBD4
:1012080048131022C3F8082B19F0200F04D006EB5E
:1012180048132022C3F8082B19F4005F05D006EB09
:1012280048134FF40052C3F8082B08F101087F084F
:10123800002FC0D1206801F01FF810F4802F6ED065
:10124800206801F025F807464FF0000865E017F020
:10125800010F5FD05FFA88FA5146206801F02AF83A
:10126800814610F0010F2ED008F00F03012101FA7A
:1012780003F2D6F8343823EA0203C6F8343806EB0A
:101288004813C3F8081923698B4218D14FEAC802DA
:10129800C8EB020293002344996C5A6C0A449A647E
:1012A800B8F1000F0BD1C8EBC802930023441B6DA3
:1012B8002BB904F571720121206801F025F8514617
:1012C8002046FFF741FC19F0080F04D006EB48133D
:1012D8000822C3F8082919F0100F04D006EB4813A8
:1012E8001022C3F8082919F0400F04D006EB481360
:1012F8004022C3F8082919F0020F04D006EB48135E
:101308000222C3F8082919F0800F03D0414620466D
:10131800FFF71AFD08F101087F08002F97D1206810
:1013280000F0AAFF002818DAD5F8043823F00103E2
:10133800C5F8043894F8F433012B06D1002184F859
:10134800F413204600F094FA02E02046FFF738FC38
:101358002268536903F000435361206800F08CFF52
:1013680010F4006F0CD0D5F8083813F0010F02D034
:101378002046FFF70DFC2268536903F400635361AC
:10138800206800F079FF10F4805F5BD005F50067F6
:101398007B6823F001037B601021206800F066FB66
:1013A800002220E006EB42134FF67F30C3F808090D
:1013B800D3F8001921F40011C3F80019D3F8001963
:1013C80041F00061C3F80019C3F8080BD3F8001BFB
:1013D80021F40011C3F8001BD3F8001B41F0006191
:1013E800C3F8001B013263689A42DBD3FB6943F000
:1013F8000113FB61236B53B1D7F8843043F00B031F
:10140800C7F884307B6C43F00B037B6409E07B698D
:1014180043F4005343F02B037B613B6943F00B0318
:101428003B61D5F8003823F4FE63C5F8003804F5AD
:101438007172217C206800F067FF2268536903F409
:1014480080535361206800F017FF10F4005F16D036
:10145800206800F049FF206800F000FCE060256883
:1014680001F090FA227B0146284600F065FA2046F2
:10147800FFF77CFB2268536903F40053536120682B
:1014880000F0FAFE10F0080F07D02046FFF768FBBF
:101498002268536903F008035361206800F0ECFEEA
:1014A80010F4801F08D000212046FFF795FB226822
:1014B800536903F480135361206800F0DDFE10F4D3
:1014C800001F08D000212046FFF780FB22685369DF
:1014D80003F400135361206800F0CEFE10F0804F33
:1014E80007D02046FFF77EFB2268536903F080434C
:1014F8005361206800F0C0FE10F0040F0BD0236881
:101508005D6815F0040F02D02046FFF771FB2268D2
:1015180053682B435360BDE8F08700BF90F8BC3395
:10152800012B0DD010B50446012380F8BC3380F898
:101538003810006800F074FE002084F8BC0310BD69
:1015480002207047F8B511F0800F0ED001F00F0699
:10155800F500AF1BBC0027463834044404343E462B
:101568000644012586F83D500EE001F00F06F5000F
:10157800AF1BBC00274604F5FC74044404343E4603
:101588000644002586F8FD5101F00F012170A26084
:10159800E370627802B1E180022B01D1002323714C
:1015A80090F8BC33012B0BD00546012380F8BC33DF
:1015B8002146006800F064FB002085F8BC03F8BDF4
:1015C8000220F8BD38B511F0800F0ED001F00F04DD
:1015D800E200151BAB001D463833034404332C4688
:1015E8000444012284F83D200EE001F00F04E200DB
:1015F800151BAB001D4603F5FC73034404332C464E
:101608000444002284F8FD2101F00F01197090F8BC
:10161800BC23012A0BD00446012280F8BC231946BA
:10162800006800F079FB002084F8BC0338BD022074
:1016380038BD00BF70B501F00F05EE00711B8C00BE
:1016480004F5FC740444211D761BB4000444C4F85A
:101658000822C4F810320023C4F8143284F8FD318B
:1016680084F8FC510369012B05D1C5EBC506B4000C
:101678000444C4F80C2225B9DAB2006800F0B8FBBB
:1016880003E0DAB2006800F057FC002070BD00BF2C
:1016980001F00F01C1EBC1018B001844D0F814020E
:1016A800704700BF70B501F00F05EE00711B8C008C
:1016B80038340444211D761BB4000444A264236515
:1016C80000236365012384F83D3084F83C500369A6
:1016D800012B04D1C5EBC506B4000444E26425B966
:1016E800DAB2006800F084FB03E0DAB2006800F0C8
:1016F80023FC002070BD00BF38B501F00F0543681A
:101708009D4235D811F0800F0BD0EA00511B8B0099
:1017180019463833034404330144012281F83D203B
:101728000CE0CA00541AA3001C4603F5FC730344DA
:10173800043322460244002182F8FD1101229A70E6
:101748001D7090F8BC23012A14D00446012280F8A9
:10175800BC231946006800F007FD2DB904F5717225
:10176800217C206800F0D0FD002084F8BC0338BD3F
:10177800012038BD022038BD01F00F0342689342B2
:101788002DD810B511F0800F0BD0DA00D41AA100B3
:101798000C463831014404310444012284F83D20C8
:1017A8000BE0DA00D41AA1000C4601F5FC710144E3
:1017B80004310444002284F8FD2100228A700B7051
:1017C80090F8BC33012B0CD00446012380F8BC33BD
:1017D800006800F0F7FC002084F8BC0310BD01206D
:1017E8007047022010BD00BF90F8BC33012B14D005
:1017F80010B50446012380F8BC3311F0800F05D0E2
:1018080001F00F01006800F031F902E0006800F013
:1018180041F9002084F8BC0310BD0220704700BFC6
:1018280030B40468636A19B943EA0240A06218E058
:101838000D46A06A03EB1040002308E003F14001C5
:1018480004EB8101496800EB11400133DBB2691EEA
:101858008B42F3D340EA024005F13F0104EB8101DA
:101868004860002030BC7047036859620020704708
:10187800704700BF002301330C4A934211D8026914
:10188800002AF8DA036943F00103036100230133F6
:10189800064A934207D8026912F0010FF7D10020D7
:1018A8007047032070470320704700BF400D0300B6
:1018B80084B010B5044603A880E80E00089B012BED
:1018C80018D1A36B23F48033A363E36823F4840360
:1018D80023F04003E360E36823F44013E3600F9BC5
:1018E800012B03D1E36843F48013E3602046FFF73C
:1018F800C1FF11E0E36843F04003E3602046FFF7CF
:10190800B9FF0C9B23B9A36B43F48033A36303E0B3
:10191800A36B23F48033A363069B012B07D1A36831
:1019280043F00603A360A36843F02003A360BDE867
:10193800104004B0704700BF022A42D12F4B0B441D
:101948002F4A93423FD92F4B0B442F4A93423CD9FD
:10195800A1F57403A3F510532C4A934237D9A1F18A
:101968008373A3F5E74302F5C332A032934230D91B
:10197800274B0B44274A93422DD9274B0B4402F59A
:10198800922202F57872934227D9244B0B4402F530
:10199800C32202F52072934221D9A1F1B773A3F5AE
:1019A800585302F5B71202F55872934219D91C4BD5
:1019B8000B4402F5122202F5F862934213D807216C
:1019C80012E0092110E00F210EE00E210CE00D219C
:1019D8000AE00C2108E00B2106E00A2104E00921B5
:1019E80002E0082100E00621C26822F47052C260B9
:1019F800C36843EA8123C36000207047405327FF30
:101A0800FF340C00401E1BFF3F420F007F4F1200A7
:101A180060B6E5FE5FE3160000D3CEFEC05BB3FE02
:101A2800E05459FE836843F0010383600020704747
:101A3800836823F0010383600020704708B5C368FA
:101A480023F0C043C360012904D1C36843F00053A5
:101A5800C36004E041B9C36843F08043C3603220E7
:101A680001F0FAF9002008BD012008BD890141F004
:101A78002001016100230133054A934205D8026918
:101A880012F0200FF7D1002070470320704700BFE5
:101A9800400D03001023036100230133054A9342DC
:101AA80005D8026912F0100FF7D100207047032003
:101AB800704700BF400D0300D0F800381943C0F844
:101AC80000180020704700BF84B02DE9F04104469B
:101AD80007A880E80E002546002306E003F140022F
:101AE80004EB82020021516001330E2BF6D9119BC1
:101AF80093B9D4F8043843F00203C4F80438A36B4C
:101B080043F40013A363A36B23F40023A363A36B21
:101B180023F48023A36307E0A36B23F40013A363D8
:101B2800A36B43F40023A3630023C4F8003E04F529
:101B38000066D4F80038C4F800380C9B012B0BD190
:101B4800099B23B900212046FFF7B6FF08E00121D1
:101B58002046FFF7B1FF03E003212046FFF7ACFF63
:101B680010212046FFF782FF10B94FF0000801E06E
:101B78004FF001082046FFF78DFF08B14FF001082C
:101B8800002333617361F3611BE005EB431202F537
:101B98001061D2F8000900280ADA23B94FF0006072
:101BA800C2F8000907E04FF09040C2F8000902E0CF
:101BB8000020C2F8000900220A614FF67F328A60CD
:101BC800013307998B42E0D300231BE005EB431256
:101BD80002F53060D2F8007B002F0ADA23B94FF003
:101BE8000067C2F8007B07E04FF09047C2F8007B1F
:101BF80002E00027C2F8007B002202614FF67F3224
:101C0800826001338B42E1D3336923F480733361FB
:101C18000023A3616FF0804363610A9B1BB9A3692A
:101C280043F01003A361A2690B4B1343A3610D9BFF
:101C38001BB1A36943F00803A361119B012B05D1D4
:101C4800A36943F0804343F00403A3614046BDE821
:101C5800F04104B0704700BF00383C80D0F8083825
:101C680013F0060305D0022B05D0062B05D1022060
:101C7800704700207047022070470F20704700BF50
:101C880070B40B784A78012A23D1D0F81C6803F085
:101C98000F02012404FA02F292B23243C0F81C285F
:101CA80000EB4310D0F8002912F4004F31D1D0F8DE
:101CB80000498A68C2F30A02C97842EA814242EAC4
:101CC8008353234343F0805343F40043C0F800395F
:101CD8001FE0D0F81C4803F00F060122B24044EA86
:101CE8000242C0F81C2800EB4310D0F8003B13F464
:101CF800004F0ED1D0F8003B8A68C2F30A02C978B7
:101D080042EA8142134343F0805343F40043C0F84E
:101D1800003B002070BC704730B40B784A78012A29
:101D280030D100EB4313D3F80029002A0BDAD3F89B
:101D3800002942F00062C3F80029D3F8002942F0D4
:101D48008042C3F80029D0F83C580A7802F00F0204
:101D5800012404FA02F292B225EA0202C0F83C28F1
:101D6800D0F81C28097801F00F018C40A4B222EAAF
:101D78000404C0F81C48D3F800191B4A0A40C3F8E9
:101D880000292DE000EB4313D3F8002B002A0BDACF
:101D9800D3F8002B42F00062C3F8002BD3F8002BD5
:101DA80042F08042C3F8002BD0F83C580A7802F081
:101DB8000F02012404FA02F225EA0242C0F83C2884
:101DC800D0F81C28097801F00F018C4022EA04445D
:101DD800C0F81C48D3F8001B044A0A40C3F8002B7B
:101DE800002030BC704700BF007833EC0078F3EF78
:101DF80070B40B784C78012C5DD14C69B4B900EB08
:101E08004314D4F8105925F0FF5525F4C015C4F82B
:101E18001059D4F8105945F40025C4F81059D4F8CD
:101E28001059ED0CED04C4F810591CE000EB4314F4
:101E380004F510642569ED0CED042561256925F08C
:101E4800FF5525F4C01525614E698D68AE4200D94D
:101E58004D61256945F40025256126694D69C5F35D
:101E6800120535432561012A0ED10A691AB100EB22
:101E78004311C1F8142900EB4310D0F8002942F0AF
:101E88000442C0F800293DE000EB4313D3F80029D1
:101E980042F00442C3F800294B69002B32D0D0F835
:101EA80034380A7802F00F02012101FA02F21A43CB
:101EB800C0F8342826E000EB431000F530631C69B5
:101EC800E40CE4041C611C6924F0FF5424F4C014DD
:101ED8001C614C690CB18C684C611C6944F4002489
:101EE8001C611D698C68C4F312042C431C61012A0F
:101EF80002D1CA6802B15A61D0F8003B43F00443EA
:101F0800C0F8003B002070BC704700BF70B49DF85B
:101F18000C406CB903339B08002507E000EB023442
:101F280004F5805451F8046B266001359D42F5D3C1
:101F3800002070BC704700BFF0B583B00C784B78B8
:101F4800012B40F0AB804B69B3B900EB4413D3F8D5
:101F5800105925F0FF5525F4C015C3F81059D3F8CA
:101F6800105945F40025C3F81059D3F81059ED0C51
:101F7800ED04C3F8105932E000EB4413D3F81059BC
:101F8800ED0CED04C3F81059D3F8105925F0FF559E
:101F980025F4C015C3F81059D3F810794D698E6827
:101FA8003544013DB5FBF6F5654E06EAC5453D43AA
:101FB800C3F81059D3F810694D69C5F312053543B4
:101FC800C3F8105903F51063CD78012D07D11D69A9
:101FD80025F0C0451D611D6945F000551D61012AA8
:101FE80027D10B691BB100EB4412C2F81439CB7826
:101FF800012B15D1D0F8083813F4807F08D100EBF5
:102008004412D2F8003943F00053C2F8003907E00F
:1020180000EB4412D2F8003943F08053C2F800397B
:1020280000EB4414D4F8003943F00443C4F80039F1
:1020380083E000EB4414D4F8003943F00443C4F8B7
:102048000039CB78012B0ED04B69002B75D0D0F816
:1020580034480B7803F00F03012202FA03F32343F9
:10206800C0F8343869E0D0F8083813F4807F06D116
:10207800D4F8003943F00053C4F8003905E0D4F827
:10208800003943F08053C4F8003914460B46C96838
:102098001A789B8A0094FFF739FF4EE000EB44144E
:1020A80004F530631D69ED0CED041D611D6925F013
:1020B800FF5525F4C0151D614D6955B91E698D6818
:1020C800C5F3120535431D611D6945F400251D61E1
:1020D80013E08E683544013DB5FBF6F51F69184ECF
:1020E80006EAC5463E431E611F698E68ADB206FB0F
:1020F80005F5C5F312053D431D61012A02D1CA68E1
:1021080002B15A61CB78012B11D1D0F8083813F4F9
:10211800807F06D1D4F8003B43F00053C4F8003B5D
:1021280005E0D4F8003B43F08053C4F8003BD4F8F2
:10213800003B43F00443C4F8003B002003B0F0BD6B
:102148000000F81F10B403329208002305E000F5E0
:102158008054246841F8044B01339342F7D308466E
:102168005DF8044B704700BF0B784A78012A13D1F9
:1021780000EB4310D0F80029002A06DB2BB1D0F879
:10218800003923F08043C0F80039D0F8003943F40F
:102198000013C0F8003912E000EB4310D0F8002B10
:1021A800002A06DB2BB1D0F8003B23F08043C0F8AF
:1021B800003BD0F8003B43F40013C0F8003B00207C
:1021C800704700BF0B784A78012A13D100EB4310FF
:1021D800D0F8003923F40013C0F80039CB78023B5B
:1021E800DBB2012B19D8D0F8003943F08053C0F87E
:1021F800003912E000EB4310D0F8003B23F4001341
:10220800C0F8003BCB78023BDBB2012B05D8D0F8F5
:10221800003B43F08053C0F8003B0020704700BFEC
:10222800D0F8003823F4FE63C0F80038D0F800383E
:10223800090101F4FE611943C0F800180020704735
:10224800D0F8003E23F00303C0F8003ED0F804386D
:1022580023F00203C0F8043800207047D0F8003E8D
:1022680023F00303C0F8003ED0F8043843F002031B
:10227800C0F80438002070474269806910407047F0
:1022880000F50063D0F81808DB691840000C7047A7
:1022980000F50063D0F81808DB69184080B2704771
:1022A80000EB4111D1F8082B00F50060406910409F
:1022B800704700BF10B4D0F81048D0F8342801F0A7
:1022C8000F0322FA03F3DB01DBB2234300EB4110D7
:1022D80000F51060806818405DF8044B704700BF37
:1022E800406900F001007047D0F8003923F4FF631B
:1022F80023F00703C0F80039D0F8043843F480739A
:10230800C0F804380020704710B4046C144B9C4289
:1023180003D9D0F8003B002B1EDB0024C0F8104B7B
:10232800D0F8104B44F40024C0F8104BD0F8104BF0
:1023380044F01804C0F8104BD0F8104B44F0C044D7
:10234800C0F8104B012907D1C0F8142BD0F8003B76
:1023580043F08023C0F8003B00205DF8044B704731
:102368000A30544F002800F0D78170B582B0044677
:10237800036813F0010F5AD0A04B9B6803F00C03BD
:10238800042B0AD09D4B9B6803F00C03082B0DD13E
:102398009A4B5B6813F4800F08D0984B1B6813F4B2
:1023A800003F44D06368002B41D1B7E16368B3F5BF
:1023B800803F05D1914A136843F48033136015E0D8
:1023C800B3F5A02F09D18D4B1A6842F480221A6008
:1023D8001A6842F480321A6008E0884B1A6822F4BE
:1023E80080321A601A6822F480221A6063687BB10E
:1023F80000F02CFD054605E000F028FD401B642890
:1024080000F28E817D4B1B6813F4003FF4D00EE080
:1024180000F01CFD054605E000F018FD401B64288F
:1024280000F28081754B1B6813F4003FF4D12368D8
:1024380013F0020F50D0714B9B6813F00C0F0AD0A9
:102448006E4B9B6803F00C03082B16D16B4B5B6833
:1024580013F4800F11D1694B1B6813F0020F03D0DE
:10246800E368012B40F06081644A136823F0F803A5
:10247800216943EAC10313602EE0E368D3B1012266
:102488005F4B1A6000F0E2FC054605E000F0DEFC58
:10249800401B022800F24A81584B1B6813F0020FB8
:1024A800F4D0564A136823F0F803216943EAC103BC
:1024B800136011E00022524B1A6000F0C7FC054679
:1024C80005E000F0C3FC401B022800F231814B4BB1
:1024D8001B6813F0020FF4D1236813F0080F26D0FD
:1024E800636993B10122474B1A6000F0AFFC0546BF
:1024F80005E000F0ABFC401B022800F21B813F4BBB
:102508005B6F13F0020FF4D011E000223D4B1A600C
:1025180000F09CFC054605E000F098FC401B0228F2
:1025280000F20A81354B5B6F13F0020FF4D1236878
:1025380013F0040F7DD0314B1B6C13F0805F0DD16D
:10254800002301932D4B1A6C42F080521A641B6CC5
:1025580003F080530193019B012500E000252A4BDD
:102568001B6813F4807F13D1274A136843F48073E0
:10257800136000F06BFC064605E000F067FC801B6A
:10258800022800F2DB80204B1B6813F4807FF4D014
:10259800A368012B05D1194A136F43F00103136790
:1025A80014E0052B09D1154B1A6F42F004021A6783
:1025B8001A6F42F001021A6708E0104B1A6F22F0F6
:1025C80001021A671A6F22F004021A67A3688BB116
:1025D80000F03CFC064607E000F038FC801B41F2A6
:1025E8008833984200F2AC80044B1B6F13F0020F43
:1025F800F2D018E000F02AFC06460FE0003802404E
:1026080000004742800E47420070004000F01EFC68
:10261800801B41F28833984200F29480554B1B6F1F
:1026280013F0020FF2D125B1524A136C23F08053F4
:102638001364A369002B00F087804E4A926802F069
:102648000C02082A48D0022B33D100224A4B1A60C8
:1026580000F0FCFB054604E000F0F8FB401B0228F4
:1026680074D8444B1B6813F0007FF5D1E269236AE4
:102678001343626A43EA8213A26A5208013A43EAA0
:102688000243E26A43EA02633A4A536001223A4B40
:102698001A6000F0DBFB044604E000F0D7FB001BE7
:1026A800022855D8334B1B6813F0007FF5D0002063
:1026B8005DE00022304B1A6000F0C8FB044604E0DD
:1026C80000F0C4FB001B022844D82A4B1B6813F0F7
:1026D800007FF5D100204AE0012B3DD0254B5B68F7
:1026E80003F48001E269914238D103F03F02216A84
:1026F8008A4235D1616A47F6C0721A408A4231D19E
:1027080003F44032A16A8A422ED103F07063E26A70
:1027180093422BD001202AE001207047012026E0B7
:10272800032024E0032022E0012020E003201EE013
:1027380003201CE003201AE0032018E0032016E021
:10274800032014E0032012E0002010E003200EE034
:1027580003200CE003200AE0012008E0012006E045
:10276800012004E0012002E0012000E0002002B086
:1027780070BD00BF003802406000474238B5244BA6
:102788009B6803F00C03042B3FD0082B01D0214891
:1027980038BD1F4B5A6802F03F025B6813F4800F84
:1027A8000AD01B4B5968C1F3881100231A48A1FBB2
:1027B8000001FDF71BFD1FE0154B5B68C3F3881391
:1027C800DC000025690141EAD4616001041B61EB6A
:1027D8000505A90141EA9461A001001B61EB05010F
:1027E800C01841F100018B0243EA9053840220464D
:1027F80019460023FDF7FAFC054B5B68C3F3014358
:1028080001335B00B0FBF3F038BD034838BD00BFAF
:10281800003802400024F40040787D01002800F0D0
:10282800988070B50446524B1B6803F00F038B4227
:1028380008D2CBB24E4A1370136803F00F039942C3
:1028480040F08980236813F0020F17D013F0040FAB
:1028580004D0484A936843F4E0539360236813F024
:10286800080F04D0434A936843F460439360414897
:10287800836823F0F002A368134383600D4623683E
:1028880013F0010F2FD06268012A05D1394B1B685C
:1028980013F4003F0ED160E0931E012B05D8354B91
:1028A8001B6813F0007F05D159E0324B1B6813F009
:1028B800020F56D02F498B6823F0030313438B6014
:1028C80000F0C4FA064606E000F0C0FA801B41F2A8
:1028D8008833984247D8274B9B6803F00C036268FB
:1028E800B3EB820FF0D1224B1B6803F00F039D421C
:1028F80007D2EAB21E4B1A701B6803F00F039D4201
:1029080033D1236813F0040F06D01A498B6823F4D7
:10291800E052E36813438B60236813F0080F07D075
:10292800144A936823F46043216943EAC10393601E
:10293800FFF724FF0F4B9B68C3F303130E4AD35CC6
:10294800D8400E4B18600E4B186800F033FA002080
:1029580070BD01207047012070BD012070BD0120AD
:1029680070BD012070BD032070BD012070BD00BF87
:10297800003C024000380240A050000890000020AF
:1029880088000020014B1868704700BF90000020A5
:1029980030B583B00446036813F0050F2CD000222D
:1029A800534B1A6000F052FA054605E000F04EFA63
:1029B800401B022800F291804E4B1B6813F0006FF9
:1029C800F4D16368A26843EA8213E26843EA0273B7
:1029D800484AC2F884300122454B1A6000F036FAA2
:1029E800054604E000F032FA401B022877D8414B34
:1029F8001B6813F0006FF5D0236813F0020F63D043
:102A0800002301933B4B1A6C42F080521A641B6CF2
:102A180003F080530193019B374A136843F4807392
:102A2800136000F013FA054604E000F00FFA401BAB
:102A3800022856D8304B1B6813F4807FF5D02D4BF5
:102A48001B6F13F4407322D0226902F44072934240
:102A58001DD0284B1A6F22F44072284901200860C3
:102A6800002008601A671B6F13F0010F0FD000F0E9
:102A7800EDF9054606E000F0E9F9401B41F288331C
:102A8800984230D81B4B1B6F13F0020FF3D0236909
:102A980003F44072B2F5407F0AD116498A6822F4DD
:102AA800F81223F0704323F4407313438B6004E05F
:102AB800104A936823F4F81393600E4A116F236940
:102AC800C3F30B030B431367236813F0080F0CD0F1
:102AD800227D0B4B1A60002008E0032006E003204B
:102AE80004E0032002E0032000E0002003B030BD32
:102AF800680047420038024000700040400E4742DC
:102B0800E01147422DE9F04182B00023C1E00122E3
:102B18009A400C6802EA0405AA4240F0B9804C6861
:102B2800661E012E03D9112C01D0122C15D18768ED
:102B38004FEA430E032606FA0EF627EA0606CC6885
:102B480004FA0EF434438460446824EA02024C68B0
:102B5800C4F300149C4022434260C6685F0003240B
:102B6800BC40E44306EA04028E68BE401643C660D1
:102B78004A68022A01D0122A13D1DE08083650F812
:102B8800268003F007024FEA820E0F2202FA0EF2A5
:102B980028EA020C0A6902FA0EF24CEA020240F82C
:102BA8002620066826404A6802F0030404FA07F261
:102BB800324302604A6812F0805F69D000220192B5
:102BC800374A546C44F480445464526C02F4804292
:102BD8000192019A9E08B41C324A52F8244003F02C
:102BE800030292000F27974024EA07072E4CA042C1
:102BF80011D004F58064A0420FD004F58064A0428F
:102C08000DD004F58064A0420BD004F58064A04286
:102C180009D1042408E0002406E0012404E0022489
:102C280002E0032400E0072404FA02F23A430236E1
:102C38001C4C44F826201D4A1468EA4304EA02069C
:102C48004F6817F4803F01D045EA0406174C266008
:102C5800646802EA04064F6817F4003F01D045EAA9
:102C68000406124C6660A46802EA04064F6817F46A
:102C7800801F01D045EA04060C4CA660E468224097
:102C88004E6816F4001F01D045EA0402074CE260C2
:102C980001330F2B7FF63BAF02B0BDE8F08100BFD8
:102CA800003802400038014000000240003C01406A
:102CB8000AB18161704709048161704790F8353025
:102CC800DBB2022B03D08023436501207047052324
:102CD80080F835300268136823F001031360002080
:102CE800704700BF074AD36823F4E0631B041B0C3A
:102CF800000200F4E060184340F0BF6040F4003088
:102D0800D060704700ED00E030B4164BDB68C3F3C9
:102D18000223C3F10704042C28BF04241D1D062D1B
:102D280001D9DD1E00E00025012303FA04F4013C6B
:102D38002140A940AB40013B1A400A43002808DB68
:102D48001201D2B200F1604000F5614080F8002322
:102D580005E000F00F001201D2B2034B1A5430BC48
:102D6800704700BF00ED00E014ED00E0002808DB2C
:102D7800420900F01F00012303FA00F0014B43F859
:102D88002200704700E100E00138B0F1807F0AD2EC
:102D9800064B5860F021064A82F8231000209860FC
:102DA80007221A6070470120704700BF10E000E05A
:102DB80000ED00E010B504460E4B18784FF47A7316
:102DC800B3FBF0F30C4A1068B0FBF3F0FFF7DCFF3D
:102DD80058B90F2C0BD8002221464FF0FF30FFF7CF
:102DE80093FF064B1C60002010BD012010BD012080
:102DF80010BD00BF8C00002090000020880000203B
:102E080008B50B4B1A6842F400721A601A6842F44B
:102E180080621A601A6842F480721A600320FFF711
:102E280061FF0020FFF7C6FFFDF728FD002008BD61
:102E3800003C0240034A1368034909780B441360B5
:102E4800704700BFD42B00208C000020014B18686D
:102E5800704700BFD42B002038B50446FFF7F6FFB3
:102E68000546B4F1FF3F02D0044B1B781C44FFF722
:102E7800EDFF401B8442FAD838BD00BF8C0000200B
:102E880038B504460268D36823F0A003D360FFF77F
:102E9800DDFF054605E0FFF7D9FF401BB0F57A7F57
:102EA80006D82368DB6813F0200FF4D0002038BD63
:102EB800032038BD38B50368DA6812F0400F14D122
:102EC80004464FF0FF32DA60FFF7C0FF054605E021
:102ED800FFF7BCFF401BB0F57A7F08D82368DB6892
:102EE80013F0400FF4D0002038BD002038BD032077
:102EF80038BD00BF38B500285AD00446437F13F0C8
:102F0800FF0F03D100230377FDF728FC0223637723
:102F18002368CA225A62236853225A622046FFF75E
:102F2800C9FF054630B12368FF225A62042363773C
:102F380001253EE02268936823F4E00323F0400370
:102F4800936021688868636822691A436369134338
:102F580003438B602368E2681A6122681369A168D9
:102F680043EA014313612268D36823F08003D360E6
:102F780023689B6813F0200F0AD12046FFF780FFD3
:102F880030B12368FF225A6204236377012510E0D9
:102F98002268136C23F4802313642268116CA369DC
:102FA8000B4313642368FF225A620123637700E00E
:102FB8000125284638BD00BF002302E001330A3846
:102FC800C0B20928FAD81B01DBB21843704700BF0A
:102FD800F8B5037F012B74D00D460446012303770F
:102FE80002234377BAB903689B6813F0400F01D1F5
:102FF8000023CB702878FFF7DFFF06046878FFF717
:10300800DBFF46EA0026A878FFF7D6FF3043EE78C4
:1030180040EA064610E003689B6813F0400F01D1B0
:103028000023CB702E786B781B0243EA0643AE78F8
:103038003343E87843EA00462368CA225A62236881
:1030480053225A622046FFF735FF074640B12368EE
:10305800FF225A620423637700232377012731E094
:10306800236806F07F3020F0FE40186022689368DD
:1030780023F48023936021688868EB682A691343E6
:1030880003438B602268D36823F08003D3602368EE
:103098009B6813F0200F0CD12046FFF7F1FE40B1DA
:1030A8002368FF225A6204236377002323770127CA
:1030B80008E02368FF225A620123637700232377FD
:1030C80000E002273846F8BD70B5037F012B63D0B6
:1030D80001230377022343773AB94B7813F0100F93
:1030E80003D023F010030A334B700E46044682B90E
:1030F800C878FFF761FF05047078FFF75DFF45EAC0
:103108000025B078FFF758FF2843357840EA453561
:1031180009E0CD784B781B0243EA05458B782B43B1
:10312800087843EA40352368CA225A622368532242
:103138005A622046FFF7BEFE064640B12368FF22CA
:103148005A620423637700232377012625E0236846
:1031580025F07F4020F0C00058602268D36823F033
:103168008003D36023689B6813F0200F0CD120469E
:10317800FFF786FE40B12368FF225A620423637773
:1031880000232377012608E02368FF225A620123DF
:1031980063770023237700E00226304670BD00BF26
:1031A80000283CD010B504460023836290F85130C3
:1031B80013F0FF0F04D1002380F85030FDF7FAFA1E
:1031C800022384F851302268136823F04003136007
:1031D80021686268A3681A43E3681A4323691A439B
:1031E80063691A43A36903F400731343E269134341
:1031F800226A1343A26A1A430A602168638B03F0A8
:103208000402636A13434B602268D36923F40063A2
:10321800D36100206065012384F8513010BD01207E
:10322800704700BF704700BF10B584B004460268FD
:103238005168936803F04100012806D111F0400F4E
:1032480003D0236C2046984776E013F0020F06D08F
:1032580011F0800F03D0636C204698476CE013F49C
:10326800B07F69D011F0200F66D013F0400F18D04E
:1032780094F85100C0B203280BD0606D40F00400F0
:10328800606500200090D0680090906800900098D9
:1032980007E000230193D368019393680193019B8E
:1032A8004AE013F0200F0CD0606D40F0010060651B
:1032B8000020029090680290106820F04000106092
:1032C800029A13F4807F09D0636D43F008036365A5
:1032D8000023039323689B680393039B636D5BB38D
:1032E8002268536823F0E0035360012384F85130C7
:1032F80011F0030F1DD02268536823F003035360B5
:10330800E36C4BB10D4A1A65E06CFFF7D7FC18B1B6
:10331800636D43F040036365A36C6BB1074A1A659C
:10332800A06CFFF7CBFC38B1636D43F040036365D5
:1033380002E02046FFF776FF04B010BD49330008CD
:1033480008B5806B0023C387C386FFF76BFF08BDF2
:10335800054BD3F8882042F47002C3F888204FF058
:1033680000629A60704700BF00ED00E0114B5B7A85
:1033780013F0FF0F1AD130B40E4B5D7AEDB2002472
:103388005C555D7A03EB85056860587A18440272CB
:103398005A7AD2B2501CC0B2587230320A703A23EC
:1033A8004B702F238B70CC70204601E001207047B2
:1033B80030BC7047FC01002008B50022FFF7D6FF9B
:1033C80008BD00BFC0B108B50346D0F8B80210B1B7
:1033D8000020C3F8B802D3F8CC0210B10020C3F81B
:1033E800CC0209B1C3F8B4121846012380F89C3204
:1033F8000270FDF703FC08BD0320704710B582B0CA
:103408000023ADF8063051B10446C0F8B8128B6AF3
:103418000DF106009847C4F8CC02002000E0032014
:1034280002B010BD08B5FDF743FC08BD08B5D0F8DB
:10343800B83213B11B68984708BD032008BD00BF08
:1034480008B5D0F8B8320BB15B689847002008BDC2
:1034580038B5044600F2AA25284600F035F90123BC
:10346800C4F89432B4F8B032C4F8983294F8AA1276
:1034780001F01F03012B08D013B1022B0AD00EE074
:103488002946204600F0FEFA38BD2946204600F0BD
:1034980037FB38BD2946204600F064FB38BD01F0F3
:1034A80080012046FDF728FC38BD00BF10B5044652
:1034B80019BB1346D0F89422032A2BD1D0F85C11FB
:1034C800D0F8602191420AD9891AC0F85C118A4261
:1034D80028BF0A46194600F07BFC002010BDD0F832
:1034E800B8321B6923B190F89C22032A00D198476F
:1034F800204600F075FC002010BD0A46D0F8B8320E
:103508009B694BB190F89C12032907D11146984743
:1035180030B110BD002010BD032010BD032010BD28
:10352800002010BD10B50446002943D11346D0F839
:103538009422022A36D1C269016A8A420BD9521AE8
:10354800C261194600F03CFC00231A461946204681
:10355800FDF7F2FB26E08A4213D18369994210D81D
:10356800D0F8982293420CD20022114600F028FC91
:103578000021C4F898120B460A462046FDF7DCFBEA
:1035880010E0D4F8B832DB682BB194F89C22032AF7
:1035980001D12046984780212046FDF7ADFB204603
:1035A80000F02AFC94F8A032012B10D1002084F8F6
:1035B800A00210BD0A46D0F8B8325B694BB190F84A
:1035C8009C12032907D11146984730B110BD00203D
:1035D80010BD032010BD032010BD002010BD00BF8A
:1035E80070B50446012380F89C320023C0F8943259
:1035F8004360C0F8A432D0F8BC3223B1D0F8B83256
:103608005B68002198474023002211462046FDF7B9
:1036180057FB0126A4F864614025C4F860512B4685
:10362800002280212046FDF74BFBA684256200205E
:1036380070BD00BF01740020704700BF90F89C3235
:1036480080F89D32042380F89C320020704700BF28
:1036580090F89C32042B03D190F89D3280F89C326C
:103668000020704708B590F89C32032B04D1D0F89D
:10367800B832DB6903B19847002008BD00207047C5
:10368800002070470020704708B5012380F89C325D
:10369800D0F8B83213B15B6801799847002008BDAB
:1036A8000346002002E00130C0B201331A78002A34
:1036B800F9D1704708B54B88012B03D1C0F8A43263
:1036C80000F08EFB08BD00BF0B7803704B78437089
:1036D8008B78CA7843EA022343800B794A7943EA14
:1036E800022383808B79CA7943EA0223C380704717
:1036F80010B504468021FDF7FFFA00212046FDF7AA
:10370800FBFA10BD30B583B004460D460023ADF872
:1037180006304A88130A013B062B00F2B580DFE821
:1037280003F0040D23B3B391A100D0F8B4321B68A1
:103738000DF10601007C98470023AAE0037C4BB9F1
:10374800D0F8B8329B6A0DF10600984702234370FF
:1037580000239EE0D0F8B832DB6A0DF106009847E6
:1037680002234370002394E0D2B2052A64D8DFE82C
:1037780002F0031323334353D0F8B4325B682BB100
:103788000DF10601007C9847002382E02946FFF7E7
:10379800AFFF012300207CE0D0F8B4329B682BB146
:1037A8000DF10601007C9847002372E02946FFF7D7
:1037B8009FFF012300206CE0D0F8B432DB682BB106
:1037C8000DF10601007C9847002362E02946FFF7C7
:1037D8008FFF012300205CE0D0F8B4321B692BB1C5
:1037E8000DF10601007C9847002352E02946FFF7B7
:1037F8007FFF012300204CE0D0F8B4325B692BB185
:103808000DF10601007C9847002342E02946FFF7A6
:103818006FFF012300203CE0D0F8B4329B692BB144
:103828000DF10601007C9847002332E02946FFF796
:103838005FFF012300202CE02946FFF759FF0123F1
:10384800002026E0037C3BB9D0F8B8325B6B0DF161
:103858000600984700231CE02946FFF749FF01238B
:10386800002016E0037C4BB9D0F8B8321B6B0DF181
:10387800060098470723437000230AE02946FFF70C
:1038880037FF0123002004E02946FFF731FF012319
:103898000020B3B9EA888AB1BDF806304BB19A4224
:1038A80028BF1A46ADF806200146204600F07AFAED
:1038B80007E029462046FFF71BFF02E0204600F0FC
:1038C8008FFA03B030BD00BF38B504468B88F3B912
:1038D800CB88E3B94B887F2B19D803F07F0590F884
:1038E8009C32032B02D1FFF703FF38BD80F89E52AC
:1038F8002946FDF711FA204600F072FA1DB102239D
:1039080084F89C3238BD012384F89C3238BD2046A7
:10391800FFF7EEFE38BD00BF70B504460D46897846
:10392800304B1970012904D92946FFF7E1FE03201D
:1039380070BD90F89C32022B02D0032B18D047E0C0
:1039480091B14160FFF772FD064628B1294620462D
:10395800FFF7CEFE304670BD204600F041FA032343
:1039680084F89C32304670BD00F03AFA002070BDF1
:1039780051B9022380F89C324160FFF761FD20466F
:1039880000F02EFA002070BD436899421CD0D9B2CD
:10399800FFF756FD134B197861602046FFF746FD87
:1039A800064660B129462046FFF7A2FE2179204647
:1039B800FFF746FD022384F89C32304670BD20464E
:1039C80000F00EFA304670BD00F00AFA002070BD13
:1039D8002946FFF78DFE034B19782046FFF730FD87
:1039E800032070BD0802002008B5CB88012B02D047
:1039F800FFF77EFE08BD90F89C328BB1022B02D9EE
:103A0800032B08D00CE00146002341F8083F0122AF
:103A180000F0C8F908BD0122011D00F0C3F908BD76
:103A2800FFF766FE08BD00BF08B590F89C32013B61
:103A3800022B12D8CB88022B02D0FFF759FE08BD03
:103A48000123C360D0F8A4320BB10323C360022260
:103A580000F10C0100F0A6F908BDFFF749FE08BD0A
:103A680008B590F89C32013B022B08D84B88012BF3
:103A780007D10023C0F8A43200F0B2F908BDFFF75F
:103A880037FE08BD08B50B7803F06003202B04D07F
:103A9800402B02D0002B2ED104E0D0F8B8329B681E
:103AA800984708BD4B78092B21D8DFE803F0141C90
:103AB800201820090520100DFFF724FE002008BD5E
:103AC800FFF702FF002008BDFFF726FF08BDFFF73C
:103AD8008BFF002008BDFFF7A7FF002008BDFFF7F8
:103AE800E9FD002008BDFFF7BBFF002008BDFFF778
:103AF800FFFD002008BDFFF7FBFD002008BD00BF4B
:103B080070B505460C460B7803F06003202B02D0F5
:103B1800402B00D00BBB95F89C32013B022B16D8EA
:103B28002379012B0DD8D5F8B8329B682146284651
:103B380098470646E3889BB990B9284600F050F9A3
:103B48000EE021462846FFF7D3FD002608E021466F
:103B58002846FFF7CDFD002602E0FFF7C9FD002645
:103B6800304670BD38B505460C468A880B7803F098
:103B78006003202B06D0D1B2402B03D0002B40F09D
:103B8800EE8006E0D5F8B8329B682146284698476B
:103B980038BD6378012B2FD0002B5ED0032B40F06B
:103BA800D98090F89C32022B02D0032B11D01EE052
:103BB80049B1802907D0FDF79FF880212846FDF7F5
:103BC8009BF8002038BD21462846FFF791FD0020CC
:103BD80038BD638833B929B1802903D0E3880BB98C
:103BE800FDF78AF8284600F0FBF8002038BD21468A
:103BF800FFF77EFD002038BD90F89C32022B02D0E2
:103C0800032B11D024E049B1802907D0FDF774F8BF
:103C180080212846FDF770F8002038BD2146284647
:103C2800FFF766FD002038BD6388002B40F09C80BC
:103C380011F07F0F01D0FDF767F8284600F0D0F8A3
:103C4800D5F8B8329B68214628469847002038BDE9
:103C58002146FFF74DFD002038BD90F89C32022B1D
:103C680002D0032B26D070E031B1802904D0214640
:103C7800FFF73EFD002038BD12F0800F09D001F09B
:103C88007F0101EB81018B0003F11001294404310C
:103C980008E001F07F0101EB81018B0003F5A871B9
:103CA8002944043100240C600222284600F07AF8E6
:103CB800204638BD52B2002A0DDA01F00F0303EB9B
:103CC800830398002844838CA3B921462846FFF72C
:103CD8000FFD002038BD01F00F0303EB83039800AC
:103CE8002844B0F864312BB921462846FFF700FD77
:103CF800002038BD002A09DA01F07F0202EB8202B7
:103D0800930003F110042C44043408E001F07F020E
:103D180002EB8202930003F5A8742C44043409B121
:103D2800802902D10023236008E02846FCF798FF89
:103D380010B10123236001E0002323600222214601
:103D4800284600F02FF8002038BD2146FFF7D0FCA8
:103D5800002038BD2146FFF7CBFC002038BD2146A6
:103D6800FFF7C6FC002038BD002038BDC8B170B5CB
:103D78000D4616460446FFF793FC0130400030809C
:103D8800287003236B70022307E0EA5401345A1C9D
:103D9800D2B20021A9540233DBB22278002AF4D12E
:103DA80070BD704710B513460222C0F89422836193
:103DB800C3610A460021FCF7B7FF002010BD00BF11
:103DC80008B513460A460021FCF7AEFF002008BDDF
:103DD80008B513460A460021FCF7AEFF002008BDCF
:103DE80008B50423C0F8943200231A461946FCF794
:103DF8009BFF002008BD00BF08B50523C0F894321A
:103E080000231A461946FCF797FF002008BD00BF9B
:103E18002023038000487047C0000020202303802F
:103E2800004870471801002020230380004870478D
:103E3800940000200A23038000487047B400002043
:103E480038B5044641F2740001F002F820B90023A5
:103E5800C4F8BC32022038BDC4F8BC02237C93B934
:103E68004FF40073022201212046FCF729FF0125A7
:103E7800A4F878514FF40073022281212046FCF700
:103E88001FFF25870FE04023022201212046FCF76F
:103E980017FF0125A4F878514023022281212046EA
:103EA800FCF70EFF2587204600F000F9002038BDFA
:103EB80038B504460121FCF70FFF0025A4F8785116
:103EC80081212046FCF708FF2587204600F02CF9C1
:103ED800D4F8BC0218B100F0C3FFC4F8BC520020EB
:103EE80038BD00BF70B582B005460C46D0F8BC623C
:103EF8000023ADF806300B7813F0600236D0202A84
:103F08007BD14A78FE2A02D0FF2A1AD02AE04A88B2
:103F18008AB9CA88012A0ED113F0800F0BD0D0F8C5
:103F2800C0329B6998473060012231462846FFF726
:103F380039FF002068E021462846FFF7D9FB032017
:103F480062E04A8842B9CA8832B913F0800F03D1B7
:103F580000F0D2F8002057E021462846FFF7C8FBBA
:103F6800032051E0FFF7C4FB03204DE04B780B2BF7
:103F78003FD8DFE803F0062F3E3E3E3E3E3E3E3E43
:103F8800152390F89C32032B06D102220DF106016D
:103F9800FFF708FF002037E0FFF7AAFB032033E014
:103FA80090F89C32032B05D10122311DFFF7FAFE50
:103FB800002029E0FFF79CFB032025E090F89C32C5
:103FC800032B03D18B78736000201DE0FFF790FB73
:103FD800032019E090F89C32032B12D14B8893B937
:103FE8000979FCF781FE2179284600F05FF9002065
:103FF8000AE0FFF77DFB032006E0FFF779FB0320CB
:1040080002E0002000E0002002B070BD08B500F01A
:10401800AFF8002008BD00BF08B500F02BF900205C
:1040280008BD00BF19B1C0F8C012002070470320B6
:10403800704700BF70B5D0F8BC4241F21803E3588E
:1040480041F23806A559AD1AA551002641F23C05A2
:10405800665504252572934228BF13460A468121D6
:10406800FCF762FE70BD00BF38B50546D0F8BC420B
:1040780041F21C03E35C43B941F21803E35823B14E
:10408800637A13B90121FCF737FE81212846FCF732
:1040980033FE637A022B07D181212846FCF72CFED8
:1040A80001212846FCF728FE38BD00BF38B5054673
:1040B800D0F8BC4200202072607241F26103E054E3
:1040C80004F58353187041F26203E054D5F8C03206
:1040D8001B68984701212846FCF706FE81212846DF
:1040E800FCF702FE1F2304F58052103201212846F6
:1040F800FCF722FE38BD00BF70B50446D0F8BC629C
:1041080000233372012575728121FCF7FDFD2946D4
:104118002046FCF7F9FD1F2306F580521032294688
:104128002046FCF709FE70BDD0F8BC3200221A7296
:10413800704700BF38B50546D0F8BC4241F230029E
:104148000A4BA35041F23C03E154002323720D2390
:1041580022448121FCF7E8FD1F2304F58052103228
:1041680001212846FCF7E8FD38BD00BF55534253EE
:1041780010B50446D0F8BC120B7A022B03D014D326
:10418800042B0FD910BD01F580521F3241F21D03D7
:10419800C95C00F0ADFD002807DA01212046FFF7D1
:1041A800C9FF10BD0021FFF7C5FF10BD38B5054692
:1041B800D0F8BC4241F21403E25841F23403E25011
:1041C80041F21803E25841F23803E2500121FCF7AA
:1041D8005FFD1F2814D141F21003E25803F1432375
:1041E80003F5840345339A420AD141F21D03E15C89
:1041F800012905D841F21E03E35C0BB1102B0DD940
:104208002023052241F21D01615C284600F0A4F834
:10421800022363722846FFF727FF38BD04F5805252
:104228001F32284600F064FD00280BDA237A052B9C
:1042380004D101212846FFF77DFF38BD2846FFF746
:1042480013FF38BD237A013BDBB2022B10D9E26899
:104258002AB104F110012846FFF7ECFE38BD22B957
:1042680000212846FFF766FF38BD2846FFF7FCFE09
:1042780038BD00BF10B50446D0F8BC321A7A12B166
:10428800012A03D010BDFFF791FF10BD03F580523E
:104298001F3241F21D01595C00F02AFD002803DAA3
:1042A80001212046FFF746FF10BD00BF10B50446A8
:1042B800D0F8BC325B7A022B07D18121FCF71CFDB8
:1042C80001212046FCF718FD10BD11F0800F04D025
:1042D800012B02D00121FFF72DFF10BDD0F8BC3211
:1042E800127922B9002141F26202995403E00121B6
:1042F80041F2620299540020D860704710B4C2603D
:1043080004E0013A92B28C5C83181C74002AF8D13C
:1043180000205DF8044B704708B5D0F8BC0212794C
:10432800172A01D892B200E017220249FFF7E6FFE8
:10433800002008BD4001002008B5D0F8BC02127A60
:104348001B2A01D892B200E01B220249FFF7D6FFD0
:10435800002008BD6001002030B4D0F8BC4241F212
:104368006105615D01F5027004F8302004EBC000BE
:104378000371002343710131C9B26155042901D188
:104388001A46625530BC704770B50546D0F8BC4235
:1043980041F21803E3584BB12023052241F21D01D5
:1043A800615CFFF7D9FF4FF0FF3322E00E4641F280
:1043B8006203E35C022B08D13A230222FFF7CCFF09
:1043C800052323724FF0FF3313E0D0F8C0329B6807
:1043D80008469847034650B13A23022231462846F8
:1043E800FFF7BAFF052323724FF0FF3301E00022E5
:1043F800E260184670BD00BF10B5D0F8BC4241F26B
:104408001803E3587BB92023052241F21D01615CA2
:10441800FFF7A2FF4FF0FF3010BDE118002008742D
:104428000133DBB200E00023112BF6D9702323748B
:104438000C23E37504F583531B7841F26101615C39
:104448008B4214D003F5027114F83100A07404EB08
:10445800C10108792077497961770133DBB204F526
:1044680083510B70042B02D10B46002119701223C3
:10447800E3601379122B02D8E360002010BD0020FE
:1044880010BD00BF10B5D0F8BC4241F21803E35884
:104498004BB92023052241F21D01615CFFF75CFF47
:1044A8004FF0FF3010BD537813F0010F1BD09378F5
:1044B80033B9062215492046FFF720FF002010BD1A
:1044C800802B06D1082212492046FFF717FF00204B
:1044D80010BD2423052241F21D01615CFFF73CFF5A
:1044E8004FF0FF3010BDD0F8C032D86901EBC101E0
:1044F8008B00C1180B7905331279934200D21A4602
:104508002046FFF7FBFE002010BD00BF3801002049
:104518005801002010B5D0F8BC4241F26203E35CB8
:10452800012B0BD1137903F00303022B06D12423AB
:104538000522FFF711FF4FF0FF3010BD137903F08C
:104548000303012B04D1002241F26203E2540CE080
:10455800022B04D1022241F26203E25405E0032B4C
:1045680003D1002241F26203E2540020E06010BD52
:1045780070B582B005460E46D0F8BC42D0F8C032BD
:104588005B680DF1060269463046984720B941F24A
:104598006203E35C022B0ED13A23022231462846FD
:1045A800FFF7DAFE4FF0FF3022E0E2180021117425
:1045B80001339BB200E000230B2BF6D90823E374E8
:1045C800009A531E190E2175C3F307416175C3F391
:1045D8000723A375013AE27502232376BDF8063056
:1045E800002262761A0AA276E3760C23E3600020A2
:1045F80002B070BD70B505460E46D0F8BC42D0F882
:10460800C0325B6804F58352043204F583510831E3
:104618003046984720B941F26203E35C022B08D187
:104628003A23022231462846FFF796FE4FF0FF3024
:1046380070BD41F26803E258531E190E2174C3F38A
:1046480007416174C3F30723A374013AE27441F28A
:104658006403E35A0022227562751A0AA275E3758B
:104668000823E360002070BDF8B506460F461546DE
:10467800D0F8BC42D0F8C0325B6804F583520432EB
:1046880004F5835108313846984720B941F262034E
:10469800E35C022B08D13A23022239463046FFF761
:1046A8005BFE4FF0FF30F8BDA87AEB7A1B0443EAB3
:1046B8000063287B43EA00206B7B1843E0600023FB
:1046C80004E0E218002111740133DBB29842F8D8F3
:1046D80041F26803E258531E190E2175C3F30741CE
:1046E8006175C3F30723A375013AE27541F26403C8
:1046F800E35A0022227662761A0AA276E376AA7A2A
:10470800EB7A1B0443EA02632A7B43EA02236A7BAF
:104718001343E3600020F8BD10B5D0F8BC42134441
:1047280041F26802A458A34206D921230522FFF7C3
:1047380013FE4FF0FF3010BD002010BD2DE9F843E7
:1047480006468946D0F8BC4241F27003E55841F26A
:104758006403E35A03FB05F5B5F5805F28BF4FF402
:104768008055D0F8C022176904F11008B5FBF3F39F
:104778009BB241F26C02A25841464846B84700280D
:1047880009DA1123042249463046FFF7E5FD4FF0C8
:10479800FF30BDE8F8832B46424681213046FCF7BE
:1047A800C3FA41F26403E35AB5FBF3F241F26C0138
:1047B80063581344635041F2700163589B1A635065
:1047C80041F238016258551B655023B903232372FF
:1047D8000020BDE8F8830020BDE8F883F8B5064658
:1047E8000F46D0F8BC42237A002B5ED1154641F221
:1047F8001C03E356002B09DB2023052241F21D018F
:10480800615CFFF7A9FD4FF0FF30F8BD41F262038C
:10481800E35C022B06D13A230222FFF79DFD4FF0FD
:10482800FF30F8BDD0F8C0329B680846984740B1C1
:104838003A23022239463046FFF78EFD4FF0FF300B
:10484800F8BDAA78EB781B0443EA02632A7943EAA5
:1048580002236A791A4341F26C03E250E9792B7A10
:1048680043EA012341F27001635039463046FFF7AD
:1048780053FF002821DB41F21803E25841F270038C
:10488800E35841F26401615A03FB01F39A420AD0EA
:104898002023052241F21D01615C3046FFF75CFDD3
:1048A8004FF0FF30F8BD022323724FF48053E360CA
:1048B80039463046FFF742FFF8BD4FF0FF30F8BDEC
:1048C800F8B506460F46D0F8BC42237A002B64D1CF
:1048D800154641F21C03E356002B09DB2023052271
:1048E80041F21D01615CFFF737FD4FF0FF30F8BD65
:1048F80041F26203E35C022B06D13A230222FFF75E
:104908002BFD4FF0FF30F8BDD0F8C0329B68084649
:10491800984740B13A23022239463046FFF71CFD3A
:104928004FF0FF30F8BDAA78EB781B0443EA026326
:104938002A7943EA02236A791A4341F26C03E25066
:10494800A979EB791B0443EA0163297A43EA012335
:10495800697A0B4341F27001635039463046FFF7DC
:10496800DBFE002821DB41F21803E25841F2700314
:10497800E35841F26401615A03FB01F39A420AD0F9
:104988002023052241F21D01615C3046FFF7E4FC5B
:104998004FF0FF30F8BD022323724FF48053E360D9
:1049A80039463046FFF7CAFEF8BD4FF0FF30F8BD74
:1049B8002DE9F84306468846D0F8BC4241F2700318
:1049C800E55841F26403E35A03FB05F5B5F5805F4A
:1049D80028BF4FF48055D0F8C022D2F8149004F1C3
:1049E8001007B5FBF3F39BB241F26C02A2583946AB
:1049F8004046C847002809DA0323042241463046C6
:104A0800FFF7AAFC4FF0FF30BDE8F88341F26403DA
:104A180034F803E0B5FBFEF041F26C03E2580244BF
:104A2800E25041F270016258131A635041F23801A2
:104A38006258551B655033B900213046FFF77AFBA1
:104A48000020BDE8F88303FB0EF3B3F5805F28BFB1
:104A58004FF480533A4601213046FCF76DF90020A7
:104A6800BDE8F8832DE9F04105460F46D0F8BC4271
:104A7800237A002B7BD1164641F21803E3584BB931
:104A88002023052241F21D01615CFFF765FC4FF010
:104A9800FF3872E041F21C03E356002B09DA2023A9
:104AA800052241F21D01615CFFF756FC4FF0FF380B
:104AB80063E0D0F8C0329B680846984740B13A2373
:104AC800022239462846FFF747FC4FF0FF3854E0EA
:104AD800D5F8C032DB6838469847804640B127236E
:104AE800022239462846FFF737FC4FF0FF3844E0EA
:104AF800B278F3781B0443EA0263327943EA02236B
:104B080072791A4341F26C03E250F179337A43EA3D
:104B1800012341F27001635039462846FFF7FCFD36
:104B2800002828DB41F27003E25841F26403E35A9B
:104B380003FB02F341F21802A25893420AD0202341
:104B4800052241F21D01615C2846FFF705FC4FF084
:104B5800FF3812E001212172B3F5805F28BF4FF4BE
:104B6800805304F110022846FCF7E6F805E0FFF749
:104B78001FFF804601E04FF0FF384046BDE8F08156
:104B88002DE9F04106460F46D0F8BC42237A002BA7
:104B980040F08680154641F21803E3584BB92023AC
:104BA800052241F21D01615CFFF7D6FB4FF0FF388B
:104BB8007CE041F21C03E356002B09DA202305228E
:104BC80041F21D01615CFFF7C7FB4FF0FF386DE054
:104BD800D0F8C0329B680846984750B13A23022261
:104BE80039463046FFF7B8FB052323724FF0FF38EC
:104BF8005CE0D6F8C032DB6838469847804650B14A
:104C08002723022239463046FFF7A6FB05232372E5
:104C18004FF0FF384AE0AA78EB781B0443EA0263B6
:104C28002A7943EA02236A791A4341F26C03E25073
:104C3800A979EB791B0443EA0163297A43EA012342
:104C4800697A0B4341F27001635039463046FFF7E9
:104C580063FD002828DB41F27003E25841F2640347
:104C6800E35A03FB02F341F21802A25893420AD016
:104C78002023052241F21D01615C3046FFF76CFBE1
:104C88004FF0FF3812E001212172B3F5805F28BF91
:104C98004FF4805304F110023046FCF74DF805E05C
:104CA800FFF786FE804601E04FF0FF384046BDE83A
:104CB800F08100BF10B5D0F8BC42537813F0020F52
:104CC80006D024230522FFF747FB4FF0FF3010BD25
:104CD80041F27003E35841F26C02A258FFF71CFD41
:104CE800002802DB0020E06010BD4FF0FF3010BD4F
:104CF80010B5D0F8BC421378252B3AD010D81A2B0F
:104D08002ED006D8032B1FD0122B20D0002B45D134
:104D180017E01E2B21D0232B28D01B2B3ED119E0C6
:104D28005A2B20D006D82A2B2FD02F2B33D0282B24
:104D380034D124E0A82B25D0AA2B29D09E2B2DD105
:104D48001AE0FFF721FB10BDFFF756FB10BDFFF778
:104D580099FB10BDFFF7DEFB10BDFFF7BFFA10BDD2
:104D6800FFF7DAFA10BDFFF7E7FA10BDFFF700FC0E
:104D780010BDFFF73FFC10BDFFF776FC10BDFFF735
:104D88002DFD10BDFFF79CFD10BDFFF76BFE10BD9C
:104D9800FFF7F6FE10BDFFF78DFF10BD202305229B
:104DA800FFF7DAFA022363724FF0FF3010BD00BF3D
:104DB800DFF834D0002103E00C4B5B58435004313A
:104DC8000B480C4B42189A42F6D30B4A02E00023D8
:104DD80042F8043B094B9A42F9D3FEF7B9FA00F0BE
:104DE80011F8FBF7F7FB704700000220C0500008DD
:104DF80000000020E0010020E0010020DC2B002062
:104E0800FEE7000070B50E4B0E4CE41AA410002506
:104E18001E46A54204D056F8253098470135F8E7D4
:104E280000F0FAF8084C094BE41AA41000251E46B5
:104E3800A54204D056F8253098470135F8E770BDEB
:104E4800B8500008B8500008BC500008B850000816
:104E5800024B0146186800F061B800BFDC01002071
:104E6800024B0146186800F00BB800BFDC010020B7
:104E780002440346934202D003F8011BFAE7704745
:104E880038B50546002946D051F8043C0C1F002BC4
:104E9800B8BFE41800F0B0F81F4A1368114613B9F8
:104EA8006360146032E0A3420ED92268A0188342DE
:104EB80004BF18685B68636004BF121822600C6046
:104EC80024E0A24203D813465A68002AF9D1186888
:104ED8001918A1420BD1216801445818824219605F
:104EE80014D1106852685A60014419600EE002D962
:104EF8000C232B600AE021686018824204BF106806
:104F08005268626004BF091821605C602846BDE8E9
:104F1800384000F072B838BD1002002070B5CD1CC2
:104F280025F0030508350C2D38BF0C25002D064645
:104F380001DBA94202D90C23336046E000F05CF89B
:104F4800234B1C681A462146A1B10B685B1B0ED483
:104F58000B2B03D90B60CC18CD501EE08C420DBF33
:104F680063684B686360136018BF0C4615E00C4615
:104F78004968E9E7174C23681BB9304600F02CF85C
:104F880020602946304600F027F8431C18D0C41C7E
:104F980024F00304A0420DD12560304600F02DF81E
:104FA80004F10B00231D20F00700C31A0ED05A424B
:104FB800E25070BD211A304600F00EF80130EBD1F6
:104FC8000C233360304600F018F8002070BD00BF95
:104FD800100200200C02002038B5064C00230546BC
:104FE8000846236000F00AF8431C02D1236803B185
:104FF8002B6038BDD82B002070477047044A0549FC
:105008001368002B08BF0B461844106018467047F9
:1050180014020020E02B0020F8B500BFF8BC08BC43
:105028009E467047F8B500BFF8BC08BC9E4670475E
:1050380053544D3332204D6173732053746F726132
:105048006765000053544D6963726F656C656374DE
:10505800726F6E69637300004D534320436F6E6631
:10506800696700004D534320496E74657266616339
:1050780065000000008002021F00000053544D200C
:105088002020202050726F64756374202020202017
:1050980020202020302E30310000000000000000C9
:0850A8000102030406070809D8
:0850B00074B1FF7F0100000054
:0450B800BD0100082E
:0450BC00990100084E
:1050C000CD080008DD080008ED080008F108000818
:1050D000F508000801000000610900086D090008DA
:1050E000190A0008F5090008E1090008350A000856
:1050F000590A0008040309041A0300000000000014
:10510000000000000000000000000000000000009F
:1051100000000000120100020000004083042A5732
:1051200000020102030100007D0A0008810A000854
:10513000910A0008950A0008990A00089D0A0008CB
:10514000A10A00087C5000081000000001000000C7
:105150000024F40009072000010104C03209040002
:1051600000020806500507058102400000070501FE
:10517000024000000A06000200000040010000009A
:1051800009022000010104C03209040000020806DF
:105190005005070581020002000705010200020018
:1051A000493E0008B93E0008ED3E0008000000003E
:1051B0000000000015400008214000080000000029
:1051C0000000000000000000193E0008253E000815
:1051D000313E00083D3E000809022000010104C0E4
:1051E000320904000002080650050705810240004C
:1051F00000070501024000000000000200800000DE
:105200002200000008120000000000000000000062
:105210000000000000000000008000082020202086
:10522000002600000000000008120000000000003E
:10523000000000000000000000000000000000006E
:10524000000000000000000000000000000000005E
:10525000000000000000000000000000000000004E
:10526000000000000000000000000000000000003E
:10527000000000000000000000000000000000002E
:10528000000000000000000000000000000000001E
:105290000000000000000000000000007C01002071
:0400000508004DB9E9
:00000001FF
